{
  "transactions": [
    {
      "hash": "0xb6bd5d7bad1f25cb4e3b9241feee06f924f6ebce8a6e09444544a7dd77462e9f",
      "transactionType": "CALL",
      "contractName": null,
      "contractAddress": "0x10a7ee546c3108a4f97ba95ed685ee17078cc2fe",
      "function": "setMinWithdrawal(uint256)",
      "arguments": [
        "0"
      ],
      "transaction": {
        "from": "0x1b395389386f3f2a27866dad8f7ddbb31c392e66",
        "to": "0x10a7ee546c3108a4f97ba95ed685ee17078cc2fe",
        "gas": "0x8646",
        "value": "0x0",
        "input": "0xb070e4330000000000000000000000000000000000000000000000000000000000000000",
        "nonce": "0x191",
        "chainId": "0x89"
      },
      "additionalContracts": [],
      "isFixedGasLimit": false
    },
    {
      "hash": "0xda8c4cb1dc4bf52efb8bfd70dced927597db01137753e6d6d762c393d5421a78",
      "transactionType": "CALL",
      "contractName": null,
      "contractAddress": "0x6d61af3907e64537973b1066cae91d78072dc80e",
      "function": "removeLiquidity(address,address)",
      "arguments": [
        "0x10A7Ee546C3108a4F97Ba95ed685eE17078Cc2fE",
        "0xc2132D05D31c914a87C6611C10748AEb04B58e8F"
      ],
      "transaction": {
        "from": "0x1b395389386f3f2a27866dad8f7ddbb31c392e66",
        "to": "0x6d61af3907e64537973b1066cae91d78072dc80e",
        "gas": "0x404a5",
        "value": "0x0",
        "input": "0x9cf38f7c00000000000000000000000010a7ee546c3108a4f97ba95ed685ee17078cc2fe000000000000000000000000c2132d05d31c914a87c6611c10748aeb04b58e8f",
        "nonce": "0x192",
        "chainId": "0x89"
      },
      "additionalContracts": [],
      "isFixedGasLimit": false
    },
    {
      "hash": "0x4ee0a258f94a5e7454b28ba678af8a9ebdac4b0e5998f82ef05f3dcfa340627d",
      "transactionType": "CALL",
      "contractName": null,
      "contractAddress": "0x6d61af3907e64537973b1066cae91d78072dc80e",
      "function": "withdrawAllERC20(address)",
      "arguments": [
        "0xc2132D05D31c914a87C6611C10748AEb04B58e8F"
      ],
      "transaction": {
        "from": "0x1b395389386f3f2a27866dad8f7ddbb31c392e66",
        "to": "0x6d61af3907e64537973b1066cae91d78072dc80e",
        "gas": "0xe580",
        "value": "0x0",
        "input": "0x857abbd4000000000000000000000000c2132d05d31c914a87c6611c10748aeb04b58e8f",
        "nonce": "0x193",
        "chainId": "0x89"
      },
      "additionalContracts": [],
      "isFixedGasLimit": false
    },
    {
      "hash": "0x3b5fcdf7e09482a0454909621034f6a7008c213895f2d46bd627ce7a1f2a2430",
      "transactionType": "CALL",
      "contractName": null,
      "contractAddress": "0x6d61af3907e64537973b1066cae91d78072dc80e",
      "function": "withdrawAllERC20(address)",
      "arguments": [
        "0x10A7Ee546C3108a4F97Ba95ed685eE17078Cc2fE"
      ],
      "transaction": {
        "from": "0x1b395389386f3f2a27866dad8f7ddbb31c392e66",
        "to": "0x6d61af3907e64537973b1066cae91d78072dc80e",
        "gas": "0xd933",
        "value": "0x0",
        "input": "0x857abbd400000000000000000000000010a7ee546c3108a4f97ba95ed685ee17078cc2fe",
        "nonce": "0x194",
        "chainId": "0x89"
      },
      "additionalContracts": [],
      "isFixedGasLimit": false
    }
  ],
  "receipts": [
    {
      "status": "0x1",
      "cumulativeGasUsed": "0x4a923f",
      "logs": [
        {
          "address": "0x10a7ee546c3108a4f97ba95ed685ee17078cc2fe",
          "topics": [
            "0xd083a8aaec22fd5c06dfb61243244a5c296eb8770219c1880d12290f07691590"
          ],
          "data": "0x0000000000000000000000000000000000000000000000000000000000000000",
          "blockHash": "0x29a57d8d045b043f94aa76e643e82171f48014b1246adfa3aefcce8e996ed468",
          "blockNumber": "0x38cc088",
          "transactionHash": "0xb6bd5d7bad1f25cb4e3b9241feee06f924f6ebce8a6e09444544a7dd77462e9f",
          "transactionIndex": "0x2e",
          "logIndex": "0x89",
          "removed": false
        },
        {
          "address": "0x0000000000000000000000000000000000001010",
          "topics": [
            "0x4dfe1bbbcf077ddc3e01291eea2d5c70c2b422b415d95645b9adcfd678cb1d63",
            "0x0000000000000000000000000000000000000000000000000000000000001010",
            "0x0000000000000000000000001b395389386f3f2a27866dad8f7ddbb31c392e66",
            "0x000000000000000000000000a8b52f02108aa5f4b675bdcc973760022d7c6020"
          ],
          "data": "0x0000000000000000000000000000000000000000000000000002b75f264e25ff0000000000000000000000000000000000000000000000007401d131f455668f0000000000000000000000000000000000000000000000220f928b13675984b000000000000000000000000000000000000000000000000073ff19d2ce0740900000000000000000000000000000000000000000000000220f9542728da7aaaf",
          "blockHash": "0x29a57d8d045b043f94aa76e643e82171f48014b1246adfa3aefcce8e996ed468",
          "blockNumber": "0x38cc088",
          "transactionHash": "0xb6bd5d7bad1f25cb4e3b9241feee06f924f6ebce8a6e09444544a7dd77462e9f",
          "transactionIndex": "0x2e",
          "logIndex": "0x8a",
          "removed": false
        }
      ],
      "logsBloom": "0x00000000000000000000000000000000000000000000000000000000000000000000000000000000000000000002000000008000000000000000000002000000000000000000000000080000000000800004000000000000000100000000000000000000000002000000000000800000000000000000000080000000000000008000000000000000000000000000000000000000000000040000000000080000200000000000004000000000000000000000000000000000000000000000004000000000000000000001000000000000000000000000000000100000002000000000000000000000000000400000000000000000000000000000000000100000",
      "type": "0x2",
      "transactionHash": "0xb6bd5d7bad1f25cb4e3b9241feee06f924f6ebce8a6e09444544a7dd77462e9f",
      "transactionIndex": "0x2e",
      "blockHash": "0x29a57d8d045b043f94aa76e643e82171f48014b1246adfa3aefcce8e996ed468",
      "blockNumber": "0x38cc088",
      "gasUsed": "0x6137",
      "effectiveGasPrice": "0xa66523c66",
      "from": "0x1b395389386f3f2a27866dad8f7ddbb31c392e66",
      "to": "0x10a7ee546c3108a4f97ba95ed685ee17078cc2fe",
      "contractAddress": null
    },
    {
      "status": "0x1",
      "cumulativeGasUsed": "0x4d5198",
      "logs": [
        {
          "address": "0x91d26f6890b01629f72547f8365e90aa8ba1eee4",
          "topics": [
            "0x8c5be1e5ebec7d5bd14f71427d1e84f3dd0314c0f7b2291e5b200ac8c7c3b925",
            "0x0000000000000000000000006d61af3907e64537973b1066cae91d78072dc80e",
            "0x000000000000000000000000a5e0829caced8ffdd4de3c43696c57f7d7a678ff"
          ],
          "data": "0x0000000000000000000000000000000000000000000000000000000165a0bc00",
          "blockHash": "0x29a57d8d045b043f94aa76e643e82171f48014b1246adfa3aefcce8e996ed468",
          "blockNumber": "0x38cc088",
          "transactionHash": "0xda8c4cb1dc4bf52efb8bfd70dced927597db01137753e6d6d762c393d5421a78",
          "transactionIndex": "0x2f",
          "logIndex": "0x8b",
          "removed": false
        },
        {
          "address": "0x91d26f6890b01629f72547f8365e90aa8ba1eee4",
          "topics": [
            "0xddf252ad1be2c89b69c2b068fc378daa952ba7f163c4a11628f55a4df523b3ef",
            "0x0000000000000000000000006d61af3907e64537973b1066cae91d78072dc80e",
            "0x00000000000000000000000091d26f6890b01629f72547f8365e90aa8ba1eee4"
          ],
          "data": "0x0000000000000000000000000000000000000000000000000000000165a0bc00",
          "blockHash": "0x29a57d8d045b043f94aa76e643e82171f48014b1246adfa3aefcce8e996ed468",
          "blockNumber": "0x38cc088",
          "transactionHash": "0xda8c4cb1dc4bf52efb8bfd70dced927597db01137753e6d6d762c393d5421a78",
          "transactionIndex": "0x2f",
          "logIndex": "0x8c",
          "removed": false
        },
        {
          "address": "0x91d26f6890b01629f72547f8365e90aa8ba1eee4",
          "topics": [
            "0xddf252ad1be2c89b69c2b068fc378daa952ba7f163c4a11628f55a4df523b3ef",
            "0x0000000000000000000000000000000000000000000000000000000000000000",
            "0x000000000000000000000000bc88c6edc57562e03a7d2e1c56ce707bbb462668"
          ],
          "data": "0x000000000000000000000000000000000000000000000000000000000032dbc7",
          "blockHash": "0x29a57d8d045b043f94aa76e643e82171f48014b1246adfa3aefcce8e996ed468",
          "blockNumber": "0x38cc088",
          "transactionHash": "0xda8c4cb1dc4bf52efb8bfd70dced927597db01137753e6d6d762c393d5421a78",
          "transactionIndex": "0x2f",
          "logIndex": "0x8d",
          "removed": false
        },
        {
          "address": "0x91d26f6890b01629f72547f8365e90aa8ba1eee4",
          "topics": [
            "0xddf252ad1be2c89b69c2b068fc378daa952ba7f163c4a11628f55a4df523b3ef",
            "0x00000000000000000000000091d26f6890b01629f72547f8365e90aa8ba1eee4",
            "0x0000000000000000000000000000000000000000000000000000000000000000"
          ],
          "data": "0x0000000000000000000000000000000000000000000000000000000165a0bc00",
          "blockHash": "0x29a57d8d045b043f94aa76e643e82171f48014b1246adfa3aefcce8e996ed468",
          "blockNumber": "0x38cc088",
          "transactionHash": "0xda8c4cb1dc4bf52efb8bfd70dced927597db01137753e6d6d762c393d5421a78",
          "transactionIndex": "0x2f",
          "logIndex": "0x8e",
          "removed": false
        },
        {
          "address": "0x10a7ee546c3108a4f97ba95ed685ee17078cc2fe",
          "topics": [
            "0xddf252ad1be2c89b69c2b068fc378daa952ba7f163c4a11628f55a4df523b3ef",
            "0x00000000000000000000000091d26f6890b01629f72547f8365e90aa8ba1eee4",
            "0x0000000000000000000000006d61af3907e64537973b1066cae91d78072dc80e"
          ],
          "data": "0x00000000000000000000000000000000000000000000000002a1aae003d3e070",
          "blockHash": "0x29a57d8d045b043f94aa76e643e82171f48014b1246adfa3aefcce8e996ed468",
          "blockNumber": "0x38cc088",
          "transactionHash": "0xda8c4cb1dc4bf52efb8bfd70dced927597db01137753e6d6d762c393d5421a78",
          "transactionIndex": "0x2f",
          "logIndex": "0x8f",
          "removed": false
        },
        {
          "address": "0xc2132d05d31c914a87c6611c10748aeb04b58e8f",
          "topics": [
            "0xddf252ad1be2c89b69c2b068fc378daa952ba7f163c4a11628f55a4df523b3ef",
            "0x00000000000000000000000091d26f6890b01629f72547f8365e90aa8ba1eee4",
            "0x0000000000000000000000006d61af3907e64537973b1066cae91d78072dc80e"
          ],
          "data": "0x000000000000000000000000000000000000000000000000000000000002e9bf",
          "blockHash": "0x29a57d8d045b043f94aa76e643e82171f48014b1246adfa3aefcce8e996ed468",
          "blockNumber": "0x38cc088",
          "transactionHash": "0xda8c4cb1dc4bf52efb8bfd70dced927597db01137753e6d6d762c393d5421a78",
          "transactionIndex": "0x2f",
          "logIndex": "0x90",
          "removed": false
        },
        {
          "address": "0x91d26f6890b01629f72547f8365e90aa8ba1eee4",
          "topics": [
            "0x1c411e9a96e071241c2f21f7726b17ae89e3cab4c78be50e062b03a9fffbbad1"
          ],
          "data": "0x00000000000000000000000000000000000000000000000000005fd4da803a44000000000000000000000000000000000000000000000000000000000000006b",
          "blockHash": "0x29a57d8d045b043f94aa76e643e82171f48014b1246adfa3aefcce8e996ed468",
          "blockNumber": "0x38cc088",
          "transactionHash": "0xda8c4cb1dc4bf52efb8bfd70dced927597db01137753e6d6d762c393d5421a78",
          "transactionIndex": "0x2f",
          "logIndex": "0x91",
          "removed": false
        },
        {
          "address": "0x91d26f6890b01629f72547f8365e90aa8ba1eee4",
          "topics": [
            "0xdccd412f0b1252819cb1fd330b93224ca42612892bb3f4f789976e6d81936496",
            "0x000000000000000000000000a5e0829caced8ffdd4de3c43696c57f7d7a678ff",
            "0x0000000000000000000000006d61af3907e64537973b1066cae91d78072dc80e"
          ],
          "data": "0x00000000000000000000000000000000000000000000000002a1aae003d3e070000000000000000000000000000000000000000000000000000000000002e9bf",
          "blockHash": "0x29a57d8d045b043f94aa76e643e82171f48014b1246adfa3aefcce8e996ed468",
          "blockNumber": "0x38cc088",
          "transactionHash": "0xda8c4cb1dc4bf52efb8bfd70dced927597db01137753e6d6d762c393d5421a78",
          "transactionIndex": "0x2f",
          "logIndex": "0x92",
          "removed": false
        },
        {
          "address": "0x0000000000000000000000000000000000001010",
          "topics": [
            "0x4dfe1bbbcf077ddc3e01291eea2d5c70c2b422b415d95645b9adcfd678cb1d63",
            "0x0000000000000000000000000000000000000000000000000000000000001010",
            "0x0000000000000000000000001b395389386f3f2a27866dad8f7ddbb31c392e66",
            "0x000000000000000000000000a8b52f02108aa5f4b675bdcc973760022d7c6020"
          ],
          "data": "0x0000000000000000000000000000000000000000000000000013a7006cad0e1100000000000000000000000000000000000000000000000073fdde30cfc7c6a50000000000000000000000000000000000000000000000220f9542728da7aaaf00000000000000000000000000000000000000000000000073ea3730631ab8940000000000000000000000000000000000000000000000220fa8e972fa54b8c0",
          "blockHash": "0x29a57d8d045b043f94aa76e643e82171f48014b1246adfa3aefcce8e996ed468",
          "blockNumber": "0x38cc088",
          "transactionHash": "0xda8c4cb1dc4bf52efb8bfd70dced927597db01137753e6d6d762c393d5421a78",
          "transactionIndex": "0x2f",
          "logIndex": "0x93",
          "removed": false
        }
      ],
      "logsBloom": "0x000000040000000000000000800000000000000000000000020000000000000000000000000000000000000000020001000088000000000000000000022000000000000000000000000800080000008000040000000000000001000000000000000000060200820000008000048008400000000000000000800000100100008000000100000800000000000000000800000000000000000c0000000000000000220200000000004000000000000000000000000000000008000000000080004000000002000000000001000000000000400000000000001000100000000020000010000000000000000000400000000000000000000000000000000000100000",
      "type": "0x2",
      "transactionHash": "0xda8c4cb1dc4bf52efb8bfd70dced927597db01137753e6d6d762c393d5421a78",
      "transactionIndex": "0x2f",
      "blockHash": "0x29a57d8d045b043f94aa76e643e82171f48014b1246adfa3aefcce8e996ed468",
      "blockNumber": "0x38cc088",
      "gasUsed": "0x2bf59",
      "effectiveGasPrice": "0xa66523c66",
      "from": "0x1b395389386f3f2a27866dad8f7ddbb31c392e66",
      "to": "0x6d61af3907e64537973b1066cae91d78072dc80e",
      "contractAddress": null
    },
    {
      "status": "0x1",
      "cumulativeGasUsed": "0x4df7c0",
      "logs": [
        {
          "address": "0xc2132d05d31c914a87c6611c10748aeb04b58e8f",
          "topics": [
            "0xddf252ad1be2c89b69c2b068fc378daa952ba7f163c4a11628f55a4df523b3ef",
            "0x0000000000000000000000006d61af3907e64537973b1066cae91d78072dc80e",
            "0x0000000000000000000000001b395389386f3f2a27866dad8f7ddbb31c392e66"
          ],
          "data": "0x00000000000000000000000000000000000000000000000000000000005f1c80",
          "blockHash": "0x29a57d8d045b043f94aa76e643e82171f48014b1246adfa3aefcce8e996ed468",
          "blockNumber": "0x38cc088",
          "transactionHash": "0x4ee0a258f94a5e7454b28ba678af8a9ebdac4b0e5998f82ef05f3dcfa340627d",
          "transactionIndex": "0x30",
          "logIndex": "0x94",
          "removed": false
        },
        {
          "address": "0x0000000000000000000000000000000000001010",
          "topics": [
            "0x4dfe1bbbcf077ddc3e01291eea2d5c70c2b422b415d95645b9adcfd678cb1d63",
            "0x0000000000000000000000000000000000000000000000000000000000001010",
            "0x0000000000000000000000001b395389386f3f2a27866dad8f7ddbb31c392e66",
            "0x000000000000000000000000a8b52f02108aa5f4b675bdcc973760022d7c6020"
          ],
          "data": "0x0000000000000000000000000000000000000000000000000004a48156e050e800000000000000000000000000000000000000000000000073e14b976954ad2f0000000000000000000000000000000000000000000000220fa8e972fa54b8c000000000000000000000000000000000000000000000000073dca71612745c470000000000000000000000000000000000000000000000220fad8df4513509a8",
          "blockHash": "0x29a57d8d045b043f94aa76e643e82171f48014b1246adfa3aefcce8e996ed468",
          "blockNumber": "0x38cc088",
          "transactionHash": "0x4ee0a258f94a5e7454b28ba678af8a9ebdac4b0e5998f82ef05f3dcfa340627d",
          "transactionIndex": "0x30",
          "logIndex": "0x95",
          "removed": false
        }
      ],
      "logsBloom": "0x00000004000000000000000000000000000000000000000002000000000000000000000000000000000000000002000100008000000000000000000000000000000000000000000000080008000000800004000000000000000100000000000000000000000002000000800000000000000000000000000080000010000000000000000000080000000000000000000000000000000000040000000000000000200000000000004000000000000000000000000000000000000000000000004000000002000000000001000000000000400000000000000000100000000000000000000000000000000000000000000000000000000000000000000000100000",
      "type": "0x2",
      "transactionHash": "0x4ee0a258f94a5e7454b28ba678af8a9ebdac4b0e5998f82ef05f3dcfa340627d",
      "transactionIndex": "0x30",
      "blockHash": "0x29a57d8d045b043f94aa76e643e82171f48014b1246adfa3aefcce8e996ed468",
      "blockNumber": "0x38cc088",
      "gasUsed": "0xa628",
      "effectiveGasPrice": "0xa66523c66",
      "from": "0x1b395389386f3f2a27866dad8f7ddbb31c392e66",
      "to": "0x6d61af3907e64537973b1066cae91d78072dc80e",
      "contractAddress": null
    },
    {
      "status": "0x1",
      "cumulativeGasUsed": "0x4e9500",
      "logs": [
        {
          "address": "0x10a7ee546c3108a4f97ba95ed685ee17078cc2fe",
          "topics": [
            "0xddf252ad1be2c89b69c2b068fc378daa952ba7f163c4a11628f55a4df523b3ef",
            "0x0000000000000000000000006d61af3907e64537973b1066cae91d78072dc80e",
            "0x0000000000000000000000001b395389386f3f2a27866dad8f7ddbb31c392e66"
          ],
          "data": "0x0000000000000000000000000000000000000000000000005b56607d42b21b6d",
          "blockHash": "0x29a57d8d045b043f94aa76e643e82171f48014b1246adfa3aefcce8e996ed468",
          "blockNumber": "0x38cc088",
          "transactionHash": "0x3b5fcdf7e09482a0454909621034f6a7008c213895f2d46bd627ce7a1f2a2430",
          "transactionIndex": "0x31",
          "logIndex": "0x96",
          "removed": false
        },
        {
          "address": "0x0000000000000000000000000000000000001010",
          "topics": [
            "0x4dfe1bbbcf077ddc3e01291eea2d5c70c2b422b415d95645b9adcfd678cb1d63",
            "0x0000000000000000000000000000000000000000000000000000000000001010",
            "0x0000000000000000000000001b395389386f3f2a27866dad8f7ddbb31c392e66",
            "0x000000000000000000000000a8b52f02108aa5f4b675bdcc973760022d7c6020"
          ],
          "data": "0x000000000000000000000000000000000000000000000000000464cca474934000000000000000000000000000000000000000000000000073da8b9e1951193f0000000000000000000000000000000000000000000000220fad8df4513509a800000000000000000000000000000000000000000000000073d626d174dc85ff0000000000000000000000000000000000000000000000220fb1f2c0f5a99ce8",
          "blockHash": "0x29a57d8d045b043f94aa76e643e82171f48014b1246adfa3aefcce8e996ed468",
          "blockNumber": "0x38cc088",
          "transactionHash": "0x3b5fcdf7e09482a0454909621034f6a7008c213895f2d46bd627ce7a1f2a2430",
          "transactionIndex": "0x31",
          "logIndex": "0x97",
          "removed": false
        }
      ],
      "logsBloom": "0x00000004000000000000000000000000000000000000000002000000000000000000000000000000000000000002000000008000000000000000000002000000000000000000000000080008000000800004000000000000000100000000000000000000000002000000800000800000000000000000000080000010000000000000000000000000000000000000000000000000000000040000000000000000200000000000004000000000000000000000000000000000000000000000004000000002000000000001000000000000000000000000000000100000000000000000000000000000000000400000000000000000000000000000000000100000",
      "type": "0x2",
      "transactionHash": "0x3b5fcdf7e09482a0454909621034f6a7008c213895f2d46bd627ce7a1f2a2430",
      "transactionIndex": "0x31",
      "blockHash": "0x29a57d8d045b043f94aa76e643e82171f48014b1246adfa3aefcce8e996ed468",
      "blockNumber": "0x38cc088",
      "gasUsed": "0x9d40",
      "effectiveGasPrice": "0xa66523c66",
      "from": "0x1b395389386f3f2a27866dad8f7ddbb31c392e66",
      "to": "0x6d61af3907e64537973b1066cae91d78072dc80e",
      "contractAddress": null
    }
  ],
  "libraries": [],
  "pending": [],
  "returns": {
    "0": {
      "internal_type": "contract BitcoinPool",
      "value": "0x6D61af3907E64537973b1066CaE91d78072dc80E"
    }
  },
  "timestamp": 1721404342,
  "chain": 137,
  "commit": "e25b34d"
}