{
  "transactions": [
    {
      "hash": "0xee7539734ec3fbdfbc70895b2bc9f824ee063c199bc438d531b8a3d61cb0e62a",
      "transactionType": "CREATE",
      "contractName": "BitcoinPool",
      "contractAddress": "0x6d61af3907e64537973b1066cae91d78072dc80e",
      "function": null,
      "arguments": [
        "0x5757371414417b8C6CAad45bAeF941aBc7d3Ab32",
        "0xa5E0829CaCEd8fFDD4De3c43696c57F7D7A678ff"
      ],
      "transaction": {
        "from": "0x1b395389386f3f2a27866dad8f7ddbb31c392e66",
        "gas": "0x1b5f64",
        "value": "0x0",
        "input": "0x60c06040523480156200001157600080fd5b5060405162001921380380620019218339810160408190526200003491620000ec565b33806200005b57604051631e4fbdf760e01b81526000600482015260240160405180910390fd5b62000066816200007f565b506001600160a01b039182166080521660a05262000124565b600080546001600160a01b038381166001600160a01b0319831681178455604051919092169283917f8be0079c531659141344cd1fd0a4f28419497f9722a3daafe3b4186f6b6457e09190a35050565b80516001600160a01b0381168114620000e757600080fd5b919050565b600080604083850312156200010057600080fd5b6200010b83620000cf565b91506200011b60208401620000cf565b90509250929050565b60805160a05161178a620001976000396000818161021b0152818161032601528181610744015281816108ec01528181610bf601528181610d0b01528181610f3a01528181610fce015261109e0152600081816104c501528181610b0401528181610db6015261114d015261178a6000f3fe608060405234801561001057600080fd5b506004361061009e5760003560e01c80639cf38f7c116100665780639cf38f7c14610110578063c9c6539614610138578063cf6c62ea1461014b578063e6a439051461015e578063f2fde38b1461017157600080fd5b80630c0a7630146100a3578063690f93ff146100b8578063715018a6146100cb578063857abbd4146100d35780638da5cb5b146100e6575b600080fd5b6100b66100b1366004611291565b610184565b005b6100b66100c63660046112d2565b6103b4565b6100b66109ce565b6100b66100e136600461130b565b6109e2565b6000546001600160a01b03165b6040516001600160a01b0390911681526020015b60405180910390f35b61012361011e3660046112d2565b610acf565b60408051928352602083019190915201610107565b6100b66101463660046112d2565b610d87565b61012361015936600461132f565b610e28565b6100f361016c3660046112d2565b61111c565b6100b661017f36600461130b565b6111c1565b61018c6111ff565b6040516323b872dd60e01b8152336004820152306024820152604481018290526001600160a01b038416906323b872dd906064016020604051808303816000875af11580156101df573d6000803e3d6000fd5b505050506040513d601f19601f820116820180604052508101906102039190611375565b5060405163095ea7b360e01b81526001600160a01b037f0000000000000000000000000000000000000000000000000000000000000000811660048301526024820183905284169063095ea7b3906044016020604051808303816000875af1158015610273573d6000803e3d6000fd5b505050506040513d601f19601f820116820180604052508101906102979190611375565b5060408051600280825260608201835260009260208301908036833701905050905083816000815181106102cd576102cd6113ad565b60200260200101906001600160a01b031690816001600160a01b0316815250508281600181518110610301576103016113ad565b6001600160a01b0392831660209182029290920101526040516338ed173960e01b81527f0000000000000000000000000000000000000000000000000000000000000000909116906338ed173990610366908590600090869030904290600401611407565b6000604051808303816000875af1158015610385573d6000803e3d6000fd5b505050506040513d6000823e601f3d908101601f191682016040526103ad9190810190611443565b5050505050565b6103bc6111ff565b60006103e890506000836001600160a01b031663313ce5676040518163ffffffff1660e01b8152600401602060405180830381865afa158015610403573d6000803e3d6000fd5b505050506040513d601f19601f820116820180604052508101906104279190611501565b90506000836001600160a01b031663313ce5676040518163ffffffff1660e01b8152600401602060405180830381865afa158015610469573d6000803e3d6000fd5b505050506040513d601f19601f8201168201806040525081019061048d9190611501565b905060005b600a8110156109c65760405163e6a4390560e01b81526001600160a01b03878116600483015286811660248301526000917f00000000000000000000000000000000000000000000000000000000000000009091169063e6a4390590604401602060405180830381865afa15801561050e573d6000803e3d6000fd5b505050506040513d601f19601f820116820180604052508101906105329190611524565b6040516370a0823160e01b81526001600160a01b0380831660048301529192506000918916906370a0823190602401602060405180830381865afa15801561057e573d6000803e3d6000fd5b505050506040513d601f19601f820116820180604052508101906105a29190611541565b6040516370a0823160e01b81526001600160a01b0384811660048301529192506000918916906370a0823190602401602060405180830381865afa1580156105ee573d6000803e3d6000fd5b505050506040513d601f19601f820116820180604052508101906106129190611541565b90506000610621876012611570565b61062c90600a61166d565b610636908461167c565b90506000610645876012611570565b61065090600a61166d565b61065a908461167c565b90508082111561080457600060026106728385611693565b61067c91906116a6565b9050610689886012611570565b61069490600a61166d565b61069e90826116a6565b9050898110156106b3575050505050506109c6565b6040805160028082526060820183526000926020830190803683370190505090508b816000815181106106e8576106e86113ad565b60200260200101906001600160a01b031690816001600160a01b0316815250508c8160018151811061071c5761071c6113ad565b6001600160a01b03928316602091820292909201015260405163d06ca61f60e01b81526000917f0000000000000000000000000000000000000000000000000000000000000000169063d06ca61f9061077b90869086906004016116c8565b600060405180830381865afa158015610798573d6000803e3d6000fd5b505050506040513d6000823e601f3d908101601f191682016040526107c09190810190611443565b90508b816001815181106107d6576107d66113ad565b602002602001015110156107f15750505050505050506109c6565b6107fc8d8f85610184565b5050506109ae565b818111156109a4576000600261081a8484611693565b61082491906116a6565b9050610831896012611570565b61083c90600a61166d565b61084690826116a6565b90508981101561085b575050505050506109c6565b6040805160028082526060820183526000926020830190803683370190505090508c81600081518110610890576108906113ad565b60200260200101906001600160a01b031690816001600160a01b0316815250508b816001815181106108c4576108c46113ad565b6001600160a01b03928316602091820292909201015260405163d06ca61f60e01b81526000917f0000000000000000000000000000000000000000000000000000000000000000169063d06ca61f9061092390869086906004016116c8565b600060405180830381865afa158015610940573d6000803e3d6000fd5b505050506040513d6000823e601f3d908101601f191682016040526109689190810190611443565b90508b8160018151811061097e5761097e6113ad565b602002602001015110156109995750505050505050506109c6565b6107fc8e8e85610184565b50505050506109c6565b505050505080806109be906116e9565b915050610492565b505050505050565b6109d66111ff565b6109e0600061122c565b565b6109ea6111ff565b6040516370a0823160e01b81523060048201526001600160a01b0382169063a9059cbb90339083906370a0823190602401602060405180830381865afa158015610a38573d6000803e3d6000fd5b505050506040513d601f19601f82011682018060405250810190610a5c9190611541565b6040516001600160e01b031960e085901b1681526001600160a01b03909216600483015260248201526044016020604051808303816000875af1158015610aa7573d6000803e3d6000fd5b505050506040513d601f19601f82011682018060405250810190610acb9190611375565b5050565b600080610ada6111ff565b60405163e6a4390560e01b81526001600160a01b03858116600483015284811660248301526000917f00000000000000000000000000000000000000000000000000000000000000009091169063e6a4390590604401602060405180830381865afa158015610b4d573d6000803e3d6000fd5b505050506040513d601f19601f82011682018060405250810190610b719190611524565b6040516370a0823160e01b81523060048201529091506000906001600160a01b038316906370a0823190602401602060405180830381865afa158015610bbb573d6000803e3d6000fd5b505050506040513d601f19601f82011682018060405250810190610bdf9190611541565b60405163095ea7b360e01b81526001600160a01b037f0000000000000000000000000000000000000000000000000000000000000000811660048301526024820183905291925060009184169063095ea7b3906044016020604051808303816000875af1158015610c54573d6000803e3d6000fd5b505050506040513d601f19601f82011682018060405250810190610c789190611375565b905080610cbe5760405162461bcd60e51b815260206004820152600f60248201526e105c1c1c9bdd985b0819985a5b1959608a1b60448201526064015b60405180910390fd5b604051635d5155ef60e11b81526001600160a01b03888116600483015287811660248301526044820184905260016064830181905260848301523060a48301524260c483015260009182917f0000000000000000000000000000000000000000000000000000000000000000169063baa2abde9060e40160408051808303816000875af1158015610d53573d6000803e3d6000fd5b505050506040513d601f19601f82011682018060405250810190610d779190611702565b909a909950975050505050505050565b610d8f6111ff565b6040516364e329cb60e11b81526001600160a01b03838116600483015282811660248301527f0000000000000000000000000000000000000000000000000000000000000000169063c9c65396906044016020604051808303816000875af1158015610dff573d6000803e3d6000fd5b505050506040513d601f19601f82011682018060405250810190610e239190611524565b505050565b600080610e336111ff565b6040516323b872dd60e01b8152336004820152306024820152604481018590526001600160a01b038716906323b872dd906064016020604051808303816000875af1158015610e86573d6000803e3d6000fd5b505050506040513d601f19601f82011682018060405250810190610eaa9190611375565b506040516323b872dd60e01b8152336004820152306024820152604481018490526001600160a01b038616906323b872dd906064016020604051808303816000875af1158015610efe573d6000803e3d6000fd5b505050506040513d601f19601f82011682018060405250810190610f229190611375565b5060405163095ea7b360e01b81526001600160a01b037f0000000000000000000000000000000000000000000000000000000000000000811660048301526024820186905287169063095ea7b3906044016020604051808303816000875af1158015610f92573d6000803e3d6000fd5b505050506040513d601f19601f82011682018060405250810190610fb69190611375565b5060405163095ea7b360e01b81526001600160a01b037f0000000000000000000000000000000000000000000000000000000000000000811660048301526024820185905286169063095ea7b3906044016020604051808303816000875af1158015611026573d6000803e3d6000fd5b505050506040513d601f19601f8201168201806040525081019061104a9190611375565b5060405162e8e33760e81b81526001600160a01b0387811660048301528681166024830152604482018690526064820185905260016084830181905260a48301523060c48301524260e483015260009182917f0000000000000000000000000000000000000000000000000000000000000000169063e8e3370090610104016060604051808303816000875af11580156110e8573d6000803e3d6000fd5b505050506040513d601f19601f8201168201806040525081019061110c9190611726565b5090999098509650505050505050565b60006111266111ff565b60405163e6a4390560e01b81526001600160a01b03848116600483015283811660248301527f0000000000000000000000000000000000000000000000000000000000000000169063e6a4390590604401602060405180830381865afa158015611194573d6000803e3d6000fd5b505050506040513d601f19601f820116820180604052508101906111b89190611524565b90505b92915050565b6111c96111ff565b6001600160a01b0381166111f357604051631e4fbdf760e01b815260006004820152602401610cb5565b6111fc8161122c565b50565b6000546001600160a01b031633146109e05760405163118cdaa760e01b8152336004820152602401610cb5565b600080546001600160a01b038381166001600160a01b0319831681178455604051919092169283917f8be0079c531659141344cd1fd0a4f28419497f9722a3daafe3b4186f6b6457e09190a35050565b6001600160a01b03811681146111fc57600080fd5b6000806000606084860312156112a657600080fd5b83356112b18161127c565b925060208401356112c18161127c565b929592945050506040919091013590565b600080604083850312156112e557600080fd5b82356112f08161127c565b915060208301356113008161127c565b809150509250929050565b60006020828403121561131d57600080fd5b81356113288161127c565b9392505050565b6000806000806080858703121561134557600080fd5b84356113508161127c565b935060208501356113608161127c565b93969395505050506040820135916060013590565b60006020828403121561138757600080fd5b8151801515811461132857600080fd5b634e487b7160e01b600052604160045260246000fd5b634e487b7160e01b600052603260045260246000fd5b600081518084526020808501945080840160005b838110156113fc5781516001600160a01b0316875295820195908201906001016113d7565b509495945050505050565b85815284602082015260a06040820152600061142660a08301866113c3565b6001600160a01b0394909416606083015250608001529392505050565b6000602080838503121561145657600080fd5b825167ffffffffffffffff8082111561146e57600080fd5b818501915085601f83011261148257600080fd5b81518181111561149457611494611397565b8060051b604051601f19603f830116810181811085821117156114b9576114b9611397565b6040529182528482019250838101850191888311156114d757600080fd5b938501935b828510156114f5578451845293850193928501926114dc565b98975050505050505050565b60006020828403121561151357600080fd5b815160ff8116811461132857600080fd5b60006020828403121561153657600080fd5b81516113288161127c565b60006020828403121561155357600080fd5b5051919050565b634e487b7160e01b600052601160045260246000fd5b60ff82811682821603908111156111bb576111bb61155a565b600181815b808511156115c45781600019048211156115aa576115aa61155a565b808516156115b757918102915b93841c939080029061158e565b509250929050565b6000826115db575060016111bb565b816115e8575060006111bb565b81600181146115fe576002811461160857611624565b60019150506111bb565b60ff8411156116195761161961155a565b50506001821b6111bb565b5060208310610133831016604e8410600b8410161715611647575081810a6111bb565b6116518383611589565b80600019048211156116655761166561155a565b029392505050565b60006111b860ff8416836115cc565b80820281158282048414176111bb576111bb61155a565b818103818111156111bb576111bb61155a565b6000826116c357634e487b7160e01b600052601260045260246000fd5b500490565b8281526040602082015260006116e160408301846113c3565b949350505050565b6000600182016116fb576116fb61155a565b5060010190565b6000806040838503121561171557600080fd5b505080516020909101519092909150565b60008060006060848603121561173b57600080fd5b835192506020840151915060408401519050925092509256fea2646970667358221220fa9a1eee342dd0263554c8ad4435a7da136267e3c4d252ebd8d9e17c9ac6f33c64736f6c634300081400330000000000000000000000005757371414417b8c6caad45baef941abc7d3ab32000000000000000000000000a5e0829caced8ffdd4de3c43696c57f7d7a678ff",
        "nonce": "0x187",
        "chainId": "0x89"
      },
      "additionalContracts": [],
      "isFixedGasLimit": false
    },
    {
      "hash": "0xc9010d6296bc521a6daa605b656aab43c823df08fbc59057f94e82d7aa8258c2",
      "transactionType": "CALL",
      "contractName": null,
      "contractAddress": "0x10a7ee546c3108a4f97ba95ed685ee17078cc2fe",
      "function": "approve(address,uint256)",
      "arguments": [
        "0x6D61af3907E64537973b1066CaE91d78072dc80E",
        "6000000000000000000"
      ],
      "transaction": {
        "from": "0x1b395389386f3f2a27866dad8f7ddbb31c392e66",
        "to": "0x10a7ee546c3108a4f97ba95ed685ee17078cc2fe",
        "gas": "0x1090a",
        "value": "0x0",
        "input": "0x095ea7b30000000000000000000000006d61af3907e64537973b1066cae91d78072dc80e00000000000000000000000000000000000000000000000053444835ec580000",
        "nonce": "0x188",
        "chainId": "0x89"
      },
      "additionalContracts": [],
      "isFixedGasLimit": false
    },
    {
      "hash": "0x98e2a0ef0da346d1ab94bdb6a1c5259682316de85edd703fa8d14d4b2b6a13f2",
      "transactionType": "CALL",
      "contractName": null,
      "contractAddress": "0xc2132d05d31c914a87c6611c10748aeb04b58e8f",
      "function": "approve(address,uint256)",
      "arguments": [
        "0x6D61af3907E64537973b1066CaE91d78072dc80E",
        "6000000"
      ],
      "transaction": {
        "from": "0x1b395389386f3f2a27866dad8f7ddbb31c392e66",
        "to": "0xc2132d05d31c914a87c6611c10748aeb04b58e8f",
        "gas": "0x11712",
        "value": "0x0",
        "input": "0x095ea7b30000000000000000000000006d61af3907e64537973b1066cae91d78072dc80e00000000000000000000000000000000000000000000000000000000005b8d80",
        "nonce": "0x189",
        "chainId": "0x89"
      },
      "additionalContracts": [],
      "isFixedGasLimit": false
    },
    {
      "hash": "0x85632061280944bcee7e71e3b10a70a1e0c8521b1c3ee4f7ed5bed9a2e837f6e",
      "transactionType": "CALL",
      "contractName": "BitcoinPool",
      "contractAddress": "0x6d61af3907e64537973b1066cae91d78072dc80e",
      "function": "addLiquidity(address,address,uint256,uint256)",
      "arguments": [
        "0x10A7Ee546C3108a4F97Ba95ed685eE17078Cc2fE",
        "0xc2132D05D31c914a87C6611C10748AEb04B58e8F",
        "6000000000000000000",
        "6000000"
      ],
      "transaction": {
        "from": "0x1b395389386f3f2a27866dad8f7ddbb31c392e66",
        "to": "0x6d61af3907e64537973b1066cae91d78072dc80e",
        "gas": "0x5241e",
        "value": "0x0",
        "input": "0xcf6c62ea00000000000000000000000010a7ee546c3108a4f97ba95ed685ee17078cc2fe000000000000000000000000c2132d05d31c914a87c6611c10748aeb04b58e8f00000000000000000000000000000000000000000000000053444835ec58000000000000000000000000000000000000000000000000000000000000005b8d80",
        "nonce": "0x18a",
        "chainId": "0x89"
      },
      "additionalContracts": [],
      "isFixedGasLimit": false
    },
    {
      "hash": "0x61ec503c930c04bc0f4b11cd6e66197491dbad6d77e4acf3bc0b9f5c13851853",
      "transactionType": "CALL",
      "contractName": null,
      "contractAddress": "0x10a7ee546c3108a4f97ba95ed685ee17078cc2fe",
      "function": "setMinWithdrawal(uint256)",
      "arguments": [
        "0"
      ],
      "transaction": {
        "from": "0x1b395389386f3f2a27866dad8f7ddbb31c392e66",
        "to": "0x10a7ee546c3108a4f97ba95ed685ee17078cc2fe",
        "gas": "0x9111",
        "value": "0x0",
        "input": "0xb070e4330000000000000000000000000000000000000000000000000000000000000000",
        "nonce": "0x18b",
        "chainId": "0x89"
      },
      "additionalContracts": [],
      "isFixedGasLimit": false
    },
    {
      "hash": "0xaa90b4fb4582773925655e946de2dfe293755c6171ff076a2ccae96b8673c1dd",
      "transactionType": "CALL",
      "contractName": null,
      "contractAddress": "0x10a7ee546c3108a4f97ba95ed685ee17078cc2fe",
      "function": "approve(address,uint256)",
      "arguments": [
        "0x6D61af3907E64537973b1066CaE91d78072dc80E",
        "115792089237316195423570985008687907853269984665640564039457584007913129639935"
      ],
      "transaction": {
        "from": "0x1b395389386f3f2a27866dad8f7ddbb31c392e66",
        "to": "0x10a7ee546c3108a4f97ba95ed685ee17078cc2fe",
        "gas": "0x10ad3",
        "value": "0x0",
        "input": "0x095ea7b30000000000000000000000006d61af3907e64537973b1066cae91d78072dc80effffffffffffffffffffffffffffffffffffffffffffffffffffffffffffffff",
        "nonce": "0x18c",
        "chainId": "0x89"
      },
      "additionalContracts": [],
      "isFixedGasLimit": false
    },
    {
      "hash": "0x71066b076bb9e708ddfebfc7017298f02c522543735032ccc4e9f1cf570588d9",
      "transactionType": "CALL",
      "contractName": null,
      "contractAddress": "0xc2132d05d31c914a87c6611c10748aeb04b58e8f",
      "function": "approve(address,uint256)",
      "arguments": [
        "0x6D61af3907E64537973b1066CaE91d78072dc80E",
        "115792089237316195423570985008687907853269984665640564039457584007913129639935"
      ],
      "transaction": {
        "from": "0x1b395389386f3f2a27866dad8f7ddbb31c392e66",
        "to": "0xc2132d05d31c914a87c6611c10748aeb04b58e8f",
        "gas": "0x118f3",
        "value": "0x0",
        "input": "0x095ea7b30000000000000000000000006d61af3907e64537973b1066cae91d78072dc80effffffffffffffffffffffffffffffffffffffffffffffffffffffffffffffff",
        "nonce": "0x18d",
        "chainId": "0x89"
      },
      "additionalContracts": [],
      "isFixedGasLimit": false
    },
    {
      "hash": "0x129b23c99a8241c2e2d27b13d14b71b8112c4e7d180157e9e62388ca652f970b",
      "transactionType": "CALL",
      "contractName": "BitcoinPool",
      "contractAddress": "0x6d61af3907e64537973b1066cae91d78072dc80e",
      "function": "swapToken(address,address,uint256)",
      "arguments": [
        "0x10A7Ee546C3108a4F97Ba95ed685eE17078Cc2fE",
        "0xc2132D05D31c914a87C6611C10748AEb04B58e8F",
        "500000000000000000"
      ],
      "transaction": {
        "from": "0x1b395389386f3f2a27866dad8f7ddbb31c392e66",
        "to": "0x6d61af3907e64537973b1066cae91d78072dc80e",
        "gas": "0x2ff01",
        "value": "0x0",
        "input": "0x0c0a763000000000000000000000000010a7ee546c3108a4f97ba95ed685ee17078cc2fe000000000000000000000000c2132d05d31c914a87c6611c10748aeb04b58e8f00000000000000000000000000000000000000000000000006f05b59d3b20000",
        "nonce": "0x18e",
        "chainId": "0x89"
      },
      "additionalContracts": [],
      "isFixedGasLimit": false
    },
    {
      "hash": "0x018e9ddfdf4926393858f6f0f6ad19b0964e52d15ebdcaca9c20aa88708c53b1",
      "transactionType": "CALL",
      "contractName": "BitcoinPool",
      "contractAddress": "0x6d61af3907e64537973b1066cae91d78072dc80e",
      "function": "maintainPeg(address,address)",
      "arguments": [
        "0x10A7Ee546C3108a4F97Ba95ed685eE17078Cc2fE",
        "0xc2132D05D31c914a87C6611C10748AEb04B58e8F"
      ],
      "transaction": {
        "from": "0x1b395389386f3f2a27866dad8f7ddbb31c392e66",
        "to": "0x6d61af3907e64537973b1066cae91d78072dc80e",
        "gas": "0x636e2",
        "value": "0x0",
        "input": "0x690f93ff00000000000000000000000010a7ee546c3108a4f97ba95ed685ee17078cc2fe000000000000000000000000c2132d05d31c914a87c6611c10748aeb04b58e8f",
        "nonce": "0x18f",
        "chainId": "0x89"
      },
      "additionalContracts": [],
      "isFixedGasLimit": false
    },
    {
      "hash": "0x20334bba468f9b88bc9c212ba23051ca29ef5c54d603ef5b186754920bc89ecc",
      "transactionType": "CALL",
      "contractName": null,
      "contractAddress": "0x10a7ee546c3108a4f97ba95ed685ee17078cc2fe",
      "function": "setMinWithdrawal(uint256)",
      "arguments": [
        "189725906243426996"
      ],
      "transaction": {
        "from": "0x1b395389386f3f2a27866dad8f7ddbb31c392e66",
        "to": "0x10a7ee546c3108a4f97ba95ed685ee17078cc2fe",
        "gas": "0x10bd5",
        "value": "0x0",
        "input": "0xb070e43300000000000000000000000000000000000000000000000002a20ab4de541ab4",
        "nonce": "0x190",
        "chainId": "0x89"
      },
      "additionalContracts": [],
      "isFixedGasLimit": false
    }
  ],
  "receipts": [
    {
      "status": "0x1",
      "cumulativeGasUsed": "0xf0abcc",
      "logs": [
        {
          "address": "0x6d61af3907e64537973b1066cae91d78072dc80e",
          "topics": [
            "0x8be0079c531659141344cd1fd0a4f28419497f9722a3daafe3b4186f6b6457e0",
            "0x0000000000000000000000000000000000000000000000000000000000000000",
            "0x0000000000000000000000001b395389386f3f2a27866dad8f7ddbb31c392e66"
          ],
          "data": "0x",
          "blockHash": "0x76fcc5b58c986a83cb2e017a1faf704ffd2d343a0de4bd3c32599e313f2c6f07",
          "blockNumber": "0x38cbf51",
          "transactionHash": "0xee7539734ec3fbdfbc70895b2bc9f824ee063c199bc438d531b8a3d61cb0e62a",
          "transactionIndex": "0x53",
          "logIndex": "0x27e",
          "removed": false
        },
        {
          "address": "0x0000000000000000000000000000000000001010",
          "topics": [
            "0x4dfe1bbbcf077ddc3e01291eea2d5c70c2b422b415d95645b9adcfd678cb1d63",
            "0x0000000000000000000000000000000000000000000000000000000000001010",
            "0x0000000000000000000000001b395389386f3f2a27866dad8f7ddbb31c392e66",
            "0x0000000000000000000000008842ea85732f94feeb9cf1ccc7d357c63658e7a4"
          ],
          "data": "0x00000000000000000000000000000000000000000000000000c818e9903eb69b00000000000000000000000000000000000000000000000076a9a2d38001a5eb0000000000000000000000000000000000000000000006b838568b571000339d00000000000000000000000000000000000000000000000075e189e9efc2ef500000000000000000000000000000000000000000000006b8391ea440a03eea38",
          "blockHash": "0x76fcc5b58c986a83cb2e017a1faf704ffd2d343a0de4bd3c32599e313f2c6f07",
          "blockNumber": "0x38cbf51",
          "transactionHash": "0xee7539734ec3fbdfbc70895b2bc9f824ee063c199bc438d531b8a3d61cb0e62a",
          "transactionIndex": "0x53",
          "logIndex": "0x27f",
          "removed": false
        }
      ],
      "logsBloom": "0x00000000000000000000000000001000000000000000000000800004000000800000000000000008000000000000000000008000000000000000000000000000000000000000000000080000000000800005000000000000000100000000000000000000020002000000000000000800000000000000000280000000000000400000000000000000000000000000000000000000000000000000000000000000200000000000000000000000000000000000000000000000000000000000004000000000000000000001000000000000000000000000000000100000000020000000000100000000000000000000000000000000000000000000000000100000",
      "type": "0x2",
      "transactionHash": "0xee7539734ec3fbdfbc70895b2bc9f824ee063c199bc438d531b8a3d61cb0e62a",
      "transactionIndex": "0x53",
      "blockHash": "0x76fcc5b58c986a83cb2e017a1faf704ffd2d343a0de4bd3c32599e313f2c6f07",
      "blockNumber": "0x38cbf51",
      "gasUsed": "0x150fe5",
      "effectiveGasPrice": "0x136ba70b7b",
      "from": "0x1b395389386f3f2a27866dad8f7ddbb31c392e66",
      "to": null,
      "contractAddress": "0x6d61af3907e64537973b1066cae91d78072dc80e"
    },
    {
      "status": "0x1",
      "cumulativeGasUsed": "0xf16106",
      "logs": [
        {
          "address": "0x10a7ee546c3108a4f97ba95ed685ee17078cc2fe",
          "topics": [
            "0x8c5be1e5ebec7d5bd14f71427d1e84f3dd0314c0f7b2291e5b200ac8c7c3b925",
            "0x0000000000000000000000001b395389386f3f2a27866dad8f7ddbb31c392e66",
            "0x0000000000000000000000006d61af3907e64537973b1066cae91d78072dc80e"
          ],
          "data": "0x00000000000000000000000000000000000000000000000053444835ec580000",
          "blockHash": "0x76fcc5b58c986a83cb2e017a1faf704ffd2d343a0de4bd3c32599e313f2c6f07",
          "blockNumber": "0x38cbf51",
          "transactionHash": "0xc9010d6296bc521a6daa605b656aab43c823df08fbc59057f94e82d7aa8258c2",
          "transactionIndex": "0x54",
          "logIndex": "0x280",
          "removed": false
        },
        {
          "address": "0x0000000000000000000000000000000000001010",
          "topics": [
            "0x4dfe1bbbcf077ddc3e01291eea2d5c70c2b422b415d95645b9adcfd678cb1d63",
            "0x0000000000000000000000000000000000000000000000000000000000001010",
            "0x0000000000000000000000001b395389386f3f2a27866dad8f7ddbb31c392e66",
            "0x0000000000000000000000008842ea85732f94feeb9cf1ccc7d357c63658e7a4"
          ],
          "data": "0x0000000000000000000000000000000000000000000000000006b9b778b34fc60000000000000000000000000000000000000000000000007510997178d12be40000000000000000000000000000000000000000000006b8391ea440a03eea380000000000000000000000000000000000000000000000007509dfba001ddc1e0000000000000000000000000000000000000000000006b839255df818f239fe",
          "blockHash": "0x76fcc5b58c986a83cb2e017a1faf704ffd2d343a0de4bd3c32599e313f2c6f07",
          "blockNumber": "0x38cbf51",
          "transactionHash": "0xc9010d6296bc521a6daa605b656aab43c823df08fbc59057f94e82d7aa8258c2",
          "transactionIndex": "0x54",
          "logIndex": "0x281",
          "removed": false
        }
      ],
      "logsBloom": "0x00000004000000000000000000001000000000000000000002000000000000800000000000000000000000000000000000008000000000000000000002200000000000000000000000080000000000800004000000000000000100000000000000000000000002000000800000800000000000000000000280000000000000000000000000000000000000000000000000000000000000000000000000000000220000000000000000000000000000000000000000000000000000000000004000000000000000000001000000000000000000000000000000100000000000000010000000000000000000400000000000000000000000000000000000100000",
      "type": "0x2",
      "transactionHash": "0xc9010d6296bc521a6daa605b656aab43c823df08fbc59057f94e82d7aa8258c2",
      "transactionIndex": "0x54",
      "blockHash": "0x76fcc5b58c986a83cb2e017a1faf704ffd2d343a0de4bd3c32599e313f2c6f07",
      "blockNumber": "0x38cbf51",
      "gasUsed": "0xb53a",
      "effectiveGasPrice": "0x136ba70b7b",
      "from": "0x1b395389386f3f2a27866dad8f7ddbb31c392e66",
      "to": "0x10a7ee546c3108a4f97ba95ed685ee17078cc2fe",
      "contractAddress": null
    },
    {
      "status": "0x1",
      "cumulativeGasUsed": "0xf22b12",
      "logs": [
        {
          "address": "0xc2132d05d31c914a87c6611c10748aeb04b58e8f",
          "topics": [
            "0x8c5be1e5ebec7d5bd14f71427d1e84f3dd0314c0f7b2291e5b200ac8c7c3b925",
            "0x0000000000000000000000001b395389386f3f2a27866dad8f7ddbb31c392e66",
            "0x0000000000000000000000006d61af3907e64537973b1066cae91d78072dc80e"
          ],
          "data": "0x00000000000000000000000000000000000000000000000000000000005b8d80",
          "blockHash": "0x76fcc5b58c986a83cb2e017a1faf704ffd2d343a0de4bd3c32599e313f2c6f07",
          "blockNumber": "0x38cbf51",
          "transactionHash": "0x98e2a0ef0da346d1ab94bdb6a1c5259682316de85edd703fa8d14d4b2b6a13f2",
          "transactionIndex": "0x55",
          "logIndex": "0x282",
          "removed": false
        },
        {
          "address": "0x0000000000000000000000000000000000001010",
          "topics": [
            "0x4dfe1bbbcf077ddc3e01291eea2d5c70c2b422b415d95645b9adcfd678cb1d63",
            "0x0000000000000000000000000000000000000000000000000000000000001010",
            "0x0000000000000000000000001b395389386f3f2a27866dad8f7ddbb31c392e66",
            "0x0000000000000000000000008842ea85732f94feeb9cf1ccc7d357c63658e7a4"
          ],
          "data": "0x00000000000000000000000000000000000000000000000000077f845d236bf40000000000000000000000000000000000000000000000007502d9edf9da9b060000000000000000000000000000000000000000000006b839255df818f239fe00000000000000000000000000000000000000000000000074fb5a699cb72f120000000000000000000000000000000000000000000006b8392cdd7c7615a5f2",
          "blockHash": "0x76fcc5b58c986a83cb2e017a1faf704ffd2d343a0de4bd3c32599e313f2c6f07",
          "blockNumber": "0x38cbf51",
          "transactionHash": "0x98e2a0ef0da346d1ab94bdb6a1c5259682316de85edd703fa8d14d4b2b6a13f2",
          "transactionIndex": "0x55",
          "logIndex": "0x283",
          "removed": false
        }
      ],
      "logsBloom": "0x00000004000000000000000000001000000000000000000002000000000000800000000000000000000000000000000100008000000000000000000000200000000000000000000000080000000000800004000000000000000100000000000000000000000002000000800000000000000000000000000280000000000000000000000000080000000000000000000000000000000000000000000000000000220000000000000000000000000000000000000000000000000000000000004000000000000000000001000000000000400000000000000000100000000000000010000000000000000000000000000000000000000000000000000000100000",
      "type": "0x2",
      "transactionHash": "0x98e2a0ef0da346d1ab94bdb6a1c5259682316de85edd703fa8d14d4b2b6a13f2",
      "transactionIndex": "0x55",
      "blockHash": "0x76fcc5b58c986a83cb2e017a1faf704ffd2d343a0de4bd3c32599e313f2c6f07",
      "blockNumber": "0x38cbf51",
      "gasUsed": "0xca0c",
      "effectiveGasPrice": "0x136ba70b7b",
      "from": "0x1b395389386f3f2a27866dad8f7ddbb31c392e66",
      "to": "0xc2132d05d31c914a87c6611c10748aeb04b58e8f",
      "contractAddress": null
    },
    {
      "status": "0x1",
      "cumulativeGasUsed": "0xf5aefb",
      "logs": [
        {
          "address": "0x10a7ee546c3108a4f97ba95ed685ee17078cc2fe",
          "topics": [
            "0xddf252ad1be2c89b69c2b068fc378daa952ba7f163c4a11628f55a4df523b3ef",
            "0x0000000000000000000000001b395389386f3f2a27866dad8f7ddbb31c392e66",
            "0x0000000000000000000000006d61af3907e64537973b1066cae91d78072dc80e"
          ],
          "data": "0x00000000000000000000000000000000000000000000000053444835ec580000",
          "blockHash": "0x76fcc5b58c986a83cb2e017a1faf704ffd2d343a0de4bd3c32599e313f2c6f07",
          "blockNumber": "0x38cbf51",
          "transactionHash": "0x85632061280944bcee7e71e3b10a70a1e0c8521b1c3ee4f7ed5bed9a2e837f6e",
          "transactionIndex": "0x56",
          "logIndex": "0x284",
          "removed": false
        },
        {
          "address": "0xc2132d05d31c914a87c6611c10748aeb04b58e8f",
          "topics": [
            "0xddf252ad1be2c89b69c2b068fc378daa952ba7f163c4a11628f55a4df523b3ef",
            "0x0000000000000000000000001b395389386f3f2a27866dad8f7ddbb31c392e66",
            "0x0000000000000000000000006d61af3907e64537973b1066cae91d78072dc80e"
          ],
          "data": "0x00000000000000000000000000000000000000000000000000000000005b8d80",
          "blockHash": "0x76fcc5b58c986a83cb2e017a1faf704ffd2d343a0de4bd3c32599e313f2c6f07",
          "blockNumber": "0x38cbf51",
          "transactionHash": "0x85632061280944bcee7e71e3b10a70a1e0c8521b1c3ee4f7ed5bed9a2e837f6e",
          "transactionIndex": "0x56",
          "logIndex": "0x285",
          "removed": false
        },
        {
          "address": "0xc2132d05d31c914a87c6611c10748aeb04b58e8f",
          "topics": [
            "0x8c5be1e5ebec7d5bd14f71427d1e84f3dd0314c0f7b2291e5b200ac8c7c3b925",
            "0x0000000000000000000000001b395389386f3f2a27866dad8f7ddbb31c392e66",
            "0x0000000000000000000000006d61af3907e64537973b1066cae91d78072dc80e"
          ],
          "data": "0x0000000000000000000000000000000000000000000000000000000000000000",
          "blockHash": "0x76fcc5b58c986a83cb2e017a1faf704ffd2d343a0de4bd3c32599e313f2c6f07",
          "blockNumber": "0x38cbf51",
          "transactionHash": "0x85632061280944bcee7e71e3b10a70a1e0c8521b1c3ee4f7ed5bed9a2e837f6e",
          "transactionIndex": "0x56",
          "logIndex": "0x286",
          "removed": false
        },
        {
          "address": "0x10a7ee546c3108a4f97ba95ed685ee17078cc2fe",
          "topics": [
            "0x8c5be1e5ebec7d5bd14f71427d1e84f3dd0314c0f7b2291e5b200ac8c7c3b925",
            "0x0000000000000000000000006d61af3907e64537973b1066cae91d78072dc80e",
            "0x000000000000000000000000a5e0829caced8ffdd4de3c43696c57f7d7a678ff"
          ],
          "data": "0x00000000000000000000000000000000000000000000000053444835ec580000",
          "blockHash": "0x76fcc5b58c986a83cb2e017a1faf704ffd2d343a0de4bd3c32599e313f2c6f07",
          "blockNumber": "0x38cbf51",
          "transactionHash": "0x85632061280944bcee7e71e3b10a70a1e0c8521b1c3ee4f7ed5bed9a2e837f6e",
          "transactionIndex": "0x56",
          "logIndex": "0x287",
          "removed": false
        },
        {
          "address": "0xc2132d05d31c914a87c6611c10748aeb04b58e8f",
          "topics": [
            "0x8c5be1e5ebec7d5bd14f71427d1e84f3dd0314c0f7b2291e5b200ac8c7c3b925",
            "0x0000000000000000000000006d61af3907e64537973b1066cae91d78072dc80e",
            "0x000000000000000000000000a5e0829caced8ffdd4de3c43696c57f7d7a678ff"
          ],
          "data": "0x00000000000000000000000000000000000000000000000000000000005b8d80",
          "blockHash": "0x76fcc5b58c986a83cb2e017a1faf704ffd2d343a0de4bd3c32599e313f2c6f07",
          "blockNumber": "0x38cbf51",
          "transactionHash": "0x85632061280944bcee7e71e3b10a70a1e0c8521b1c3ee4f7ed5bed9a2e837f6e",
          "transactionIndex": "0x56",
          "logIndex": "0x288",
          "removed": false
        },
        {
          "address": "0x10a7ee546c3108a4f97ba95ed685ee17078cc2fe",
          "topics": [
            "0xddf252ad1be2c89b69c2b068fc378daa952ba7f163c4a11628f55a4df523b3ef",
            "0x0000000000000000000000006d61af3907e64537973b1066cae91d78072dc80e",
            "0x00000000000000000000000091d26f6890b01629f72547f8365e90aa8ba1eee4"
          ],
          "data": "0x000000000000000000000000000000000000000000000000001550f7dca70000",
          "blockHash": "0x76fcc5b58c986a83cb2e017a1faf704ffd2d343a0de4bd3c32599e313f2c6f07",
          "blockNumber": "0x38cbf51",
          "transactionHash": "0x85632061280944bcee7e71e3b10a70a1e0c8521b1c3ee4f7ed5bed9a2e837f6e",
          "transactionIndex": "0x56",
          "logIndex": "0x289",
          "removed": false
        },
        {
          "address": "0xc2132d05d31c914a87c6611c10748aeb04b58e8f",
          "topics": [
            "0xddf252ad1be2c89b69c2b068fc378daa952ba7f163c4a11628f55a4df523b3ef",
            "0x0000000000000000000000006d61af3907e64537973b1066cae91d78072dc80e",
            "0x00000000000000000000000091d26f6890b01629f72547f8365e90aa8ba1eee4"
          ],
          "data": "0x00000000000000000000000000000000000000000000000000000000005b8d80",
          "blockHash": "0x76fcc5b58c986a83cb2e017a1faf704ffd2d343a0de4bd3c32599e313f2c6f07",
          "blockNumber": "0x38cbf51",
          "transactionHash": "0x85632061280944bcee7e71e3b10a70a1e0c8521b1c3ee4f7ed5bed9a2e837f6e",
          "transactionIndex": "0x56",
          "logIndex": "0x28a",
          "removed": false
        },
        {
          "address": "0xc2132d05d31c914a87c6611c10748aeb04b58e8f",
          "topics": [
            "0x8c5be1e5ebec7d5bd14f71427d1e84f3dd0314c0f7b2291e5b200ac8c7c3b925",
            "0x0000000000000000000000006d61af3907e64537973b1066cae91d78072dc80e",
            "0x000000000000000000000000a5e0829caced8ffdd4de3c43696c57f7d7a678ff"
          ],
          "data": "0x0000000000000000000000000000000000000000000000000000000000000000",
          "blockHash": "0x76fcc5b58c986a83cb2e017a1faf704ffd2d343a0de4bd3c32599e313f2c6f07",
          "blockNumber": "0x38cbf51",
          "transactionHash": "0x85632061280944bcee7e71e3b10a70a1e0c8521b1c3ee4f7ed5bed9a2e837f6e",
          "transactionIndex": "0x56",
          "logIndex": "0x28b",
          "removed": false
        },
        {
          "address": "0x91d26f6890b01629f72547f8365e90aa8ba1eee4",
          "topics": [
            "0xddf252ad1be2c89b69c2b068fc378daa952ba7f163c4a11628f55a4df523b3ef",
            "0x0000000000000000000000000000000000000000000000000000000000000000",
            "0x0000000000000000000000006d61af3907e64537973b1066cae91d78072dc80e"
          ],
          "data": "0x0000000000000000000000000000000000000000000000000000000165a0bc00",
          "blockHash": "0x76fcc5b58c986a83cb2e017a1faf704ffd2d343a0de4bd3c32599e313f2c6f07",
          "blockNumber": "0x38cbf51",
          "transactionHash": "0x85632061280944bcee7e71e3b10a70a1e0c8521b1c3ee4f7ed5bed9a2e837f6e",
          "transactionIndex": "0x56",
          "logIndex": "0x28c",
          "removed": false
        },
        {
          "address": "0x91d26f6890b01629f72547f8365e90aa8ba1eee4",
          "topics": [
            "0x1c411e9a96e071241c2f21f7726b17ae89e3cab4c78be50e062b03a9fffbbad1"
          ],
          "data": "0x000000000000000000000000000000000000000000000000001550f81841ca0000000000000000000000000000000000000000000000000000000000005b8d81",
          "blockHash": "0x76fcc5b58c986a83cb2e017a1faf704ffd2d343a0de4bd3c32599e313f2c6f07",
          "blockNumber": "0x38cbf51",
          "transactionHash": "0x85632061280944bcee7e71e3b10a70a1e0c8521b1c3ee4f7ed5bed9a2e837f6e",
          "transactionIndex": "0x56",
          "logIndex": "0x28d",
          "removed": false
        },
        {
          "address": "0x91d26f6890b01629f72547f8365e90aa8ba1eee4",
          "topics": [
            "0x4c209b5fc8ad50758f13e2e1088ba56a560dff690a1c6fef26394f4c03821c4f",
            "0x000000000000000000000000a5e0829caced8ffdd4de3c43696c57f7d7a678ff"
          ],
          "data": "0x000000000000000000000000000000000000000000000000001550f7dca7000000000000000000000000000000000000000000000000000000000000005b8d80",
          "blockHash": "0x76fcc5b58c986a83cb2e017a1faf704ffd2d343a0de4bd3c32599e313f2c6f07",
          "blockNumber": "0x38cbf51",
          "transactionHash": "0x85632061280944bcee7e71e3b10a70a1e0c8521b1c3ee4f7ed5bed9a2e837f6e",
          "transactionIndex": "0x56",
          "logIndex": "0x28e",
          "removed": false
        },
        {
          "address": "0x0000000000000000000000000000000000001010",
          "topics": [
            "0x4dfe1bbbcf077ddc3e01291eea2d5c70c2b422b415d95645b9adcfd678cb1d63",
            "0x0000000000000000000000000000000000000000000000000000000000001010",
            "0x0000000000000000000000001b395389386f3f2a27866dad8f7ddbb31c392e66",
            "0x0000000000000000000000008842ea85732f94feeb9cf1ccc7d357c63658e7a4"
          ],
          "data": "0x000000000000000000000000000000000000000000000000002165774ab7549700000000000000000000000000000000000000000000000074f386131ef703420000000000000000000000000000000000000000000006b8392cdd7c7615a5f200000000000000000000000000000000000000000000000074d2209bd43faeab0000000000000000000000000000000000000000000006b8394e42f3c0ccfa89",
          "blockHash": "0x76fcc5b58c986a83cb2e017a1faf704ffd2d343a0de4bd3c32599e313f2c6f07",
          "blockNumber": "0x38cbf51",
          "transactionHash": "0x85632061280944bcee7e71e3b10a70a1e0c8521b1c3ee4f7ed5bed9a2e837f6e",
          "transactionIndex": "0x56",
          "logIndex": "0x28f",
          "removed": false
        }
      ],
      "logsBloom": "0x00000004000000000000000080001000000000000000000002000000000001800000000000000000000000000000000100008800000000000000000002200000000000000000000000080008000000800004000000000000000100000000000000000000020082000000800000800840000000000008000280000010010000800000010000080000000000000000000000000000000000080000000000000000220000000000000000000000000000000000000000000008000000000080004000000002000000000001000000020000400000000000001000100000000020000010000000000000000000400000000000000000000000000000000000100000",
      "type": "0x2",
      "transactionHash": "0x85632061280944bcee7e71e3b10a70a1e0c8521b1c3ee4f7ed5bed9a2e837f6e",
      "transactionIndex": "0x56",
      "blockHash": "0x76fcc5b58c986a83cb2e017a1faf704ffd2d343a0de4bd3c32599e313f2c6f07",
      "blockNumber": "0x38cbf51",
      "gasUsed": "0x383e9",
      "effectiveGasPrice": "0x136ba70b7b",
      "from": "0x1b395389386f3f2a27866dad8f7ddbb31c392e66",
      "to": "0x6d61af3907e64537973b1066cae91d78072dc80e",
      "contractAddress": null
    },
    {
      "status": "0x1",
      "cumulativeGasUsed": "0xf61802",
      "logs": [
        {
          "address": "0x10a7ee546c3108a4f97ba95ed685ee17078cc2fe",
          "topics": [
            "0xd083a8aaec22fd5c06dfb61243244a5c296eb8770219c1880d12290f07691590"
          ],
          "data": "0x0000000000000000000000000000000000000000000000000000000000000000",
          "blockHash": "0x76fcc5b58c986a83cb2e017a1faf704ffd2d343a0de4bd3c32599e313f2c6f07",
          "blockNumber": "0x38cbf51",
          "transactionHash": "0x61ec503c930c04bc0f4b11cd6e66197491dbad6d77e4acf3bc0b9f5c13851853",
          "transactionIndex": "0x57",
          "logIndex": "0x290",
          "removed": false
        },
        {
          "address": "0x0000000000000000000000000000000000001010",
          "topics": [
            "0x4dfe1bbbcf077ddc3e01291eea2d5c70c2b422b415d95645b9adcfd678cb1d63",
            "0x0000000000000000000000000000000000000000000000000000000000001010",
            "0x0000000000000000000000001b395389386f3f2a27866dad8f7ddbb31c392e66",
            "0x0000000000000000000000008842ea85732f94feeb9cf1ccc7d357c63658e7a4"
          ],
          "data": "0x0000000000000000000000000000000000000000000000000003e5cc0bbaf67900000000000000000000000000000000000000000000000074af415a869c9f4f0000000000000000000000000000000000000000000006b8394e42f3c0ccfa8900000000000000000000000000000000000000000000000074ab5b8e7ae1a8d60000000000000000000000000000000000000000000006b8395228bfcc87f102",
          "blockHash": "0x76fcc5b58c986a83cb2e017a1faf704ffd2d343a0de4bd3c32599e313f2c6f07",
          "blockNumber": "0x38cbf51",
          "transactionHash": "0x61ec503c930c04bc0f4b11cd6e66197491dbad6d77e4acf3bc0b9f5c13851853",
          "transactionIndex": "0x57",
          "logIndex": "0x291",
          "removed": false
        }
      ],
      "logsBloom": "0x00000000000000000000000000001000000000000000000000000000000000800000000000000000000000000000000000008000000000000000000002000000000000000000000000080000000000800004000000000000000100000000000000000000000002000000000000800000000000000000000280000000000000008000000000000000000000000000000000000000000000000000000000080000200000000000000000000000000000000000000000000000000000000000004000000000000000000001000000000000000000000000000000100000002000000000000000000000000000400000000000000000000000000000000000100000",
      "type": "0x2",
      "transactionHash": "0x61ec503c930c04bc0f4b11cd6e66197491dbad6d77e4acf3bc0b9f5c13851853",
      "transactionIndex": "0x57",
      "blockHash": "0x76fcc5b58c986a83cb2e017a1faf704ffd2d343a0de4bd3c32599e313f2c6f07",
      "blockNumber": "0x38cbf51",
      "gasUsed": "0x6907",
      "effectiveGasPrice": "0x136ba70b7b",
      "from": "0x1b395389386f3f2a27866dad8f7ddbb31c392e66",
      "to": "0x10a7ee546c3108a4f97ba95ed685ee17078cc2fe",
      "contractAddress": null
    },
    {
      "status": "0x1",
      "cumulativeGasUsed": "0xf6ce74",
      "logs": [
        {
          "address": "0x10a7ee546c3108a4f97ba95ed685ee17078cc2fe",
          "topics": [
            "0x8c5be1e5ebec7d5bd14f71427d1e84f3dd0314c0f7b2291e5b200ac8c7c3b925",
            "0x0000000000000000000000001b395389386f3f2a27866dad8f7ddbb31c392e66",
            "0x0000000000000000000000006d61af3907e64537973b1066cae91d78072dc80e"
          ],
          "data": "0xffffffffffffffffffffffffffffffffffffffffffffffffffffffffffffffff",
          "blockHash": "0x76fcc5b58c986a83cb2e017a1faf704ffd2d343a0de4bd3c32599e313f2c6f07",
          "blockNumber": "0x38cbf51",
          "transactionHash": "0xaa90b4fb4582773925655e946de2dfe293755c6171ff076a2ccae96b8673c1dd",
          "transactionIndex": "0x58",
          "logIndex": "0x292",
          "removed": false
        },
        {
          "address": "0x0000000000000000000000000000000000001010",
          "topics": [
            "0x4dfe1bbbcf077ddc3e01291eea2d5c70c2b422b415d95645b9adcfd678cb1d63",
            "0x0000000000000000000000000000000000000000000000000000000000001010",
            "0x0000000000000000000000001b395389386f3f2a27866dad8f7ddbb31c392e66",
            "0x0000000000000000000000008842ea85732f94feeb9cf1ccc7d357c63658e7a4"
          ],
          "data": "0x0000000000000000000000000000000000000000000000000006c54b950eca8e00000000000000000000000000000000000000000000000074a749ab1155dbf20000000000000000000000000000000000000000000006b8395228bfcc87f10200000000000000000000000000000000000000000000000074a0845f7c4711640000000000000000000000000000000000000000000006b83958ee0b6196bb90",
          "blockHash": "0x76fcc5b58c986a83cb2e017a1faf704ffd2d343a0de4bd3c32599e313f2c6f07",
          "blockNumber": "0x38cbf51",
          "transactionHash": "0xaa90b4fb4582773925655e946de2dfe293755c6171ff076a2ccae96b8673c1dd",
          "transactionIndex": "0x58",
          "logIndex": "0x293",
          "removed": false
        }
      ],
      "logsBloom": "0x00000004000000000000000000001000000000000000000002000000000000800000000000000000000000000000000000008000000000000000000002200000000000000000000000080000000000800004000000000000000100000000000000000000000002000000800000800000000000000000000280000000000000000000000000000000000000000000000000000000000000000000000000000000220000000000000000000000000000000000000000000000000000000000004000000000000000000001000000000000000000000000000000100000000000000010000000000000000000400000000000000000000000000000000000100000",
      "type": "0x2",
      "transactionHash": "0xaa90b4fb4582773925655e946de2dfe293755c6171ff076a2ccae96b8673c1dd",
      "transactionIndex": "0x58",
      "blockHash": "0x76fcc5b58c986a83cb2e017a1faf704ffd2d343a0de4bd3c32599e313f2c6f07",
      "blockNumber": "0x38cbf51",
      "gasUsed": "0xb672",
      "effectiveGasPrice": "0x136ba70b7b",
      "from": "0x1b395389386f3f2a27866dad8f7ddbb31c392e66",
      "to": "0x10a7ee546c3108a4f97ba95ed685ee17078cc2fe",
      "contractAddress": null
    },
    {
      "status": "0x1",
      "cumulativeGasUsed": "0xf799dc",
      "logs": [
        {
          "address": "0xc2132d05d31c914a87c6611c10748aeb04b58e8f",
          "topics": [
            "0x8c5be1e5ebec7d5bd14f71427d1e84f3dd0314c0f7b2291e5b200ac8c7c3b925",
            "0x0000000000000000000000001b395389386f3f2a27866dad8f7ddbb31c392e66",
            "0x0000000000000000000000006d61af3907e64537973b1066cae91d78072dc80e"
          ],
          "data": "0xffffffffffffffffffffffffffffffffffffffffffffffffffffffffffffffff",
          "blockHash": "0x76fcc5b58c986a83cb2e017a1faf704ffd2d343a0de4bd3c32599e313f2c6f07",
          "blockNumber": "0x38cbf51",
          "transactionHash": "0x71066b076bb9e708ddfebfc7017298f02c522543735032ccc4e9f1cf570588d9",
          "transactionIndex": "0x59",
          "logIndex": "0x294",
          "removed": false
        },
        {
          "address": "0x0000000000000000000000000000000000001010",
          "topics": [
            "0x4dfe1bbbcf077ddc3e01291eea2d5c70c2b422b415d95645b9adcfd678cb1d63",
            "0x0000000000000000000000000000000000000000000000000000000000001010",
            "0x0000000000000000000000001b395389386f3f2a27866dad8f7ddbb31c392e66",
            "0x0000000000000000000000008842ea85732f94feeb9cf1ccc7d357c63658e7a4"
          ],
          "data": "0x00000000000000000000000000000000000000000000000000078c6e7cc488980000000000000000000000000000000000000000000000007499727c5ec94d2c0000000000000000000000000000000000000000000006b83958ee0b6196bb900000000000000000000000000000000000000000000000007491e60de204c4940000000000000000000000000000000000000000000006b839607a79de5b4428",
          "blockHash": "0x76fcc5b58c986a83cb2e017a1faf704ffd2d343a0de4bd3c32599e313f2c6f07",
          "blockNumber": "0x38cbf51",
          "transactionHash": "0x71066b076bb9e708ddfebfc7017298f02c522543735032ccc4e9f1cf570588d9",
          "transactionIndex": "0x59",
          "logIndex": "0x295",
          "removed": false
        }
      ],
      "logsBloom": "0x00000004000000000000000000001000000000000000000002000000000000800000000000000000000000000000000100008000000000000000000000200000000000000000000000080000000000800004000000000000000100000000000000000000000002000000800000000000000000000000000280000000000000000000000000080000000000000000000000000000000000000000000000000000220000000000000000000000000000000000000000000000000000000000004000000000000000000001000000000000400000000000000000100000000000000010000000000000000000000000000000000000000000000000000000100000",
      "type": "0x2",
      "transactionHash": "0x71066b076bb9e708ddfebfc7017298f02c522543735032ccc4e9f1cf570588d9",
      "transactionIndex": "0x59",
      "blockHash": "0x76fcc5b58c986a83cb2e017a1faf704ffd2d343a0de4bd3c32599e313f2c6f07",
      "blockNumber": "0x38cbf51",
      "gasUsed": "0xcb68",
      "effectiveGasPrice": "0x136ba70b7b",
      "from": "0x1b395389386f3f2a27866dad8f7ddbb31c392e66",
      "to": "0xc2132d05d31c914a87c6611c10748aeb04b58e8f",
      "contractAddress": null
    },
    {
      "status": "0x1",
      "cumulativeGasUsed": "0xf9a64f",
      "logs": [
        {
          "address": "0x10a7ee546c3108a4f97ba95ed685ee17078cc2fe",
          "topics": [
            "0xddf252ad1be2c89b69c2b068fc378daa952ba7f163c4a11628f55a4df523b3ef",
            "0x0000000000000000000000001b395389386f3f2a27866dad8f7ddbb31c392e66",
            "0x0000000000000000000000006d61af3907e64537973b1066cae91d78072dc80e"
          ],
          "data": "0x00000000000000000000000000000000000000000000000006f05b59d3b20000",
          "blockHash": "0x76fcc5b58c986a83cb2e017a1faf704ffd2d343a0de4bd3c32599e313f2c6f07",
          "blockNumber": "0x38cbf51",
          "transactionHash": "0x129b23c99a8241c2e2d27b13d14b71b8112c4e7d180157e9e62388ca652f970b",
          "transactionIndex": "0x5a",
          "logIndex": "0x296",
          "removed": false
        },
        {
          "address": "0x10a7ee546c3108a4f97ba95ed685ee17078cc2fe",
          "topics": [
            "0x8c5be1e5ebec7d5bd14f71427d1e84f3dd0314c0f7b2291e5b200ac8c7c3b925",
            "0x0000000000000000000000006d61af3907e64537973b1066cae91d78072dc80e",
            "0x000000000000000000000000a5e0829caced8ffdd4de3c43696c57f7d7a678ff"
          ],
          "data": "0x00000000000000000000000000000000000000000000000006f05b59d3b20000",
          "blockHash": "0x76fcc5b58c986a83cb2e017a1faf704ffd2d343a0de4bd3c32599e313f2c6f07",
          "blockNumber": "0x38cbf51",
          "transactionHash": "0x129b23c99a8241c2e2d27b13d14b71b8112c4e7d180157e9e62388ca652f970b",
          "transactionIndex": "0x5a",
          "logIndex": "0x297",
          "removed": false
        },
        {
          "address": "0x10a7ee546c3108a4f97ba95ed685ee17078cc2fe",
          "topics": [
            "0xddf252ad1be2c89b69c2b068fc378daa952ba7f163c4a11628f55a4df523b3ef",
            "0x0000000000000000000000006d61af3907e64537973b1066cae91d78072dc80e",
            "0x00000000000000000000000091d26f6890b01629f72547f8365e90aa8ba1eee4"
          ],
          "data": "0x00000000000000000000000000000000000000000000000006f05b59d3b20000",
          "blockHash": "0x76fcc5b58c986a83cb2e017a1faf704ffd2d343a0de4bd3c32599e313f2c6f07",
          "blockNumber": "0x38cbf51",
          "transactionHash": "0x129b23c99a8241c2e2d27b13d14b71b8112c4e7d180157e9e62388ca652f970b",
          "transactionIndex": "0x5a",
          "logIndex": "0x298",
          "removed": false
        },
        {
          "address": "0xc2132d05d31c914a87c6611c10748aeb04b58e8f",
          "topics": [
            "0xddf252ad1be2c89b69c2b068fc378daa952ba7f163c4a11628f55a4df523b3ef",
            "0x00000000000000000000000091d26f6890b01629f72547f8365e90aa8ba1eee4",
            "0x0000000000000000000000006d61af3907e64537973b1066cae91d78072dc80e"
          ],
          "data": "0x00000000000000000000000000000000000000000000000000000000005a76c3",
          "blockHash": "0x76fcc5b58c986a83cb2e017a1faf704ffd2d343a0de4bd3c32599e313f2c6f07",
          "blockNumber": "0x38cbf51",
          "transactionHash": "0x129b23c99a8241c2e2d27b13d14b71b8112c4e7d180157e9e62388ca652f970b",
          "transactionIndex": "0x5a",
          "logIndex": "0x299",
          "removed": false
        },
        {
          "address": "0x91d26f6890b01629f72547f8365e90aa8ba1eee4",
          "topics": [
            "0x1c411e9a96e071241c2f21f7726b17ae89e3cab4c78be50e062b03a9fffbbad1"
          ],
          "data": "0x0000000000000000000000000000000000000000000000000705ac51ebf3ca0000000000000000000000000000000000000000000000000000000000000116be",
          "blockHash": "0x76fcc5b58c986a83cb2e017a1faf704ffd2d343a0de4bd3c32599e313f2c6f07",
          "blockNumber": "0x38cbf51",
          "transactionHash": "0x129b23c99a8241c2e2d27b13d14b71b8112c4e7d180157e9e62388ca652f970b",
          "transactionIndex": "0x5a",
          "logIndex": "0x29a",
          "removed": false
        },
        {
          "address": "0x91d26f6890b01629f72547f8365e90aa8ba1eee4",
          "topics": [
            "0xd78ad95fa46c994b6551d0da85fc275fe613ce37657fb8d5e3d130840159d822",
            "0x000000000000000000000000a5e0829caced8ffdd4de3c43696c57f7d7a678ff",
            "0x0000000000000000000000006d61af3907e64537973b1066cae91d78072dc80e"
          ],
          "data": "0x00000000000000000000000000000000000000000000000006f05b59d3b200000000000000000000000000000000000000000000000000000000000000000000000000000000000000000000000000000000000000000000000000000000000000000000000000000000000000000000000000000000000000000000005a76c3",
          "blockHash": "0x76fcc5b58c986a83cb2e017a1faf704ffd2d343a0de4bd3c32599e313f2c6f07",
          "blockNumber": "0x38cbf51",
          "transactionHash": "0x129b23c99a8241c2e2d27b13d14b71b8112c4e7d180157e9e62388ca652f970b",
          "transactionIndex": "0x5a",
          "logIndex": "0x29b",
          "removed": false
        },
        {
          "address": "0x0000000000000000000000000000000000001010",
          "topics": [
            "0x4dfe1bbbcf077ddc3e01291eea2d5c70c2b422b415d95645b9adcfd678cb1d63",
            "0x0000000000000000000000000000000000000000000000000000000000001010",
            "0x0000000000000000000000001b395389386f3f2a27866dad8f7ddbb31c392e66",
            "0x0000000000000000000000008842ea85732f94feeb9cf1ccc7d357c63658e7a4"
          ],
          "data": "0x000000000000000000000000000000000000000000000000001376742aa7b90d000000000000000000000000000000000000000000000000748a043b2cd21a340000000000000000000000000000000000000000000006b839607a79de5b442800000000000000000000000000000000000000000000000074768dc7022a61270000000000000000000000000000000000000000000006b83973f0ee0902fd35",
          "blockHash": "0x76fcc5b58c986a83cb2e017a1faf704ffd2d343a0de4bd3c32599e313f2c6f07",
          "blockNumber": "0x38cbf51",
          "transactionHash": "0x129b23c99a8241c2e2d27b13d14b71b8112c4e7d180157e9e62388ca652f970b",
          "transactionIndex": "0x5a",
          "logIndex": "0x29c",
          "removed": false
        }
      ],
      "logsBloom": "0x00200004000000000000000080001000000000000000000002000000000000800000000000000000000000000000000100008800000000000000000002200000000000000000000000080008000000a00004000000000000000100000000000000000000000082000000800000800040000000000000000280000010010000800000010000080000000000000000000000000000000000080000004000000000220000000000000000000000000000000000000000000008000000000080004000000002000000000001000000000000400000000000001000100000000000000010000000000000000000400000000000000000000000000000000000100000",
      "type": "0x2",
      "transactionHash": "0x129b23c99a8241c2e2d27b13d14b71b8112c4e7d180157e9e62388ca652f970b",
      "transactionIndex": "0x5a",
      "blockHash": "0x76fcc5b58c986a83cb2e017a1faf704ffd2d343a0de4bd3c32599e313f2c6f07",
      "blockNumber": "0x38cbf51",
      "gasUsed": "0x20c73",
      "effectiveGasPrice": "0x136ba70b7b",
      "from": "0x1b395389386f3f2a27866dad8f7ddbb31c392e66",
      "to": "0x6d61af3907e64537973b1066cae91d78072dc80e",
      "contractAddress": null
    },
    {
      "status": "0x1",
      "cumulativeGasUsed": "0xfde618",
      "logs": [
        {
          "address": "0xc2132d05d31c914a87c6611c10748aeb04b58e8f",
          "topics": [
            "0xddf252ad1be2c89b69c2b068fc378daa952ba7f163c4a11628f55a4df523b3ef",
            "0x0000000000000000000000001b395389386f3f2a27866dad8f7ddbb31c392e66",
            "0x0000000000000000000000006d61af3907e64537973b1066cae91d78072dc80e"
          ],
          "data": "0x00000000000000000000000000000000000000000000000000000000000350e9",
          "blockHash": "0x76fcc5b58c986a83cb2e017a1faf704ffd2d343a0de4bd3c32599e313f2c6f07",
          "blockNumber": "0x38cbf51",
          "transactionHash": "0x018e9ddfdf4926393858f6f0f6ad19b0964e52d15ebdcaca9c20aa88708c53b1",
          "transactionIndex": "0x5b",
          "logIndex": "0x29d",
          "removed": false
        },
        {
          "address": "0xc2132d05d31c914a87c6611c10748aeb04b58e8f",
          "topics": [
            "0x8c5be1e5ebec7d5bd14f71427d1e84f3dd0314c0f7b2291e5b200ac8c7c3b925",
            "0x0000000000000000000000001b395389386f3f2a27866dad8f7ddbb31c392e66",
            "0x0000000000000000000000006d61af3907e64537973b1066cae91d78072dc80e"
          ],
          "data": "0xfffffffffffffffffffffffffffffffffffffffffffffffffffffffffffcaf16",
          "blockHash": "0x76fcc5b58c986a83cb2e017a1faf704ffd2d343a0de4bd3c32599e313f2c6f07",
          "blockNumber": "0x38cbf51",
          "transactionHash": "0x018e9ddfdf4926393858f6f0f6ad19b0964e52d15ebdcaca9c20aa88708c53b1",
          "transactionIndex": "0x5b",
          "logIndex": "0x29e",
          "removed": false
        },
        {
          "address": "0xc2132d05d31c914a87c6611c10748aeb04b58e8f",
          "topics": [
            "0x8c5be1e5ebec7d5bd14f71427d1e84f3dd0314c0f7b2291e5b200ac8c7c3b925",
            "0x0000000000000000000000006d61af3907e64537973b1066cae91d78072dc80e",
            "0x000000000000000000000000a5e0829caced8ffdd4de3c43696c57f7d7a678ff"
          ],
          "data": "0x00000000000000000000000000000000000000000000000000000000000350e9",
          "blockHash": "0x76fcc5b58c986a83cb2e017a1faf704ffd2d343a0de4bd3c32599e313f2c6f07",
          "blockNumber": "0x38cbf51",
          "transactionHash": "0x018e9ddfdf4926393858f6f0f6ad19b0964e52d15ebdcaca9c20aa88708c53b1",
          "transactionIndex": "0x5b",
          "logIndex": "0x29f",
          "removed": false
        },
        {
          "address": "0xc2132d05d31c914a87c6611c10748aeb04b58e8f",
          "topics": [
            "0xddf252ad1be2c89b69c2b068fc378daa952ba7f163c4a11628f55a4df523b3ef",
            "0x0000000000000000000000006d61af3907e64537973b1066cae91d78072dc80e",
            "0x00000000000000000000000091d26f6890b01629f72547f8365e90aa8ba1eee4"
          ],
          "data": "0x00000000000000000000000000000000000000000000000000000000000350e9",
          "blockHash": "0x76fcc5b58c986a83cb2e017a1faf704ffd2d343a0de4bd3c32599e313f2c6f07",
          "blockNumber": "0x38cbf51",
          "transactionHash": "0x018e9ddfdf4926393858f6f0f6ad19b0964e52d15ebdcaca9c20aa88708c53b1",
          "transactionIndex": "0x5b",
          "logIndex": "0x2a0",
          "removed": false
        },
        {
          "address": "0xc2132d05d31c914a87c6611c10748aeb04b58e8f",
          "topics": [
            "0x8c5be1e5ebec7d5bd14f71427d1e84f3dd0314c0f7b2291e5b200ac8c7c3b925",
            "0x0000000000000000000000006d61af3907e64537973b1066cae91d78072dc80e",
            "0x000000000000000000000000a5e0829caced8ffdd4de3c43696c57f7d7a678ff"
          ],
          "data": "0x0000000000000000000000000000000000000000000000000000000000000000",
          "blockHash": "0x76fcc5b58c986a83cb2e017a1faf704ffd2d343a0de4bd3c32599e313f2c6f07",
          "blockNumber": "0x38cbf51",
          "transactionHash": "0x018e9ddfdf4926393858f6f0f6ad19b0964e52d15ebdcaca9c20aa88708c53b1",
          "transactionIndex": "0x5b",
          "logIndex": "0x2a1",
          "removed": false
        },
        {
          "address": "0x10a7ee546c3108a4f97ba95ed685ee17078cc2fe",
          "topics": [
            "0xddf252ad1be2c89b69c2b068fc378daa952ba7f163c4a11628f55a4df523b3ef",
            "0x00000000000000000000000091d26f6890b01629f72547f8365e90aa8ba1eee4",
            "0x0000000000000000000000006d61af3907e64537973b1066cae91d78072dc80e"
          ],
          "data": "0x00000000000000000000000000000000000000000000000005484dd0cdf17163",
          "blockHash": "0x76fcc5b58c986a83cb2e017a1faf704ffd2d343a0de4bd3c32599e313f2c6f07",
          "blockNumber": "0x38cbf51",
          "transactionHash": "0x018e9ddfdf4926393858f6f0f6ad19b0964e52d15ebdcaca9c20aa88708c53b1",
          "transactionIndex": "0x5b",
          "logIndex": "0x2a2",
          "removed": false
        },
        {
          "address": "0x91d26f6890b01629f72547f8365e90aa8ba1eee4",
          "topics": [
            "0x1c411e9a96e071241c2f21f7726b17ae89e3cab4c78be50e062b03a9fffbbad1"
          ],
          "data": "0x00000000000000000000000000000000000000000000000001bd5e811e02589d00000000000000000000000000000000000000000000000000000000000467a7",
          "blockHash": "0x76fcc5b58c986a83cb2e017a1faf704ffd2d343a0de4bd3c32599e313f2c6f07",
          "blockNumber": "0x38cbf51",
          "transactionHash": "0x018e9ddfdf4926393858f6f0f6ad19b0964e52d15ebdcaca9c20aa88708c53b1",
          "transactionIndex": "0x5b",
          "logIndex": "0x2a3",
          "removed": false
        },
        {
          "address": "0x91d26f6890b01629f72547f8365e90aa8ba1eee4",
          "topics": [
            "0xd78ad95fa46c994b6551d0da85fc275fe613ce37657fb8d5e3d130840159d822",
            "0x000000000000000000000000a5e0829caced8ffdd4de3c43696c57f7d7a678ff",
            "0x0000000000000000000000006d61af3907e64537973b1066cae91d78072dc80e"
          ],
          "data": "0x000000000000000000000000000000000000000000000000000000000000000000000000000000000000000000000000000000000000000000000000000350e900000000000000000000000000000000000000000000000005484dd0cdf171630000000000000000000000000000000000000000000000000000000000000000",
          "blockHash": "0x76fcc5b58c986a83cb2e017a1faf704ffd2d343a0de4bd3c32599e313f2c6f07",
          "blockNumber": "0x38cbf51",
          "transactionHash": "0x018e9ddfdf4926393858f6f0f6ad19b0964e52d15ebdcaca9c20aa88708c53b1",
          "transactionIndex": "0x5b",
          "logIndex": "0x2a4",
          "removed": false
        },
        {
          "address": "0x10a7ee546c3108a4f97ba95ed685ee17078cc2fe",
          "topics": [
            "0xddf252ad1be2c89b69c2b068fc378daa952ba7f163c4a11628f55a4df523b3ef",
            "0x0000000000000000000000001b395389386f3f2a27866dad8f7ddbb31c392e66",
            "0x0000000000000000000000006d61af3907e64537973b1066cae91d78072dc80e"
          ],
          "data": "0x00000000000000000000000000000000000000000000000001221cc2218d8bb1",
          "blockHash": "0x76fcc5b58c986a83cb2e017a1faf704ffd2d343a0de4bd3c32599e313f2c6f07",
          "blockNumber": "0x38cbf51",
          "transactionHash": "0x018e9ddfdf4926393858f6f0f6ad19b0964e52d15ebdcaca9c20aa88708c53b1",
          "transactionIndex": "0x5b",
          "logIndex": "0x2a5",
          "removed": false
        },
        {
          "address": "0x10a7ee546c3108a4f97ba95ed685ee17078cc2fe",
          "topics": [
            "0x8c5be1e5ebec7d5bd14f71427d1e84f3dd0314c0f7b2291e5b200ac8c7c3b925",
            "0x0000000000000000000000006d61af3907e64537973b1066cae91d78072dc80e",
            "0x000000000000000000000000a5e0829caced8ffdd4de3c43696c57f7d7a678ff"
          ],
          "data": "0x00000000000000000000000000000000000000000000000001221cc2218d8bb1",
          "blockHash": "0x76fcc5b58c986a83cb2e017a1faf704ffd2d343a0de4bd3c32599e313f2c6f07",
          "blockNumber": "0x38cbf51",
          "transactionHash": "0x018e9ddfdf4926393858f6f0f6ad19b0964e52d15ebdcaca9c20aa88708c53b1",
          "transactionIndex": "0x5b",
          "logIndex": "0x2a6",
          "removed": false
        },
        {
          "address": "0x10a7ee546c3108a4f97ba95ed685ee17078cc2fe",
          "topics": [
            "0xddf252ad1be2c89b69c2b068fc378daa952ba7f163c4a11628f55a4df523b3ef",
            "0x0000000000000000000000006d61af3907e64537973b1066cae91d78072dc80e",
            "0x00000000000000000000000091d26f6890b01629f72547f8365e90aa8ba1eee4"
          ],
          "data": "0x00000000000000000000000000000000000000000000000001221cc2218d8bb1",
          "blockHash": "0x76fcc5b58c986a83cb2e017a1faf704ffd2d343a0de4bd3c32599e313f2c6f07",
          "blockNumber": "0x38cbf51",
          "transactionHash": "0x018e9ddfdf4926393858f6f0f6ad19b0964e52d15ebdcaca9c20aa88708c53b1",
          "transactionIndex": "0x5b",
          "logIndex": "0x2a7",
          "removed": false
        },
        {
          "address": "0xc2132d05d31c914a87c6611c10748aeb04b58e8f",
          "topics": [
            "0xddf252ad1be2c89b69c2b068fc378daa952ba7f163c4a11628f55a4df523b3ef",
            "0x00000000000000000000000091d26f6890b01629f72547f8365e90aa8ba1eee4",
            "0x0000000000000000000000006d61af3907e64537973b1066cae91d78072dc80e"
          ],
          "data": "0x000000000000000000000000000000000000000000000000000000000001bbfe",
          "blockHash": "0x76fcc5b58c986a83cb2e017a1faf704ffd2d343a0de4bd3c32599e313f2c6f07",
          "blockNumber": "0x38cbf51",
          "transactionHash": "0x018e9ddfdf4926393858f6f0f6ad19b0964e52d15ebdcaca9c20aa88708c53b1",
          "transactionIndex": "0x5b",
          "logIndex": "0x2a8",
          "removed": false
        },
        {
          "address": "0x91d26f6890b01629f72547f8365e90aa8ba1eee4",
          "topics": [
            "0x1c411e9a96e071241c2f21f7726b17ae89e3cab4c78be50e062b03a9fffbbad1"
          ],
          "data": "0x00000000000000000000000000000000000000000000000002df7b433f8fe44e000000000000000000000000000000000000000000000000000000000002aba9",
          "blockHash": "0x76fcc5b58c986a83cb2e017a1faf704ffd2d343a0de4bd3c32599e313f2c6f07",
          "blockNumber": "0x38cbf51",
          "transactionHash": "0x018e9ddfdf4926393858f6f0f6ad19b0964e52d15ebdcaca9c20aa88708c53b1",
          "transactionIndex": "0x5b",
          "logIndex": "0x2a9",
          "removed": false
        },
        {
          "address": "0x91d26f6890b01629f72547f8365e90aa8ba1eee4",
          "topics": [
            "0xd78ad95fa46c994b6551d0da85fc275fe613ce37657fb8d5e3d130840159d822",
            "0x000000000000000000000000a5e0829caced8ffdd4de3c43696c57f7d7a678ff",
            "0x0000000000000000000000006d61af3907e64537973b1066cae91d78072dc80e"
          ],
          "data": "0x00000000000000000000000000000000000000000000000001221cc2218d8bb100000000000000000000000000000000000000000000000000000000000000000000000000000000000000000000000000000000000000000000000000000000000000000000000000000000000000000000000000000000000000000001bbfe",
          "blockHash": "0x76fcc5b58c986a83cb2e017a1faf704ffd2d343a0de4bd3c32599e313f2c6f07",
          "blockNumber": "0x38cbf51",
          "transactionHash": "0x018e9ddfdf4926393858f6f0f6ad19b0964e52d15ebdcaca9c20aa88708c53b1",
          "transactionIndex": "0x5b",
          "logIndex": "0x2aa",
          "removed": false
        },
        {
          "address": "0xc2132d05d31c914a87c6611c10748aeb04b58e8f",
          "topics": [
            "0xddf252ad1be2c89b69c2b068fc378daa952ba7f163c4a11628f55a4df523b3ef",
            "0x0000000000000000000000001b395389386f3f2a27866dad8f7ddbb31c392e66",
            "0x0000000000000000000000006d61af3907e64537973b1066cae91d78072dc80e"
          ],
          "data": "0x0000000000000000000000000000000000000000000000000000000000003e81",
          "blockHash": "0x76fcc5b58c986a83cb2e017a1faf704ffd2d343a0de4bd3c32599e313f2c6f07",
          "blockNumber": "0x38cbf51",
          "transactionHash": "0x018e9ddfdf4926393858f6f0f6ad19b0964e52d15ebdcaca9c20aa88708c53b1",
          "transactionIndex": "0x5b",
          "logIndex": "0x2ab",
          "removed": false
        },
        {
          "address": "0xc2132d05d31c914a87c6611c10748aeb04b58e8f",
          "topics": [
            "0x8c5be1e5ebec7d5bd14f71427d1e84f3dd0314c0f7b2291e5b200ac8c7c3b925",
            "0x0000000000000000000000001b395389386f3f2a27866dad8f7ddbb31c392e66",
            "0x0000000000000000000000006d61af3907e64537973b1066cae91d78072dc80e"
          ],
          "data": "0xfffffffffffffffffffffffffffffffffffffffffffffffffffffffffffc7095",
          "blockHash": "0x76fcc5b58c986a83cb2e017a1faf704ffd2d343a0de4bd3c32599e313f2c6f07",
          "blockNumber": "0x38cbf51",
          "transactionHash": "0x018e9ddfdf4926393858f6f0f6ad19b0964e52d15ebdcaca9c20aa88708c53b1",
          "transactionIndex": "0x5b",
          "logIndex": "0x2ac",
          "removed": false
        },
        {
          "address": "0xc2132d05d31c914a87c6611c10748aeb04b58e8f",
          "topics": [
            "0x8c5be1e5ebec7d5bd14f71427d1e84f3dd0314c0f7b2291e5b200ac8c7c3b925",
            "0x0000000000000000000000006d61af3907e64537973b1066cae91d78072dc80e",
            "0x000000000000000000000000a5e0829caced8ffdd4de3c43696c57f7d7a678ff"
          ],
          "data": "0x0000000000000000000000000000000000000000000000000000000000003e81",
          "blockHash": "0x76fcc5b58c986a83cb2e017a1faf704ffd2d343a0de4bd3c32599e313f2c6f07",
          "blockNumber": "0x38cbf51",
          "transactionHash": "0x018e9ddfdf4926393858f6f0f6ad19b0964e52d15ebdcaca9c20aa88708c53b1",
          "transactionIndex": "0x5b",
          "logIndex": "0x2ad",
          "removed": false
        },
        {
          "address": "0xc2132d05d31c914a87c6611c10748aeb04b58e8f",
          "topics": [
            "0xddf252ad1be2c89b69c2b068fc378daa952ba7f163c4a11628f55a4df523b3ef",
            "0x0000000000000000000000006d61af3907e64537973b1066cae91d78072dc80e",
            "0x00000000000000000000000091d26f6890b01629f72547f8365e90aa8ba1eee4"
          ],
          "data": "0x0000000000000000000000000000000000000000000000000000000000003e81",
          "blockHash": "0x76fcc5b58c986a83cb2e017a1faf704ffd2d343a0de4bd3c32599e313f2c6f07",
          "blockNumber": "0x38cbf51",
          "transactionHash": "0x018e9ddfdf4926393858f6f0f6ad19b0964e52d15ebdcaca9c20aa88708c53b1",
          "transactionIndex": "0x5b",
          "logIndex": "0x2ae",
          "removed": false
        },
        {
          "address": "0xc2132d05d31c914a87c6611c10748aeb04b58e8f",
          "topics": [
            "0x8c5be1e5ebec7d5bd14f71427d1e84f3dd0314c0f7b2291e5b200ac8c7c3b925",
            "0x0000000000000000000000006d61af3907e64537973b1066cae91d78072dc80e",
            "0x000000000000000000000000a5e0829caced8ffdd4de3c43696c57f7d7a678ff"
          ],
          "data": "0x0000000000000000000000000000000000000000000000000000000000000000",
          "blockHash": "0x76fcc5b58c986a83cb2e017a1faf704ffd2d343a0de4bd3c32599e313f2c6f07",
          "blockNumber": "0x38cbf51",
          "transactionHash": "0x018e9ddfdf4926393858f6f0f6ad19b0964e52d15ebdcaca9c20aa88708c53b1",
          "transactionIndex": "0x5b",
          "logIndex": "0x2af",
          "removed": false
        },
        {
          "address": "0x10a7ee546c3108a4f97ba95ed685ee17078cc2fe",
          "topics": [
            "0xddf252ad1be2c89b69c2b068fc378daa952ba7f163c4a11628f55a4df523b3ef",
            "0x00000000000000000000000091d26f6890b01629f72547f8365e90aa8ba1eee4",
            "0x0000000000000000000000006d61af3907e64537973b1066cae91d78072dc80e"
          ],
          "data": "0x000000000000000000000000000000000000000000000000003d708e613bc99a",
          "blockHash": "0x76fcc5b58c986a83cb2e017a1faf704ffd2d343a0de4bd3c32599e313f2c6f07",
          "blockNumber": "0x38cbf51",
          "transactionHash": "0x018e9ddfdf4926393858f6f0f6ad19b0964e52d15ebdcaca9c20aa88708c53b1",
          "transactionIndex": "0x5b",
          "logIndex": "0x2b0",
          "removed": false
        },
        {
          "address": "0x91d26f6890b01629f72547f8365e90aa8ba1eee4",
          "topics": [
            "0x1c411e9a96e071241c2f21f7726b17ae89e3cab4c78be50e062b03a9fffbbad1"
          ],
          "data": "0x00000000000000000000000000000000000000000000000002a20ab4de541ab4000000000000000000000000000000000000000000000000000000000002ea2a",
          "blockHash": "0x76fcc5b58c986a83cb2e017a1faf704ffd2d343a0de4bd3c32599e313f2c6f07",
          "blockNumber": "0x38cbf51",
          "transactionHash": "0x018e9ddfdf4926393858f6f0f6ad19b0964e52d15ebdcaca9c20aa88708c53b1",
          "transactionIndex": "0x5b",
          "logIndex": "0x2b1",
          "removed": false
        },
        {
          "address": "0x91d26f6890b01629f72547f8365e90aa8ba1eee4",
          "topics": [
            "0xd78ad95fa46c994b6551d0da85fc275fe613ce37657fb8d5e3d130840159d822",
            "0x000000000000000000000000a5e0829caced8ffdd4de3c43696c57f7d7a678ff",
            "0x0000000000000000000000006d61af3907e64537973b1066cae91d78072dc80e"
          ],
          "data": "0x00000000000000000000000000000000000000000000000000000000000000000000000000000000000000000000000000000000000000000000000000003e81000000000000000000000000000000000000000000000000003d708e613bc99a0000000000000000000000000000000000000000000000000000000000000000",
          "blockHash": "0x76fcc5b58c986a83cb2e017a1faf704ffd2d343a0de4bd3c32599e313f2c6f07",
          "blockNumber": "0x38cbf51",
          "transactionHash": "0x018e9ddfdf4926393858f6f0f6ad19b0964e52d15ebdcaca9c20aa88708c53b1",
          "transactionIndex": "0x5b",
          "logIndex": "0x2b2",
          "removed": false
        },
        {
          "address": "0x0000000000000000000000000000000000001010",
          "topics": [
            "0x4dfe1bbbcf077ddc3e01291eea2d5c70c2b422b415d95645b9adcfd678cb1d63",
            "0x0000000000000000000000000000000000000000000000000000000000001010",
            "0x0000000000000000000000001b395389386f3f2a27866dad8f7ddbb31c392e66",
            "0x0000000000000000000000008842ea85732f94feeb9cf1ccc7d357c63658e7a4"
          ],
          "data": "0x00000000000000000000000000000000000000000000000000285e585e1c08b700000000000000000000000000000000000000000000000074623b27e5482df30000000000000000000000000000000000000000000006b83973f0ee0902fd350000000000000000000000000000000000000000000000007439dccf872c253c0000000000000000000000000000000000000000000006b8399c4f46671f05ec",
          "blockHash": "0x76fcc5b58c986a83cb2e017a1faf704ffd2d343a0de4bd3c32599e313f2c6f07",
          "blockNumber": "0x38cbf51",
          "transactionHash": "0x018e9ddfdf4926393858f6f0f6ad19b0964e52d15ebdcaca9c20aa88708c53b1",
          "transactionIndex": "0x5b",
          "logIndex": "0x2b3",
          "removed": false
        }
      ],
      "logsBloom": "0x00200004000000000000000080001000000000000000000002000000000000800000000000000000000000000000000100008800000000000000000002200000000000000000000000080008000000a00004000000000000000100000000000000000000000082000000800000800040000000000000000280000010010000800000010000080000000000000000000000000000000000080000004000000000220000000000000000000000000000000000000000000008000000000080004000000002000000000001000000000000400000000000001000100000000000000010000000000000000000400000000000000000000000000000000000100000",
      "type": "0x2",
      "transactionHash": "0x018e9ddfdf4926393858f6f0f6ad19b0964e52d15ebdcaca9c20aa88708c53b1",
      "transactionIndex": "0x5b",
      "blockHash": "0x76fcc5b58c986a83cb2e017a1faf704ffd2d343a0de4bd3c32599e313f2c6f07",
      "blockNumber": "0x38cbf51",
      "gasUsed": "0x43fc9",
      "effectiveGasPrice": "0x136ba70b7b",
      "from": "0x1b395389386f3f2a27866dad8f7ddbb31c392e66",
      "to": "0x6d61af3907e64537973b1066cae91d78072dc80e",
      "contractAddress": null
    },
    {
      "status": "0x1",
      "cumulativeGasUsed": "0xfe9d3b",
      "logs": [
        {
          "address": "0x10a7ee546c3108a4f97ba95ed685ee17078cc2fe",
          "topics": [
            "0xd083a8aaec22fd5c06dfb61243244a5c296eb8770219c1880d12290f07691590"
          ],
          "data": "0x00000000000000000000000000000000000000000000000002a20ab4de541ab4",
          "blockHash": "0x76fcc5b58c986a83cb2e017a1faf704ffd2d343a0de4bd3c32599e313f2c6f07",
          "blockNumber": "0x38cbf51",
          "transactionHash": "0x20334bba468f9b88bc9c212ba23051ca29ef5c54d603ef5b186754920bc89ecc",
          "transactionIndex": "0x5c",
          "logIndex": "0x2b4",
          "removed": false
        },
        {
          "address": "0x0000000000000000000000000000000000001010",
          "topics": [
            "0x4dfe1bbbcf077ddc3e01291eea2d5c70c2b422b415d95645b9adcfd678cb1d63",
            "0x0000000000000000000000000000000000000000000000000000000000001010",
            "0x0000000000000000000000001b395389386f3f2a27866dad8f7ddbb31c392e66",
            "0x0000000000000000000000008842ea85732f94feeb9cf1ccc7d357c63658e7a4"
          ],
          "data": "0x0000000000000000000000000000000000000000000000000006cbdd2525265d000000000000000000000000000000000000000000000000740fb5ce1560e5600000000000000000000000000000000000000000000006b8399c4f46671f05ec0000000000000000000000000000000000000000000000007408e9f0f03bbf030000000000000000000000000000000000000000000006b839a31b238c442c49",
          "blockHash": "0x76fcc5b58c986a83cb2e017a1faf704ffd2d343a0de4bd3c32599e313f2c6f07",
          "blockNumber": "0x38cbf51",
          "transactionHash": "0x20334bba468f9b88bc9c212ba23051ca29ef5c54d603ef5b186754920bc89ecc",
          "transactionIndex": "0x5c",
          "logIndex": "0x2b5",
          "removed": false
        }
      ],
      "logsBloom": "0x00000000000000000000000000001000000000000000000000000000000000800000000000000000000000000000000000008000000000000000000002000000000000000000000000080000000000800004000000000000000100000000000000000000000002000000000000800000000000000000000280000000000000008000000000000000000000000000000000000000000000000000000000080000200000000000000000000000000000000000000000000000000000000000004000000000000000000001000000000000000000000000000000100000002000000000000000000000000000400000000000000000000000000000000000100000",
      "type": "0x2",
      "transactionHash": "0x20334bba468f9b88bc9c212ba23051ca29ef5c54d603ef5b186754920bc89ecc",
      "transactionIndex": "0x5c",
      "blockHash": "0x76fcc5b58c986a83cb2e017a1faf704ffd2d343a0de4bd3c32599e313f2c6f07",
      "blockNumber": "0x38cbf51",
      "gasUsed": "0xb723",
      "effectiveGasPrice": "0x136ba70b7b",
      "from": "0x1b395389386f3f2a27866dad8f7ddbb31c392e66",
      "to": "0x10a7ee546c3108a4f97ba95ed685ee17078cc2fe",
      "contractAddress": null
    }
  ],
  "libraries": [],
  "pending": [],
  "returns": {
    "0": {
      "internal_type": "contract BitcoinPool",
      "value": "0x6D61af3907E64537973b1066CaE91d78072dc80E"
    }
  },
  "timestamp": 1721403712,
  "chain": 137,
  "commit": "e25b34d"
}