{
  "transactions": [
    {
      "hash": "0x08633634e54676eeafca576558f252bb51b82d32e677bea8170b2ca9a2144c57",
      "transactionType": "CALL",
      "contractName": null,
      "contractAddress": "0x10a7ee546c3108a4f97ba95ed685ee17078cc2fe",
      "function": "setMinWithdrawal(uint256)",
      "arguments": [
        "0"
      ],
      "transaction": {
        "from": "0x1b395389386f3f2a27866dad8f7ddbb31c392e66",
        "to": "0x10a7ee546c3108a4f97ba95ed685ee17078cc2fe",
        "gas": "0x8646",
        "value": "0x0",
        "input": "0xb070e4330000000000000000000000000000000000000000000000000000000000000000",
        "nonce": "0x19f",
        "chainId": "0x89"
      },
      "additionalContracts": [],
      "isFixedGasLimit": false
    },
    {
      "hash": "0x409c6427ba7aa855e52e240de4416d56c985e5586ad0fe20b5349d2252277d33",
      "transactionType": "CALL",
      "contractName": null,
      "contractAddress": "0x83de4c97d1551b55e309dd54c9435849c9ecec36",
      "function": "removeLiquidity(address,address)",
      "arguments": [
        "0x10A7Ee546C3108a4F97Ba95ed685eE17078Cc2fE",
        "0xc2132D05D31c914a87C6611C10748AEb04B58e8F"
      ],
      "transaction": {
        "from": "0x1b395389386f3f2a27866dad8f7ddbb31c392e66",
        "to": "0x83de4c97d1551b55e309dd54c9435849c9ecec36",
        "gas": "0x3bb79",
        "value": "0x0",
        "input": "0x9cf38f7c00000000000000000000000010a7ee546c3108a4f97ba95ed685ee17078cc2fe000000000000000000000000c2132d05d31c914a87c6611c10748aeb04b58e8f",
        "nonce": "0x1a0",
        "chainId": "0x89"
      },
      "additionalContracts": [],
      "isFixedGasLimit": false
    },
    {
      "hash": "0x79b30e37f82a07d1f9914f2972a16b318c6f7332e3399f8bf3283b92dcbdb86d",
      "transactionType": "CALL",
      "contractName": null,
      "contractAddress": "0x83de4c97d1551b55e309dd54c9435849c9ecec36",
      "function": "withdrawAllERC20(address)",
      "arguments": [
        "0xc2132D05D31c914a87C6611C10748AEb04B58e8F"
      ],
      "transaction": {
        "from": "0x1b395389386f3f2a27866dad8f7ddbb31c392e66",
        "to": "0x83de4c97d1551b55e309dd54c9435849c9ecec36",
        "gas": "0xe580",
        "value": "0x0",
        "input": "0x857abbd4000000000000000000000000c2132d05d31c914a87c6611c10748aeb04b58e8f",
        "nonce": "0x1a1",
        "chainId": "0x89"
      },
      "additionalContracts": [],
      "isFixedGasLimit": false
    },
    {
      "hash": "0x3a0149c52a0385af9e1cbb235aada5ebbde05daa6d11c00084195b2a0ff78516",
      "transactionType": "CALL",
      "contractName": null,
      "contractAddress": "0x83de4c97d1551b55e309dd54c9435849c9ecec36",
      "function": "withdrawAllERC20(address)",
      "arguments": [
        "0x10A7Ee546C3108a4F97Ba95ed685eE17078Cc2fE"
      ],
      "transaction": {
        "from": "0x1b395389386f3f2a27866dad8f7ddbb31c392e66",
        "to": "0x83de4c97d1551b55e309dd54c9435849c9ecec36",
        "gas": "0xd933",
        "value": "0x0",
        "input": "0x857abbd400000000000000000000000010a7ee546c3108a4f97ba95ed685ee17078cc2fe",
        "nonce": "0x1a2",
        "chainId": "0x89"
      },
      "additionalContracts": [],
      "isFixedGasLimit": false
    }
  ],
  "receipts": [
    {
      "status": "0x1",
      "cumulativeGasUsed": "0x5f1db9",
      "logs": [
        {
          "address": "0x10a7ee546c3108a4f97ba95ed685ee17078cc2fe",
          "topics": [
            "0xd083a8aaec22fd5c06dfb61243244a5c296eb8770219c1880d12290f07691590"
          ],
          "data": "0x0000000000000000000000000000000000000000000000000000000000000000",
          "blockHash": "0xfd8e1da088865b78cfa4676e7f8d0ece24042875681f349d96918e6ef516b84e",
          "blockNumber": "0x38cc5ca",
          "transactionHash": "0x08633634e54676eeafca576558f252bb51b82d32e677bea8170b2ca9a2144c57",
          "transactionIndex": "0x2e",
          "logIndex": "0xd5",
          "removed": false
        },
        {
          "address": "0x0000000000000000000000000000000000001010",
          "topics": [
            "0x4dfe1bbbcf077ddc3e01291eea2d5c70c2b422b415d95645b9adcfd678cb1d63",
            "0x0000000000000000000000000000000000000000000000000000000000001010",
            "0x0000000000000000000000001b395389386f3f2a27866dad8f7ddbb31c392e66",
            "0x000000000000000000000000c684e44ce96a7d873af6bb31d4de02b5ca0f78c6"
          ],
          "data": "0x0000000000000000000000000000000000000000000000000002a709afd5f40000000000000000000000000000000000000000000000000072ddfff0b626d3ff00000000000000000000000000000000000000000000021641fef3ccaa6a0f3a00000000000000000000000000000000000000000000000072db58e70650dfff00000000000000000000000000000000000000000000021642019ad65a40033a",
          "blockHash": "0xfd8e1da088865b78cfa4676e7f8d0ece24042875681f349d96918e6ef516b84e",
          "blockNumber": "0x38cc5ca",
          "transactionHash": "0x08633634e54676eeafca576558f252bb51b82d32e677bea8170b2ca9a2144c57",
          "transactionIndex": "0x2e",
          "logIndex": "0xd6",
          "removed": false
        }
      ],
      "logsBloom": "0x00000000000000000000000000000000000000000000000000000000000000000000000000000000000000000000000000008000000000000000000002000004000000000000000000080000000000800004000000000000000100000000000000004000000002000000000000800000000000000000000080000000000000008000000000000000000000000000000000000000000000000000000000080000200000000000000000000000000000000000000000000000000000000000004000000000000000000001000000000000000000000000000000100000002000000000000000000000000000420000000000000000000000000000000000100000",
      "type": "0x2",
      "transactionHash": "0x08633634e54676eeafca576558f252bb51b82d32e677bea8170b2ca9a2144c57",
      "transactionIndex": "0x2e",
      "blockHash": "0xfd8e1da088865b78cfa4676e7f8d0ece24042875681f349d96918e6ef516b84e",
      "blockNumber": "0x38cc5ca",
      "gasUsed": "0x6137",
      "effectiveGasPrice": "0x700e21e97",
      "from": "0x1b395389386f3f2a27866dad8f7ddbb31c392e66",
      "to": "0x10a7ee546c3108a4f97ba95ed685ee17078cc2fe",
      "contractAddress": null
    },
    {
      "status": "0x1",
      "cumulativeGasUsed": "0x9ef898",
      "logs": [
        {
          "address": "0x91d26f6890b01629f72547f8365e90aa8ba1eee4",
          "topics": [
            "0x8c5be1e5ebec7d5bd14f71427d1e84f3dd0314c0f7b2291e5b200ac8c7c3b925",
            "0x00000000000000000000000083de4c97d1551b55e309dd54c9435849c9ecec36",
            "0x000000000000000000000000a5e0829caced8ffdd4de3c43696c57f7d7a678ff"
          ],
          "data": "0x0000000000000000000000000000000000000000000000000000002b877e6e9a",
          "blockHash": "0x59107f96c63954485950b37e254289fac88ed79f68ddd52c5e3f933f547f3abe",
          "blockNumber": "0x38cc5cb",
          "transactionHash": "0x409c6427ba7aa855e52e240de4416d56c985e5586ad0fe20b5349d2252277d33",
          "transactionIndex": "0x3c",
          "logIndex": "0x13b",
          "removed": false
        },
        {
          "address": "0x91d26f6890b01629f72547f8365e90aa8ba1eee4",
          "topics": [
            "0xddf252ad1be2c89b69c2b068fc378daa952ba7f163c4a11628f55a4df523b3ef",
            "0x00000000000000000000000083de4c97d1551b55e309dd54c9435849c9ecec36",
            "0x00000000000000000000000091d26f6890b01629f72547f8365e90aa8ba1eee4"
          ],
          "data": "0x0000000000000000000000000000000000000000000000000000002b877e6e9a",
          "blockHash": "0x59107f96c63954485950b37e254289fac88ed79f68ddd52c5e3f933f547f3abe",
          "blockNumber": "0x38cc5cb",
          "transactionHash": "0x409c6427ba7aa855e52e240de4416d56c985e5586ad0fe20b5349d2252277d33",
          "transactionIndex": "0x3c",
          "logIndex": "0x13c",
          "removed": false
        },
        {
          "address": "0x91d26f6890b01629f72547f8365e90aa8ba1eee4",
          "topics": [
            "0xddf252ad1be2c89b69c2b068fc378daa952ba7f163c4a11628f55a4df523b3ef",
            "0x0000000000000000000000000000000000000000000000000000000000000000",
            "0x000000000000000000000000bc88c6edc57562e03a7d2e1c56ce707bbb462668"
          ],
          "data": "0x00000000000000000000000000000000000000000000000000000000006dd333",
          "blockHash": "0x59107f96c63954485950b37e254289fac88ed79f68ddd52c5e3f933f547f3abe",
          "blockNumber": "0x38cc5cb",
          "transactionHash": "0x409c6427ba7aa855e52e240de4416d56c985e5586ad0fe20b5349d2252277d33",
          "transactionIndex": "0x3c",
          "logIndex": "0x13d",
          "removed": false
        },
        {
          "address": "0x91d26f6890b01629f72547f8365e90aa8ba1eee4",
          "topics": [
            "0xddf252ad1be2c89b69c2b068fc378daa952ba7f163c4a11628f55a4df523b3ef",
            "0x00000000000000000000000091d26f6890b01629f72547f8365e90aa8ba1eee4",
            "0x0000000000000000000000000000000000000000000000000000000000000000"
          ],
          "data": "0x0000000000000000000000000000000000000000000000000000002b877e6e9a",
          "blockHash": "0x59107f96c63954485950b37e254289fac88ed79f68ddd52c5e3f933f547f3abe",
          "blockNumber": "0x38cc5cb",
          "transactionHash": "0x409c6427ba7aa855e52e240de4416d56c985e5586ad0fe20b5349d2252277d33",
          "transactionIndex": "0x3c",
          "logIndex": "0x13e",
          "removed": false
        },
        {
          "address": "0x10a7ee546c3108a4f97ba95ed685ee17078cc2fe",
          "topics": [
            "0xddf252ad1be2c89b69c2b068fc378daa952ba7f163c4a11628f55a4df523b3ef",
            "0x00000000000000000000000091d26f6890b01629f72547f8365e90aa8ba1eee4",
            "0x00000000000000000000000083de4c97d1551b55e309dd54c9435849c9ecec36"
          ],
          "data": "0x00000000000000000000000000000000000000000000000052a522c5298c5bcb",
          "blockHash": "0x59107f96c63954485950b37e254289fac88ed79f68ddd52c5e3f933f547f3abe",
          "blockNumber": "0x38cc5cb",
          "transactionHash": "0x409c6427ba7aa855e52e240de4416d56c985e5586ad0fe20b5349d2252277d33",
          "transactionIndex": "0x3c",
          "logIndex": "0x13f",
          "removed": false
        },
        {
          "address": "0xc2132d05d31c914a87c6611c10748aeb04b58e8f",
          "topics": [
            "0xddf252ad1be2c89b69c2b068fc378daa952ba7f163c4a11628f55a4df523b3ef",
            "0x00000000000000000000000091d26f6890b01629f72547f8365e90aa8ba1eee4",
            "0x00000000000000000000000083de4c97d1551b55e309dd54c9435849c9ecec36"
          ],
          "data": "0x00000000000000000000000000000000000000000000000000000000005ade8b",
          "blockHash": "0x59107f96c63954485950b37e254289fac88ed79f68ddd52c5e3f933f547f3abe",
          "blockNumber": "0x38cc5cb",
          "transactionHash": "0x409c6427ba7aa855e52e240de4416d56c985e5586ad0fe20b5349d2252277d33",
          "transactionIndex": "0x3c",
          "logIndex": "0x140",
          "removed": false
        },
        {
          "address": "0x91d26f6890b01629f72547f8365e90aa8ba1eee4",
          "topics": [
            "0x1c411e9a96e071241c2f21f7726b17ae89e3cab4c78be50e062b03a9fffbbad1"
          ],
          "data": "0x0000000000000000000000000000000000000000000000000001311aa55f88df0000000000000000000000000000000000000000000000000000000000000150",
          "blockHash": "0x59107f96c63954485950b37e254289fac88ed79f68ddd52c5e3f933f547f3abe",
          "blockNumber": "0x38cc5cb",
          "transactionHash": "0x409c6427ba7aa855e52e240de4416d56c985e5586ad0fe20b5349d2252277d33",
          "transactionIndex": "0x3c",
          "logIndex": "0x141",
          "removed": false
        },
        {
          "address": "0x91d26f6890b01629f72547f8365e90aa8ba1eee4",
          "topics": [
            "0xdccd412f0b1252819cb1fd330b93224ca42612892bb3f4f789976e6d81936496",
            "0x000000000000000000000000a5e0829caced8ffdd4de3c43696c57f7d7a678ff",
            "0x00000000000000000000000083de4c97d1551b55e309dd54c9435849c9ecec36"
          ],
          "data": "0x00000000000000000000000000000000000000000000000052a522c5298c5bcb00000000000000000000000000000000000000000000000000000000005ade8b",
          "blockHash": "0x59107f96c63954485950b37e254289fac88ed79f68ddd52c5e3f933f547f3abe",
          "blockNumber": "0x38cc5cb",
          "transactionHash": "0x409c6427ba7aa855e52e240de4416d56c985e5586ad0fe20b5349d2252277d33",
          "transactionIndex": "0x3c",
          "logIndex": "0x142",
          "removed": false
        },
        {
          "address": "0x0000000000000000000000000000000000001010",
          "topics": [
            "0x4dfe1bbbcf077ddc3e01291eea2d5c70c2b422b415d95645b9adcfd678cb1d63",
            "0x0000000000000000000000000000000000000000000000000000000000001010",
            "0x0000000000000000000000001b395389386f3f2a27866dad8f7ddbb31c392e66",
            "0x000000000000000000000000c684e44ce96a7d873af6bb31d4de02b5ca0f78c6"
          ],
          "data": "0x0000000000000000000000000000000000000000000000000011d35cc5056c0000000000000000000000000000000000000000000000000072db5719d7fb0a8e000000000000000000000000000000000000000000000216474a49d9bda31dc700000000000000000000000000000000000000000000000072c983bd12f59e8e000000000000000000000000000000000000000000000216475c1d3682a889c7",
          "blockHash": "0x59107f96c63954485950b37e254289fac88ed79f68ddd52c5e3f933f547f3abe",
          "blockNumber": "0x38cc5cb",
          "transactionHash": "0x409c6427ba7aa855e52e240de4416d56c985e5586ad0fe20b5349d2252277d33",
          "transactionIndex": "0x3c",
          "logIndex": "0x143",
          "removed": false
        }
      ],
      "logsBloom": "0x00000000000000000000000080000000000000000000000000000000000000000000000000000000000000000000000100008800000000000000000002200004000000000000000000080008000000800004000000000000000100000000000000004006020082000000000004800840000000000008000080000010010000800000010000080000000000000000080000000000000000080000000000000000220200000000004000000000000000080000000000000008000000000080004000000002000000000001000000000000400000020000001000100000000020000010000000000000000000420000000000000000000000000000000000100000",
      "type": "0x2",
      "transactionHash": "0x409c6427ba7aa855e52e240de4416d56c985e5586ad0fe20b5349d2252277d33",
      "transactionIndex": "0x3c",
      "blockHash": "0x59107f96c63954485950b37e254289fac88ed79f68ddd52c5e3f933f547f3abe",
      "blockNumber": "0x38cc5cb",
      "gasUsed": "0x28d51",
      "effectiveGasPrice": "0x700b89f60",
      "from": "0x1b395389386f3f2a27866dad8f7ddbb31c392e66",
      "to": "0x83de4c97d1551b55e309dd54c9435849c9ecec36",
      "contractAddress": null
    },
    {
      "status": "0x1",
      "cumulativeGasUsed": "0x9f9ec0",
      "logs": [
        {
          "address": "0xc2132d05d31c914a87c6611c10748aeb04b58e8f",
          "topics": [
            "0xddf252ad1be2c89b69c2b068fc378daa952ba7f163c4a11628f55a4df523b3ef",
            "0x00000000000000000000000083de4c97d1551b55e309dd54c9435849c9ecec36",
            "0x0000000000000000000000001b395389386f3f2a27866dad8f7ddbb31c392e66"
          ],
          "data": "0x0000000000000000000000000000000000000000000000000000000000623a31",
          "blockHash": "0x59107f96c63954485950b37e254289fac88ed79f68ddd52c5e3f933f547f3abe",
          "blockNumber": "0x38cc5cb",
          "transactionHash": "0x79b30e37f82a07d1f9914f2972a16b318c6f7332e3399f8bf3283b92dcbdb86d",
          "transactionIndex": "0x3d",
          "logIndex": "0x144",
          "removed": false
        },
        {
          "address": "0x0000000000000000000000000000000000001010",
          "topics": [
            "0x4dfe1bbbcf077ddc3e01291eea2d5c70c2b422b415d95645b9adcfd678cb1d63",
            "0x0000000000000000000000000000000000000000000000000000000000001010",
            "0x0000000000000000000000001b395389386f3f2a27866dad8f7ddbb31c392e66",
            "0x000000000000000000000000c684e44ce96a7d873af6bb31d4de02b5ca0f78c6"
          ],
          "data": "0x00000000000000000000000000000000000000000000000000048896871ae00000000000000000000000000000000000000000000000000072c9780baf08bd2e000000000000000000000000000000000000000000000216475c1d3682a889c700000000000000000000000000000000000000000000000072c4ef7527eddd2e0000000000000000000000000000000000000000000002164760a5cd09c369c7",
          "blockHash": "0x59107f96c63954485950b37e254289fac88ed79f68ddd52c5e3f933f547f3abe",
          "blockNumber": "0x38cc5cb",
          "transactionHash": "0x79b30e37f82a07d1f9914f2972a16b318c6f7332e3399f8bf3283b92dcbdb86d",
          "transactionIndex": "0x3d",
          "logIndex": "0x145",
          "removed": false
        }
      ],
      "logsBloom": "0x00000000000000000000000000000000000000000000000000000000000000000000000000000000000000000000000100008000000000000000000000000004000000000000000000080008000000800004000000000000000100000000000000004000000002000000000000000000000000000008000080000010000000000000000000080000000000000000000000000000000000000000000000000000200000000000000000000000000000080000000000000000000000000000004000000002000000000001000000000000400000020000000000100000000000000000000000000000000000020000000000000000000000000000000000100000",
      "type": "0x2",
      "transactionHash": "0x79b30e37f82a07d1f9914f2972a16b318c6f7332e3399f8bf3283b92dcbdb86d",
      "transactionIndex": "0x3d",
      "blockHash": "0x59107f96c63954485950b37e254289fac88ed79f68ddd52c5e3f933f547f3abe",
      "blockNumber": "0x38cc5cb",
      "gasUsed": "0xa628",
      "effectiveGasPrice": "0x700b89f60",
      "from": "0x1b395389386f3f2a27866dad8f7ddbb31c392e66",
      "to": "0x83de4c97d1551b55e309dd54c9435849c9ecec36",
      "contractAddress": null
    },
    {
      "status": "0x1",
      "cumulativeGasUsed": "0xa03c00",
      "logs": [
        {
          "address": "0x10a7ee546c3108a4f97ba95ed685ee17078cc2fe",
          "topics": [
            "0xddf252ad1be2c89b69c2b068fc378daa952ba7f163c4a11628f55a4df523b3ef",
            "0x00000000000000000000000083de4c97d1551b55e309dd54c9435849c9ecec36",
            "0x0000000000000000000000001b395389386f3f2a27866dad8f7ddbb31c392e66"
          ],
          "data": "0x0000000000000000000000000000000000000000000000005a6a7bf9f063acba",
          "blockHash": "0x59107f96c63954485950b37e254289fac88ed79f68ddd52c5e3f933f547f3abe",
          "blockNumber": "0x38cc5cb",
          "transactionHash": "0x3a0149c52a0385af9e1cbb235aada5ebbde05daa6d11c00084195b2a0ff78516",
          "transactionIndex": "0x3e",
          "logIndex": "0x146",
          "removed": false
        },
        {
          "address": "0x0000000000000000000000000000000000001010",
          "topics": [
            "0x4dfe1bbbcf077ddc3e01291eea2d5c70c2b422b415d95645b9adcfd678cb1d63",
            "0x0000000000000000000000000000000000000000000000000000000000001010",
            "0x0000000000000000000000001b395389386f3f2a27866dad8f7ddbb31c392e66",
            "0x000000000000000000000000c684e44ce96a7d873af6bb31d4de02b5ca0f78c6"
          ],
          "data": "0x00000000000000000000000000000000000000000000000000044a60e967000000000000000000000000000000000000000000000000000072c4ec7bdad7962e0000000000000000000000000000000000000000000002164760a5cd09c369c700000000000000000000000000000000000000000000000072c0a21af170962e0000000000000000000000000000000000000000000002164764f02df32a69c7",
          "blockHash": "0x59107f96c63954485950b37e254289fac88ed79f68ddd52c5e3f933f547f3abe",
          "blockNumber": "0x38cc5cb",
          "transactionHash": "0x3a0149c52a0385af9e1cbb235aada5ebbde05daa6d11c00084195b2a0ff78516",
          "transactionIndex": "0x3e",
          "logIndex": "0x147",
          "removed": false
        }
      ],
      "logsBloom": "0x00000000000000000000000000000000000000000000000000000000000000000000000000000000000000000000000000008000000000000000000002000004000000000000000000080008000000800004000000000000000100000000000000004000000002000000000000800000000000000008000080000010000000000000000000000000000000000000000000000000000000000000000000000000200000000000000000000000000000080000000000000000000000000000004000000002000000000001000000000000000000020000000000100000000000000000000000000000000000420000000000000000000000000000000000100000",
      "type": "0x2",
      "transactionHash": "0x3a0149c52a0385af9e1cbb235aada5ebbde05daa6d11c00084195b2a0ff78516",
      "transactionIndex": "0x3e",
      "blockHash": "0x59107f96c63954485950b37e254289fac88ed79f68ddd52c5e3f933f547f3abe",
      "blockNumber": "0x38cc5cb",
      "gasUsed": "0x9d40",
      "effectiveGasPrice": "0x700b89f60",
      "from": "0x1b395389386f3f2a27866dad8f7ddbb31c392e66",
      "to": "0x83de4c97d1551b55e309dd54c9435849c9ecec36",
      "contractAddress": null
    }
  ],
  "libraries": [],
  "pending": [],
  "returns": {
    "0": {
      "internal_type": "contract BitcoinPool",
      "value": "0x83dE4c97D1551B55e309DD54C9435849c9eCeC36"
    }
  },
  "timestamp": 1721407202,
  "chain": 137,
  "commit": "e25b34d"
}