{
  "transactions": [
    {
      "hash": "0xbdf49177f64f5cb7bd85db7fd132edcb8979fd938ec6e1aae5cb1000a83a8ebc",
      "transactionType": "CALL",
      "contractName": null,
      "contractAddress": "0x10a7ee546c3108a4f97ba95ed685ee17078cc2fe",
      "function": "setMinWithdrawal(uint256)",
      "arguments": [
        "0"
      ],
      "transaction": {
        "from": "0x1b395389386f3f2a27866dad8f7ddbb31c392e66",
        "to": "0x10a7ee546c3108a4f97ba95ed685ee17078cc2fe",
        "gas": "0x8646",
        "value": "0x0",
        "input": "0xb070e4330000000000000000000000000000000000000000000000000000000000000000",
        "nonce": "0x183",
        "chainId": "0x89"
      },
      "additionalContracts": [],
      "isFixedGasLimit": false
    },
    {
      "hash": "0xf8c468b2ae469b40ea9f5a05eda132997f36e46635129034823241d3a0785d7b",
      "transactionType": "CALL",
      "contractName": null,
      "contractAddress": "0x0bcfd37f0f065f921729d3d822e6ff3fa7bd637a",
      "function": "removeLiquidity(address,address)",
      "arguments": [
        "0x10A7Ee546C3108a4F97Ba95ed685eE17078Cc2fE",
        "0xc2132D05D31c914a87C6611C10748AEb04B58e8F"
      ],
      "transaction": {
        "from": "0x1b395389386f3f2a27866dad8f7ddbb31c392e66",
        "to": "0x0bcfd37f0f065f921729d3d822e6ff3fa7bd637a",
        "gas": "0x4ae1f",
        "value": "0x0",
        "input": "0x9cf38f7c00000000000000000000000010a7ee546c3108a4f97ba95ed685ee17078cc2fe000000000000000000000000c2132d05d31c914a87c6611c10748aeb04b58e8f",
        "nonce": "0x184",
        "chainId": "0x89"
      },
      "additionalContracts": [],
      "isFixedGasLimit": false
    },
    {
      "hash": "0x089c2505537ce943e9212189e5213e5af59456541fb2d96d7e0324824156be52",
      "transactionType": "CALL",
      "contractName": null,
      "contractAddress": "0x0bcfd37f0f065f921729d3d822e6ff3fa7bd637a",
      "function": "withdrawAllERC20(address)",
      "arguments": [
        "0xc2132D05D31c914a87C6611C10748AEb04B58e8F"
      ],
      "transaction": {
        "from": "0x1b395389386f3f2a27866dad8f7ddbb31c392e66",
        "to": "0x0bcfd37f0f065f921729d3d822e6ff3fa7bd637a",
        "gas": "0xe580",
        "value": "0x0",
        "input": "0x857abbd4000000000000000000000000c2132d05d31c914a87c6611c10748aeb04b58e8f",
        "nonce": "0x185",
        "chainId": "0x89"
      },
      "additionalContracts": [],
      "isFixedGasLimit": false
    },
    {
      "hash": "0x9fe2ab799619b60826903703548c146ac7b5b62e990c9bbdb758b66277670399",
      "transactionType": "CALL",
      "contractName": null,
      "contractAddress": "0x0bcfd37f0f065f921729d3d822e6ff3fa7bd637a",
      "function": "withdrawAllERC20(address)",
      "arguments": [
        "0x10A7Ee546C3108a4F97Ba95ed685eE17078Cc2fE"
      ],
      "transaction": {
        "from": "0x1b395389386f3f2a27866dad8f7ddbb31c392e66",
        "to": "0x0bcfd37f0f065f921729d3d822e6ff3fa7bd637a",
        "gas": "0xd933",
        "value": "0x0",
        "input": "0x857abbd400000000000000000000000010a7ee546c3108a4f97ba95ed685ee17078cc2fe",
        "nonce": "0x186",
        "chainId": "0x89"
      },
      "additionalContracts": [],
      "isFixedGasLimit": false
    }
  ],
  "receipts": [
    {
      "status": "0x1",
      "cumulativeGasUsed": "0xcfc33d",
      "logs": [
        {
          "address": "0x10a7ee546c3108a4f97ba95ed685ee17078cc2fe",
          "topics": [
            "0xd083a8aaec22fd5c06dfb61243244a5c296eb8770219c1880d12290f07691590"
          ],
          "data": "0x0000000000000000000000000000000000000000000000000000000000000000",
          "blockHash": "0xa4242c45a80b0e230fa0c6523d236f72fce2b9b3008b4b211c47f51c07d14016",
          "blockNumber": "0x38cb50e",
          "transactionHash": "0xbdf49177f64f5cb7bd85db7fd132edcb8979fd938ec6e1aae5cb1000a83a8ebc",
          "transactionIndex": "0x29",
          "logIndex": "0x107",
          "removed": false
        },
        {
          "address": "0x0000000000000000000000000000000000001010",
          "topics": [
            "0x4dfe1bbbcf077ddc3e01291eea2d5c70c2b422b415d95645b9adcfd678cb1d63",
            "0x0000000000000000000000000000000000000000000000000000000000001010",
            "0x0000000000000000000000001b395389386f3f2a27866dad8f7ddbb31c392e66",
            "0x000000000000000000000000fcccd43296d9c1601a904eca9b339d94a5e5e098"
          ],
          "data": "0x0000000000000000000000000000000000000000000000000002a77d93739f0000000000000000000000000000000000000000000000000076cccdb34e69ba5d000000000000000000000000000000000000000000002ba15dbb9cf6c5f4844400000000000000000000000000000000000000000000000076ca2635baf61b5d000000000000000000000000000000000000000000002ba15dbe447459682344",
          "blockHash": "0xa4242c45a80b0e230fa0c6523d236f72fce2b9b3008b4b211c47f51c07d14016",
          "blockNumber": "0x38cb50e",
          "transactionHash": "0xbdf49177f64f5cb7bd85db7fd132edcb8979fd938ec6e1aae5cb1000a83a8ebc",
          "transactionIndex": "0x29",
          "logIndex": "0x108",
          "removed": false
        }
      ],
      "logsBloom": "0x00000000000000000000000000000000000200000000000000000000000000000000000000000000000000000000000000008000000000000000000002000000000000000000000000080000000000800004000000000000000100000000000000000000000082000000000000800000000000000000000080000000000000008000000000000000000000000000000000000000000000000000000000080000200000000000000000000000000000000000000000000000000000000000004000000000000000000001000000000000000000000000000000100000002000000100000000000000000000400000000000000000000000000000000000100000",
      "type": "0x2",
      "transactionHash": "0xbdf49177f64f5cb7bd85db7fd132edcb8979fd938ec6e1aae5cb1000a83a8ebc",
      "transactionIndex": "0x29",
      "blockHash": "0xa4242c45a80b0e230fa0c6523d236f72fce2b9b3008b4b211c47f51c07d14016",
      "blockNumber": "0x38cb50e",
      "gasUsed": "0x6137",
      "effectiveGasPrice": "0x6fd54da96",
      "from": "0x1b395389386f3f2a27866dad8f7ddbb31c392e66",
      "to": "0x10a7ee546c3108a4f97ba95ed685ee17078cc2fe",
      "contractAddress": null
    },
    {
      "status": "0x1",
      "cumulativeGasUsed": "0xd326a9",
      "logs": [
        {
          "address": "0x91d26f6890b01629f72547f8365e90aa8ba1eee4",
          "topics": [
            "0x8c5be1e5ebec7d5bd14f71427d1e84f3dd0314c0f7b2291e5b200ac8c7c3b925",
            "0x0000000000000000000000000bcfd37f0f065f921729d3d822e6ff3fa7bd637a",
            "0x000000000000000000000000a5e0829caced8ffdd4de3c43696c57f7d7a678ff"
          ],
          "data": "0x00000000000000000000000000000000000000000000000000000574fbde5c18",
          "blockHash": "0xa4242c45a80b0e230fa0c6523d236f72fce2b9b3008b4b211c47f51c07d14016",
          "blockNumber": "0x38cb50e",
          "transactionHash": "0xf8c468b2ae469b40ea9f5a05eda132997f36e46635129034823241d3a0785d7b",
          "transactionIndex": "0x2a",
          "logIndex": "0x109",
          "removed": false
        },
        {
          "address": "0x91d26f6890b01629f72547f8365e90aa8ba1eee4",
          "topics": [
            "0xddf252ad1be2c89b69c2b068fc378daa952ba7f163c4a11628f55a4df523b3ef",
            "0x0000000000000000000000000bcfd37f0f065f921729d3d822e6ff3fa7bd637a",
            "0x00000000000000000000000091d26f6890b01629f72547f8365e90aa8ba1eee4"
          ],
          "data": "0x00000000000000000000000000000000000000000000000000000574fbde5c18",
          "blockHash": "0xa4242c45a80b0e230fa0c6523d236f72fce2b9b3008b4b211c47f51c07d14016",
          "blockNumber": "0x38cb50e",
          "transactionHash": "0xf8c468b2ae469b40ea9f5a05eda132997f36e46635129034823241d3a0785d7b",
          "transactionIndex": "0x2a",
          "logIndex": "0x10a",
          "removed": false
        },
        {
          "address": "0x91d26f6890b01629f72547f8365e90aa8ba1eee4",
          "topics": [
            "0xddf252ad1be2c89b69c2b068fc378daa952ba7f163c4a11628f55a4df523b3ef",
            "0x00000000000000000000000091d26f6890b01629f72547f8365e90aa8ba1eee4",
            "0x0000000000000000000000000000000000000000000000000000000000000000"
          ],
          "data": "0x00000000000000000000000000000000000000000000000000000574fbde5c18",
          "blockHash": "0xa4242c45a80b0e230fa0c6523d236f72fce2b9b3008b4b211c47f51c07d14016",
          "blockNumber": "0x38cb50e",
          "transactionHash": "0xf8c468b2ae469b40ea9f5a05eda132997f36e46635129034823241d3a0785d7b",
          "transactionIndex": "0x2a",
          "logIndex": "0x10b",
          "removed": false
        },
        {
          "address": "0x10a7ee546c3108a4f97ba95ed685ee17078cc2fe",
          "topics": [
            "0xddf252ad1be2c89b69c2b068fc378daa952ba7f163c4a11628f55a4df523b3ef",
            "0x00000000000000000000000091d26f6890b01629f72547f8365e90aa8ba1eee4",
            "0x0000000000000000000000000bcfd37f0f065f921729d3d822e6ff3fa7bd637a"
          ],
          "data": "0x00000000000000000000000000000000000000000000000053444835b0bd3600",
          "blockHash": "0xa4242c45a80b0e230fa0c6523d236f72fce2b9b3008b4b211c47f51c07d14016",
          "blockNumber": "0x38cb50e",
          "transactionHash": "0xf8c468b2ae469b40ea9f5a05eda132997f36e46635129034823241d3a0785d7b",
          "transactionIndex": "0x2a",
          "logIndex": "0x10c",
          "removed": false
        },
        {
          "address": "0xc2132d05d31c914a87c6611c10748aeb04b58e8f",
          "topics": [
            "0xddf252ad1be2c89b69c2b068fc378daa952ba7f163c4a11628f55a4df523b3ef",
            "0x00000000000000000000000091d26f6890b01629f72547f8365e90aa8ba1eee4",
            "0x0000000000000000000000000bcfd37f0f065f921729d3d822e6ff3fa7bd637a"
          ],
          "data": "0x00000000000000000000000000000000000000000000000000000000005b8d7f",
          "blockHash": "0xa4242c45a80b0e230fa0c6523d236f72fce2b9b3008b4b211c47f51c07d14016",
          "blockNumber": "0x38cb50e",
          "transactionHash": "0xf8c468b2ae469b40ea9f5a05eda132997f36e46635129034823241d3a0785d7b",
          "transactionIndex": "0x2a",
          "logIndex": "0x10d",
          "removed": false
        },
        {
          "address": "0x91d26f6890b01629f72547f8365e90aa8ba1eee4",
          "topics": [
            "0x1c411e9a96e071241c2f21f7726b17ae89e3cab4c78be50e062b03a9fffbbad1"
          ],
          "data": "0x000000000000000000000000000000000000000000000000000000003b9aca000000000000000000000000000000000000000000000000000000000000000001",
          "blockHash": "0xa4242c45a80b0e230fa0c6523d236f72fce2b9b3008b4b211c47f51c07d14016",
          "blockNumber": "0x38cb50e",
          "transactionHash": "0xf8c468b2ae469b40ea9f5a05eda132997f36e46635129034823241d3a0785d7b",
          "transactionIndex": "0x2a",
          "logIndex": "0x10e",
          "removed": false
        },
        {
          "address": "0x91d26f6890b01629f72547f8365e90aa8ba1eee4",
          "topics": [
            "0xdccd412f0b1252819cb1fd330b93224ca42612892bb3f4f789976e6d81936496",
            "0x000000000000000000000000a5e0829caced8ffdd4de3c43696c57f7d7a678ff",
            "0x0000000000000000000000000bcfd37f0f065f921729d3d822e6ff3fa7bd637a"
          ],
          "data": "0x00000000000000000000000000000000000000000000000053444835b0bd360000000000000000000000000000000000000000000000000000000000005b8d7f",
          "blockHash": "0xa4242c45a80b0e230fa0c6523d236f72fce2b9b3008b4b211c47f51c07d14016",
          "blockNumber": "0x38cb50e",
          "transactionHash": "0xf8c468b2ae469b40ea9f5a05eda132997f36e46635129034823241d3a0785d7b",
          "transactionIndex": "0x2a",
          "logIndex": "0x10f",
          "removed": false
        },
        {
          "address": "0x0000000000000000000000000000000000001010",
          "topics": [
            "0x4dfe1bbbcf077ddc3e01291eea2d5c70c2b422b415d95645b9adcfd678cb1d63",
            "0x0000000000000000000000000000000000000000000000000000000000001010",
            "0x0000000000000000000000001b395389386f3f2a27866dad8f7ddbb31c392e66",
            "0x000000000000000000000000fcccd43296d9c1601a904eca9b339d94a5e5e098"
          ],
          "data": "0x0000000000000000000000000000000000000000000000000017aee93ab68c0000000000000000000000000000000000000000000000000076ca2635ba5bee23000000000000000000000000000000000000000000002ba15dbe44745968234400000000000000000000000000000000000000000000000076b2774c7fa56223000000000000000000000000000000000000000000002ba15dd5f35d941eaf44",
          "blockHash": "0xa4242c45a80b0e230fa0c6523d236f72fce2b9b3008b4b211c47f51c07d14016",
          "blockNumber": "0x38cb50e",
          "transactionHash": "0xf8c468b2ae469b40ea9f5a05eda132997f36e46635129034823241d3a0785d7b",
          "transactionIndex": "0x2a",
          "logIndex": "0x110",
          "removed": false
        }
      ],
      "logsBloom": "0x00000000000000000000000080000000000200000000000000100000000000000000000000000000000000000000000100008800000000000000000002200000000000000000000000080008000000800004000000000000000120000000000000000004020082000000000000800840000000000000000080000010010000800000010000080000000000000000080000000000000000080000000000000000220000000000004000000000000000000000000000000008000000000080004000000002000000000001000000000000400000000000001000100000000020000110000000000000000000400000000000000000000000000000040000100000",
      "type": "0x2",
      "transactionHash": "0xf8c468b2ae469b40ea9f5a05eda132997f36e46635129034823241d3a0785d7b",
      "transactionIndex": "0x2a",
      "blockHash": "0xa4242c45a80b0e230fa0c6523d236f72fce2b9b3008b4b211c47f51c07d14016",
      "blockNumber": "0x38cb50e",
      "gasUsed": "0x3636c",
      "effectiveGasPrice": "0x6fd54da96",
      "from": "0x1b395389386f3f2a27866dad8f7ddbb31c392e66",
      "to": "0x0bcfd37f0f065f921729d3d822e6ff3fa7bd637a",
      "contractAddress": null
    },
    {
      "status": "0x1",
      "cumulativeGasUsed": "0xd3ccd1",
      "logs": [
        {
          "address": "0xc2132d05d31c914a87c6611c10748aeb04b58e8f",
          "topics": [
            "0xddf252ad1be2c89b69c2b068fc378daa952ba7f163c4a11628f55a4df523b3ef",
            "0x0000000000000000000000000bcfd37f0f065f921729d3d822e6ff3fa7bd637a",
            "0x0000000000000000000000001b395389386f3f2a27866dad8f7ddbb31c392e66"
          ],
          "data": "0x00000000000000000000000000000000000000000000000000000000005b8d7f",
          "blockHash": "0xa4242c45a80b0e230fa0c6523d236f72fce2b9b3008b4b211c47f51c07d14016",
          "blockNumber": "0x38cb50e",
          "transactionHash": "0x089c2505537ce943e9212189e5213e5af59456541fb2d96d7e0324824156be52",
          "transactionIndex": "0x2b",
          "logIndex": "0x111",
          "removed": false
        },
        {
          "address": "0x0000000000000000000000000000000000001010",
          "topics": [
            "0x4dfe1bbbcf077ddc3e01291eea2d5c70c2b422b415d95645b9adcfd678cb1d63",
            "0x0000000000000000000000000000000000000000000000000000000000001010",
            "0x0000000000000000000000001b395389386f3f2a27866dad8f7ddbb31c392e66",
            "0x000000000000000000000000fcccd43296d9c1601a904eca9b339d94a5e5e098"
          ],
          "data": "0x0000000000000000000000000000000000000000000000000004895c99f7e80000000000000000000000000000000000000000000000000076b2774c7a45b4db000000000000000000000000000000000000000000002ba15dd5f35d941eaf4400000000000000000000000000000000000000000000000076adedefe04dccdb000000000000000000000000000000000000000000002ba15dda7cba2e169744",
          "blockHash": "0xa4242c45a80b0e230fa0c6523d236f72fce2b9b3008b4b211c47f51c07d14016",
          "blockNumber": "0x38cb50e",
          "transactionHash": "0x089c2505537ce943e9212189e5213e5af59456541fb2d96d7e0324824156be52",
          "transactionIndex": "0x2b",
          "logIndex": "0x112",
          "removed": false
        }
      ],
      "logsBloom": "0x00000000000000000000000000000000000200000000000000100000000000000000000000000000000000000000000100008000000000000000000000000000000000000000000000080008000000800004000000000000000120000000000000000000000082000000000000000000000000000000000080000010000000000000000000080000000000000000000000000000000000000000000000000000200000000000000000000000000000000000000000000000000000000000004000000002000000000001000000000000400000000000000000100000000000000100000000000000000000000000000000000000000000000000040000100000",
      "type": "0x2",
      "transactionHash": "0x089c2505537ce943e9212189e5213e5af59456541fb2d96d7e0324824156be52",
      "transactionIndex": "0x2b",
      "blockHash": "0xa4242c45a80b0e230fa0c6523d236f72fce2b9b3008b4b211c47f51c07d14016",
      "blockNumber": "0x38cb50e",
      "gasUsed": "0xa628",
      "effectiveGasPrice": "0x6fd54da96",
      "from": "0x1b395389386f3f2a27866dad8f7ddbb31c392e66",
      "to": "0x0bcfd37f0f065f921729d3d822e6ff3fa7bd637a",
      "contractAddress": null
    },
    {
      "status": "0x1",
      "cumulativeGasUsed": "0xd46a11",
      "logs": [
        {
          "address": "0x10a7ee546c3108a4f97ba95ed685ee17078cc2fe",
          "topics": [
            "0xddf252ad1be2c89b69c2b068fc378daa952ba7f163c4a11628f55a4df523b3ef",
            "0x0000000000000000000000000bcfd37f0f065f921729d3d822e6ff3fa7bd637a",
            "0x0000000000000000000000001b395389386f3f2a27866dad8f7ddbb31c392e66"
          ],
          "data": "0x00000000000000000000000000000000000000000000000053444835b0bd3600",
          "blockHash": "0xa4242c45a80b0e230fa0c6523d236f72fce2b9b3008b4b211c47f51c07d14016",
          "blockNumber": "0x38cb50e",
          "transactionHash": "0x9fe2ab799619b60826903703548c146ac7b5b62e990c9bbdb758b66277670399",
          "transactionIndex": "0x2c",
          "logIndex": "0x113",
          "removed": false
        },
        {
          "address": "0x0000000000000000000000000000000000001010",
          "topics": [
            "0x4dfe1bbbcf077ddc3e01291eea2d5c70c2b422b415d95645b9adcfd678cb1d63",
            "0x0000000000000000000000000000000000000000000000000000000000001010",
            "0x0000000000000000000000001b395389386f3f2a27866dad8f7ddbb31c392e66",
            "0x000000000000000000000000fcccd43296d9c1601a904eca9b339d94a5e5e098"
          ],
          "data": "0x00000000000000000000000000000000000000000000000000044b1c5e4b400000000000000000000000000000000000000000000000000076adedefdf46496b000000000000000000000000000000000000000000002ba15dda7cba2e16974400000000000000000000000000000000000000000000000076a9a2d380fb096b000000000000000000000000000000000000000000002ba15ddec7d68c61d744",
          "blockHash": "0xa4242c45a80b0e230fa0c6523d236f72fce2b9b3008b4b211c47f51c07d14016",
          "blockNumber": "0x38cb50e",
          "transactionHash": "0x9fe2ab799619b60826903703548c146ac7b5b62e990c9bbdb758b66277670399",
          "transactionIndex": "0x2c",
          "logIndex": "0x114",
          "removed": false
        }
      ],
      "logsBloom": "0x00000000000000000000000000000000000200000000000000100000000000000000000000000000000000000000000000008000000000000000000002000000000000000000000000080008000000800004000000000000000120000000000000000000000082000000000000800000000000000000000080000010000000000000000000000000000000000000000000000000000000000000000000000000200000000000000000000000000000000000000000000000000000000000004000000002000000000001000000000000000000000000000000100000000000000100000000000000000000400000000000000000000000000000040000100000",
      "type": "0x2",
      "transactionHash": "0x9fe2ab799619b60826903703548c146ac7b5b62e990c9bbdb758b66277670399",
      "transactionIndex": "0x2c",
      "blockHash": "0xa4242c45a80b0e230fa0c6523d236f72fce2b9b3008b4b211c47f51c07d14016",
      "blockNumber": "0x38cb50e",
      "gasUsed": "0x9d40",
      "effectiveGasPrice": "0x6fd54da96",
      "from": "0x1b395389386f3f2a27866dad8f7ddbb31c392e66",
      "to": "0x0bcfd37f0f065f921729d3d822e6ff3fa7bd637a",
      "contractAddress": null
    }
  ],
  "libraries": [],
  "pending": [],
  "returns": {
    "0": {
      "internal_type": "contract BitcoinPool",
      "value": "0x0bcFD37f0f065F921729D3d822E6fF3fA7bD637A"
    }
  },
  "timestamp": 1721398050,
  "chain": 137,
  "commit": "e25b34d"
}