{
  "transactions": [
    {
      "hash": "0x42411ad78839abc8724b16b73c04cd58d09656c36474e8d886e373ad2505bdb5",
      "transactionType": "CREATE",
      "contractName": "BitcoinPool",
      "contractAddress": "0x0bcfd37f0f065f921729d3d822e6ff3fa7bd637a",
      "function": null,
      "arguments": [
        "0x5757371414417b8C6CAad45bAeF941aBc7d3Ab32",
        "0xa5E0829CaCEd8fFDD4De3c43696c57F7D7A678ff"
      ],
      "transaction": {
        "from": "0x1b395389386f3f2a27866dad8f7ddbb31c392e66",
        "gas": "0x19ee93",
        "value": "0x0",
        "input": "0x60c06040523480156200001157600080fd5b50604051620017c0380380620017c08339810160408190526200003491620000ec565b33806200005b57604051631e4fbdf760e01b81526000600482015260240160405180910390fd5b62000066816200007f565b506001600160a01b039182166080521660a05262000124565b600080546001600160a01b038381166001600160a01b0319831681178455604051919092169283917f8be0079c531659141344cd1fd0a4f28419497f9722a3daafe3b4186f6b6457e09190a35050565b80516001600160a01b0381168114620000e757600080fd5b919050565b600080604083850312156200010057600080fd5b6200010b83620000cf565b91506200011b60208401620000cf565b90509250929050565b60805160a051611637620001896000396000818161021b0152818161032601528181610a1801528181610b2d01528181610d5c01528181610df00152610ec00152600081816104c40152818161092601528181610bd80152610f6f01526116376000f3fe608060405234801561001057600080fd5b506004361061009e5760003560e01c80639cf38f7c116100665780639cf38f7c14610110578063c9c6539614610138578063cf6c62ea1461014b578063e6a439051461015e578063f2fde38b1461017157600080fd5b80630c0a7630146100a3578063690f93ff146100b8578063715018a6146100cb578063857abbd4146100d35780638da5cb5b146100e6575b600080fd5b6100b66100b1366004611119565b610184565b005b6100b66100c636600461115a565b6103b4565b6100b66107f0565b6100b66100e1366004611193565b610804565b6000546001600160a01b03165b6040516001600160a01b0390911681526020015b60405180910390f35b61012361011e36600461115a565b6108f1565b60408051928352602083019190915201610107565b6100b661014636600461115a565b610ba9565b6101236101593660046111b7565b610c4a565b6100f361016c36600461115a565b610f3e565b6100b661017f366004611193565b610fe3565b61018c611021565b6040516323b872dd60e01b8152336004820152306024820152604481018290526001600160a01b038416906323b872dd906064016020604051808303816000875af11580156101df573d6000803e3d6000fd5b505050506040513d601f19601f8201168201806040525081019061020391906111fd565b5060405163095ea7b360e01b81526001600160a01b037f0000000000000000000000000000000000000000000000000000000000000000811660048301526024820183905284169063095ea7b3906044016020604051808303816000875af1158015610273573d6000803e3d6000fd5b505050506040513d601f19601f8201168201806040525081019061029791906111fd565b5060408051600280825260608201835260009260208301908036833701905050905083816000815181106102cd576102cd611235565b60200260200101906001600160a01b031690816001600160a01b031681525050828160018151811061030157610301611235565b6001600160a01b0392831660209182029290920101526040516338ed173960e01b81527f0000000000000000000000000000000000000000000000000000000000000000909116906338ed17399061036690859060009086903090429060040161124b565b6000604051808303816000875af1158015610385573d6000803e3d6000fd5b505050506040513d6000823e601f3d908101601f191682016040526103ad91908101906112bc565b5050505050565b6103bc611021565b6000606490506000836001600160a01b031663313ce5676040518163ffffffff1660e01b8152600401602060405180830381865afa158015610402573d6000803e3d6000fd5b505050506040513d601f19601f82011682018060405250810190610426919061137a565b90506000836001600160a01b031663313ce5676040518163ffffffff1660e01b8152600401602060405180830381865afa158015610468573d6000803e3d6000fd5b505050506040513d601f19601f8201168201806040525081019061048c919061137a565b905060005b600a8110156107e85760405163e6a4390560e01b81526001600160a01b03878116600483015286811660248301526000917f00000000000000000000000000000000000000000000000000000000000000009091169063e6a4390590604401602060405180830381865afa15801561050d573d6000803e3d6000fd5b505050506040513d601f19601f82011682018060405250810190610531919061139d565b6040516370a0823160e01b81526001600160a01b0380831660048301529192506000918916906370a0823190602401602060405180830381865afa15801561057d573d6000803e3d6000fd5b505050506040513d601f19601f820116820180604052508101906105a191906113ba565b6040516370a0823160e01b81526001600160a01b0384811660048301529192506000918916906370a0823190602401602060405180830381865afa1580156105ed573d6000803e3d6000fd5b505050506040513d601f19601f8201168201806040525081019061061191906113ba565b905060006106208760126113e9565b61062b90600a6114e6565b61063590846114f5565b905060006106448760126113e9565b61064f90600a6114e6565b61065990846114f5565b905061069160405180604001604052806014815260200173020b2353ab9ba32b2103130b630b731b290209d160651b8152508361104e565b6106c760405180604001604052806014815260200173020b2353ab9ba32b2103130b630b731b290211d160651b8152508261104e565b8082111561076457600060026106dd838561150c565b6106e7919061151f565b90506106f48860126113e9565b6106ff90600a6114e6565b610709908261151f565b90508981101561071e575050505050506107e8565b61075360405180604001604052806013815260200172022bc31b2b9b99034b7103a37b5b2b710211d1606d1b8152508261104e565b61075e8b8d83610184565b506107d0565b818111156107c6576000600261077a848461150c565b610784919061151f565b90506107918960126113e9565b61079c90600a6114e6565b6107a6908261151f565b9050898110156107bb575050505050506107e8565b61075e8c8c83610184565b50505050506107e8565b505050505080806107e090611541565b915050610491565b505050505050565b6107f8611021565b6108026000611093565b565b61080c611021565b6040516370a0823160e01b81523060048201526001600160a01b0382169063a9059cbb90339083906370a0823190602401602060405180830381865afa15801561085a573d6000803e3d6000fd5b505050506040513d601f19601f8201168201806040525081019061087e91906113ba565b6040516001600160e01b031960e085901b1681526001600160a01b03909216600483015260248201526044016020604051808303816000875af11580156108c9573d6000803e3d6000fd5b505050506040513d601f19601f820116820180604052508101906108ed91906111fd565b5050565b6000806108fc611021565b60405163e6a4390560e01b81526001600160a01b03858116600483015284811660248301526000917f00000000000000000000000000000000000000000000000000000000000000009091169063e6a4390590604401602060405180830381865afa15801561096f573d6000803e3d6000fd5b505050506040513d601f19601f82011682018060405250810190610993919061139d565b6040516370a0823160e01b81523060048201529091506000906001600160a01b038316906370a0823190602401602060405180830381865afa1580156109dd573d6000803e3d6000fd5b505050506040513d601f19601f82011682018060405250810190610a0191906113ba565b60405163095ea7b360e01b81526001600160a01b037f0000000000000000000000000000000000000000000000000000000000000000811660048301526024820183905291925060009184169063095ea7b3906044016020604051808303816000875af1158015610a76573d6000803e3d6000fd5b505050506040513d601f19601f82011682018060405250810190610a9a91906111fd565b905080610ae05760405162461bcd60e51b815260206004820152600f60248201526e105c1c1c9bdd985b0819985a5b1959608a1b60448201526064015b60405180910390fd5b604051635d5155ef60e11b81526001600160a01b03888116600483015287811660248301526044820184905260016064830181905260848301523060a48301524260c483015260009182917f0000000000000000000000000000000000000000000000000000000000000000169063baa2abde9060e40160408051808303816000875af1158015610b75573d6000803e3d6000fd5b505050506040513d601f19601f82011682018060405250810190610b99919061155a565b909a909950975050505050505050565b610bb1611021565b6040516364e329cb60e11b81526001600160a01b03838116600483015282811660248301527f0000000000000000000000000000000000000000000000000000000000000000169063c9c65396906044016020604051808303816000875af1158015610c21573d6000803e3d6000fd5b505050506040513d601f19601f82011682018060405250810190610c45919061139d565b505050565b600080610c55611021565b6040516323b872dd60e01b8152336004820152306024820152604481018590526001600160a01b038716906323b872dd906064016020604051808303816000875af1158015610ca8573d6000803e3d6000fd5b505050506040513d601f19601f82011682018060405250810190610ccc91906111fd565b506040516323b872dd60e01b8152336004820152306024820152604481018490526001600160a01b038616906323b872dd906064016020604051808303816000875af1158015610d20573d6000803e3d6000fd5b505050506040513d601f19601f82011682018060405250810190610d4491906111fd565b5060405163095ea7b360e01b81526001600160a01b037f0000000000000000000000000000000000000000000000000000000000000000811660048301526024820186905287169063095ea7b3906044016020604051808303816000875af1158015610db4573d6000803e3d6000fd5b505050506040513d601f19601f82011682018060405250810190610dd891906111fd565b5060405163095ea7b360e01b81526001600160a01b037f0000000000000000000000000000000000000000000000000000000000000000811660048301526024820185905286169063095ea7b3906044016020604051808303816000875af1158015610e48573d6000803e3d6000fd5b505050506040513d601f19601f82011682018060405250810190610e6c91906111fd565b5060405162e8e33760e81b81526001600160a01b0387811660048301528681166024830152604482018690526064820185905260016084830181905260a48301523060c48301524260e483015260009182917f0000000000000000000000000000000000000000000000000000000000000000169063e8e3370090610104016060604051808303816000875af1158015610f0a573d6000803e3d6000fd5b505050506040513d601f19601f82011682018060405250810190610f2e919061157e565b5090999098509650505050505050565b6000610f48611021565b60405163e6a4390560e01b81526001600160a01b03848116600483015283811660248301527f0000000000000000000000000000000000000000000000000000000000000000169063e6a4390590604401602060405180830381865afa158015610fb6573d6000803e3d6000fd5b505050506040513d601f19601f82011682018060405250810190610fda919061139d565b90505b92915050565b610feb611021565b6001600160a01b03811661101557604051631e4fbdf760e01b815260006004820152602401610ad7565b61101e81611093565b50565b6000546001600160a01b031633146108025760405163118cdaa760e01b8152336004820152602401610ad7565b6108ed82826040516024016110649291906115ac565b60408051601f198184030181529190526020810180516001600160e01b03166309710a9d60e41b1790526110e3565b600080546001600160a01b038381166001600160a01b0319831681178455604051919092169283917f8be0079c531659141344cd1fd0a4f28419497f9722a3daafe3b4186f6b6457e09190a35050565b80516a636f6e736f6c652e6c6f67602083016000808483855afa5050505050565b6001600160a01b038116811461101e57600080fd5b60008060006060848603121561112e57600080fd5b833561113981611104565b9250602084013561114981611104565b929592945050506040919091013590565b6000806040838503121561116d57600080fd5b823561117881611104565b9150602083013561118881611104565b809150509250929050565b6000602082840312156111a557600080fd5b81356111b081611104565b9392505050565b600080600080608085870312156111cd57600080fd5b84356111d881611104565b935060208501356111e881611104565b93969395505050506040820135916060013590565b60006020828403121561120f57600080fd5b815180151581146111b057600080fd5b634e487b7160e01b600052604160045260246000fd5b634e487b7160e01b600052603260045260246000fd5b600060a082018783526020878185015260a0604085015281875180845260c086019150828901935060005b8181101561129b5784516001600160a01b031683529383019391830191600101611276565b50506001600160a01b03969096166060850152505050608001529392505050565b600060208083850312156112cf57600080fd5b825167ffffffffffffffff808211156112e757600080fd5b818501915085601f8301126112fb57600080fd5b81518181111561130d5761130d61121f565b8060051b604051601f19603f830116810181811085821117156113325761133261121f565b60405291825284820192508381018501918883111561135057600080fd5b938501935b8285101561136e57845184529385019392850192611355565b98975050505050505050565b60006020828403121561138c57600080fd5b815160ff811681146111b057600080fd5b6000602082840312156113af57600080fd5b81516111b081611104565b6000602082840312156113cc57600080fd5b5051919050565b634e487b7160e01b600052601160045260246000fd5b60ff8281168282160390811115610fdd57610fdd6113d3565b600181815b8085111561143d578160001904821115611423576114236113d3565b8085161561143057918102915b93841c9390800290611407565b509250929050565b60008261145457506001610fdd565b8161146157506000610fdd565b816001811461147757600281146114815761149d565b6001915050610fdd565b60ff841115611492576114926113d3565b50506001821b610fdd565b5060208310610133831016604e8410600b84101617156114c0575081810a610fdd565b6114ca8383611402565b80600019048211156114de576114de6113d3565b029392505050565b6000610fda60ff841683611445565b8082028115828204841417610fdd57610fdd6113d3565b81810381811115610fdd57610fdd6113d3565b60008261153c57634e487b7160e01b600052601260045260246000fd5b500490565b600060018201611553576115536113d3565b5060010190565b6000806040838503121561156d57600080fd5b505080516020909101519092909150565b60008060006060848603121561159357600080fd5b8351925060208401519150604084015190509250925092565b604081526000835180604084015260005b818110156115da57602081870181015160608684010152016115bd565b506000606082850101526060601f19601f830116840101915050826020830152939250505056fea2646970667358221220cbdc831901906ea0190dc9fc883b342ad1705dbf40ea5c936a03452869e0f6c264736f6c634300081400330000000000000000000000005757371414417b8c6caad45baef941abc7d3ab32000000000000000000000000a5e0829caced8ffdd4de3c43696c57f7d7a678ff",
        "nonce": "0x179",
        "chainId": "0x89"
      },
      "additionalContracts": [],
      "isFixedGasLimit": false
    },
    {
      "hash": "0xad82ec072a5e03084facec1bdb912b0e5e01d4842845a6215c2f601a8961ea65",
      "transactionType": "CALL",
      "contractName": null,
      "contractAddress": "0x10a7ee546c3108a4f97ba95ed685ee17078cc2fe",
      "function": "approve(address,uint256)",
      "arguments": [
        "0x0bcFD37f0f065F921729D3d822E6fF3fA7bD637A",
        "6000000000000000000"
      ],
      "transaction": {
        "from": "0x1b395389386f3f2a27866dad8f7ddbb31c392e66",
        "to": "0x10a7ee546c3108a4f97ba95ed685ee17078cc2fe",
        "gas": "0x1090a",
        "value": "0x0",
        "input": "0x095ea7b30000000000000000000000000bcfd37f0f065f921729d3d822e6ff3fa7bd637a00000000000000000000000000000000000000000000000053444835ec580000",
        "nonce": "0x17a",
        "chainId": "0x89"
      },
      "additionalContracts": [],
      "isFixedGasLimit": false
    },
    {
      "hash": "0xfb39486a29d9693ec954e9ef2ee929da5f7177fa6de1e231d4c7c3080c64856f",
      "transactionType": "CALL",
      "contractName": null,
      "contractAddress": "0xc2132d05d31c914a87c6611c10748aeb04b58e8f",
      "function": "approve(address,uint256)",
      "arguments": [
        "0x0bcFD37f0f065F921729D3d822E6fF3fA7bD637A",
        "6000000"
      ],
      "transaction": {
        "from": "0x1b395389386f3f2a27866dad8f7ddbb31c392e66",
        "to": "0xc2132d05d31c914a87c6611c10748aeb04b58e8f",
        "gas": "0x11712",
        "value": "0x0",
        "input": "0x095ea7b30000000000000000000000000bcfd37f0f065f921729d3d822e6ff3fa7bd637a00000000000000000000000000000000000000000000000000000000005b8d80",
        "nonce": "0x17b",
        "chainId": "0x89"
      },
      "additionalContracts": [],
      "isFixedGasLimit": false
    },
    {
      "hash": "0xd443716f7fda83990ff75d70b1e2fbd61f8fb0ff3563df10a69d49fd8ad44ec9",
      "transactionType": "CALL",
      "contractName": "BitcoinPool",
      "contractAddress": "0x0bcfd37f0f065f921729d3d822e6ff3fa7bd637a",
      "function": "addLiquidity(address,address,uint256,uint256)",
      "arguments": [
        "0x10A7Ee546C3108a4F97Ba95ed685eE17078Cc2fE",
        "0xc2132D05D31c914a87C6611C10748AEb04B58e8F",
        "6000000000000000000",
        "6000000"
      ],
      "transaction": {
        "from": "0x1b395389386f3f2a27866dad8f7ddbb31c392e66",
        "to": "0x0bcfd37f0f065f921729d3d822e6ff3fa7bd637a",
        "gas": "0x3da69f",
        "value": "0x0",
        "input": "0xcf6c62ea00000000000000000000000010a7ee546c3108a4f97ba95ed685ee17078cc2fe000000000000000000000000c2132d05d31c914a87c6611c10748aeb04b58e8f00000000000000000000000000000000000000000000000053444835ec58000000000000000000000000000000000000000000000000000000000000005b8d80",
        "nonce": "0x17c",
        "chainId": "0x89"
      },
      "additionalContracts": [
        {
          "transactionType": "CREATE2",
          "address": "0x91d26f6890b01629f72547f8365e90aa8ba1eee4",
          "initCode": "0x60806040526001600c5534801561001557600080fd5b506040514690806052612d228239604080519182900360520182208282018252600a8352692ab734b9bbb0b8102b1960b11b6020938401528151808301835260018152603160f81b908401528151808401919091527fbfcc8ef98ffbf7b6c3fec7bf5185b566b9863e35a9d83acd49ad6824b5969738818301527fc89efdaa54c0f20c7adf612882df0950f5a951637e0307cdcb4c672f298b8bc6606082015260808101949094523060a0808601919091528151808603909101815260c09094019052825192019190912060035550600580546001600160a01b03191633179055612c1d806101056000396000f3fe608060405234801561001057600080fd5b50600436106101b95760003560e01c80636a627842116100f9578063ba9a7a5611610097578063d21220a711610071578063d21220a7146105da578063d505accf146105e2578063dd62ed3e14610640578063fff6cae91461067b576101b9565b8063ba9a7a5614610597578063bc25cf771461059f578063c45a0155146105d2576101b9565b80637ecebe00116100d35780637ecebe00146104d757806389afcb441461050a57806395d89b4114610556578063a9059cbb1461055e576101b9565b80636a6278421461046957806370a082311461049c5780637464fc3d146104cf576101b9565b806323b872dd116101665780633644e515116101405780633644e51514610416578063485cc9551461041e5780635909c0d5146104595780635a3d549314610461576101b9565b806323b872dd146103ad57806330adf81f146103f0578063313ce567146103f8576101b9565b8063095ea7b311610197578063095ea7b3146103155780630dfe16811461036257806318160ddd14610393576101b9565b8063022c0d9f146101be57806306fdde03146102595780630902f1ac146102d6575b600080fd5b610257600480360360808110156101d457600080fd5b81359160208101359173ffffffffffffffffffffffffffffffffffffffff604083013516919081019060808101606082013564010000000081111561021857600080fd5b82018360208201111561022a57600080fd5b8035906020019184600183028401116401000000008311171561024c57600080fd5b509092509050610683565b005b610261610d57565b6040805160208082528351818301528351919283929083019185019080838360005b8381101561029b578181015183820152602001610283565b50505050905090810190601f1680156102c85780820380516001836020036101000a031916815260200191505b509250505060405180910390f35b6102de610d90565b604080516dffffffffffffffffffffffffffff948516815292909316602083015263ffffffff168183015290519081900360600190f35b61034e6004803603604081101561032b57600080fd5b5073ffffffffffffffffffffffffffffffffffffffff8135169060200135610de5565b604080519115158252519081900360200190f35b61036a610dfc565b6040805173ffffffffffffffffffffffffffffffffffffffff9092168252519081900360200190f35b61039b610e18565b60408051918252519081900360200190f35b61034e600480360360608110156103c357600080fd5b5073ffffffffffffffffffffffffffffffffffffffff813581169160208101359091169060400135610e1e565b61039b610efd565b610400610f21565b6040805160ff9092168252519081900360200190f35b61039b610f26565b6102576004803603604081101561043457600080fd5b5073ffffffffffffffffffffffffffffffffffffffff81358116916020013516610f2c565b61039b611005565b61039b61100b565b61039b6004803603602081101561047f57600080fd5b503573ffffffffffffffffffffffffffffffffffffffff16611011565b61039b600480360360208110156104b257600080fd5b503573ffffffffffffffffffffffffffffffffffffffff166113cb565b61039b6113dd565b61039b600480360360208110156104ed57600080fd5b503573ffffffffffffffffffffffffffffffffffffffff166113e3565b61053d6004803603602081101561052057600080fd5b503573ffffffffffffffffffffffffffffffffffffffff166113f5565b6040805192835260208301919091528051918290030190f35b610261611892565b61034e6004803603604081101561057457600080fd5b5073ffffffffffffffffffffffffffffffffffffffff81351690602001356118cb565b61039b6118d8565b610257600480360360208110156105b557600080fd5b503573ffffffffffffffffffffffffffffffffffffffff166118de565b61036a611ad4565b61036a611af0565b610257600480360360e08110156105f857600080fd5b5073ffffffffffffffffffffffffffffffffffffffff813581169160208101359091169060408101359060608101359060ff6080820135169060a08101359060c00135611b0c565b61039b6004803603604081101561065657600080fd5b5073ffffffffffffffffffffffffffffffffffffffff81358116916020013516611dd8565b610257611df5565b600c546001146106f457604080517f08c379a000000000000000000000000000000000000000000000000000000000815260206004820152601160248201527f556e697377617056323a204c4f434b4544000000000000000000000000000000604482015290519081900360640190fd5b6000600c55841515806107075750600084115b61075c576040517f08c379a0000000000000000000000000000000000000000000000000000000008152600401808060200182810382526025815260200180612b2f6025913960400191505060405180910390fd5b600080610767610d90565b5091509150816dffffffffffffffffffffffffffff168710801561079a5750806dffffffffffffffffffffffffffff1686105b6107ef576040517f08c379a0000000000000000000000000000000000000000000000000000000008152600401808060200182810382526021815260200180612b786021913960400191505060405180910390fd5b600654600754600091829173ffffffffffffffffffffffffffffffffffffffff91821691908116908916821480159061085457508073ffffffffffffffffffffffffffffffffffffffff168973ffffffffffffffffffffffffffffffffffffffff1614155b6108bf57604080517f08c379a000000000000000000000000000000000000000000000000000000000815260206004820152601560248201527f556e697377617056323a20494e56414c49445f544f0000000000000000000000604482015290519081900360640190fd5b8a156108d0576108d0828a8d611fdb565b89156108e1576108e1818a8c611fdb565b86156109c3578873ffffffffffffffffffffffffffffffffffffffff166310d1e85c338d8d8c8c6040518663ffffffff1660e01b8152600401808673ffffffffffffffffffffffffffffffffffffffff1673ffffffffffffffffffffffffffffffffffffffff168152602001858152602001848152602001806020018281038252848482818152602001925080828437600081840152601f19601f8201169050808301925050509650505050505050600060405180830381600087803b1580156109aa57600080fd5b505af11580156109be573d6000803e3d6000fd5b505050505b604080517f70a08231000000000000000000000000000000000000000000000000000000008152306004820152905173ffffffffffffffffffffffffffffffffffffffff8416916370a08231916024808301926020929190829003018186803b158015610a2f57600080fd5b505afa158015610a43573d6000803e3d6000fd5b505050506040513d6020811015610a5957600080fd5b5051604080517f70a08231000000000000000000000000000000000000000000000000000000008152306004820152905191955073ffffffffffffffffffffffffffffffffffffffff8316916370a0823191602480820192602092909190829003018186803b158015610acb57600080fd5b505afa158015610adf573d6000803e3d6000fd5b505050506040513d6020811015610af557600080fd5b5051925060009150506dffffffffffffffffffffffffffff85168a90038311610b1f576000610b35565b89856dffffffffffffffffffffffffffff160383035b9050600089856dffffffffffffffffffffffffffff16038311610b59576000610b6f565b89856dffffffffffffffffffffffffffff160383035b90506000821180610b805750600081115b610bd5576040517f08c379a0000000000000000000000000000000000000000000000000000000008152600401808060200182810382526024815260200180612b546024913960400191505060405180910390fd5b6000610c09610beb84600363ffffffff6121e816565b610bfd876103e863ffffffff6121e816565b9063ffffffff61226e16565b90506000610c21610beb84600363ffffffff6121e816565b9050610c59620f4240610c4d6dffffffffffffffffffffffffffff8b8116908b1663ffffffff6121e816565b9063ffffffff6121e816565b610c69838363ffffffff6121e816565b1015610cd657604080517f08c379a000000000000000000000000000000000000000000000000000000000815260206004820152600c60248201527f556e697377617056323a204b0000000000000000000000000000000000000000604482015290519081900360640190fd5b5050610ce4848488886122e0565b60408051838152602081018390528082018d9052606081018c9052905173ffffffffffffffffffffffffffffffffffffffff8b169133917fd78ad95fa46c994b6551d0da85fc275fe613ce37657fb8d5e3d130840159d8229181900360800190a350506001600c55505050505050505050565b6040518060400160405280600a81526020017f556e69737761702056320000000000000000000000000000000000000000000081525081565b6008546dffffffffffffffffffffffffffff808216926e0100000000000000000000000000008304909116917c0100000000000000000000000000000000000000000000000000000000900463ffffffff1690565b6000610df233848461259c565b5060015b92915050565b60065473ffffffffffffffffffffffffffffffffffffffff1681565b60005481565b73ffffffffffffffffffffffffffffffffffffffff831660009081526002602090815260408083203384529091528120547fffffffffffffffffffffffffffffffffffffffffffffffffffffffffffffffff14610ee85773ffffffffffffffffffffffffffffffffffffffff84166000908152600260209081526040808320338452909152902054610eb6908363ffffffff61226e16565b73ffffffffffffffffffffffffffffffffffffffff851660009081526002602090815260408083203384529091529020555b610ef384848461260b565b5060019392505050565b7f6e71edae12b1b97f4d1f60370fef10105fa2faae0126114a169c64845d6126c981565b601281565b60035481565b60055473ffffffffffffffffffffffffffffffffffffffff163314610fb257604080517f08c379a000000000000000000000000000000000000000000000000000000000815260206004820152601460248201527f556e697377617056323a20464f5242494444454e000000000000000000000000604482015290519081900360640190fd5b6006805473ffffffffffffffffffffffffffffffffffffffff9384167fffffffffffffffffffffffff00000000000000000000000000000000000000009182161790915560078054929093169116179055565b60095481565b600a5481565b6000600c5460011461108457604080517f08c379a000000000000000000000000000000000000000000000000000000000815260206004820152601160248201527f556e697377617056323a204c4f434b4544000000000000000000000000000000604482015290519081900360640190fd5b6000600c81905580611094610d90565b50600654604080517f70a08231000000000000000000000000000000000000000000000000000000008152306004820152905193955091935060009273ffffffffffffffffffffffffffffffffffffffff909116916370a08231916024808301926020929190829003018186803b15801561110e57600080fd5b505afa158015611122573d6000803e3d6000fd5b505050506040513d602081101561113857600080fd5b5051600754604080517f70a08231000000000000000000000000000000000000000000000000000000008152306004820152905192935060009273ffffffffffffffffffffffffffffffffffffffff909216916370a0823191602480820192602092909190829003018186803b1580156111b157600080fd5b505afa1580156111c5573d6000803e3d6000fd5b505050506040513d60208110156111db57600080fd5b505190506000611201836dffffffffffffffffffffffffffff871663ffffffff61226e16565b90506000611225836dffffffffffffffffffffffffffff871663ffffffff61226e16565b9050600061123387876126ec565b600054909150806112705761125c6103e8610bfd611257878763ffffffff6121e816565b612878565b985061126b60006103e86128ca565b6112cd565b6112ca6dffffffffffffffffffffffffffff8916611294868463ffffffff6121e816565b8161129b57fe5b046dffffffffffffffffffffffffffff89166112bd868563ffffffff6121e816565b816112c457fe5b0461297a565b98505b60008911611326576040517f08c379a0000000000000000000000000000000000000000000000000000000008152600401808060200182810382526028815260200180612bc16028913960400191505060405180910390fd5b6113308a8a6128ca565b61133c86868a8a6122e0565b811561137e5760085461137a906dffffffffffffffffffffffffffff808216916e01000000000000000000000000000090041663ffffffff6121e816565b600b555b6040805185815260208101859052815133927f4c209b5fc8ad50758f13e2e1088ba56a560dff690a1c6fef26394f4c03821c4f928290030190a250506001600c5550949695505050505050565b60016020526000908152604090205481565b600b5481565b60046020526000908152604090205481565b600080600c5460011461146957604080517f08c379a000000000000000000000000000000000000000000000000000000000815260206004820152601160248201527f556e697377617056323a204c4f434b4544000000000000000000000000000000604482015290519081900360640190fd5b6000600c81905580611479610d90565b50600654600754604080517f70a08231000000000000000000000000000000000000000000000000000000008152306004820152905194965092945073ffffffffffffffffffffffffffffffffffffffff9182169391169160009184916370a08231916024808301926020929190829003018186803b1580156114fb57600080fd5b505afa15801561150f573d6000803e3d6000fd5b505050506040513d602081101561152557600080fd5b5051604080517f70a08231000000000000000000000000000000000000000000000000000000008152306004820152905191925060009173ffffffffffffffffffffffffffffffffffffffff8516916370a08231916024808301926020929190829003018186803b15801561159957600080fd5b505afa1580156115ad573d6000803e3d6000fd5b505050506040513d60208110156115c357600080fd5b5051306000908152600160205260408120549192506115e288886126ec565b600054909150806115f9848763ffffffff6121e816565b8161160057fe5b049a5080611614848663ffffffff6121e816565b8161161b57fe5b04995060008b11801561162e575060008a115b611683576040517f08c379a0000000000000000000000000000000000000000000000000000000008152600401808060200182810382526028815260200180612b996028913960400191505060405180910390fd5b61168d3084612992565b611698878d8d611fdb565b6116a3868d8c611fdb565b604080517f70a08231000000000000000000000000000000000000000000000000000000008152306004820152905173ffffffffffffffffffffffffffffffffffffffff8916916370a08231916024808301926020929190829003018186803b15801561170f57600080fd5b505afa158015611723573d6000803e3d6000fd5b505050506040513d602081101561173957600080fd5b5051604080517f70a08231000000000000000000000000000000000000000000000000000000008152306004820152905191965073ffffffffffffffffffffffffffffffffffffffff8816916370a0823191602480820192602092909190829003018186803b1580156117ab57600080fd5b505afa1580156117bf573d6000803e3d6000fd5b505050506040513d60208110156117d557600080fd5b505193506117e585858b8b6122e0565b811561182757600854611823906dffffffffffffffffffffffffffff808216916e01000000000000000000000000000090041663ffffffff6121e816565b600b555b604080518c8152602081018c9052815173ffffffffffffffffffffffffffffffffffffffff8f169233927fdccd412f0b1252819cb1fd330b93224ca42612892bb3f4f789976e6d81936496929081900390910190a35050505050505050506001600c81905550915091565b6040518060400160405280600681526020017f554e492d5632000000000000000000000000000000000000000000000000000081525081565b6000610df233848461260b565b6103e881565b600c5460011461194f57604080517f08c379a000000000000000000000000000000000000000000000000000000000815260206004820152601160248201527f556e697377617056323a204c4f434b4544000000000000000000000000000000604482015290519081900360640190fd5b6000600c55600654600754600854604080517f70a08231000000000000000000000000000000000000000000000000000000008152306004820152905173ffffffffffffffffffffffffffffffffffffffff9485169490931692611a2b9285928792611a26926dffffffffffffffffffffffffffff169185916370a0823191602480820192602092909190829003018186803b1580156119ee57600080fd5b505afa158015611a02573d6000803e3d6000fd5b505050506040513d6020811015611a1857600080fd5b50519063ffffffff61226e16565b611fdb565b600854604080517f70a082310000000000000000000000000000000000000000000000000000000081523060048201529051611aca9284928792611a26926e01000000000000000000000000000090046dffffffffffffffffffffffffffff169173ffffffffffffffffffffffffffffffffffffffff8616916370a0823191602480820192602092909190829003018186803b1580156119ee57600080fd5b50506001600c5550565b60055473ffffffffffffffffffffffffffffffffffffffff1681565b60075473ffffffffffffffffffffffffffffffffffffffff1681565b42841015611b7b57604080517f08c379a000000000000000000000000000000000000000000000000000000000815260206004820152601260248201527f556e697377617056323a20455850495245440000000000000000000000000000604482015290519081900360640190fd5b60035473ffffffffffffffffffffffffffffffffffffffff80891660008181526004602090815260408083208054600180820190925582517f6e71edae12b1b97f4d1f60370fef10105fa2faae0126114a169c64845d6126c98186015280840196909652958d166060860152608085018c905260a085019590955260c08085018b90528151808603909101815260e0850182528051908301207f19010000000000000000000000000000000000000000000000000000000000006101008601526101028501969096526101228085019690965280518085039096018652610142840180825286519683019690962095839052610162840180825286905260ff89166101828501526101a284018890526101c28401879052519193926101e2808201937fffffffffffffffffffffffffffffffffffffffffffffffffffffffffffffffe081019281900390910190855afa158015611cdc573d6000803e3d6000fd5b50506040517fffffffffffffffffffffffffffffffffffffffffffffffffffffffffffffffe0015191505073ffffffffffffffffffffffffffffffffffffffff811615801590611d5757508873ffffffffffffffffffffffffffffffffffffffff168173ffffffffffffffffffffffffffffffffffffffff16145b611dc257604080517f08c379a000000000000000000000000000000000000000000000000000000000815260206004820152601c60248201527f556e697377617056323a20494e56414c49445f5349474e415455524500000000604482015290519081900360640190fd5b611dcd89898961259c565b505050505050505050565b600260209081526000928352604080842090915290825290205481565b600c54600114611e6657604080517f08c379a000000000000000000000000000000000000000000000000000000000815260206004820152601160248201527f556e697377617056323a204c4f434b4544000000000000000000000000000000604482015290519081900360640190fd5b6000600c55600654604080517f70a082310000000000000000000000000000000000000000000000000000000081523060048201529051611fd49273ffffffffffffffffffffffffffffffffffffffff16916370a08231916024808301926020929190829003018186803b158015611edd57600080fd5b505afa158015611ef1573d6000803e3d6000fd5b505050506040513d6020811015611f0757600080fd5b5051600754604080517f70a08231000000000000000000000000000000000000000000000000000000008152306004820152905173ffffffffffffffffffffffffffffffffffffffff909216916370a0823191602480820192602092909190829003018186803b158015611f7a57600080fd5b505afa158015611f8e573d6000803e3d6000fd5b505050506040513d6020811015611fa457600080fd5b50516008546dffffffffffffffffffffffffffff808216916e0100000000000000000000000000009004166122e0565b6001600c55565b604080518082018252601981527f7472616e7366657228616464726573732c75696e743235362900000000000000602091820152815173ffffffffffffffffffffffffffffffffffffffff85811660248301526044808301869052845180840390910181526064909201845291810180517bffffffffffffffffffffffffffffffffffffffffffffffffffffffff167fa9059cbb000000000000000000000000000000000000000000000000000000001781529251815160009460609489169392918291908083835b602083106120e157805182527fffffffffffffffffffffffffffffffffffffffffffffffffffffffffffffffe090920191602091820191016120a4565b6001836020036101000a0380198251168184511680821785525050505050509050019150506000604051808303816000865af19150503d8060008114612143576040519150601f19603f3d011682016040523d82523d6000602084013e612148565b606091505b5091509150818015612176575080511580612176575080806020019051602081101561217357600080fd5b50515b6121e157604080517f08c379a000000000000000000000000000000000000000000000000000000000815260206004820152601a60248201527f556e697377617056323a205452414e534645525f4641494c4544000000000000604482015290519081900360640190fd5b5050505050565b60008115806122035750508082028282828161220057fe5b04145b610df657604080517f08c379a000000000000000000000000000000000000000000000000000000000815260206004820152601460248201527f64732d6d6174682d6d756c2d6f766572666c6f77000000000000000000000000604482015290519081900360640190fd5b80820382811115610df657604080517f08c379a000000000000000000000000000000000000000000000000000000000815260206004820152601560248201527f64732d6d6174682d7375622d756e646572666c6f770000000000000000000000604482015290519081900360640190fd5b6dffffffffffffffffffffffffffff841180159061230c57506dffffffffffffffffffffffffffff8311155b61237757604080517f08c379a000000000000000000000000000000000000000000000000000000000815260206004820152601360248201527f556e697377617056323a204f564552464c4f5700000000000000000000000000604482015290519081900360640190fd5b60085463ffffffff428116917c0100000000000000000000000000000000000000000000000000000000900481168203908116158015906123c757506dffffffffffffffffffffffffffff841615155b80156123e257506dffffffffffffffffffffffffffff831615155b15612492578063ffffffff16612425856123fb86612a57565b7bffffffffffffffffffffffffffffffffffffffffffffffffffffffff169063ffffffff612a7b16565b600980547bffffffffffffffffffffffffffffffffffffffffffffffffffffffff929092169290920201905563ffffffff8116612465846123fb87612a57565b600a80547bffffffffffffffffffffffffffffffffffffffffffffffffffffffff92909216929092020190555b600880547fffffffffffffffffffffffffffffffffffff0000000000000000000000000000166dffffffffffffffffffffffffffff888116919091177fffffffff0000000000000000000000000000ffffffffffffffffffffffffffff166e0100000000000000000000000000008883168102919091177bffffffffffffffffffffffffffffffffffffffffffffffffffffffff167c010000000000000000000000000000000000000000000000000000000063ffffffff871602179283905560408051848416815291909304909116602082015281517f1c411e9a96e071241c2f21f7726b17ae89e3cab4c78be50e062b03a9fffbbad1929181900390910190a1505050505050565b73ffffffffffffffffffffffffffffffffffffffff808416600081815260026020908152604080832094871680845294825291829020859055815185815291517f8c5be1e5ebec7d5bd14f71427d1e84f3dd0314c0f7b2291e5b200ac8c7c3b9259281900390910190a3505050565b73ffffffffffffffffffffffffffffffffffffffff8316600090815260016020526040902054612641908263ffffffff61226e16565b73ffffffffffffffffffffffffffffffffffffffff8085166000908152600160205260408082209390935590841681522054612683908263ffffffff612abc16565b73ffffffffffffffffffffffffffffffffffffffff80841660008181526001602090815260409182902094909455805185815290519193928716927fddf252ad1be2c89b69c2b068fc378daa952ba7f163c4a11628f55a4df523b3ef92918290030190a3505050565b600080600560009054906101000a900473ffffffffffffffffffffffffffffffffffffffff1673ffffffffffffffffffffffffffffffffffffffff1663017e7e586040518163ffffffff1660e01b815260040160206040518083038186803b15801561275757600080fd5b505afa15801561276b573d6000803e3d6000fd5b505050506040513d602081101561278157600080fd5b5051600b5473ffffffffffffffffffffffffffffffffffffffff821615801594509192509061286457801561285f5760006127d86112576dffffffffffffffffffffffffffff88811690881663ffffffff6121e816565b905060006127e583612878565b90508082111561285c576000612813612804848463ffffffff61226e16565b6000549063ffffffff6121e816565b905060006128388361282c86600563ffffffff6121e816565b9063ffffffff612abc16565b9050600081838161284557fe5b04905080156128585761285887826128ca565b5050505b50505b612870565b8015612870576000600b555b505092915050565b600060038211156128bb575080600160028204015b818110156128b5578091506002818285816128a457fe5b0401816128ad57fe5b04905061288d565b506128c5565b81156128c5575060015b919050565b6000546128dd908263ffffffff612abc16565b600090815573ffffffffffffffffffffffffffffffffffffffff8316815260016020526040902054612915908263ffffffff612abc16565b73ffffffffffffffffffffffffffffffffffffffff831660008181526001602090815260408083209490945583518581529351929391927fddf252ad1be2c89b69c2b068fc378daa952ba7f163c4a11628f55a4df523b3ef9281900390910190a35050565b6000818310612989578161298b565b825b9392505050565b73ffffffffffffffffffffffffffffffffffffffff82166000908152600160205260409020546129c8908263ffffffff61226e16565b73ffffffffffffffffffffffffffffffffffffffff831660009081526001602052604081209190915554612a02908263ffffffff61226e16565b600090815560408051838152905173ffffffffffffffffffffffffffffffffffffffff8516917fddf252ad1be2c89b69c2b068fc378daa952ba7f163c4a11628f55a4df523b3ef919081900360200190a35050565b6dffffffffffffffffffffffffffff166e0100000000000000000000000000000290565b60006dffffffffffffffffffffffffffff82167bffffffffffffffffffffffffffffffffffffffffffffffffffffffff841681612ab457fe5b049392505050565b80820182811015610df657604080517f08c379a000000000000000000000000000000000000000000000000000000000815260206004820152601460248201527f64732d6d6174682d6164642d6f766572666c6f77000000000000000000000000604482015290519081900360640190fdfe556e697377617056323a20494e53554646494349454e545f4f55545055545f414d4f554e54556e697377617056323a20494e53554646494349454e545f494e5055545f414d4f554e54556e697377617056323a20494e53554646494349454e545f4c4951554944495459556e697377617056323a20494e53554646494349454e545f4c49515549444954595f4255524e4544556e697377617056323a20494e53554646494349454e545f4c49515549444954595f4d494e544544a265627a7a723158207dca18479e58487606bf70c79e44d8dee62353c9ee6d01f9a9d70885b8765f2264736f6c63430005100032454950373132446f6d61696e28737472696e67206e616d652c737472696e672076657273696f6e2c75696e7432353620636861696e49642c6164647265737320766572696679696e67436f6e747261637429"
        }
      ],
      "isFixedGasLimit": false
    },
    {
      "hash": "0xdb40db4ea9f00217d2ebdb0ecf06533ea5baccc642b39ac15bba24037245fc45",
      "transactionType": "CALL",
      "contractName": null,
      "contractAddress": "0x10a7ee546c3108a4f97ba95ed685ee17078cc2fe",
      "function": "setMinWithdrawal(uint256)",
      "arguments": [
        "0"
      ],
      "transaction": {
        "from": "0x1b395389386f3f2a27866dad8f7ddbb31c392e66",
        "to": "0x10a7ee546c3108a4f97ba95ed685ee17078cc2fe",
        "gas": "0x8646",
        "value": "0x0",
        "input": "0xb070e4330000000000000000000000000000000000000000000000000000000000000000",
        "nonce": "0x17d",
        "chainId": "0x89"
      },
      "additionalContracts": [],
      "isFixedGasLimit": false
    },
    {
      "hash": "0xdeeb84ea4602d1737ebf6b5e36f60820c0ce21237ac30bc0e0f960f4a569a00a",
      "transactionType": "CALL",
      "contractName": null,
      "contractAddress": "0x10a7ee546c3108a4f97ba95ed685ee17078cc2fe",
      "function": "approve(address,uint256)",
      "arguments": [
        "0x0bcFD37f0f065F921729D3d822E6fF3fA7bD637A",
        "115792089237316195423570985008687907853269984665640564039457584007913129639935"
      ],
      "transaction": {
        "from": "0x1b395389386f3f2a27866dad8f7ddbb31c392e66",
        "to": "0x10a7ee546c3108a4f97ba95ed685ee17078cc2fe",
        "gas": "0x10ad3",
        "value": "0x0",
        "input": "0x095ea7b30000000000000000000000000bcfd37f0f065f921729d3d822e6ff3fa7bd637affffffffffffffffffffffffffffffffffffffffffffffffffffffffffffffff",
        "nonce": "0x17e",
        "chainId": "0x89"
      },
      "additionalContracts": [],
      "isFixedGasLimit": false
    },
    {
      "hash": "0x62f10ce985f5ac28df62ae3e4efade034c6eff7d0e0b8a0fcc527b3cfcbc741a",
      "transactionType": "CALL",
      "contractName": null,
      "contractAddress": "0xc2132d05d31c914a87c6611c10748aeb04b58e8f",
      "function": "approve(address,uint256)",
      "arguments": [
        "0x0bcFD37f0f065F921729D3d822E6fF3fA7bD637A",
        "115792089237316195423570985008687907853269984665640564039457584007913129639935"
      ],
      "transaction": {
        "from": "0x1b395389386f3f2a27866dad8f7ddbb31c392e66",
        "to": "0xc2132d05d31c914a87c6611c10748aeb04b58e8f",
        "gas": "0x118f3",
        "value": "0x0",
        "input": "0x095ea7b30000000000000000000000000bcfd37f0f065f921729d3d822e6ff3fa7bd637affffffffffffffffffffffffffffffffffffffffffffffffffffffffffffffff",
        "nonce": "0x17f",
        "chainId": "0x89"
      },
      "additionalContracts": [],
      "isFixedGasLimit": false
    },
    {
      "hash": "0x3f44455bd646939c00d5e06d261ada6378a03343172fc66d4bcde72e9a029df9",
      "transactionType": "CALL",
      "contractName": "BitcoinPool",
      "contractAddress": "0x0bcfd37f0f065f921729d3d822e6ff3fa7bd637a",
      "function": "swapToken(address,address,uint256)",
      "arguments": [
        "0x10A7Ee546C3108a4F97Ba95ed685eE17078Cc2fE",
        "0xc2132D05D31c914a87C6611C10748AEb04B58e8F",
        "1000000000000000000"
      ],
      "transaction": {
        "from": "0x1b395389386f3f2a27866dad8f7ddbb31c392e66",
        "to": "0x0bcfd37f0f065f921729d3d822e6ff3fa7bd637a",
        "gas": "0x303e1",
        "value": "0x0",
        "input": "0x0c0a763000000000000000000000000010a7ee546c3108a4f97ba95ed685ee17078cc2fe000000000000000000000000c2132d05d31c914a87c6611c10748aeb04b58e8f0000000000000000000000000000000000000000000000000de0b6b3a7640000",
        "nonce": "0x180",
        "chainId": "0x89"
      },
      "additionalContracts": [],
      "isFixedGasLimit": false
    },
    {
      "hash": "0x82b5c659d618f29bfa92addbdb2f937e9a12e57afc59f492c309a916543c407e",
      "transactionType": "CALL",
      "contractName": "BitcoinPool",
      "contractAddress": "0x0bcfd37f0f065f921729d3d822e6ff3fa7bd637a",
      "function": "maintainPeg(address,address)",
      "arguments": [
        "0x10A7Ee546C3108a4F97Ba95ed685eE17078Cc2fE",
        "0xc2132D05D31c914a87C6611C10748AEb04B58e8F"
      ],
      "transaction": {
        "from": "0x1b395389386f3f2a27866dad8f7ddbb31c392e66",
        "to": "0x0bcfd37f0f065f921729d3d822e6ff3fa7bd637a",
        "gas": "0x64626",
        "value": "0x0",
        "input": "0x690f93ff00000000000000000000000010a7ee546c3108a4f97ba95ed685ee17078cc2fe000000000000000000000000c2132d05d31c914a87c6611c10748aeb04b58e8f",
        "nonce": "0x181",
        "chainId": "0x89"
      },
      "additionalContracts": [],
      "isFixedGasLimit": false
    },
    {
      "hash": "0xf53930274009cf00ecc7af580b8fdf7686a38d08ef7321070876401cc12be62d",
      "transactionType": "CALL",
      "contractName": null,
      "contractAddress": "0x10a7ee546c3108a4f97ba95ed685ee17078cc2fe",
      "function": "setMinWithdrawal(uint256)",
      "arguments": [
        "6002767788943767021"
      ],
      "transaction": {
        "from": "0x1b395389386f3f2a27866dad8f7ddbb31c392e66",
        "to": "0x10a7ee546c3108a4f97ba95ed685ee17078cc2fe",
        "gas": "0x10bd5",
        "value": "0x0",
        "input": "0xb070e433000000000000000000000000000000000000000000000000534e1d80012675ed",
        "nonce": "0x182",
        "chainId": "0x89"
      },
      "additionalContracts": [],
      "isFixedGasLimit": false
    }
  ],
  "receipts": [
    {
      "status": "0x1",
      "cumulativeGasUsed": "0xaf93e2",
      "logs": [
        {
          "address": "0x0bcfd37f0f065f921729d3d822e6ff3fa7bd637a",
          "topics": [
            "0x8be0079c531659141344cd1fd0a4f28419497f9722a3daafe3b4186f6b6457e0",
            "0x0000000000000000000000000000000000000000000000000000000000000000",
            "0x0000000000000000000000001b395389386f3f2a27866dad8f7ddbb31c392e66"
          ],
          "data": "0x",
          "blockHash": "0xe76e9ff03aca1eef59d865916816e7d9170884503abd521af666a22c1c8f60e5",
          "blockNumber": "0x38cb46e",
          "transactionHash": "0x42411ad78839abc8724b16b73c04cd58d09656c36474e8d886e373ad2505bdb5",
          "transactionIndex": "0x49",
          "logIndex": "0x128",
          "removed": false
        },
        {
          "address": "0x0000000000000000000000000000000000001010",
          "topics": [
            "0x4dfe1bbbcf077ddc3e01291eea2d5c70c2b422b415d95645b9adcfd678cb1d63",
            "0x0000000000000000000000000000000000000000000000000000000000001010",
            "0x0000000000000000000000001b395389386f3f2a27866dad8f7ddbb31c392e66",
            "0x000000000000000000000000144aeae662aeb1f871ac217bb310d241c0f50590"
          ],
          "data": "0x000000000000000000000000000000000000000000000000008b5fa6636bcc0000000000000000000000000000000000000000000000000078b5fc54352a9ed000000000000000000000000000000000000000000000001a2ddd4f05b3c046c7000000000000000000000000000000000000000000000000782a9cadd1bed2d000000000000000000000000000000000000000000000001a2e68aeac172c12c7",
          "blockHash": "0xe76e9ff03aca1eef59d865916816e7d9170884503abd521af666a22c1c8f60e5",
          "blockNumber": "0x38cb46e",
          "transactionHash": "0x42411ad78839abc8724b16b73c04cd58d09656c36474e8d886e373ad2505bdb5",
          "transactionIndex": "0x49",
          "logIndex": "0x129",
          "removed": false
        }
      ],
      "logsBloom": "0x00000000000000000000000000000000000000000000020000800000000000000000000000000000000000000000000000008000000000000000000000000000000000000000000008080000000000800005200000000000000100000000000000000000020002000000000001000800000000000000000080000000000000400000000000008000000000000000000000000000000000000000200000000000200000000000000000000000000000000000000000000000000000000000004000000000000000000001000000000000000000000000000000100000000020000000000000000000000000000000000000000000000000000000000000100000",
      "type": "0x2",
      "transactionHash": "0x42411ad78839abc8724b16b73c04cd58d09656c36474e8d886e373ad2505bdb5",
      "transactionIndex": "0x49",
      "blockHash": "0xe76e9ff03aca1eef59d865916816e7d9170884503abd521af666a22c1c8f60e5",
      "blockNumber": "0x38cb46e",
      "gasUsed": "0x13f419",
      "effectiveGasPrice": "0x6fc23ade2",
      "from": "0x1b395389386f3f2a27866dad8f7ddbb31c392e66",
      "to": null,
      "contractAddress": "0x0bcfd37f0f065f921729d3d822e6ff3fa7bd637a"
    },
    {
      "status": "0x1",
      "cumulativeGasUsed": "0xb101bb",
      "logs": [
        {
          "address": "0x10a7ee546c3108a4f97ba95ed685ee17078cc2fe",
          "topics": [
            "0x8c5be1e5ebec7d5bd14f71427d1e84f3dd0314c0f7b2291e5b200ac8c7c3b925",
            "0x0000000000000000000000001b395389386f3f2a27866dad8f7ddbb31c392e66",
            "0x0000000000000000000000000bcfd37f0f065f921729d3d822e6ff3fa7bd637a"
          ],
          "data": "0x00000000000000000000000000000000000000000000000053444835ec580000",
          "blockHash": "0xe76e9ff03aca1eef59d865916816e7d9170884503abd521af666a22c1c8f60e5",
          "blockNumber": "0x38cb46e",
          "transactionHash": "0xad82ec072a5e03084facec1bdb912b0e5e01d4842845a6215c2f601a8961ea65",
          "transactionIndex": "0x4b",
          "logIndex": "0x12b",
          "removed": false
        },
        {
          "address": "0x0000000000000000000000000000000000001010",
          "topics": [
            "0x4dfe1bbbcf077ddc3e01291eea2d5c70c2b422b415d95645b9adcfd678cb1d63",
            "0x0000000000000000000000000000000000000000000000000000000000001010",
            "0x0000000000000000000000001b395389386f3f2a27866dad8f7ddbb31c392e66",
            "0x000000000000000000000000144aeae662aeb1f871ac217bb310d241c0f50590"
          ],
          "data": "0x0000000000000000000000000000000000000000000000000004f1da58b0f800000000000000000000000000000000000000000000000000782a9cadac2d3bbe00000000000000000000000000000000000000000000001a2e6db83c54f3e6c70000000000000000000000000000000000000000000000007825aad3537c43be00000000000000000000000000000000000000000000001a2e72aa16ada4dec7",
          "blockHash": "0xe76e9ff03aca1eef59d865916816e7d9170884503abd521af666a22c1c8f60e5",
          "blockNumber": "0x38cb46e",
          "transactionHash": "0xad82ec072a5e03084facec1bdb912b0e5e01d4842845a6215c2f601a8961ea65",
          "transactionIndex": "0x4b",
          "logIndex": "0x12c",
          "removed": false
        }
      ],
      "logsBloom": "0x00000000000000000000000000000000000000000000020000100000000000000000000000000000000000000000000000008000000000000000000002200000000000000000000008080000000000800004000000000000000120000000000000000000000002000000000000800000000000000000000080000000000000000000000000008000000000000000000000000000000000000000000000000000220000000000000000000000000000000000000000000000000000000000004000000000000000000001000000000000000000000000000000100000000000000010000000000000000000400000000000000000000000000000040000100000",
      "type": "0x2",
      "transactionHash": "0xad82ec072a5e03084facec1bdb912b0e5e01d4842845a6215c2f601a8961ea65",
      "transactionIndex": "0x4b",
      "blockHash": "0xe76e9ff03aca1eef59d865916816e7d9170884503abd521af666a22c1c8f60e5",
      "blockNumber": "0x38cb46e",
      "gasUsed": "0xb53a",
      "effectiveGasPrice": "0x6fc23ade2",
      "from": "0x1b395389386f3f2a27866dad8f7ddbb31c392e66",
      "to": "0x10a7ee546c3108a4f97ba95ed685ee17078cc2fe",
      "contractAddress": null
    },
    {
      "status": "0x1",
      "cumulativeGasUsed": "0xb1cbc7",
      "logs": [
        {
          "address": "0xc2132d05d31c914a87c6611c10748aeb04b58e8f",
          "topics": [
            "0x8c5be1e5ebec7d5bd14f71427d1e84f3dd0314c0f7b2291e5b200ac8c7c3b925",
            "0x0000000000000000000000001b395389386f3f2a27866dad8f7ddbb31c392e66",
            "0x0000000000000000000000000bcfd37f0f065f921729d3d822e6ff3fa7bd637a"
          ],
          "data": "0x00000000000000000000000000000000000000000000000000000000005b8d80",
          "blockHash": "0xe76e9ff03aca1eef59d865916816e7d9170884503abd521af666a22c1c8f60e5",
          "blockNumber": "0x38cb46e",
          "transactionHash": "0xfb39486a29d9693ec954e9ef2ee929da5f7177fa6de1e231d4c7c3080c64856f",
          "transactionIndex": "0x4c",
          "logIndex": "0x12d",
          "removed": false
        },
        {
          "address": "0x0000000000000000000000000000000000001010",
          "topics": [
            "0x4dfe1bbbcf077ddc3e01291eea2d5c70c2b422b415d95645b9adcfd678cb1d63",
            "0x0000000000000000000000000000000000000000000000000000000000001010",
            "0x0000000000000000000000001b395389386f3f2a27866dad8f7ddbb31c392e66",
            "0x000000000000000000000000144aeae662aeb1f871ac217bb310d241c0f50590"
          ],
          "data": "0x00000000000000000000000000000000000000000000000000058347f76410000000000000000000000000000000000000000000000000007825aad352270c8a00000000000000000000000000000000000000000000001a2e72aa16ada4dec70000000000000000000000000000000000000000000000007820278b5ac2fc8a00000000000000000000000000000000000000000000001a2e782d5ea508eec7",
          "blockHash": "0xe76e9ff03aca1eef59d865916816e7d9170884503abd521af666a22c1c8f60e5",
          "blockNumber": "0x38cb46e",
          "transactionHash": "0xfb39486a29d9693ec954e9ef2ee929da5f7177fa6de1e231d4c7c3080c64856f",
          "transactionIndex": "0x4c",
          "logIndex": "0x12e",
          "removed": false
        }
      ],
      "logsBloom": "0x00000000000000000000000000000000000000000000020000100000000000000000000000000000000000000000000100008000000000000000000000200000000000000000000008080000000000800004000000000000000120000000000000000000000002000000000000000000000000000000000080000000000000000000000000088000000000000000000000000000000000000000000000000000220000000000000000000000000000000000000000000000000000000000004000000000000000000001000000000000400000000000000000100000000000000010000000000000000000000000000000000000000000000000040000100000",
      "type": "0x2",
      "transactionHash": "0xfb39486a29d9693ec954e9ef2ee929da5f7177fa6de1e231d4c7c3080c64856f",
      "transactionIndex": "0x4c",
      "blockHash": "0xe76e9ff03aca1eef59d865916816e7d9170884503abd521af666a22c1c8f60e5",
      "blockNumber": "0x38cb46e",
      "gasUsed": "0xca0c",
      "effectiveGasPrice": "0x6fc23ade2",
      "from": "0x1b395389386f3f2a27866dad8f7ddbb31c392e66",
      "to": "0xc2132d05d31c914a87c6611c10748aeb04b58e8f",
      "contractAddress": null
    },
    {
      "status": "0x1",
      "cumulativeGasUsed": "0xdbf629",
      "logs": [
        {
          "address": "0x10a7ee546c3108a4f97ba95ed685ee17078cc2fe",
          "topics": [
            "0xddf252ad1be2c89b69c2b068fc378daa952ba7f163c4a11628f55a4df523b3ef",
            "0x0000000000000000000000001b395389386f3f2a27866dad8f7ddbb31c392e66",
            "0x0000000000000000000000000bcfd37f0f065f921729d3d822e6ff3fa7bd637a"
          ],
          "data": "0x00000000000000000000000000000000000000000000000053444835ec580000",
          "blockHash": "0xe76e9ff03aca1eef59d865916816e7d9170884503abd521af666a22c1c8f60e5",
          "blockNumber": "0x38cb46e",
          "transactionHash": "0xd443716f7fda83990ff75d70b1e2fbd61f8fb0ff3563df10a69d49fd8ad44ec9",
          "transactionIndex": "0x4d",
          "logIndex": "0x12f",
          "removed": false
        },
        {
          "address": "0xc2132d05d31c914a87c6611c10748aeb04b58e8f",
          "topics": [
            "0xddf252ad1be2c89b69c2b068fc378daa952ba7f163c4a11628f55a4df523b3ef",
            "0x0000000000000000000000001b395389386f3f2a27866dad8f7ddbb31c392e66",
            "0x0000000000000000000000000bcfd37f0f065f921729d3d822e6ff3fa7bd637a"
          ],
          "data": "0x00000000000000000000000000000000000000000000000000000000005b8d80",
          "blockHash": "0xe76e9ff03aca1eef59d865916816e7d9170884503abd521af666a22c1c8f60e5",
          "blockNumber": "0x38cb46e",
          "transactionHash": "0xd443716f7fda83990ff75d70b1e2fbd61f8fb0ff3563df10a69d49fd8ad44ec9",
          "transactionIndex": "0x4d",
          "logIndex": "0x130",
          "removed": false
        },
        {
          "address": "0xc2132d05d31c914a87c6611c10748aeb04b58e8f",
          "topics": [
            "0x8c5be1e5ebec7d5bd14f71427d1e84f3dd0314c0f7b2291e5b200ac8c7c3b925",
            "0x0000000000000000000000001b395389386f3f2a27866dad8f7ddbb31c392e66",
            "0x0000000000000000000000000bcfd37f0f065f921729d3d822e6ff3fa7bd637a"
          ],
          "data": "0x0000000000000000000000000000000000000000000000000000000000000000",
          "blockHash": "0xe76e9ff03aca1eef59d865916816e7d9170884503abd521af666a22c1c8f60e5",
          "blockNumber": "0x38cb46e",
          "transactionHash": "0xd443716f7fda83990ff75d70b1e2fbd61f8fb0ff3563df10a69d49fd8ad44ec9",
          "transactionIndex": "0x4d",
          "logIndex": "0x131",
          "removed": false
        },
        {
          "address": "0x10a7ee546c3108a4f97ba95ed685ee17078cc2fe",
          "topics": [
            "0x8c5be1e5ebec7d5bd14f71427d1e84f3dd0314c0f7b2291e5b200ac8c7c3b925",
            "0x0000000000000000000000000bcfd37f0f065f921729d3d822e6ff3fa7bd637a",
            "0x000000000000000000000000a5e0829caced8ffdd4de3c43696c57f7d7a678ff"
          ],
          "data": "0x00000000000000000000000000000000000000000000000053444835ec580000",
          "blockHash": "0xe76e9ff03aca1eef59d865916816e7d9170884503abd521af666a22c1c8f60e5",
          "blockNumber": "0x38cb46e",
          "transactionHash": "0xd443716f7fda83990ff75d70b1e2fbd61f8fb0ff3563df10a69d49fd8ad44ec9",
          "transactionIndex": "0x4d",
          "logIndex": "0x132",
          "removed": false
        },
        {
          "address": "0xc2132d05d31c914a87c6611c10748aeb04b58e8f",
          "topics": [
            "0x8c5be1e5ebec7d5bd14f71427d1e84f3dd0314c0f7b2291e5b200ac8c7c3b925",
            "0x0000000000000000000000000bcfd37f0f065f921729d3d822e6ff3fa7bd637a",
            "0x000000000000000000000000a5e0829caced8ffdd4de3c43696c57f7d7a678ff"
          ],
          "data": "0x00000000000000000000000000000000000000000000000000000000005b8d80",
          "blockHash": "0xe76e9ff03aca1eef59d865916816e7d9170884503abd521af666a22c1c8f60e5",
          "blockNumber": "0x38cb46e",
          "transactionHash": "0xd443716f7fda83990ff75d70b1e2fbd61f8fb0ff3563df10a69d49fd8ad44ec9",
          "transactionIndex": "0x4d",
          "logIndex": "0x133",
          "removed": false
        },
        {
          "address": "0x5757371414417b8c6caad45baef941abc7d3ab32",
          "topics": [
            "0x0d3648bd0f6ba80134a33ba9275ac585d9d315f0ad8355cddefde31afa28d0e9",
            "0x00000000000000000000000010a7ee546c3108a4f97ba95ed685ee17078cc2fe",
            "0x000000000000000000000000c2132d05d31c914a87c6611c10748aeb04b58e8f"
          ],
          "data": "0x00000000000000000000000091d26f6890b01629f72547f8365e90aa8ba1eee4000000000000000000000000000000000000000000000000000000000000d3e7",
          "blockHash": "0xe76e9ff03aca1eef59d865916816e7d9170884503abd521af666a22c1c8f60e5",
          "blockNumber": "0x38cb46e",
          "transactionHash": "0xd443716f7fda83990ff75d70b1e2fbd61f8fb0ff3563df10a69d49fd8ad44ec9",
          "transactionIndex": "0x4d",
          "logIndex": "0x134",
          "removed": false
        },
        {
          "address": "0x10a7ee546c3108a4f97ba95ed685ee17078cc2fe",
          "topics": [
            "0xddf252ad1be2c89b69c2b068fc378daa952ba7f163c4a11628f55a4df523b3ef",
            "0x0000000000000000000000000bcfd37f0f065f921729d3d822e6ff3fa7bd637a",
            "0x00000000000000000000000091d26f6890b01629f72547f8365e90aa8ba1eee4"
          ],
          "data": "0x00000000000000000000000000000000000000000000000053444835ec580000",
          "blockHash": "0xe76e9ff03aca1eef59d865916816e7d9170884503abd521af666a22c1c8f60e5",
          "blockNumber": "0x38cb46e",
          "transactionHash": "0xd443716f7fda83990ff75d70b1e2fbd61f8fb0ff3563df10a69d49fd8ad44ec9",
          "transactionIndex": "0x4d",
          "logIndex": "0x135",
          "removed": false
        },
        {
          "address": "0xc2132d05d31c914a87c6611c10748aeb04b58e8f",
          "topics": [
            "0xddf252ad1be2c89b69c2b068fc378daa952ba7f163c4a11628f55a4df523b3ef",
            "0x0000000000000000000000000bcfd37f0f065f921729d3d822e6ff3fa7bd637a",
            "0x00000000000000000000000091d26f6890b01629f72547f8365e90aa8ba1eee4"
          ],
          "data": "0x00000000000000000000000000000000000000000000000000000000005b8d80",
          "blockHash": "0xe76e9ff03aca1eef59d865916816e7d9170884503abd521af666a22c1c8f60e5",
          "blockNumber": "0x38cb46e",
          "transactionHash": "0xd443716f7fda83990ff75d70b1e2fbd61f8fb0ff3563df10a69d49fd8ad44ec9",
          "transactionIndex": "0x4d",
          "logIndex": "0x136",
          "removed": false
        },
        {
          "address": "0xc2132d05d31c914a87c6611c10748aeb04b58e8f",
          "topics": [
            "0x8c5be1e5ebec7d5bd14f71427d1e84f3dd0314c0f7b2291e5b200ac8c7c3b925",
            "0x0000000000000000000000000bcfd37f0f065f921729d3d822e6ff3fa7bd637a",
            "0x000000000000000000000000a5e0829caced8ffdd4de3c43696c57f7d7a678ff"
          ],
          "data": "0x0000000000000000000000000000000000000000000000000000000000000000",
          "blockHash": "0xe76e9ff03aca1eef59d865916816e7d9170884503abd521af666a22c1c8f60e5",
          "blockNumber": "0x38cb46e",
          "transactionHash": "0xd443716f7fda83990ff75d70b1e2fbd61f8fb0ff3563df10a69d49fd8ad44ec9",
          "transactionIndex": "0x4d",
          "logIndex": "0x137",
          "removed": false
        },
        {
          "address": "0x91d26f6890b01629f72547f8365e90aa8ba1eee4",
          "topics": [
            "0xddf252ad1be2c89b69c2b068fc378daa952ba7f163c4a11628f55a4df523b3ef",
            "0x0000000000000000000000000000000000000000000000000000000000000000",
            "0x0000000000000000000000000000000000000000000000000000000000000000"
          ],
          "data": "0x00000000000000000000000000000000000000000000000000000000000003e8",
          "blockHash": "0xe76e9ff03aca1eef59d865916816e7d9170884503abd521af666a22c1c8f60e5",
          "blockNumber": "0x38cb46e",
          "transactionHash": "0xd443716f7fda83990ff75d70b1e2fbd61f8fb0ff3563df10a69d49fd8ad44ec9",
          "transactionIndex": "0x4d",
          "logIndex": "0x138",
          "removed": false
        },
        {
          "address": "0x91d26f6890b01629f72547f8365e90aa8ba1eee4",
          "topics": [
            "0xddf252ad1be2c89b69c2b068fc378daa952ba7f163c4a11628f55a4df523b3ef",
            "0x0000000000000000000000000000000000000000000000000000000000000000",
            "0x0000000000000000000000000bcfd37f0f065f921729d3d822e6ff3fa7bd637a"
          ],
          "data": "0x00000000000000000000000000000000000000000000000000000574fbde5c18",
          "blockHash": "0xe76e9ff03aca1eef59d865916816e7d9170884503abd521af666a22c1c8f60e5",
          "blockNumber": "0x38cb46e",
          "transactionHash": "0xd443716f7fda83990ff75d70b1e2fbd61f8fb0ff3563df10a69d49fd8ad44ec9",
          "transactionIndex": "0x4d",
          "logIndex": "0x139",
          "removed": false
        },
        {
          "address": "0x91d26f6890b01629f72547f8365e90aa8ba1eee4",
          "topics": [
            "0x1c411e9a96e071241c2f21f7726b17ae89e3cab4c78be50e062b03a9fffbbad1"
          ],
          "data": "0x00000000000000000000000000000000000000000000000053444835ec58000000000000000000000000000000000000000000000000000000000000005b8d80",
          "blockHash": "0xe76e9ff03aca1eef59d865916816e7d9170884503abd521af666a22c1c8f60e5",
          "blockNumber": "0x38cb46e",
          "transactionHash": "0xd443716f7fda83990ff75d70b1e2fbd61f8fb0ff3563df10a69d49fd8ad44ec9",
          "transactionIndex": "0x4d",
          "logIndex": "0x13a",
          "removed": false
        },
        {
          "address": "0x91d26f6890b01629f72547f8365e90aa8ba1eee4",
          "topics": [
            "0x4c209b5fc8ad50758f13e2e1088ba56a560dff690a1c6fef26394f4c03821c4f",
            "0x000000000000000000000000a5e0829caced8ffdd4de3c43696c57f7d7a678ff"
          ],
          "data": "0x00000000000000000000000000000000000000000000000053444835ec58000000000000000000000000000000000000000000000000000000000000005b8d80",
          "blockHash": "0xe76e9ff03aca1eef59d865916816e7d9170884503abd521af666a22c1c8f60e5",
          "blockNumber": "0x38cb46e",
          "transactionHash": "0xd443716f7fda83990ff75d70b1e2fbd61f8fb0ff3563df10a69d49fd8ad44ec9",
          "transactionIndex": "0x4d",
          "logIndex": "0x13b",
          "removed": false
        },
        {
          "address": "0x0000000000000000000000000000000000001010",
          "topics": [
            "0x4dfe1bbbcf077ddc3e01291eea2d5c70c2b422b415d95645b9adcfd678cb1d63",
            "0x0000000000000000000000000000000000000000000000000000000000001010",
            "0x0000000000000000000000001b395389386f3f2a27866dad8f7ddbb31c392e66",
            "0x000000000000000000000000144aeae662aeb1f871ac217bb310d241c0f50590"
          ],
          "data": "0x000000000000000000000000000000000000000000000000012685e497dfd8000000000000000000000000000000000000000000000000007820278b594691f200000000000000000000000000000000000000000000001a2e782d5ea508eec700000000000000000000000000000000000000000000000076f9a1a6c166b9f200000000000000000000000000000000000000000000001a2f9eb3433ce8c6c7",
          "blockHash": "0xe76e9ff03aca1eef59d865916816e7d9170884503abd521af666a22c1c8f60e5",
          "blockNumber": "0x38cb46e",
          "transactionHash": "0xd443716f7fda83990ff75d70b1e2fbd61f8fb0ff3563df10a69d49fd8ad44ec9",
          "transactionIndex": "0x4d",
          "logIndex": "0x13c",
          "removed": false
        }
      ],
      "logsBloom": "0x00000000000000000000000080000004080000000000060000100000000001000000000000000000000000000000000100008800000000000000000002200000000000400000000008080008000000800004000000000000000120000000000010000000020082000000000000800840000000000008000080000010010000800000010000088000000000000000000000020000000000080000000000000000220000000800000000000000000000000000000000000008000000000080004000000002000000000001000008020040400000000000001000100000000020000010000100000000080000400000000000000000000000000000040000100000",
      "type": "0x2",
      "transactionHash": "0xd443716f7fda83990ff75d70b1e2fbd61f8fb0ff3563df10a69d49fd8ad44ec9",
      "transactionIndex": "0x4d",
      "blockHash": "0xe76e9ff03aca1eef59d865916816e7d9170884503abd521af666a22c1c8f60e5",
      "blockNumber": "0x38cb46e",
      "gasUsed": "0x2a2a62",
      "effectiveGasPrice": "0x6fc23ade2",
      "from": "0x1b395389386f3f2a27866dad8f7ddbb31c392e66",
      "to": "0x0bcfd37f0f065f921729d3d822e6ff3fa7bd637a",
      "contractAddress": null
    },
    {
      "status": "0x1",
      "cumulativeGasUsed": "0xdc5760",
      "logs": [
        {
          "address": "0x10a7ee546c3108a4f97ba95ed685ee17078cc2fe",
          "topics": [
            "0xd083a8aaec22fd5c06dfb61243244a5c296eb8770219c1880d12290f07691590"
          ],
          "data": "0x0000000000000000000000000000000000000000000000000000000000000000",
          "blockHash": "0xe76e9ff03aca1eef59d865916816e7d9170884503abd521af666a22c1c8f60e5",
          "blockNumber": "0x38cb46e",
          "transactionHash": "0xdb40db4ea9f00217d2ebdb0ecf06533ea5baccc642b39ac15bba24037245fc45",
          "transactionIndex": "0x4e",
          "logIndex": "0x13d",
          "removed": false
        },
        {
          "address": "0x0000000000000000000000000000000000001010",
          "topics": [
            "0x4dfe1bbbcf077ddc3e01291eea2d5c70c2b422b415d95645b9adcfd678cb1d63",
            "0x0000000000000000000000000000000000000000000000000000000000001010",
            "0x0000000000000000000000001b395389386f3f2a27866dad8f7ddbb31c392e66",
            "0x000000000000000000000000144aeae662aeb1f871ac217bb310d241c0f50590"
          ],
          "data": "0x0000000000000000000000000000000000000000000000000002a709afd5f40000000000000000000000000000000000000000000000000076f9a1a67202ed6e00000000000000000000000000000000000000000000001a2f9eb3433ce8c6c700000000000000000000000000000000000000000000000076f6fa9cc22cf96e00000000000000000000000000000000000000000000001a2fa15a4cecbebac7",
          "blockHash": "0xe76e9ff03aca1eef59d865916816e7d9170884503abd521af666a22c1c8f60e5",
          "blockNumber": "0x38cb46e",
          "transactionHash": "0xdb40db4ea9f00217d2ebdb0ecf06533ea5baccc642b39ac15bba24037245fc45",
          "transactionIndex": "0x4e",
          "logIndex": "0x13e",
          "removed": false
        }
      ],
      "logsBloom": "0x00000000000000000000000000000000000000000000020000000000000000000000000000000000000000000000000000008000000000000000000002000000000000000000000008080000000000800004000000000000000100000000000000000000000002000000000000800000000000000000000080000000000000008000000000008000000000000000000000000000000000000000000000080000200000000000000000000000000000000000000000000000000000000000004000000000000000000001000000000000000000000000000000100000002000000000000000000000000000400000000000000000000000000000000000100000",
      "type": "0x2",
      "transactionHash": "0xdb40db4ea9f00217d2ebdb0ecf06533ea5baccc642b39ac15bba24037245fc45",
      "transactionIndex": "0x4e",
      "blockHash": "0xe76e9ff03aca1eef59d865916816e7d9170884503abd521af666a22c1c8f60e5",
      "blockNumber": "0x38cb46e",
      "gasUsed": "0x6137",
      "effectiveGasPrice": "0x6fc23ade2",
      "from": "0x1b395389386f3f2a27866dad8f7ddbb31c392e66",
      "to": "0x10a7ee546c3108a4f97ba95ed685ee17078cc2fe",
      "contractAddress": null
    },
    {
      "status": "0x1",
      "cumulativeGasUsed": "0xdd0dd2",
      "logs": [
        {
          "address": "0x10a7ee546c3108a4f97ba95ed685ee17078cc2fe",
          "topics": [
            "0x8c5be1e5ebec7d5bd14f71427d1e84f3dd0314c0f7b2291e5b200ac8c7c3b925",
            "0x0000000000000000000000001b395389386f3f2a27866dad8f7ddbb31c392e66",
            "0x0000000000000000000000000bcfd37f0f065f921729d3d822e6ff3fa7bd637a"
          ],
          "data": "0xffffffffffffffffffffffffffffffffffffffffffffffffffffffffffffffff",
          "blockHash": "0xe76e9ff03aca1eef59d865916816e7d9170884503abd521af666a22c1c8f60e5",
          "blockNumber": "0x38cb46e",
          "transactionHash": "0xdeeb84ea4602d1737ebf6b5e36f60820c0ce21237ac30bc0e0f960f4a569a00a",
          "transactionIndex": "0x4f",
          "logIndex": "0x13f",
          "removed": false
        },
        {
          "address": "0x0000000000000000000000000000000000001010",
          "topics": [
            "0x4dfe1bbbcf077ddc3e01291eea2d5c70c2b422b415d95645b9adcfd678cb1d63",
            "0x0000000000000000000000000000000000000000000000000000000000001010",
            "0x0000000000000000000000001b395389386f3f2a27866dad8f7ddbb31c392e66",
            "0x000000000000000000000000144aeae662aeb1f871ac217bb310d241c0f50590"
          ],
          "data": "0x0000000000000000000000000000000000000000000000000004fa5da42a980000000000000000000000000000000000000000000000000076f6fa9cc175efe000000000000000000000000000000000000000000000001a2fa15a4cecbebac700000000000000000000000000000000000000000000000076f2003f1d4b57e000000000000000000000000000000000000000000000001a2fa654aa90e952c7",
          "blockHash": "0xe76e9ff03aca1eef59d865916816e7d9170884503abd521af666a22c1c8f60e5",
          "blockNumber": "0x38cb46e",
          "transactionHash": "0xdeeb84ea4602d1737ebf6b5e36f60820c0ce21237ac30bc0e0f960f4a569a00a",
          "transactionIndex": "0x4f",
          "logIndex": "0x140",
          "removed": false
        }
      ],
      "logsBloom": "0x00000000000000000000000000000000000000000000020000100000000000000000000000000000000000000000000000008000000000000000000002200000000000000000000008080000000000800004000000000000000120000000000000000000000002000000000000800000000000000000000080000000000000000000000000008000000000000000000000000000000000000000000000000000220000000000000000000000000000000000000000000000000000000000004000000000000000000001000000000000000000000000000000100000000000000010000000000000000000400000000000000000000000000000040000100000",
      "type": "0x2",
      "transactionHash": "0xdeeb84ea4602d1737ebf6b5e36f60820c0ce21237ac30bc0e0f960f4a569a00a",
      "transactionIndex": "0x4f",
      "blockHash": "0xe76e9ff03aca1eef59d865916816e7d9170884503abd521af666a22c1c8f60e5",
      "blockNumber": "0x38cb46e",
      "gasUsed": "0xb672",
      "effectiveGasPrice": "0x6fc23ade2",
      "from": "0x1b395389386f3f2a27866dad8f7ddbb31c392e66",
      "to": "0x10a7ee546c3108a4f97ba95ed685ee17078cc2fe",
      "contractAddress": null
    },
    {
      "status": "0x1",
      "cumulativeGasUsed": "0xddd93a",
      "logs": [
        {
          "address": "0xc2132d05d31c914a87c6611c10748aeb04b58e8f",
          "topics": [
            "0x8c5be1e5ebec7d5bd14f71427d1e84f3dd0314c0f7b2291e5b200ac8c7c3b925",
            "0x0000000000000000000000001b395389386f3f2a27866dad8f7ddbb31c392e66",
            "0x0000000000000000000000000bcfd37f0f065f921729d3d822e6ff3fa7bd637a"
          ],
          "data": "0xffffffffffffffffffffffffffffffffffffffffffffffffffffffffffffffff",
          "blockHash": "0xe76e9ff03aca1eef59d865916816e7d9170884503abd521af666a22c1c8f60e5",
          "blockNumber": "0x38cb46e",
          "transactionHash": "0x62f10ce985f5ac28df62ae3e4efade034c6eff7d0e0b8a0fcc527b3cfcbc741a",
          "transactionIndex": "0x50",
          "logIndex": "0x141",
          "removed": false
        },
        {
          "address": "0x0000000000000000000000000000000000001010",
          "topics": [
            "0x4dfe1bbbcf077ddc3e01291eea2d5c70c2b422b415d95645b9adcfd678cb1d63",
            "0x0000000000000000000000000000000000000000000000000000000000001010",
            "0x0000000000000000000000001b395389386f3f2a27866dad8f7ddbb31c392e66",
            "0x000000000000000000000000144aeae662aeb1f871ac217bb310d241c0f50590"
          ],
          "data": "0x00000000000000000000000000000000000000000000000000058cc6b7e1e00000000000000000000000000000000000000000000000000076f2003f1bf3d53c00000000000000000000000000000000000000000000001a2fa654aa90e952c700000000000000000000000000000000000000000000000076ec73786411f53c00000000000000000000000000000000000000000000001a2fabe17148cb32c7",
          "blockHash": "0xe76e9ff03aca1eef59d865916816e7d9170884503abd521af666a22c1c8f60e5",
          "blockNumber": "0x38cb46e",
          "transactionHash": "0x62f10ce985f5ac28df62ae3e4efade034c6eff7d0e0b8a0fcc527b3cfcbc741a",
          "transactionIndex": "0x50",
          "logIndex": "0x142",
          "removed": false
        }
      ],
      "logsBloom": "0x00000000000000000000000000000000000000000000020000100000000000000000000000000000000000000000000100008000000000000000000000200000000000000000000008080000000000800004000000000000000120000000000000000000000002000000000000000000000000000000000080000000000000000000000000088000000000000000000000000000000000000000000000000000220000000000000000000000000000000000000000000000000000000000004000000000000000000001000000000000400000000000000000100000000000000010000000000000000000000000000000000000000000000000040000100000",
      "type": "0x2",
      "transactionHash": "0x62f10ce985f5ac28df62ae3e4efade034c6eff7d0e0b8a0fcc527b3cfcbc741a",
      "transactionIndex": "0x50",
      "blockHash": "0xe76e9ff03aca1eef59d865916816e7d9170884503abd521af666a22c1c8f60e5",
      "blockNumber": "0x38cb46e",
      "gasUsed": "0xcb68",
      "effectiveGasPrice": "0x6fc23ade2",
      "from": "0x1b395389386f3f2a27866dad8f7ddbb31c392e66",
      "to": "0xc2132d05d31c914a87c6611c10748aeb04b58e8f",
      "contractAddress": null
    },
    {
      "status": "0x1",
      "cumulativeGasUsed": "0x9c6cc6",
      "logs": [
        {
          "address": "0x0000000000000000000000000000000000001010",
          "topics": [
            "0x4dfe1bbbcf077ddc3e01291eea2d5c70c2b422b415d95645b9adcfd678cb1d63",
            "0x0000000000000000000000000000000000000000000000000000000000001010",
            "0x0000000000000000000000001b395389386f3f2a27866dad8f7ddbb31c392e66",
            "0x000000000000000000000000144aeae662aeb1f871ac217bb310d241c0f50590"
          ],
          "data": "0x0000000000000000000000000000000000000000000000000005e36ed26fc00000000000000000000000000000000000000000000000000076d7b0541c9eb2d600000000000000000000000000000000000000000000001a36c8cee66040803d00000000000000000000000000000000000000000000000076d1cce54a2ef2d600000000000000000000000000000000000000000000001a36ceb25532b0403d",
          "blockHash": "0x6a0ee5dfc256fecc249063bd3a219194a8455579e9d6773f36994691ca04d73c",
          "blockNumber": "0x38cb46f",
          "transactionHash": "0x82b5c659d618f29bfa92addbdb2f937e9a12e57afc59f492c309a916543c407e",
          "transactionIndex": "0x3e",
          "logIndex": "0x147",
          "removed": false
        }
      ],
      "logsBloom": "0x00000000000000000000000000000000000000000000020000000000000000000000000000000000000000000000000000008000000000000000000000000000000000000000000008080000000000800004000000000000000100000000000000000000000002000000000000000000000000000000000080000000000000000000000000008000000000000000000000000000000000000000000000000000200000000000000000000000000000000000000000000000000000000000004000000000000000000001000000000000000000000000000000100000000000000000000000000000000000000000000000000000000000000000000000100000",
      "type": "0x2",
      "transactionHash": "0x82b5c659d618f29bfa92addbdb2f937e9a12e57afc59f492c309a916543c407e",
      "transactionIndex": "0x3e",
      "blockHash": "0x6a0ee5dfc256fecc249063bd3a219194a8455579e9d6773f36994691ca04d73c",
      "blockNumber": "0x38cb46f",
      "gasUsed": "0xd7d0",
      "effectiveGasPrice": "0x6fc23ade3",
      "from": "0x1b395389386f3f2a27866dad8f7ddbb31c392e66",
      "to": "0x0bcfd37f0f065f921729d3d822e6ff3fa7bd637a",
      "contractAddress": null
    },
    {
      "status": "0x1",
      "cumulativeGasUsed": "0x9d23e9",
      "logs": [
        {
          "address": "0x10a7ee546c3108a4f97ba95ed685ee17078cc2fe",
          "topics": [
            "0xd083a8aaec22fd5c06dfb61243244a5c296eb8770219c1880d12290f07691590"
          ],
          "data": "0x000000000000000000000000000000000000000000000000534e1d80012675ed",
          "blockHash": "0x6a0ee5dfc256fecc249063bd3a219194a8455579e9d6773f36994691ca04d73c",
          "blockNumber": "0x38cb46f",
          "transactionHash": "0xf53930274009cf00ecc7af580b8fdf7686a38d08ef7321070876401cc12be62d",
          "transactionIndex": "0x3f",
          "logIndex": "0x148",
          "removed": false
        },
        {
          "address": "0x0000000000000000000000000000000000001010",
          "topics": [
            "0x4dfe1bbbcf077ddc3e01291eea2d5c70c2b422b415d95645b9adcfd678cb1d63",
            "0x0000000000000000000000000000000000000000000000000000000000001010",
            "0x0000000000000000000000001b395389386f3f2a27866dad8f7ddbb31c392e66",
            "0x000000000000000000000000144aeae662aeb1f871ac217bb310d241c0f50590"
          ],
          "data": "0x0000000000000000000000000000000000000000000000000004ff31f8d4840000000000000000000000000000000000000000000000000076d1cce54897c56600000000000000000000000000000000000000000000001a36ceb25532b0403d00000000000000000000000000000000000000000000000076cccdb34fc3416600000000000000000000000000000000000000000000001a36d3b1872b84c43d",
          "blockHash": "0x6a0ee5dfc256fecc249063bd3a219194a8455579e9d6773f36994691ca04d73c",
          "blockNumber": "0x38cb46f",
          "transactionHash": "0xf53930274009cf00ecc7af580b8fdf7686a38d08ef7321070876401cc12be62d",
          "transactionIndex": "0x3f",
          "logIndex": "0x149",
          "removed": false
        }
      ],
      "logsBloom": "0x00000000000000000000000000000000000000000000020000000000000000000000000000000000000000000000000000008000000000000000000002000000000000000000000008080000000000800004000000000000000100000000000000000000000002000000000000800000000000000000000080000000000000008000000000008000000000000000000000000000000000000000000000080000200000000000000000000000000000000000000000000000000000000000004000000000000000000001000000000000000000000000000000100000002000000000000000000000000000400000000000000000000000000000000000100000",
      "type": "0x2",
      "transactionHash": "0xf53930274009cf00ecc7af580b8fdf7686a38d08ef7321070876401cc12be62d",
      "transactionIndex": "0x3f",
      "blockHash": "0x6a0ee5dfc256fecc249063bd3a219194a8455579e9d6773f36994691ca04d73c",
      "blockNumber": "0x38cb46f",
      "gasUsed": "0xb723",
      "effectiveGasPrice": "0x6fc23ade3",
      "from": "0x1b395389386f3f2a27866dad8f7ddbb31c392e66",
      "to": "0x10a7ee546c3108a4f97ba95ed685ee17078cc2fe",
      "contractAddress": null
    }
  ],
  "libraries": [],
  "pending": [],
  "returns": {
    "0": {
      "internal_type": "contract BitcoinPool",
      "value": "0x0bcFD37f0f065F921729D3d822E6fF3fA7bD637A"
    }
  },
  "timestamp": 1721397710,
  "chain": 137,
  "commit": "e25b34d"
}