{
  "transactions": [
    {
      "hash": "0xf8296691d044da98fc91b1858f0496a4e19c736e23471c119ef2803f08bc2a8b",
      "transactionType": "CREATE",
      "contractName": "BitcoinPool",
      "contractAddress": "0x83de4c97d1551b55e309dd54c9435849c9ecec36",
      "function": null,
      "arguments": [
        "0x5757371414417b8C6CAad45bAeF941aBc7d3Ab32",
        "0xa5E0829CaCEd8fFDD4De3c43696c57F7D7A678ff"
      ],
      "transaction": {
        "from": "0x1b395389386f3f2a27866dad8f7ddbb31c392e66",
        "gas": "0x1b5e3b",
        "value": "0x0",
        "input": "0x60c06040523480156200001157600080fd5b5060405162001920380380620019208339810160408190526200003491620000ec565b33806200005b57604051631e4fbdf760e01b81526000600482015260240160405180910390fd5b62000066816200007f565b506001600160a01b039182166080521660a05262000124565b600080546001600160a01b038381166001600160a01b0319831681178455604051919092169283917f8be0079c531659141344cd1fd0a4f28419497f9722a3daafe3b4186f6b6457e09190a35050565b80516001600160a01b0381168114620000e757600080fd5b919050565b600080604083850312156200010057600080fd5b6200010b83620000cf565b91506200011b60208401620000cf565b90509250929050565b60805160a051611789620001976000396000818161021b0152818161032601528181610743015281816108eb01528181610bf501528181610d0a01528181610f3901528181610fcd015261109d0152600081816104c401528181610b0301528181610db5015261114c01526117896000f3fe608060405234801561001057600080fd5b506004361061009e5760003560e01c80639cf38f7c116100665780639cf38f7c14610110578063c9c6539614610138578063cf6c62ea1461014b578063e6a439051461015e578063f2fde38b1461017157600080fd5b80630c0a7630146100a3578063690f93ff146100b8578063715018a6146100cb578063857abbd4146100d35780638da5cb5b146100e6575b600080fd5b6100b66100b1366004611290565b610184565b005b6100b66100c63660046112d1565b6103b4565b6100b66109cd565b6100b66100e136600461130a565b6109e1565b6000546001600160a01b03165b6040516001600160a01b0390911681526020015b60405180910390f35b61012361011e3660046112d1565b610ace565b60408051928352602083019190915201610107565b6100b66101463660046112d1565b610d86565b61012361015936600461132e565b610e27565b6100f361016c3660046112d1565b61111b565b6100b661017f36600461130a565b6111c0565b61018c6111fe565b6040516323b872dd60e01b8152336004820152306024820152604481018290526001600160a01b038416906323b872dd906064016020604051808303816000875af11580156101df573d6000803e3d6000fd5b505050506040513d601f19601f820116820180604052508101906102039190611374565b5060405163095ea7b360e01b81526001600160a01b037f0000000000000000000000000000000000000000000000000000000000000000811660048301526024820183905284169063095ea7b3906044016020604051808303816000875af1158015610273573d6000803e3d6000fd5b505050506040513d601f19601f820116820180604052508101906102979190611374565b5060408051600280825260608201835260009260208301908036833701905050905083816000815181106102cd576102cd6113ac565b60200260200101906001600160a01b031690816001600160a01b0316815250508281600181518110610301576103016113ac565b6001600160a01b0392831660209182029290920101526040516338ed173960e01b81527f0000000000000000000000000000000000000000000000000000000000000000909116906338ed173990610366908590600090869030904290600401611406565b6000604051808303816000875af1158015610385573d6000803e3d6000fd5b505050506040513d6000823e601f3d908101601f191682016040526103ad9190810190611442565b5050505050565b6103bc6111fe565b6000600a90506000836001600160a01b031663313ce5676040518163ffffffff1660e01b8152600401602060405180830381865afa158015610402573d6000803e3d6000fd5b505050506040513d601f19601f820116820180604052508101906104269190611500565b90506000836001600160a01b031663313ce5676040518163ffffffff1660e01b8152600401602060405180830381865afa158015610468573d6000803e3d6000fd5b505050506040513d601f19601f8201168201806040525081019061048c9190611500565b905060005b600a8110156109c55760405163e6a4390560e01b81526001600160a01b03878116600483015286811660248301526000917f00000000000000000000000000000000000000000000000000000000000000009091169063e6a4390590604401602060405180830381865afa15801561050d573d6000803e3d6000fd5b505050506040513d601f19601f820116820180604052508101906105319190611523565b6040516370a0823160e01b81526001600160a01b0380831660048301529192506000918916906370a0823190602401602060405180830381865afa15801561057d573d6000803e3d6000fd5b505050506040513d601f19601f820116820180604052508101906105a19190611540565b6040516370a0823160e01b81526001600160a01b0384811660048301529192506000918916906370a0823190602401602060405180830381865afa1580156105ed573d6000803e3d6000fd5b505050506040513d601f19601f820116820180604052508101906106119190611540565b9050600061062087601261156f565b61062b90600a61166c565b610635908461167b565b9050600061064487601261156f565b61064f90600a61166c565b610659908461167b565b90508082111561080357600060026106718385611692565b61067b91906116a5565b905061068888601261156f565b61069390600a61166c565b61069d90826116a5565b9050898110156106b2575050505050506109c5565b6040805160028082526060820183526000926020830190803683370190505090508b816000815181106106e7576106e76113ac565b60200260200101906001600160a01b031690816001600160a01b0316815250508c8160018151811061071b5761071b6113ac565b6001600160a01b03928316602091820292909201015260405163d06ca61f60e01b81526000917f0000000000000000000000000000000000000000000000000000000000000000169063d06ca61f9061077a90869086906004016116c7565b600060405180830381865afa158015610797573d6000803e3d6000fd5b505050506040513d6000823e601f3d908101601f191682016040526107bf9190810190611442565b90508b816001815181106107d5576107d56113ac565b602002602001015110156107f05750505050505050506109c5565b6107fb8d8f85610184565b5050506109ad565b818111156109a357600060026108198484611692565b61082391906116a5565b905061083089601261156f565b61083b90600a61166c565b61084590826116a5565b90508981101561085a575050505050506109c5565b6040805160028082526060820183526000926020830190803683370190505090508c8160008151811061088f5761088f6113ac565b60200260200101906001600160a01b031690816001600160a01b0316815250508b816001815181106108c3576108c36113ac565b6001600160a01b03928316602091820292909201015260405163d06ca61f60e01b81526000917f0000000000000000000000000000000000000000000000000000000000000000169063d06ca61f9061092290869086906004016116c7565b600060405180830381865afa15801561093f573d6000803e3d6000fd5b505050506040513d6000823e601f3d908101601f191682016040526109679190810190611442565b90508b8160018151811061097d5761097d6113ac565b602002602001015110156109985750505050505050506109c5565b6107fb8e8e85610184565b50505050506109c5565b505050505080806109bd906116e8565b915050610491565b505050505050565b6109d56111fe565b6109df600061122b565b565b6109e96111fe565b6040516370a0823160e01b81523060048201526001600160a01b0382169063a9059cbb90339083906370a0823190602401602060405180830381865afa158015610a37573d6000803e3d6000fd5b505050506040513d601f19601f82011682018060405250810190610a5b9190611540565b6040516001600160e01b031960e085901b1681526001600160a01b03909216600483015260248201526044016020604051808303816000875af1158015610aa6573d6000803e3d6000fd5b505050506040513d601f19601f82011682018060405250810190610aca9190611374565b5050565b600080610ad96111fe565b60405163e6a4390560e01b81526001600160a01b03858116600483015284811660248301526000917f00000000000000000000000000000000000000000000000000000000000000009091169063e6a4390590604401602060405180830381865afa158015610b4c573d6000803e3d6000fd5b505050506040513d601f19601f82011682018060405250810190610b709190611523565b6040516370a0823160e01b81523060048201529091506000906001600160a01b038316906370a0823190602401602060405180830381865afa158015610bba573d6000803e3d6000fd5b505050506040513d601f19601f82011682018060405250810190610bde9190611540565b60405163095ea7b360e01b81526001600160a01b037f0000000000000000000000000000000000000000000000000000000000000000811660048301526024820183905291925060009184169063095ea7b3906044016020604051808303816000875af1158015610c53573d6000803e3d6000fd5b505050506040513d601f19601f82011682018060405250810190610c779190611374565b905080610cbd5760405162461bcd60e51b815260206004820152600f60248201526e105c1c1c9bdd985b0819985a5b1959608a1b60448201526064015b60405180910390fd5b604051635d5155ef60e11b81526001600160a01b03888116600483015287811660248301526044820184905260016064830181905260848301523060a48301524260c483015260009182917f0000000000000000000000000000000000000000000000000000000000000000169063baa2abde9060e40160408051808303816000875af1158015610d52573d6000803e3d6000fd5b505050506040513d601f19601f82011682018060405250810190610d769190611701565b909a909950975050505050505050565b610d8e6111fe565b6040516364e329cb60e11b81526001600160a01b03838116600483015282811660248301527f0000000000000000000000000000000000000000000000000000000000000000169063c9c65396906044016020604051808303816000875af1158015610dfe573d6000803e3d6000fd5b505050506040513d601f19601f82011682018060405250810190610e229190611523565b505050565b600080610e326111fe565b6040516323b872dd60e01b8152336004820152306024820152604481018590526001600160a01b038716906323b872dd906064016020604051808303816000875af1158015610e85573d6000803e3d6000fd5b505050506040513d601f19601f82011682018060405250810190610ea99190611374565b506040516323b872dd60e01b8152336004820152306024820152604481018490526001600160a01b038616906323b872dd906064016020604051808303816000875af1158015610efd573d6000803e3d6000fd5b505050506040513d601f19601f82011682018060405250810190610f219190611374565b5060405163095ea7b360e01b81526001600160a01b037f0000000000000000000000000000000000000000000000000000000000000000811660048301526024820186905287169063095ea7b3906044016020604051808303816000875af1158015610f91573d6000803e3d6000fd5b505050506040513d601f19601f82011682018060405250810190610fb59190611374565b5060405163095ea7b360e01b81526001600160a01b037f0000000000000000000000000000000000000000000000000000000000000000811660048301526024820185905286169063095ea7b3906044016020604051808303816000875af1158015611025573d6000803e3d6000fd5b505050506040513d601f19601f820116820180604052508101906110499190611374565b5060405162e8e33760e81b81526001600160a01b0387811660048301528681166024830152604482018690526064820185905260016084830181905260a48301523060c48301524260e483015260009182917f0000000000000000000000000000000000000000000000000000000000000000169063e8e3370090610104016060604051808303816000875af11580156110e7573d6000803e3d6000fd5b505050506040513d601f19601f8201168201806040525081019061110b9190611725565b5090999098509650505050505050565b60006111256111fe565b60405163e6a4390560e01b81526001600160a01b03848116600483015283811660248301527f0000000000000000000000000000000000000000000000000000000000000000169063e6a4390590604401602060405180830381865afa158015611193573d6000803e3d6000fd5b505050506040513d601f19601f820116820180604052508101906111b79190611523565b90505b92915050565b6111c86111fe565b6001600160a01b0381166111f257604051631e4fbdf760e01b815260006004820152602401610cb4565b6111fb8161122b565b50565b6000546001600160a01b031633146109df5760405163118cdaa760e01b8152336004820152602401610cb4565b600080546001600160a01b038381166001600160a01b0319831681178455604051919092169283917f8be0079c531659141344cd1fd0a4f28419497f9722a3daafe3b4186f6b6457e09190a35050565b6001600160a01b03811681146111fb57600080fd5b6000806000606084860312156112a557600080fd5b83356112b08161127b565b925060208401356112c08161127b565b929592945050506040919091013590565b600080604083850312156112e457600080fd5b82356112ef8161127b565b915060208301356112ff8161127b565b809150509250929050565b60006020828403121561131c57600080fd5b81356113278161127b565b9392505050565b6000806000806080858703121561134457600080fd5b843561134f8161127b565b9350602085013561135f8161127b565b93969395505050506040820135916060013590565b60006020828403121561138657600080fd5b8151801515811461132757600080fd5b634e487b7160e01b600052604160045260246000fd5b634e487b7160e01b600052603260045260246000fd5b600081518084526020808501945080840160005b838110156113fb5781516001600160a01b0316875295820195908201906001016113d6565b509495945050505050565b85815284602082015260a06040820152600061142560a08301866113c2565b6001600160a01b0394909416606083015250608001529392505050565b6000602080838503121561145557600080fd5b825167ffffffffffffffff8082111561146d57600080fd5b818501915085601f83011261148157600080fd5b81518181111561149357611493611396565b8060051b604051601f19603f830116810181811085821117156114b8576114b8611396565b6040529182528482019250838101850191888311156114d657600080fd5b938501935b828510156114f4578451845293850193928501926114db565b98975050505050505050565b60006020828403121561151257600080fd5b815160ff8116811461132757600080fd5b60006020828403121561153557600080fd5b81516113278161127b565b60006020828403121561155257600080fd5b5051919050565b634e487b7160e01b600052601160045260246000fd5b60ff82811682821603908111156111ba576111ba611559565b600181815b808511156115c35781600019048211156115a9576115a9611559565b808516156115b657918102915b93841c939080029061158d565b509250929050565b6000826115da575060016111ba565b816115e7575060006111ba565b81600181146115fd576002811461160757611623565b60019150506111ba565b60ff84111561161857611618611559565b50506001821b6111ba565b5060208310610133831016604e8410600b8410161715611646575081810a6111ba565b6116508383611588565b806000190482111561166457611664611559565b029392505050565b60006111b760ff8416836115cb565b80820281158282048414176111ba576111ba611559565b818103818111156111ba576111ba611559565b6000826116c257634e487b7160e01b600052601260045260246000fd5b500490565b8281526040602082015260006116e060408301846113c2565b949350505050565b6000600182016116fa576116fa611559565b5060010190565b6000806040838503121561171457600080fd5b505080516020909101519092909150565b60008060006060848603121561173a57600080fd5b835192506020840151915060408401519050925092509256fea2646970667358221220e2f374e665995e6487f448469a7377cb47dbd9132f2efcc4baf22669f53e6c2764736f6c634300081400330000000000000000000000005757371414417b8c6caad45baef941abc7d3ab32000000000000000000000000a5e0829caced8ffdd4de3c43696c57f7d7a678ff",
        "nonce": "0x195",
        "chainId": "0x89"
      },
      "additionalContracts": [],
      "isFixedGasLimit": false
    },
    {
      "hash": "0x491daf08b3f44a03528a7a1b750ff951eba7c7b46e96cace0eafb588ea85e0db",
      "transactionType": "CALL",
      "contractName": null,
      "contractAddress": "0x10a7ee546c3108a4f97ba95ed685ee17078cc2fe",
      "function": "approve(address,uint256)",
      "arguments": [
        "0x83dE4c97D1551B55e309DD54C9435849c9eCeC36",
        "6000000000000000000"
      ],
      "transaction": {
        "from": "0x1b395389386f3f2a27866dad8f7ddbb31c392e66",
        "to": "0x10a7ee546c3108a4f97ba95ed685ee17078cc2fe",
        "gas": "0x1090a",
        "value": "0x0",
        "input": "0x095ea7b300000000000000000000000083de4c97d1551b55e309dd54c9435849c9ecec3600000000000000000000000000000000000000000000000053444835ec580000",
        "nonce": "0x196",
        "chainId": "0x89"
      },
      "additionalContracts": [],
      "isFixedGasLimit": false
    },
    {
      "hash": "0x7f1324dbdba3aac8ec04d40fd52855c0316557466f02fee5e670d5958580d219",
      "transactionType": "CALL",
      "contractName": null,
      "contractAddress": "0xc2132d05d31c914a87c6611c10748aeb04b58e8f",
      "function": "approve(address,uint256)",
      "arguments": [
        "0x83dE4c97D1551B55e309DD54C9435849c9eCeC36",
        "6000000"
      ],
      "transaction": {
        "from": "0x1b395389386f3f2a27866dad8f7ddbb31c392e66",
        "to": "0xc2132d05d31c914a87c6611c10748aeb04b58e8f",
        "gas": "0x11712",
        "value": "0x0",
        "input": "0x095ea7b300000000000000000000000083de4c97d1551b55e309dd54c9435849c9ecec3600000000000000000000000000000000000000000000000000000000005b8d80",
        "nonce": "0x197",
        "chainId": "0x89"
      },
      "additionalContracts": [],
      "isFixedGasLimit": false
    },
    {
      "hash": "0xa874817bb49125dcbf2aaeb6bd99321c10c73a60a3c2d0c8efe4a59ea76c7ea0",
      "transactionType": "CALL",
      "contractName": "BitcoinPool",
      "contractAddress": "0x83de4c97d1551b55e309dd54c9435849c9ecec36",
      "function": "addLiquidity(address,address,uint256,uint256)",
      "arguments": [
        "0x10A7Ee546C3108a4F97Ba95ed685eE17078Cc2fE",
        "0xc2132D05D31c914a87C6611C10748AEb04B58e8F",
        "6000000000000000000",
        "6000000"
      ],
      "transaction": {
        "from": "0x1b395389386f3f2a27866dad8f7ddbb31c392e66",
        "to": "0x83de4c97d1551b55e309dd54c9435849c9ecec36",
        "gas": "0x53310",
        "value": "0x0",
        "input": "0xcf6c62ea00000000000000000000000010a7ee546c3108a4f97ba95ed685ee17078cc2fe000000000000000000000000c2132d05d31c914a87c6611c10748aeb04b58e8f00000000000000000000000000000000000000000000000053444835ec58000000000000000000000000000000000000000000000000000000000000005b8d80",
        "nonce": "0x198",
        "chainId": "0x89"
      },
      "additionalContracts": [],
      "isFixedGasLimit": false
    },
    {
      "hash": "0x56c1c3ff3a9d48a241d13a54d62077a02d07549174e14f631743fea7b895ae92",
      "transactionType": "CALL",
      "contractName": null,
      "contractAddress": "0x10a7ee546c3108a4f97ba95ed685ee17078cc2fe",
      "function": "setMinWithdrawal(uint256)",
      "arguments": [
        "0"
      ],
      "transaction": {
        "from": "0x1b395389386f3f2a27866dad8f7ddbb31c392e66",
        "to": "0x10a7ee546c3108a4f97ba95ed685ee17078cc2fe",
        "gas": "0x9111",
        "value": "0x0",
        "input": "0xb070e4330000000000000000000000000000000000000000000000000000000000000000",
        "nonce": "0x199",
        "chainId": "0x89"
      },
      "additionalContracts": [],
      "isFixedGasLimit": false
    },
    {
      "hash": "0x1127a16edf0f871c33788d7f328ea732ba7ba77fc23efad4650b225c51bdb231",
      "transactionType": "CALL",
      "contractName": null,
      "contractAddress": "0x10a7ee546c3108a4f97ba95ed685ee17078cc2fe",
      "function": "approve(address,uint256)",
      "arguments": [
        "0x83dE4c97D1551B55e309DD54C9435849c9eCeC36",
        "115792089237316195423570985008687907853269984665640564039457584007913129639935"
      ],
      "transaction": {
        "from": "0x1b395389386f3f2a27866dad8f7ddbb31c392e66",
        "to": "0x10a7ee546c3108a4f97ba95ed685ee17078cc2fe",
        "gas": "0x10ad3",
        "value": "0x0",
        "input": "0x095ea7b300000000000000000000000083de4c97d1551b55e309dd54c9435849c9ecec36ffffffffffffffffffffffffffffffffffffffffffffffffffffffffffffffff",
        "nonce": "0x19a",
        "chainId": "0x89"
      },
      "additionalContracts": [],
      "isFixedGasLimit": false
    },
    {
      "hash": "0x8d2663871251779d33e94447212108659539c57a7c4d22662302094836997b6c",
      "transactionType": "CALL",
      "contractName": null,
      "contractAddress": "0xc2132d05d31c914a87c6611c10748aeb04b58e8f",
      "function": "approve(address,uint256)",
      "arguments": [
        "0x83dE4c97D1551B55e309DD54C9435849c9eCeC36",
        "115792089237316195423570985008687907853269984665640564039457584007913129639935"
      ],
      "transaction": {
        "from": "0x1b395389386f3f2a27866dad8f7ddbb31c392e66",
        "to": "0xc2132d05d31c914a87c6611c10748aeb04b58e8f",
        "gas": "0x118f3",
        "value": "0x0",
        "input": "0x095ea7b300000000000000000000000083de4c97d1551b55e309dd54c9435849c9ecec36ffffffffffffffffffffffffffffffffffffffffffffffffffffffffffffffff",
        "nonce": "0x19b",
        "chainId": "0x89"
      },
      "additionalContracts": [],
      "isFixedGasLimit": false
    },
    {
      "hash": "0x629041fec8be59d0162fd51aa8636806d0fa000db217a5c0267d66f801ce7944",
      "transactionType": "CALL",
      "contractName": "BitcoinPool",
      "contractAddress": "0x83de4c97d1551b55e309dd54c9435849c9ecec36",
      "function": "swapToken(address,address,uint256)",
      "arguments": [
        "0x10A7Ee546C3108a4F97Ba95ed685eE17078Cc2fE",
        "0xc2132D05D31c914a87C6611C10748AEb04B58e8F",
        "500000000000000000"
      ],
      "transaction": {
        "from": "0x1b395389386f3f2a27866dad8f7ddbb31c392e66",
        "to": "0x83de4c97d1551b55e309dd54c9435849c9ecec36",
        "gas": "0x2ff01",
        "value": "0x0",
        "input": "0x0c0a763000000000000000000000000010a7ee546c3108a4f97ba95ed685ee17078cc2fe000000000000000000000000c2132d05d31c914a87c6611c10748aeb04b58e8f00000000000000000000000000000000000000000000000006f05b59d3b20000",
        "nonce": "0x19c",
        "chainId": "0x89"
      },
      "additionalContracts": [],
      "isFixedGasLimit": false
    },
    {
      "hash": "0x922d0270fc2c12330b57a70f04c5e746d5d190e8a05ab764aca55d6f965b2416",
      "transactionType": "CALL",
      "contractName": "BitcoinPool",
      "contractAddress": "0x83de4c97d1551b55e309dd54c9435849c9ecec36",
      "function": "maintainPeg(address,address)",
      "arguments": [
        "0x10A7Ee546C3108a4F97Ba95ed685eE17078Cc2fE",
        "0xc2132D05D31c914a87C6611C10748AEb04B58e8F"
      ],
      "transaction": {
        "from": "0x1b395389386f3f2a27866dad8f7ddbb31c392e66",
        "to": "0x83de4c97d1551b55e309dd54c9435849c9ecec36",
        "gas": "0x4acaa",
        "value": "0x0",
        "input": "0x690f93ff00000000000000000000000010a7ee546c3108a4f97ba95ed685ee17078cc2fe000000000000000000000000c2132d05d31c914a87c6611c10748aeb04b58e8f",
        "nonce": "0x19d",
        "chainId": "0x89"
      },
      "additionalContracts": [],
      "isFixedGasLimit": false
    },
    {
      "hash": "0xe1d0293423185a87eb6403ab8e34da7c73b03c323393866a612063d5de7105d0",
      "transactionType": "CALL",
      "contractName": null,
      "contractAddress": "0x10a7ee546c3108a4f97ba95ed685ee17078cc2fe",
      "function": "setMinWithdrawal(uint256)",
      "arguments": [
        "5955539777958438058"
      ],
      "transaction": {
        "from": "0x1b395389386f3f2a27866dad8f7ddbb31c392e66",
        "to": "0x10a7ee546c3108a4f97ba95ed685ee17078cc2fe",
        "gas": "0x10bd5",
        "value": "0x0",
        "input": "0xb070e43300000000000000000000000000000000000000000000000052a653dfceebe4aa",
        "nonce": "0x19e",
        "chainId": "0x89"
      },
      "additionalContracts": [],
      "isFixedGasLimit": false
    }
  ],
  "receipts": [
    {
      "status": "0x1",
      "cumulativeGasUsed": "0x18b9e12",
      "logs": [
        {
          "address": "0x83de4c97d1551b55e309dd54c9435849c9ecec36",
          "topics": [
            "0x8be0079c531659141344cd1fd0a4f28419497f9722a3daafe3b4186f6b6457e0",
            "0x0000000000000000000000000000000000000000000000000000000000000000",
            "0x0000000000000000000000001b395389386f3f2a27866dad8f7ddbb31c392e66"
          ],
          "data": "0x",
          "blockHash": "0x6dc92227ffb1b9008274dd48272b3f046c5b1d3299c508b31435679298cdc82f",
          "blockNumber": "0x38cc3b5",
          "transactionHash": "0xf8296691d044da98fc91b1858f0496a4e19c736e23471c119ef2803f08bc2a8b",
          "transactionIndex": "0x22",
          "logIndex": "0x5d7",
          "removed": false
        },
        {
          "address": "0x0000000000000000000000000000000000001010",
          "topics": [
            "0x4dfe1bbbcf077ddc3e01291eea2d5c70c2b422b415d95645b9adcfd678cb1d63",
            "0x0000000000000000000000000000000000000000000000000000000000001010",
            "0x0000000000000000000000001b395389386f3f2a27866dad8f7ddbb31c392e66",
            "0x00000000000000000000000069f5c4d08f6bc8cd29fe5f004d46fb566270868d"
          ],
          "data": "0x000000000000000000000000000000000000000000000000009317ac36f0540000000000000000000000000000000000000000000000000073d4284415b771bf000000000000000000000000000000000000000000000050e23625522b52c3c800000000000000000000000000000000000000000000000073411097dec71dbf000000000000000000000000000000000000000000000050e2c93cfe624317c8",
          "blockHash": "0x6dc92227ffb1b9008274dd48272b3f046c5b1d3299c508b31435679298cdc82f",
          "blockNumber": "0x38cc3b5",
          "transactionHash": "0xf8296691d044da98fc91b1858f0496a4e19c736e23471c119ef2803f08bc2a8b",
          "transactionIndex": "0x22",
          "logIndex": "0x5d8",
          "removed": false
        }
      ],
      "logsBloom": "0x00000000000000000000000002000000000000000000000000800000000000000000000000000000200000000000000000008000000000000000000000000000000000000000000000080000000040800005000000000000000100000000000000000000020002000000000000000800000000000000000080000000000000400000000000000000000000000000000000000000000000000000000000000000200000000000000000000000000000000000000000000000000000000004004000000000000000200009000000000000000000000000000000100000000020000000000000000000000000000000000000000000000000000000000000100000",
      "type": "0x2",
      "transactionHash": "0xf8296691d044da98fc91b1858f0496a4e19c736e23471c119ef2803f08bc2a8b",
      "transactionIndex": "0x22",
      "blockHash": "0x6dc92227ffb1b9008274dd48272b3f046c5b1d3299c508b31435679298cdc82f",
      "blockNumber": "0x38cc3b5",
      "gasUsed": "0x150eff",
      "effectiveGasPrice": "0x733d6fd40",
      "from": "0x1b395389386f3f2a27866dad8f7ddbb31c392e66",
      "to": null,
      "contractAddress": "0x83de4c97d1551b55e309dd54c9435849c9ecec36"
    },
    {
      "status": "0x1",
      "cumulativeGasUsed": "0x18cc7a7",
      "logs": [
        {
          "address": "0x10a7ee546c3108a4f97ba95ed685ee17078cc2fe",
          "topics": [
            "0x8c5be1e5ebec7d5bd14f71427d1e84f3dd0314c0f7b2291e5b200ac8c7c3b925",
            "0x0000000000000000000000001b395389386f3f2a27866dad8f7ddbb31c392e66",
            "0x00000000000000000000000083de4c97d1551b55e309dd54c9435849c9ecec36"
          ],
          "data": "0x00000000000000000000000000000000000000000000000053444835ec580000",
          "blockHash": "0x6dc92227ffb1b9008274dd48272b3f046c5b1d3299c508b31435679298cdc82f",
          "blockNumber": "0x38cc3b5",
          "transactionHash": "0x491daf08b3f44a03528a7a1b750ff951eba7c7b46e96cace0eafb588ea85e0db",
          "transactionIndex": "0x24",
          "logIndex": "0x5db",
          "removed": false
        },
        {
          "address": "0x0000000000000000000000000000000000001010",
          "topics": [
            "0x4dfe1bbbcf077ddc3e01291eea2d5c70c2b422b415d95645b9adcfd678cb1d63",
            "0x0000000000000000000000000000000000000000000000000000000000001010",
            "0x0000000000000000000000001b395389386f3f2a27866dad8f7ddbb31c392e66",
            "0x00000000000000000000000069f5c4d08f6bc8cd29fe5f004d46fb566270868d"
          ],
          "data": "0x0000000000000000000000000000000000000000000000000004f1da58b0f800000000000000000000000000000000000000000000000000733c7b9eea77aeff000000000000000000000000000000000000000000000050e2cc69ba2ce13bc8000000000000000000000000000000000000000000000000733789c491c6b6ff000000000000000000000000000000000000000000000050e2d15b94859233c8",
          "blockHash": "0x6dc92227ffb1b9008274dd48272b3f046c5b1d3299c508b31435679298cdc82f",
          "blockNumber": "0x38cc3b5",
          "transactionHash": "0x491daf08b3f44a03528a7a1b750ff951eba7c7b46e96cace0eafb588ea85e0db",
          "transactionIndex": "0x24",
          "logIndex": "0x5dc",
          "removed": false
        }
      ],
      "logsBloom": "0x00000000000000000000000002000000000000000000000000000000000000000000000000000000200000000000000000008000000000000000000002200000000000000000000000080000000040800004000000000000000100000000000000000000000002000000000000800000000000000008000080000000000000000000000000000000000000000000000000000000000000000000000000000000220000000000000000000000000000080000000000000000000000000000004000000000000000000001000000000000000000020000000000100000000000000010000000000000000000400000000000000000000000000000000000100000",
      "type": "0x2",
      "transactionHash": "0x491daf08b3f44a03528a7a1b750ff951eba7c7b46e96cace0eafb588ea85e0db",
      "transactionIndex": "0x24",
      "blockHash": "0x6dc92227ffb1b9008274dd48272b3f046c5b1d3299c508b31435679298cdc82f",
      "blockNumber": "0x38cc3b5",
      "gasUsed": "0xb53a",
      "effectiveGasPrice": "0x733d6fd40",
      "from": "0x1b395389386f3f2a27866dad8f7ddbb31c392e66",
      "to": "0x10a7ee546c3108a4f97ba95ed685ee17078cc2fe",
      "contractAddress": null
    },
    {
      "status": "0x1",
      "cumulativeGasUsed": "0x18d91b3",
      "logs": [
        {
          "address": "0xc2132d05d31c914a87c6611c10748aeb04b58e8f",
          "topics": [
            "0x8c5be1e5ebec7d5bd14f71427d1e84f3dd0314c0f7b2291e5b200ac8c7c3b925",
            "0x0000000000000000000000001b395389386f3f2a27866dad8f7ddbb31c392e66",
            "0x00000000000000000000000083de4c97d1551b55e309dd54c9435849c9ecec36"
          ],
          "data": "0x00000000000000000000000000000000000000000000000000000000005b8d80",
          "blockHash": "0x6dc92227ffb1b9008274dd48272b3f046c5b1d3299c508b31435679298cdc82f",
          "blockNumber": "0x38cc3b5",
          "transactionHash": "0x7f1324dbdba3aac8ec04d40fd52855c0316557466f02fee5e670d5958580d219",
          "transactionIndex": "0x25",
          "logIndex": "0x5dd",
          "removed": false
        },
        {
          "address": "0x0000000000000000000000000000000000001010",
          "topics": [
            "0x4dfe1bbbcf077ddc3e01291eea2d5c70c2b422b415d95645b9adcfd678cb1d63",
            "0x0000000000000000000000000000000000000000000000000000000000001010",
            "0x0000000000000000000000001b395389386f3f2a27866dad8f7ddbb31c392e66",
            "0x00000000000000000000000069f5c4d08f6bc8cd29fe5f004d46fb566270868d"
          ],
          "data": "0x00000000000000000000000000000000000000000000000000058347f7641000000000000000000000000000000000000000000000000000733762562ab40e7f000000000000000000000000000000000000000000000050e2d15b94859233c80000000000000000000000000000000000000000000000007331df0e334ffe7f000000000000000000000000000000000000000000000050e2d6dedc7cf643c8",
          "blockHash": "0x6dc92227ffb1b9008274dd48272b3f046c5b1d3299c508b31435679298cdc82f",
          "blockNumber": "0x38cc3b5",
          "transactionHash": "0x7f1324dbdba3aac8ec04d40fd52855c0316557466f02fee5e670d5958580d219",
          "transactionIndex": "0x25",
          "logIndex": "0x5de",
          "removed": false
        }
      ],
      "logsBloom": "0x00000000000000000000000002000000000000000000000000000000000000000000000000000000200000000000000100008000000000000000000000200000000000000000000000080000000040800004000000000000000100000000000000000000000002000000000000000000000000000008000080000000000000000000000000080000000000000000000000000000000000000000000000000000220000000000000000000000000000080000000000000000000000000000004000000000000000000001000000000000400000020000000000100000000000000010000000000000000000000000000000000000000000000000000000100000",
      "type": "0x2",
      "transactionHash": "0x7f1324dbdba3aac8ec04d40fd52855c0316557466f02fee5e670d5958580d219",
      "transactionIndex": "0x25",
      "blockHash": "0x6dc92227ffb1b9008274dd48272b3f046c5b1d3299c508b31435679298cdc82f",
      "blockNumber": "0x38cc3b5",
      "gasUsed": "0xca0c",
      "effectiveGasPrice": "0x733d6fd40",
      "from": "0x1b395389386f3f2a27866dad8f7ddbb31c392e66",
      "to": "0xc2132d05d31c914a87c6611c10748aeb04b58e8f",
      "contractAddress": null
    },
    {
      "status": "0x1",
      "cumulativeGasUsed": "0x1911fd4",
      "logs": [
        {
          "address": "0x10a7ee546c3108a4f97ba95ed685ee17078cc2fe",
          "topics": [
            "0xddf252ad1be2c89b69c2b068fc378daa952ba7f163c4a11628f55a4df523b3ef",
            "0x0000000000000000000000001b395389386f3f2a27866dad8f7ddbb31c392e66",
            "0x00000000000000000000000083de4c97d1551b55e309dd54c9435849c9ecec36"
          ],
          "data": "0x00000000000000000000000000000000000000000000000053444835ec580000",
          "blockHash": "0x6dc92227ffb1b9008274dd48272b3f046c5b1d3299c508b31435679298cdc82f",
          "blockNumber": "0x38cc3b5",
          "transactionHash": "0xa874817bb49125dcbf2aaeb6bd99321c10c73a60a3c2d0c8efe4a59ea76c7ea0",
          "transactionIndex": "0x26",
          "logIndex": "0x5df",
          "removed": false
        },
        {
          "address": "0xc2132d05d31c914a87c6611c10748aeb04b58e8f",
          "topics": [
            "0xddf252ad1be2c89b69c2b068fc378daa952ba7f163c4a11628f55a4df523b3ef",
            "0x0000000000000000000000001b395389386f3f2a27866dad8f7ddbb31c392e66",
            "0x00000000000000000000000083de4c97d1551b55e309dd54c9435849c9ecec36"
          ],
          "data": "0x00000000000000000000000000000000000000000000000000000000005b8d80",
          "blockHash": "0x6dc92227ffb1b9008274dd48272b3f046c5b1d3299c508b31435679298cdc82f",
          "blockNumber": "0x38cc3b5",
          "transactionHash": "0xa874817bb49125dcbf2aaeb6bd99321c10c73a60a3c2d0c8efe4a59ea76c7ea0",
          "transactionIndex": "0x26",
          "logIndex": "0x5e0",
          "removed": false
        },
        {
          "address": "0xc2132d05d31c914a87c6611c10748aeb04b58e8f",
          "topics": [
            "0x8c5be1e5ebec7d5bd14f71427d1e84f3dd0314c0f7b2291e5b200ac8c7c3b925",
            "0x0000000000000000000000001b395389386f3f2a27866dad8f7ddbb31c392e66",
            "0x00000000000000000000000083de4c97d1551b55e309dd54c9435849c9ecec36"
          ],
          "data": "0x0000000000000000000000000000000000000000000000000000000000000000",
          "blockHash": "0x6dc92227ffb1b9008274dd48272b3f046c5b1d3299c508b31435679298cdc82f",
          "blockNumber": "0x38cc3b5",
          "transactionHash": "0xa874817bb49125dcbf2aaeb6bd99321c10c73a60a3c2d0c8efe4a59ea76c7ea0",
          "transactionIndex": "0x26",
          "logIndex": "0x5e1",
          "removed": false
        },
        {
          "address": "0x10a7ee546c3108a4f97ba95ed685ee17078cc2fe",
          "topics": [
            "0x8c5be1e5ebec7d5bd14f71427d1e84f3dd0314c0f7b2291e5b200ac8c7c3b925",
            "0x00000000000000000000000083de4c97d1551b55e309dd54c9435849c9ecec36",
            "0x000000000000000000000000a5e0829caced8ffdd4de3c43696c57f7d7a678ff"
          ],
          "data": "0x00000000000000000000000000000000000000000000000053444835ec580000",
          "blockHash": "0x6dc92227ffb1b9008274dd48272b3f046c5b1d3299c508b31435679298cdc82f",
          "blockNumber": "0x38cc3b5",
          "transactionHash": "0xa874817bb49125dcbf2aaeb6bd99321c10c73a60a3c2d0c8efe4a59ea76c7ea0",
          "transactionIndex": "0x26",
          "logIndex": "0x5e2",
          "removed": false
        },
        {
          "address": "0xc2132d05d31c914a87c6611c10748aeb04b58e8f",
          "topics": [
            "0x8c5be1e5ebec7d5bd14f71427d1e84f3dd0314c0f7b2291e5b200ac8c7c3b925",
            "0x00000000000000000000000083de4c97d1551b55e309dd54c9435849c9ecec36",
            "0x000000000000000000000000a5e0829caced8ffdd4de3c43696c57f7d7a678ff"
          ],
          "data": "0x00000000000000000000000000000000000000000000000000000000005b8d80",
          "blockHash": "0x6dc92227ffb1b9008274dd48272b3f046c5b1d3299c508b31435679298cdc82f",
          "blockNumber": "0x38cc3b5",
          "transactionHash": "0xa874817bb49125dcbf2aaeb6bd99321c10c73a60a3c2d0c8efe4a59ea76c7ea0",
          "transactionIndex": "0x26",
          "logIndex": "0x5e3",
          "removed": false
        },
        {
          "address": "0x10a7ee546c3108a4f97ba95ed685ee17078cc2fe",
          "topics": [
            "0xddf252ad1be2c89b69c2b068fc378daa952ba7f163c4a11628f55a4df523b3ef",
            "0x00000000000000000000000083de4c97d1551b55e309dd54c9435849c9ecec36",
            "0x00000000000000000000000091d26f6890b01629f72547f8365e90aa8ba1eee4"
          ],
          "data": "0x00000000000000000000000000000000000000000000000051ff1ead1bb92081",
          "blockHash": "0x6dc92227ffb1b9008274dd48272b3f046c5b1d3299c508b31435679298cdc82f",
          "blockNumber": "0x38cc3b5",
          "transactionHash": "0xa874817bb49125dcbf2aaeb6bd99321c10c73a60a3c2d0c8efe4a59ea76c7ea0",
          "transactionIndex": "0x26",
          "logIndex": "0x5e4",
          "removed": false
        },
        {
          "address": "0xc2132d05d31c914a87c6611c10748aeb04b58e8f",
          "topics": [
            "0xddf252ad1be2c89b69c2b068fc378daa952ba7f163c4a11628f55a4df523b3ef",
            "0x00000000000000000000000083de4c97d1551b55e309dd54c9435849c9ecec36",
            "0x00000000000000000000000091d26f6890b01629f72547f8365e90aa8ba1eee4"
          ],
          "data": "0x00000000000000000000000000000000000000000000000000000000005b8d80",
          "blockHash": "0x6dc92227ffb1b9008274dd48272b3f046c5b1d3299c508b31435679298cdc82f",
          "blockNumber": "0x38cc3b5",
          "transactionHash": "0xa874817bb49125dcbf2aaeb6bd99321c10c73a60a3c2d0c8efe4a59ea76c7ea0",
          "transactionIndex": "0x26",
          "logIndex": "0x5e5",
          "removed": false
        },
        {
          "address": "0xc2132d05d31c914a87c6611c10748aeb04b58e8f",
          "topics": [
            "0x8c5be1e5ebec7d5bd14f71427d1e84f3dd0314c0f7b2291e5b200ac8c7c3b925",
            "0x00000000000000000000000083de4c97d1551b55e309dd54c9435849c9ecec36",
            "0x000000000000000000000000a5e0829caced8ffdd4de3c43696c57f7d7a678ff"
          ],
          "data": "0x0000000000000000000000000000000000000000000000000000000000000000",
          "blockHash": "0x6dc92227ffb1b9008274dd48272b3f046c5b1d3299c508b31435679298cdc82f",
          "blockNumber": "0x38cc3b5",
          "transactionHash": "0xa874817bb49125dcbf2aaeb6bd99321c10c73a60a3c2d0c8efe4a59ea76c7ea0",
          "transactionIndex": "0x26",
          "logIndex": "0x5e6",
          "removed": false
        },
        {
          "address": "0x91d26f6890b01629f72547f8365e90aa8ba1eee4",
          "topics": [
            "0xddf252ad1be2c89b69c2b068fc378daa952ba7f163c4a11628f55a4df523b3ef",
            "0x0000000000000000000000000000000000000000000000000000000000000000",
            "0x00000000000000000000000083de4c97d1551b55e309dd54c9435849c9ecec36"
          ],
          "data": "0x0000000000000000000000000000000000000000000000000000002b877e6e9a",
          "blockHash": "0x6dc92227ffb1b9008274dd48272b3f046c5b1d3299c508b31435679298cdc82f",
          "blockNumber": "0x38cc3b5",
          "transactionHash": "0xa874817bb49125dcbf2aaeb6bd99321c10c73a60a3c2d0c8efe4a59ea76c7ea0",
          "transactionIndex": "0x26",
          "logIndex": "0x5e7",
          "removed": false
        },
        {
          "address": "0x91d26f6890b01629f72547f8365e90aa8ba1eee4",
          "topics": [
            "0x1c411e9a96e071241c2f21f7726b17ae89e3cab4c78be50e062b03a9fffbbad1"
          ],
          "data": "0x00000000000000000000000000000000000000000000000051ff7e81f6395ac500000000000000000000000000000000000000000000000000000000005b8deb",
          "blockHash": "0x6dc92227ffb1b9008274dd48272b3f046c5b1d3299c508b31435679298cdc82f",
          "blockNumber": "0x38cc3b5",
          "transactionHash": "0xa874817bb49125dcbf2aaeb6bd99321c10c73a60a3c2d0c8efe4a59ea76c7ea0",
          "transactionIndex": "0x26",
          "logIndex": "0x5e8",
          "removed": false
        },
        {
          "address": "0x91d26f6890b01629f72547f8365e90aa8ba1eee4",
          "topics": [
            "0x4c209b5fc8ad50758f13e2e1088ba56a560dff690a1c6fef26394f4c03821c4f",
            "0x000000000000000000000000a5e0829caced8ffdd4de3c43696c57f7d7a678ff"
          ],
          "data": "0x00000000000000000000000000000000000000000000000051ff1ead1bb9208100000000000000000000000000000000000000000000000000000000005b8d80",
          "blockHash": "0x6dc92227ffb1b9008274dd48272b3f046c5b1d3299c508b31435679298cdc82f",
          "blockNumber": "0x38cc3b5",
          "transactionHash": "0xa874817bb49125dcbf2aaeb6bd99321c10c73a60a3c2d0c8efe4a59ea76c7ea0",
          "transactionIndex": "0x26",
          "logIndex": "0x5e9",
          "removed": false
        },
        {
          "address": "0x0000000000000000000000000000000000001010",
          "topics": [
            "0x4dfe1bbbcf077ddc3e01291eea2d5c70c2b422b415d95645b9adcfd678cb1d63",
            "0x0000000000000000000000000000000000000000000000000000000000001010",
            "0x0000000000000000000000001b395389386f3f2a27866dad8f7ddbb31c392e66",
            "0x00000000000000000000000069f5c4d08f6bc8cd29fe5f004d46fb566270868d"
          ],
          "data": "0x0000000000000000000000000000000000000000000000000018d52d4e012c000000000000000000000000000000000000000000000000007331b31818cbaf7f000000000000000000000000000000000000000000000050e2d6dedc7cf643c80000000000000000000000000000000000000000000000007318ddeacaca837f000000000000000000000000000000000000000000000050e2efb409caf76fc8",
          "blockHash": "0x6dc92227ffb1b9008274dd48272b3f046c5b1d3299c508b31435679298cdc82f",
          "blockNumber": "0x38cc3b5",
          "transactionHash": "0xa874817bb49125dcbf2aaeb6bd99321c10c73a60a3c2d0c8efe4a59ea76c7ea0",
          "transactionIndex": "0x26",
          "logIndex": "0x5ea",
          "removed": false
        }
      ],
      "logsBloom": "0x00000000000000000000000082000000000000000000000000000000000001000000000000000000200000000000000100008800000000000000000002200000000000000000000000080008000040800004000000000000000100000000000000000000020082000000000000800840000000000008000080000010010000800000010000080000000000000000000000000000000000080000000000000000220000000000000000000000000000080000000000000008000000000080004000000002000000000001000000020000400000020000001000100000000020000010000000000000000000400000000000000000000000000000000000100000",
      "type": "0x2",
      "transactionHash": "0xa874817bb49125dcbf2aaeb6bd99321c10c73a60a3c2d0c8efe4a59ea76c7ea0",
      "transactionIndex": "0x26",
      "blockHash": "0x6dc92227ffb1b9008274dd48272b3f046c5b1d3299c508b31435679298cdc82f",
      "blockNumber": "0x38cc3b5",
      "gasUsed": "0x38e21",
      "effectiveGasPrice": "0x733d6fd40",
      "from": "0x1b395389386f3f2a27866dad8f7ddbb31c392e66",
      "to": "0x83de4c97d1551b55e309dd54c9435849c9ecec36",
      "contractAddress": null
    },
    {
      "status": "0x1",
      "cumulativeGasUsed": "0x19188db",
      "logs": [
        {
          "address": "0x10a7ee546c3108a4f97ba95ed685ee17078cc2fe",
          "topics": [
            "0xd083a8aaec22fd5c06dfb61243244a5c296eb8770219c1880d12290f07691590"
          ],
          "data": "0x0000000000000000000000000000000000000000000000000000000000000000",
          "blockHash": "0x6dc92227ffb1b9008274dd48272b3f046c5b1d3299c508b31435679298cdc82f",
          "blockNumber": "0x38cc3b5",
          "transactionHash": "0x56c1c3ff3a9d48a241d13a54d62077a02d07549174e14f631743fea7b895ae92",
          "transactionIndex": "0x27",
          "logIndex": "0x5eb",
          "removed": false
        },
        {
          "address": "0x0000000000000000000000000000000000001010",
          "topics": [
            "0x4dfe1bbbcf077ddc3e01291eea2d5c70c2b422b415d95645b9adcfd678cb1d63",
            "0x0000000000000000000000000000000000000000000000000000000000001010",
            "0x0000000000000000000000001b395389386f3f2a27866dad8f7ddbb31c392e66",
            "0x00000000000000000000000069f5c4d08f6bc8cd29fe5f004d46fb566270868d"
          ],
          "data": "0x0000000000000000000000000000000000000000000000000002dd9b8685b400000000000000000000000000000000000000000000000000731817e431db8a3f000000000000000000000000000000000000000000000050e2efb409caf76fc800000000000000000000000000000000000000000000000073153a48ab55d63f000000000000000000000000000000000000000000000050e2f291a5517d23c8",
          "blockHash": "0x6dc92227ffb1b9008274dd48272b3f046c5b1d3299c508b31435679298cdc82f",
          "blockNumber": "0x38cc3b5",
          "transactionHash": "0x56c1c3ff3a9d48a241d13a54d62077a02d07549174e14f631743fea7b895ae92",
          "transactionIndex": "0x27",
          "logIndex": "0x5ec",
          "removed": false
        }
      ],
      "logsBloom": "0x00000000000000000000000002000000000000000000000000000000000000000000000000000000200000000000000000008000000000000000000002000000000000000000000000080000000040800004000000000000000100000000000000000000000002000000000000800000000000000000000080000000000000008000000000000000000000000000000000000000000000000000000000080000200000000000000000000000000000000000000000000000000000000000004000000000000000000001000000000000000000000000000000100000002000000000000000000000000000400000000000000000000000000000000000100000",
      "type": "0x2",
      "transactionHash": "0x56c1c3ff3a9d48a241d13a54d62077a02d07549174e14f631743fea7b895ae92",
      "transactionIndex": "0x27",
      "blockHash": "0x6dc92227ffb1b9008274dd48272b3f046c5b1d3299c508b31435679298cdc82f",
      "blockNumber": "0x38cc3b5",
      "gasUsed": "0x6907",
      "effectiveGasPrice": "0x733d6fd40",
      "from": "0x1b395389386f3f2a27866dad8f7ddbb31c392e66",
      "to": "0x10a7ee546c3108a4f97ba95ed685ee17078cc2fe",
      "contractAddress": null
    },
    {
      "status": "0x1",
      "cumulativeGasUsed": "0x1923f4d",
      "logs": [
        {
          "address": "0x10a7ee546c3108a4f97ba95ed685ee17078cc2fe",
          "topics": [
            "0x8c5be1e5ebec7d5bd14f71427d1e84f3dd0314c0f7b2291e5b200ac8c7c3b925",
            "0x0000000000000000000000001b395389386f3f2a27866dad8f7ddbb31c392e66",
            "0x00000000000000000000000083de4c97d1551b55e309dd54c9435849c9ecec36"
          ],
          "data": "0xffffffffffffffffffffffffffffffffffffffffffffffffffffffffffffffff",
          "blockHash": "0x6dc92227ffb1b9008274dd48272b3f046c5b1d3299c508b31435679298cdc82f",
          "blockNumber": "0x38cc3b5",
          "transactionHash": "0x1127a16edf0f871c33788d7f328ea732ba7ba77fc23efad4650b225c51bdb231",
          "transactionIndex": "0x28",
          "logIndex": "0x5ed",
          "removed": false
        },
        {
          "address": "0x0000000000000000000000000000000000001010",
          "topics": [
            "0x4dfe1bbbcf077ddc3e01291eea2d5c70c2b422b415d95645b9adcfd678cb1d63",
            "0x0000000000000000000000000000000000000000000000000000000000001010",
            "0x0000000000000000000000001b395389386f3f2a27866dad8f7ddbb31c392e66",
            "0x00000000000000000000000069f5c4d08f6bc8cd29fe5f004d46fb566270868d"
          ],
          "data": "0x0000000000000000000000000000000000000000000000000004fa5da42a98000000000000000000000000000000000000000000000000007315236e991b5d7f000000000000000000000000000000000000000000000050e2f291a5517d23c800000000000000000000000000000000000000000000000073102910f4f0c57f000000000000000000000000000000000000000000000050e2f78c02f5a7bbc8",
          "blockHash": "0x6dc92227ffb1b9008274dd48272b3f046c5b1d3299c508b31435679298cdc82f",
          "blockNumber": "0x38cc3b5",
          "transactionHash": "0x1127a16edf0f871c33788d7f328ea732ba7ba77fc23efad4650b225c51bdb231",
          "transactionIndex": "0x28",
          "logIndex": "0x5ee",
          "removed": false
        }
      ],
      "logsBloom": "0x00000000000000000000000002000000000000000000000000000000000000000000000000000000200000000000000000008000000000000000000002200000000000000000000000080000000040800004000000000000000100000000000000000000000002000000000000800000000000000008000080000000000000000000000000000000000000000000000000000000000000000000000000000000220000000000000000000000000000080000000000000000000000000000004000000000000000000001000000000000000000020000000000100000000000000010000000000000000000400000000000000000000000000000000000100000",
      "type": "0x2",
      "transactionHash": "0x1127a16edf0f871c33788d7f328ea732ba7ba77fc23efad4650b225c51bdb231",
      "transactionIndex": "0x28",
      "blockHash": "0x6dc92227ffb1b9008274dd48272b3f046c5b1d3299c508b31435679298cdc82f",
      "blockNumber": "0x38cc3b5",
      "gasUsed": "0xb672",
      "effectiveGasPrice": "0x733d6fd40",
      "from": "0x1b395389386f3f2a27866dad8f7ddbb31c392e66",
      "to": "0x10a7ee546c3108a4f97ba95ed685ee17078cc2fe",
      "contractAddress": null
    },
    {
      "status": "0x1",
      "cumulativeGasUsed": "0x1930ab5",
      "logs": [
        {
          "address": "0xc2132d05d31c914a87c6611c10748aeb04b58e8f",
          "topics": [
            "0x8c5be1e5ebec7d5bd14f71427d1e84f3dd0314c0f7b2291e5b200ac8c7c3b925",
            "0x0000000000000000000000001b395389386f3f2a27866dad8f7ddbb31c392e66",
            "0x00000000000000000000000083de4c97d1551b55e309dd54c9435849c9ecec36"
          ],
          "data": "0xffffffffffffffffffffffffffffffffffffffffffffffffffffffffffffffff",
          "blockHash": "0x6dc92227ffb1b9008274dd48272b3f046c5b1d3299c508b31435679298cdc82f",
          "blockNumber": "0x38cc3b5",
          "transactionHash": "0x8d2663871251779d33e94447212108659539c57a7c4d22662302094836997b6c",
          "transactionIndex": "0x29",
          "logIndex": "0x5ef",
          "removed": false
        },
        {
          "address": "0x0000000000000000000000000000000000001010",
          "topics": [
            "0x4dfe1bbbcf077ddc3e01291eea2d5c70c2b422b415d95645b9adcfd678cb1d63",
            "0x0000000000000000000000000000000000000000000000000000000000001010",
            "0x0000000000000000000000001b395389386f3f2a27866dad8f7ddbb31c392e66",
            "0x00000000000000000000000069f5c4d08f6bc8cd29fe5f004d46fb566270868d"
          ],
          "data": "0x00000000000000000000000000000000000000000000000000058cc6b7e1e0000000000000000000000000000000000000000000000000007310015eab5316ff000000000000000000000000000000000000000000000050e2f78c02f5a7bbc8000000000000000000000000000000000000000000000000730a7497f37136ff000000000000000000000000000000000000000000000050e2fd18c9ad899bc8",
          "blockHash": "0x6dc92227ffb1b9008274dd48272b3f046c5b1d3299c508b31435679298cdc82f",
          "blockNumber": "0x38cc3b5",
          "transactionHash": "0x8d2663871251779d33e94447212108659539c57a7c4d22662302094836997b6c",
          "transactionIndex": "0x29",
          "logIndex": "0x5f0",
          "removed": false
        }
      ],
      "logsBloom": "0x00000000000000000000000002000000000000000000000000000000000000000000000000000000200000000000000100008000000000000000000000200000000000000000000000080000000040800004000000000000000100000000000000000000000002000000000000000000000000000008000080000000000000000000000000080000000000000000000000000000000000000000000000000000220000000000000000000000000000080000000000000000000000000000004000000000000000000001000000000000400000020000000000100000000000000010000000000000000000000000000000000000000000000000000000100000",
      "type": "0x2",
      "transactionHash": "0x8d2663871251779d33e94447212108659539c57a7c4d22662302094836997b6c",
      "transactionIndex": "0x29",
      "blockHash": "0x6dc92227ffb1b9008274dd48272b3f046c5b1d3299c508b31435679298cdc82f",
      "blockNumber": "0x38cc3b5",
      "gasUsed": "0xcb68",
      "effectiveGasPrice": "0x733d6fd40",
      "from": "0x1b395389386f3f2a27866dad8f7ddbb31c392e66",
      "to": "0xc2132d05d31c914a87c6611c10748aeb04b58e8f",
      "contractAddress": null
    },
    {
      "status": "0x1",
      "cumulativeGasUsed": "0x1951728",
      "logs": [
        {
          "address": "0x10a7ee546c3108a4f97ba95ed685ee17078cc2fe",
          "topics": [
            "0xddf252ad1be2c89b69c2b068fc378daa952ba7f163c4a11628f55a4df523b3ef",
            "0x0000000000000000000000001b395389386f3f2a27866dad8f7ddbb31c392e66",
            "0x00000000000000000000000083de4c97d1551b55e309dd54c9435849c9ecec36"
          ],
          "data": "0x00000000000000000000000000000000000000000000000006f05b59d3b20000",
          "blockHash": "0x6dc92227ffb1b9008274dd48272b3f046c5b1d3299c508b31435679298cdc82f",
          "blockNumber": "0x38cc3b5",
          "transactionHash": "0x629041fec8be59d0162fd51aa8636806d0fa000db217a5c0267d66f801ce7944",
          "transactionIndex": "0x2a",
          "logIndex": "0x5f1",
          "removed": false
        },
        {
          "address": "0x10a7ee546c3108a4f97ba95ed685ee17078cc2fe",
          "topics": [
            "0x8c5be1e5ebec7d5bd14f71427d1e84f3dd0314c0f7b2291e5b200ac8c7c3b925",
            "0x00000000000000000000000083de4c97d1551b55e309dd54c9435849c9ecec36",
            "0x000000000000000000000000a5e0829caced8ffdd4de3c43696c57f7d7a678ff"
          ],
          "data": "0x00000000000000000000000000000000000000000000000006f05b59d3b20000",
          "blockHash": "0x6dc92227ffb1b9008274dd48272b3f046c5b1d3299c508b31435679298cdc82f",
          "blockNumber": "0x38cc3b5",
          "transactionHash": "0x629041fec8be59d0162fd51aa8636806d0fa000db217a5c0267d66f801ce7944",
          "transactionIndex": "0x2a",
          "logIndex": "0x5f2",
          "removed": false
        },
        {
          "address": "0x10a7ee546c3108a4f97ba95ed685ee17078cc2fe",
          "topics": [
            "0xddf252ad1be2c89b69c2b068fc378daa952ba7f163c4a11628f55a4df523b3ef",
            "0x00000000000000000000000083de4c97d1551b55e309dd54c9435849c9ecec36",
            "0x00000000000000000000000091d26f6890b01629f72547f8365e90aa8ba1eee4"
          ],
          "data": "0x00000000000000000000000000000000000000000000000006f05b59d3b20000",
          "blockHash": "0x6dc92227ffb1b9008274dd48272b3f046c5b1d3299c508b31435679298cdc82f",
          "blockNumber": "0x38cc3b5",
          "transactionHash": "0x629041fec8be59d0162fd51aa8636806d0fa000db217a5c0267d66f801ce7944",
          "transactionIndex": "0x2a",
          "logIndex": "0x5f3",
          "removed": false
        },
        {
          "address": "0xc2132d05d31c914a87c6611c10748aeb04b58e8f",
          "topics": [
            "0xddf252ad1be2c89b69c2b068fc378daa952ba7f163c4a11628f55a4df523b3ef",
            "0x00000000000000000000000091d26f6890b01629f72547f8365e90aa8ba1eee4",
            "0x00000000000000000000000083de4c97d1551b55e309dd54c9435849c9ecec36"
          ],
          "data": "0x0000000000000000000000000000000000000000000000000000000000071f93",
          "blockHash": "0x6dc92227ffb1b9008274dd48272b3f046c5b1d3299c508b31435679298cdc82f",
          "blockNumber": "0x38cc3b5",
          "transactionHash": "0x629041fec8be59d0162fd51aa8636806d0fa000db217a5c0267d66f801ce7944",
          "transactionIndex": "0x2a",
          "logIndex": "0x5f4",
          "removed": false
        },
        {
          "address": "0x91d26f6890b01629f72547f8365e90aa8ba1eee4",
          "topics": [
            "0x1c411e9a96e071241c2f21f7726b17ae89e3cab4c78be50e062b03a9fffbbad1"
          ],
          "data": "0x00000000000000000000000000000000000000000000000058efd9dbc9eb5ac50000000000000000000000000000000000000000000000000000000000546e58",
          "blockHash": "0x6dc92227ffb1b9008274dd48272b3f046c5b1d3299c508b31435679298cdc82f",
          "blockNumber": "0x38cc3b5",
          "transactionHash": "0x629041fec8be59d0162fd51aa8636806d0fa000db217a5c0267d66f801ce7944",
          "transactionIndex": "0x2a",
          "logIndex": "0x5f5",
          "removed": false
        },
        {
          "address": "0x91d26f6890b01629f72547f8365e90aa8ba1eee4",
          "topics": [
            "0xd78ad95fa46c994b6551d0da85fc275fe613ce37657fb8d5e3d130840159d822",
            "0x000000000000000000000000a5e0829caced8ffdd4de3c43696c57f7d7a678ff",
            "0x00000000000000000000000083de4c97d1551b55e309dd54c9435849c9ecec36"
          ],
          "data": "0x00000000000000000000000000000000000000000000000006f05b59d3b20000000000000000000000000000000000000000000000000000000000000000000000000000000000000000000000000000000000000000000000000000000000000000000000000000000000000000000000000000000000000000000000071f93",
          "blockHash": "0x6dc92227ffb1b9008274dd48272b3f046c5b1d3299c508b31435679298cdc82f",
          "blockNumber": "0x38cc3b5",
          "transactionHash": "0x629041fec8be59d0162fd51aa8636806d0fa000db217a5c0267d66f801ce7944",
          "transactionIndex": "0x2a",
          "logIndex": "0x5f6",
          "removed": false
        },
        {
          "address": "0x0000000000000000000000000000000000001010",
          "topics": [
            "0x4dfe1bbbcf077ddc3e01291eea2d5c70c2b422b415d95645b9adcfd678cb1d63",
            "0x0000000000000000000000000000000000000000000000000000000000001010",
            "0x0000000000000000000000001b395389386f3f2a27866dad8f7ddbb31c392e66",
            "0x00000000000000000000000069f5c4d08f6bc8cd29fe5f004d46fb566270868d"
          ],
          "data": "0x000000000000000000000000000000000000000000000000000e4f3c48164400000000000000000000000000000000000000000000000000730a4856212a74ff000000000000000000000000000000000000000000000050e2fd18c9ad899bc800000000000000000000000000000000000000000000000072fbf919d91430ff000000000000000000000000000000000000000000000050e30b6805f59fdfc8",
          "blockHash": "0x6dc92227ffb1b9008274dd48272b3f046c5b1d3299c508b31435679298cdc82f",
          "blockNumber": "0x38cc3b5",
          "transactionHash": "0x629041fec8be59d0162fd51aa8636806d0fa000db217a5c0267d66f801ce7944",
          "transactionIndex": "0x2a",
          "logIndex": "0x5f7",
          "removed": false
        }
      ],
      "logsBloom": "0x00200000000000000000000082000000000000000000000000000000000000000000000000000000200000000000000100008800000000000000000002200000000000000000000000080008000040a00004000000000000000100000000000000000000000082000000000000800040000000000008000080000010010000800000010000080000000000000000000000000000000000080000004000000000220000000000000000000000000000080000000000000008000000000080004000000002000000000001000000000000400000020000001000100000000000000010000000000000000000400000000000000000000000000000000000100000",
      "type": "0x2",
      "transactionHash": "0x629041fec8be59d0162fd51aa8636806d0fa000db217a5c0267d66f801ce7944",
      "transactionIndex": "0x2a",
      "blockHash": "0x6dc92227ffb1b9008274dd48272b3f046c5b1d3299c508b31435679298cdc82f",
      "blockNumber": "0x38cc3b5",
      "gasUsed": "0x20c73",
      "effectiveGasPrice": "0x733d6fd40",
      "from": "0x1b395389386f3f2a27866dad8f7ddbb31c392e66",
      "to": "0x83de4c97d1551b55e309dd54c9435849c9ecec36",
      "contractAddress": null
    },
    {
      "status": "0x1",
      "cumulativeGasUsed": "0x1ad67d5",
      "logs": [
        {
          "address": "0xc2132d05d31c914a87c6611c10748aeb04b58e8f",
          "topics": [
            "0xddf252ad1be2c89b69c2b068fc378daa952ba7f163c4a11628f55a4df523b3ef",
            "0x0000000000000000000000001b395389386f3f2a27866dad8f7ddbb31c392e66",
            "0x00000000000000000000000083de4c97d1551b55e309dd54c9435849c9ecec36"
          ],
          "data": "0x000000000000000000000000000000000000000000000000000000000006ad96",
          "blockHash": "0x6dc92227ffb1b9008274dd48272b3f046c5b1d3299c508b31435679298cdc82f",
          "blockNumber": "0x38cc3b5",
          "transactionHash": "0x922d0270fc2c12330b57a70f04c5e746d5d190e8a05ab764aca55d6f965b2416",
          "transactionIndex": "0x32",
          "logIndex": "0x621",
          "removed": false
        },
        {
          "address": "0xc2132d05d31c914a87c6611c10748aeb04b58e8f",
          "topics": [
            "0x8c5be1e5ebec7d5bd14f71427d1e84f3dd0314c0f7b2291e5b200ac8c7c3b925",
            "0x0000000000000000000000001b395389386f3f2a27866dad8f7ddbb31c392e66",
            "0x00000000000000000000000083de4c97d1551b55e309dd54c9435849c9ecec36"
          ],
          "data": "0xfffffffffffffffffffffffffffffffffffffffffffffffffffffffffff95269",
          "blockHash": "0x6dc92227ffb1b9008274dd48272b3f046c5b1d3299c508b31435679298cdc82f",
          "blockNumber": "0x38cc3b5",
          "transactionHash": "0x922d0270fc2c12330b57a70f04c5e746d5d190e8a05ab764aca55d6f965b2416",
          "transactionIndex": "0x32",
          "logIndex": "0x622",
          "removed": false
        },
        {
          "address": "0xc2132d05d31c914a87c6611c10748aeb04b58e8f",
          "topics": [
            "0x8c5be1e5ebec7d5bd14f71427d1e84f3dd0314c0f7b2291e5b200ac8c7c3b925",
            "0x00000000000000000000000083de4c97d1551b55e309dd54c9435849c9ecec36",
            "0x000000000000000000000000a5e0829caced8ffdd4de3c43696c57f7d7a678ff"
          ],
          "data": "0x000000000000000000000000000000000000000000000000000000000006ad96",
          "blockHash": "0x6dc92227ffb1b9008274dd48272b3f046c5b1d3299c508b31435679298cdc82f",
          "blockNumber": "0x38cc3b5",
          "transactionHash": "0x922d0270fc2c12330b57a70f04c5e746d5d190e8a05ab764aca55d6f965b2416",
          "transactionIndex": "0x32",
          "logIndex": "0x623",
          "removed": false
        },
        {
          "address": "0xc2132d05d31c914a87c6611c10748aeb04b58e8f",
          "topics": [
            "0xddf252ad1be2c89b69c2b068fc378daa952ba7f163c4a11628f55a4df523b3ef",
            "0x00000000000000000000000083de4c97d1551b55e309dd54c9435849c9ecec36",
            "0x00000000000000000000000091d26f6890b01629f72547f8365e90aa8ba1eee4"
          ],
          "data": "0x000000000000000000000000000000000000000000000000000000000006ad96",
          "blockHash": "0x6dc92227ffb1b9008274dd48272b3f046c5b1d3299c508b31435679298cdc82f",
          "blockNumber": "0x38cc3b5",
          "transactionHash": "0x922d0270fc2c12330b57a70f04c5e746d5d190e8a05ab764aca55d6f965b2416",
          "transactionIndex": "0x32",
          "logIndex": "0x624",
          "removed": false
        },
        {
          "address": "0xc2132d05d31c914a87c6611c10748aeb04b58e8f",
          "topics": [
            "0x8c5be1e5ebec7d5bd14f71427d1e84f3dd0314c0f7b2291e5b200ac8c7c3b925",
            "0x00000000000000000000000083de4c97d1551b55e309dd54c9435849c9ecec36",
            "0x000000000000000000000000a5e0829caced8ffdd4de3c43696c57f7d7a678ff"
          ],
          "data": "0x0000000000000000000000000000000000000000000000000000000000000000",
          "blockHash": "0x6dc92227ffb1b9008274dd48272b3f046c5b1d3299c508b31435679298cdc82f",
          "blockNumber": "0x38cc3b5",
          "transactionHash": "0x922d0270fc2c12330b57a70f04c5e746d5d190e8a05ab764aca55d6f965b2416",
          "transactionIndex": "0x32",
          "logIndex": "0x625",
          "removed": false
        },
        {
          "address": "0x10a7ee546c3108a4f97ba95ed685ee17078cc2fe",
          "topics": [
            "0xddf252ad1be2c89b69c2b068fc378daa952ba7f163c4a11628f55a4df523b3ef",
            "0x00000000000000000000000091d26f6890b01629f72547f8365e90aa8ba1eee4",
            "0x00000000000000000000000083de4c97d1551b55e309dd54c9435849c9ecec36"
          ],
          "data": "0x00000000000000000000000000000000000000000000000006802fabf6387170",
          "blockHash": "0x6dc92227ffb1b9008274dd48272b3f046c5b1d3299c508b31435679298cdc82f",
          "blockNumber": "0x38cc3b5",
          "transactionHash": "0x922d0270fc2c12330b57a70f04c5e746d5d190e8a05ab764aca55d6f965b2416",
          "transactionIndex": "0x32",
          "logIndex": "0x626",
          "removed": false
        },
        {
          "address": "0x91d26f6890b01629f72547f8365e90aa8ba1eee4",
          "topics": [
            "0x1c411e9a96e071241c2f21f7726b17ae89e3cab4c78be50e062b03a9fffbbad1"
          ],
          "data": "0x000000000000000000000000000000000000000000000000526faa2fd3b2e95500000000000000000000000000000000000000000000000000000000005b1bee",
          "blockHash": "0x6dc92227ffb1b9008274dd48272b3f046c5b1d3299c508b31435679298cdc82f",
          "blockNumber": "0x38cc3b5",
          "transactionHash": "0x922d0270fc2c12330b57a70f04c5e746d5d190e8a05ab764aca55d6f965b2416",
          "transactionIndex": "0x32",
          "logIndex": "0x627",
          "removed": false
        },
        {
          "address": "0x91d26f6890b01629f72547f8365e90aa8ba1eee4",
          "topics": [
            "0xd78ad95fa46c994b6551d0da85fc275fe613ce37657fb8d5e3d130840159d822",
            "0x000000000000000000000000a5e0829caced8ffdd4de3c43696c57f7d7a678ff",
            "0x00000000000000000000000083de4c97d1551b55e309dd54c9435849c9ecec36"
          ],
          "data": "0x0000000000000000000000000000000000000000000000000000000000000000000000000000000000000000000000000000000000000000000000000006ad9600000000000000000000000000000000000000000000000006802fabf63871700000000000000000000000000000000000000000000000000000000000000000",
          "blockHash": "0x6dc92227ffb1b9008274dd48272b3f046c5b1d3299c508b31435679298cdc82f",
          "blockNumber": "0x38cc3b5",
          "transactionHash": "0x922d0270fc2c12330b57a70f04c5e746d5d190e8a05ab764aca55d6f965b2416",
          "transactionIndex": "0x32",
          "logIndex": "0x628",
          "removed": false
        },
        {
          "address": "0x10a7ee546c3108a4f97ba95ed685ee17078cc2fe",
          "topics": [
            "0xddf252ad1be2c89b69c2b068fc378daa952ba7f163c4a11628f55a4df523b3ef",
            "0x0000000000000000000000001b395389386f3f2a27866dad8f7ddbb31c392e66",
            "0x00000000000000000000000083de4c97d1551b55e309dd54c9435849c9ecec36"
          ],
          "data": "0x0000000000000000000000000000000000000000000000000036a9affb38fb55",
          "blockHash": "0x6dc92227ffb1b9008274dd48272b3f046c5b1d3299c508b31435679298cdc82f",
          "blockNumber": "0x38cc3b5",
          "transactionHash": "0x922d0270fc2c12330b57a70f04c5e746d5d190e8a05ab764aca55d6f965b2416",
          "transactionIndex": "0x32",
          "logIndex": "0x629",
          "removed": false
        },
        {
          "address": "0x10a7ee546c3108a4f97ba95ed685ee17078cc2fe",
          "topics": [
            "0x8c5be1e5ebec7d5bd14f71427d1e84f3dd0314c0f7b2291e5b200ac8c7c3b925",
            "0x00000000000000000000000083de4c97d1551b55e309dd54c9435849c9ecec36",
            "0x000000000000000000000000a5e0829caced8ffdd4de3c43696c57f7d7a678ff"
          ],
          "data": "0x0000000000000000000000000000000000000000000000000036a9affb38fb55",
          "blockHash": "0x6dc92227ffb1b9008274dd48272b3f046c5b1d3299c508b31435679298cdc82f",
          "blockNumber": "0x38cc3b5",
          "transactionHash": "0x922d0270fc2c12330b57a70f04c5e746d5d190e8a05ab764aca55d6f965b2416",
          "transactionIndex": "0x32",
          "logIndex": "0x62a",
          "removed": false
        },
        {
          "address": "0x10a7ee546c3108a4f97ba95ed685ee17078cc2fe",
          "topics": [
            "0xddf252ad1be2c89b69c2b068fc378daa952ba7f163c4a11628f55a4df523b3ef",
            "0x00000000000000000000000083de4c97d1551b55e309dd54c9435849c9ecec36",
            "0x00000000000000000000000091d26f6890b01629f72547f8365e90aa8ba1eee4"
          ],
          "data": "0x0000000000000000000000000000000000000000000000000036a9affb38fb55",
          "blockHash": "0x6dc92227ffb1b9008274dd48272b3f046c5b1d3299c508b31435679298cdc82f",
          "blockNumber": "0x38cc3b5",
          "transactionHash": "0x922d0270fc2c12330b57a70f04c5e746d5d190e8a05ab764aca55d6f965b2416",
          "transactionIndex": "0x32",
          "logIndex": "0x62b",
          "removed": false
        },
        {
          "address": "0xc2132d05d31c914a87c6611c10748aeb04b58e8f",
          "topics": [
            "0xddf252ad1be2c89b69c2b068fc378daa952ba7f163c4a11628f55a4df523b3ef",
            "0x00000000000000000000000091d26f6890b01629f72547f8365e90aa8ba1eee4",
            "0x00000000000000000000000083de4c97d1551b55e309dd54c9435849c9ecec36"
          ],
          "data": "0x0000000000000000000000000000000000000000000000000000000000003c13",
          "blockHash": "0x6dc92227ffb1b9008274dd48272b3f046c5b1d3299c508b31435679298cdc82f",
          "blockNumber": "0x38cc3b5",
          "transactionHash": "0x922d0270fc2c12330b57a70f04c5e746d5d190e8a05ab764aca55d6f965b2416",
          "transactionIndex": "0x32",
          "logIndex": "0x62c",
          "removed": false
        },
        {
          "address": "0x91d26f6890b01629f72547f8365e90aa8ba1eee4",
          "topics": [
            "0x1c411e9a96e071241c2f21f7726b17ae89e3cab4c78be50e062b03a9fffbbad1"
          ],
          "data": "0x00000000000000000000000000000000000000000000000052a653dfceebe4aa00000000000000000000000000000000000000000000000000000000005adfdb",
          "blockHash": "0x6dc92227ffb1b9008274dd48272b3f046c5b1d3299c508b31435679298cdc82f",
          "blockNumber": "0x38cc3b5",
          "transactionHash": "0x922d0270fc2c12330b57a70f04c5e746d5d190e8a05ab764aca55d6f965b2416",
          "transactionIndex": "0x32",
          "logIndex": "0x62d",
          "removed": false
        },
        {
          "address": "0x91d26f6890b01629f72547f8365e90aa8ba1eee4",
          "topics": [
            "0xd78ad95fa46c994b6551d0da85fc275fe613ce37657fb8d5e3d130840159d822",
            "0x000000000000000000000000a5e0829caced8ffdd4de3c43696c57f7d7a678ff",
            "0x00000000000000000000000083de4c97d1551b55e309dd54c9435849c9ecec36"
          ],
          "data": "0x0000000000000000000000000000000000000000000000000036a9affb38fb55000000000000000000000000000000000000000000000000000000000000000000000000000000000000000000000000000000000000000000000000000000000000000000000000000000000000000000000000000000000000000000003c13",
          "blockHash": "0x6dc92227ffb1b9008274dd48272b3f046c5b1d3299c508b31435679298cdc82f",
          "blockNumber": "0x38cc3b5",
          "transactionHash": "0x922d0270fc2c12330b57a70f04c5e746d5d190e8a05ab764aca55d6f965b2416",
          "transactionIndex": "0x32",
          "logIndex": "0x62e",
          "removed": false
        },
        {
          "address": "0x0000000000000000000000000000000000001010",
          "topics": [
            "0x4dfe1bbbcf077ddc3e01291eea2d5c70c2b422b415d95645b9adcfd678cb1d63",
            "0x0000000000000000000000000000000000000000000000000000000000001010",
            "0x0000000000000000000000001b395389386f3f2a27866dad8f7ddbb31c392e66",
            "0x00000000000000000000000069f5c4d08f6bc8cd29fe5f004d46fb566270868d"
          ],
          "data": "0x0000000000000000000000000000000000000000000000000017a38140f1280000000000000000000000000000000000000000000000000072fb86fdc937b13f000000000000000000000000000000000000000000000050e39d9b605e89f3c800000000000000000000000000000000000000000000000072e3e37c8846893f000000000000000000000000000000000000000000000050e3b53ee19f7b1bc8",
          "blockHash": "0x6dc92227ffb1b9008274dd48272b3f046c5b1d3299c508b31435679298cdc82f",
          "blockNumber": "0x38cc3b5",
          "transactionHash": "0x922d0270fc2c12330b57a70f04c5e746d5d190e8a05ab764aca55d6f965b2416",
          "transactionIndex": "0x32",
          "logIndex": "0x62f",
          "removed": false
        }
      ],
      "logsBloom": "0x00200000000000000000000082000000000000000000000000000000000000000000000000000000200000000000000100008800000000000000000002200000000000000000000000080008000040a00004000000000000000100000000000000000000000082000000000000800040000000000008000080000010010000800000010000080000000000000000000000000000000000080000004000000000220000000000000000000000000000080000000000000008000000000080004000000002000000000001000000000000400000020000001000100000000000000010000000000000000000400000000000000000000000000000000000100000",
      "type": "0x2",
      "transactionHash": "0x922d0270fc2c12330b57a70f04c5e746d5d190e8a05ab764aca55d6f965b2416",
      "transactionIndex": "0x32",
      "blockHash": "0x6dc92227ffb1b9008274dd48272b3f046c5b1d3299c508b31435679298cdc82f",
      "blockNumber": "0x38cc3b5",
      "gasUsed": "0x3625e",
      "effectiveGasPrice": "0x733d6fd40",
      "from": "0x1b395389386f3f2a27866dad8f7ddbb31c392e66",
      "to": "0x83de4c97d1551b55e309dd54c9435849c9ecec36",
      "contractAddress": null
    },
    {
      "status": "0x1",
      "cumulativeGasUsed": "0x1ae1ef8",
      "logs": [
        {
          "address": "0x10a7ee546c3108a4f97ba95ed685ee17078cc2fe",
          "topics": [
            "0xd083a8aaec22fd5c06dfb61243244a5c296eb8770219c1880d12290f07691590"
          ],
          "data": "0x00000000000000000000000000000000000000000000000052a653dfceebe4aa",
          "blockHash": "0x6dc92227ffb1b9008274dd48272b3f046c5b1d3299c508b31435679298cdc82f",
          "blockNumber": "0x38cc3b5",
          "transactionHash": "0xe1d0293423185a87eb6403ab8e34da7c73b03c323393866a612063d5de7105d0",
          "transactionIndex": "0x33",
          "logIndex": "0x630",
          "removed": false
        },
        {
          "address": "0x0000000000000000000000000000000000001010",
          "topics": [
            "0x4dfe1bbbcf077ddc3e01291eea2d5c70c2b422b415d95645b9adcfd678cb1d63",
            "0x0000000000000000000000000000000000000000000000000000000000001010",
            "0x0000000000000000000000001b395389386f3f2a27866dad8f7ddbb31c392e66",
            "0x00000000000000000000000069f5c4d08f6bc8cd29fe5f004d46fb566270868d"
          ],
          "data": "0x0000000000000000000000000000000000000000000000000004ff31f8d4840000000000000000000000000000000000000000000000000072e326fb7b9433bf000000000000000000000000000000000000000000000050e3b53ee19f7b1bc800000000000000000000000000000000000000000000000072de27c982bfafbf000000000000000000000000000000000000000000000050e3ba3e13984f9fc8",
          "blockHash": "0x6dc92227ffb1b9008274dd48272b3f046c5b1d3299c508b31435679298cdc82f",
          "blockNumber": "0x38cc3b5",
          "transactionHash": "0xe1d0293423185a87eb6403ab8e34da7c73b03c323393866a612063d5de7105d0",
          "transactionIndex": "0x33",
          "logIndex": "0x631",
          "removed": false
        }
      ],
      "logsBloom": "0x00000000000000000000000002000000000000000000000000000000000000000000000000000000200000000000000000008000000000000000000002000000000000000000000000080000000040800004000000000000000100000000000000000000000002000000000000800000000000000000000080000000000000008000000000000000000000000000000000000000000000000000000000080000200000000000000000000000000000000000000000000000000000000000004000000000000000000001000000000000000000000000000000100000002000000000000000000000000000400000000000000000000000000000000000100000",
      "type": "0x2",
      "transactionHash": "0xe1d0293423185a87eb6403ab8e34da7c73b03c323393866a612063d5de7105d0",
      "transactionIndex": "0x33",
      "blockHash": "0x6dc92227ffb1b9008274dd48272b3f046c5b1d3299c508b31435679298cdc82f",
      "blockNumber": "0x38cc3b5",
      "gasUsed": "0xb723",
      "effectiveGasPrice": "0x733d6fd40",
      "from": "0x1b395389386f3f2a27866dad8f7ddbb31c392e66",
      "to": "0x10a7ee546c3108a4f97ba95ed685ee17078cc2fe",
      "contractAddress": null
    }
  ],
  "libraries": [],
  "pending": [],
  "returns": {
    "0": {
      "internal_type": "contract BitcoinPool",
      "value": "0x83dE4c97D1551B55e309DD54C9435849c9eCeC36"
    }
  },
  "timestamp": 1721406101,
  "chain": 137,
  "commit": "e25b34d"
}