{
  "transactions": [
    {
      "hash": "0x2551881e36456422704fa2cffffd3ddd3c9170fc4e3c798b8e5fb21b7ac28b4d",
      "transactionType": "CALL",
      "contractName": null,
      "contractAddress": "0x54aafdbfa2f52a8e5871e14ee2b863ff9c695f19",
      "function": "approve(address,uint256)",
      "arguments": [
        "0xba4e757afB68d26Dd654204507Acb7b451f1a136",
        "2000000000000000000"
      ],
      "transaction": {
        "from": "0x1b395389386f3f2a27866dad8f7ddbb31c392e66",
        "to": "0x54aafdbfa2f52a8e5871e14ee2b863ff9c695f19",
        "gas": "0x1090a",
        "value": "0x0",
        "input": "0x095ea7b3000000000000000000000000ba4e757afb68d26dd654204507acb7b451f1a1360000000000000000000000000000000000000000000000001bc16d674ec80000",
        "nonce": "0x162",
        "chainId": "0x89"
      },
      "additionalContracts": [],
      "isFixedGasLimit": false
    },
    {
      "hash": "0x73378f64c93455b74b48f84cf6350e22d8738c969cc7035780c3cd34cf7a8c85",
      "transactionType": "CALL",
      "contractName": null,
      "contractAddress": "0xc2132d05d31c914a87c6611c10748aeb04b58e8f",
      "function": "approve(address,uint256)",
      "arguments": [
        "0xba4e757afB68d26Dd654204507Acb7b451f1a136",
        "2000000"
      ],
      "transaction": {
        "from": "0x1b395389386f3f2a27866dad8f7ddbb31c392e66",
        "to": "0xc2132d05d31c914a87c6611c10748aeb04b58e8f",
        "gas": "0x11712",
        "value": "0x0",
        "input": "0x095ea7b3000000000000000000000000ba4e757afb68d26dd654204507acb7b451f1a13600000000000000000000000000000000000000000000000000000000001e8480",
        "nonce": "0x163",
        "chainId": "0x89"
      },
      "additionalContracts": [],
      "isFixedGasLimit": false
    },
    {
      "hash": "0x5c227a9cd966ef19010e564bc824d405a3037684e8e2fa58a4dd7ca0e53ae044",
      "transactionType": "CALL",
      "contractName": null,
      "contractAddress": "0xba4e757afb68d26dd654204507acb7b451f1a136",
      "function": "addLiquidity(address,address,uint256,uint256)",
      "arguments": [
        "0x54AafdbFa2f52a8E5871E14EE2b863ff9C695F19",
        "0xc2132D05D31c914a87C6611C10748AEb04B58e8F",
        "2000000000000000000",
        "2000000"
      ],
      "transaction": {
        "from": "0x1b395389386f3f2a27866dad8f7ddbb31c392e66",
        "to": "0xba4e757afb68d26dd654204507acb7b451f1a136",
        "gas": "0x47c51",
        "value": "0x0",
        "input": "0xcf6c62ea00000000000000000000000054aafdbfa2f52a8e5871e14ee2b863ff9c695f19000000000000000000000000c2132d05d31c914a87c6611c10748aeb04b58e8f0000000000000000000000000000000000000000000000001bc16d674ec8000000000000000000000000000000000000000000000000000000000000001e8480",
        "nonce": "0x164",
        "chainId": "0x89"
      },
      "additionalContracts": [],
      "isFixedGasLimit": false
    }
  ],
  "receipts": [
    {
      "status": "0x1",
      "cumulativeGasUsed": "0x307278",
      "logs": [
        {
          "address": "0x54aafdbfa2f52a8e5871e14ee2b863ff9c695f19",
          "topics": [
            "0x8c5be1e5ebec7d5bd14f71427d1e84f3dd0314c0f7b2291e5b200ac8c7c3b925",
            "0x0000000000000000000000001b395389386f3f2a27866dad8f7ddbb31c392e66",
            "0x000000000000000000000000ba4e757afb68d26dd654204507acb7b451f1a136"
          ],
          "data": "0x0000000000000000000000000000000000000000000000001bc16d674ec80000",
          "blockHash": "0x3d8e601e7d5ff6eeaf153425f7a9c0807c56fa4be574c865d1c8c436d96ad79b",
          "blockNumber": "0x3891d76",
          "transactionHash": "0x2551881e36456422704fa2cffffd3ddd3c9170fc4e3c798b8e5fb21b7ac28b4d",
          "transactionIndex": "0x1e",
          "logIndex": "0x74",
          "removed": false
        },
        {
          "address": "0x0000000000000000000000000000000000001010",
          "topics": [
            "0x4dfe1bbbcf077ddc3e01291eea2d5c70c2b422b415d95645b9adcfd678cb1d63",
            "0x0000000000000000000000000000000000000000000000000000000000001010",
            "0x0000000000000000000000001b395389386f3f2a27866dad8f7ddbb31c392e66",
            "0x0000000000000000000000002d21ea6aa718ae1fa72e85ebe4c3d7f1a6775758"
          ],
          "data": "0x0000000000000000000000000000000000000000000000000005c7ad333e7d840000000000000000000000000000000000000000000000007a1d1d2a582b80d600000000000000000000000000000000000000000000000ebec8341bff54b0140000000000000000000000000000000000000000000000007a17557d24ed035200000000000000000000000000000000000000000000000ebecdfbc932932d98",
          "blockHash": "0x3d8e601e7d5ff6eeaf153425f7a9c0807c56fa4be574c865d1c8c436d96ad79b",
          "blockNumber": "0x3891d76",
          "transactionHash": "0x2551881e36456422704fa2cffffd3ddd3c9170fc4e3c798b8e5fb21b7ac28b4d",
          "transactionIndex": "0x1e",
          "logIndex": "0x75",
          "removed": false
        }
      ],
      "logsBloom": "0x00000000000000000000000000000000000000000000000000000000000000000000000000000000000000000004000000008200000000000000000000200010000000000000000000080000000400800004000000000000000100000000000000000000000002000000000000000000000000000000000080010000000000000000000000000000000000000000000000000000000000000000000000000000220000000000000000000000000000020000000000000000000000000000004100000000000000000001000000000000000000000000000000100000000004000010000000000000000001000000000000000000000000000000000000100000",
      "type": "0x2",
      "transactionHash": "0x2551881e36456422704fa2cffffd3ddd3c9170fc4e3c798b8e5fb21b7ac28b4d",
      "transactionIndex": "0x1e",
      "blockHash": "0x3d8e601e7d5ff6eeaf153425f7a9c0807c56fa4be574c865d1c8c436d96ad79b",
      "blockNumber": "0x3891d76",
      "gasUsed": "0xb53a",
      "effectiveGasPrice": "0x82a2f9748",
      "from": "0x1b395389386f3f2a27866dad8f7ddbb31c392e66",
      "to": "0x54aafdbfa2f52a8e5871e14ee2b863ff9c695f19",
      "contractAddress": null
    },
    {
      "status": "0x1",
      "cumulativeGasUsed": "0x313c84",
      "logs": [
        {
          "address": "0xc2132d05d31c914a87c6611c10748aeb04b58e8f",
          "topics": [
            "0x8c5be1e5ebec7d5bd14f71427d1e84f3dd0314c0f7b2291e5b200ac8c7c3b925",
            "0x0000000000000000000000001b395389386f3f2a27866dad8f7ddbb31c392e66",
            "0x000000000000000000000000ba4e757afb68d26dd654204507acb7b451f1a136"
          ],
          "data": "0x00000000000000000000000000000000000000000000000000000000001e8480",
          "blockHash": "0x3d8e601e7d5ff6eeaf153425f7a9c0807c56fa4be574c865d1c8c436d96ad79b",
          "blockNumber": "0x3891d76",
          "transactionHash": "0x73378f64c93455b74b48f84cf6350e22d8738c969cc7035780c3cd34cf7a8c85",
          "transactionIndex": "0x1f",
          "logIndex": "0x76",
          "removed": false
        },
        {
          "address": "0x0000000000000000000000000000000000001010",
          "topics": [
            "0x4dfe1bbbcf077ddc3e01291eea2d5c70c2b422b415d95645b9adcfd678cb1d63",
            "0x0000000000000000000000000000000000000000000000000000000000001010",
            "0x0000000000000000000000001b395389386f3f2a27866dad8f7ddbb31c392e66",
            "0x0000000000000000000000002d21ea6aa718ae1fa72e85ebe4c3d7f1a6775758"
          ],
          "data": "0x000000000000000000000000000000000000000000000000000671ab85ee21f80000000000000000000000000000000000000000000000007a17557d236d528600000000000000000000000000000000000000000000000ebecdfbc932932d980000000000000000000000000000000000000000000000007a10e3d19d7f308e00000000000000000000000000000000000000000000000ebed46d74b8814f90",
          "blockHash": "0x3d8e601e7d5ff6eeaf153425f7a9c0807c56fa4be574c865d1c8c436d96ad79b",
          "blockNumber": "0x3891d76",
          "transactionHash": "0x73378f64c93455b74b48f84cf6350e22d8738c969cc7035780c3cd34cf7a8c85",
          "transactionIndex": "0x1f",
          "logIndex": "0x77",
          "removed": false
        }
      ],
      "logsBloom": "0x00000000000000000000000000000000000000000000000000000000000000000000000000000000000000000000000100008200000000000000000000200010000000000000000000080000000400800004000000000000000100000000000000000000000002000000000000000000000000000000000080010000000000000000000000080000000000000000000000000000000000000000000000000000220000000000000000000000000000020000000000000000000000000000004000000000000000000001000000000000400000000000000000100000000000000010000000000000000001000000000000000000000000000000000000100000",
      "type": "0x2",
      "transactionHash": "0x73378f64c93455b74b48f84cf6350e22d8738c969cc7035780c3cd34cf7a8c85",
      "transactionIndex": "0x1f",
      "blockHash": "0x3d8e601e7d5ff6eeaf153425f7a9c0807c56fa4be574c865d1c8c436d96ad79b",
      "blockNumber": "0x3891d76",
      "gasUsed": "0xca0c",
      "effectiveGasPrice": "0x82a2f9748",
      "from": "0x1b395389386f3f2a27866dad8f7ddbb31c392e66",
      "to": "0xc2132d05d31c914a87c6611c10748aeb04b58e8f",
      "contractAddress": null
    },
    {
      "status": "0x1",
      "cumulativeGasUsed": "0x347be1",
      "logs": [
        {
          "address": "0x54aafdbfa2f52a8e5871e14ee2b863ff9c695f19",
          "topics": [
            "0xddf252ad1be2c89b69c2b068fc378daa952ba7f163c4a11628f55a4df523b3ef",
            "0x0000000000000000000000001b395389386f3f2a27866dad8f7ddbb31c392e66",
            "0x000000000000000000000000ba4e757afb68d26dd654204507acb7b451f1a136"
          ],
          "data": "0x0000000000000000000000000000000000000000000000001bc16d674ec80000",
          "blockHash": "0x3d8e601e7d5ff6eeaf153425f7a9c0807c56fa4be574c865d1c8c436d96ad79b",
          "blockNumber": "0x3891d76",
          "transactionHash": "0x5c227a9cd966ef19010e564bc824d405a3037684e8e2fa58a4dd7ca0e53ae044",
          "transactionIndex": "0x20",
          "logIndex": "0x78",
          "removed": false
        },
        {
          "address": "0xc2132d05d31c914a87c6611c10748aeb04b58e8f",
          "topics": [
            "0xddf252ad1be2c89b69c2b068fc378daa952ba7f163c4a11628f55a4df523b3ef",
            "0x0000000000000000000000001b395389386f3f2a27866dad8f7ddbb31c392e66",
            "0x000000000000000000000000ba4e757afb68d26dd654204507acb7b451f1a136"
          ],
          "data": "0x00000000000000000000000000000000000000000000000000000000001e8480",
          "blockHash": "0x3d8e601e7d5ff6eeaf153425f7a9c0807c56fa4be574c865d1c8c436d96ad79b",
          "blockNumber": "0x3891d76",
          "transactionHash": "0x5c227a9cd966ef19010e564bc824d405a3037684e8e2fa58a4dd7ca0e53ae044",
          "transactionIndex": "0x20",
          "logIndex": "0x79",
          "removed": false
        },
        {
          "address": "0xc2132d05d31c914a87c6611c10748aeb04b58e8f",
          "topics": [
            "0x8c5be1e5ebec7d5bd14f71427d1e84f3dd0314c0f7b2291e5b200ac8c7c3b925",
            "0x0000000000000000000000001b395389386f3f2a27866dad8f7ddbb31c392e66",
            "0x000000000000000000000000ba4e757afb68d26dd654204507acb7b451f1a136"
          ],
          "data": "0x0000000000000000000000000000000000000000000000000000000000000000",
          "blockHash": "0x3d8e601e7d5ff6eeaf153425f7a9c0807c56fa4be574c865d1c8c436d96ad79b",
          "blockNumber": "0x3891d76",
          "transactionHash": "0x5c227a9cd966ef19010e564bc824d405a3037684e8e2fa58a4dd7ca0e53ae044",
          "transactionIndex": "0x20",
          "logIndex": "0x7a",
          "removed": false
        },
        {
          "address": "0x54aafdbfa2f52a8e5871e14ee2b863ff9c695f19",
          "topics": [
            "0x8c5be1e5ebec7d5bd14f71427d1e84f3dd0314c0f7b2291e5b200ac8c7c3b925",
            "0x000000000000000000000000ba4e757afb68d26dd654204507acb7b451f1a136",
            "0x000000000000000000000000a5e0829caced8ffdd4de3c43696c57f7d7a678ff"
          ],
          "data": "0x0000000000000000000000000000000000000000000000001bc16d674ec80000",
          "blockHash": "0x3d8e601e7d5ff6eeaf153425f7a9c0807c56fa4be574c865d1c8c436d96ad79b",
          "blockNumber": "0x3891d76",
          "transactionHash": "0x5c227a9cd966ef19010e564bc824d405a3037684e8e2fa58a4dd7ca0e53ae044",
          "transactionIndex": "0x20",
          "logIndex": "0x7b",
          "removed": false
        },
        {
          "address": "0xc2132d05d31c914a87c6611c10748aeb04b58e8f",
          "topics": [
            "0x8c5be1e5ebec7d5bd14f71427d1e84f3dd0314c0f7b2291e5b200ac8c7c3b925",
            "0x000000000000000000000000ba4e757afb68d26dd654204507acb7b451f1a136",
            "0x000000000000000000000000a5e0829caced8ffdd4de3c43696c57f7d7a678ff"
          ],
          "data": "0x00000000000000000000000000000000000000000000000000000000001e8480",
          "blockHash": "0x3d8e601e7d5ff6eeaf153425f7a9c0807c56fa4be574c865d1c8c436d96ad79b",
          "blockNumber": "0x3891d76",
          "transactionHash": "0x5c227a9cd966ef19010e564bc824d405a3037684e8e2fa58a4dd7ca0e53ae044",
          "transactionIndex": "0x20",
          "logIndex": "0x7c",
          "removed": false
        },
        {
          "address": "0x54aafdbfa2f52a8e5871e14ee2b863ff9c695f19",
          "topics": [
            "0xddf252ad1be2c89b69c2b068fc378daa952ba7f163c4a11628f55a4df523b3ef",
            "0x000000000000000000000000ba4e757afb68d26dd654204507acb7b451f1a136",
            "0x00000000000000000000000082f7a247ceeb62af5c5c8021c1f6dcf83b48a97f"
          ],
          "data": "0x0000000000000000000000000000000000000000000000001b00e8cde0d3a835",
          "blockHash": "0x3d8e601e7d5ff6eeaf153425f7a9c0807c56fa4be574c865d1c8c436d96ad79b",
          "blockNumber": "0x3891d76",
          "transactionHash": "0x5c227a9cd966ef19010e564bc824d405a3037684e8e2fa58a4dd7ca0e53ae044",
          "transactionIndex": "0x20",
          "logIndex": "0x7d",
          "removed": false
        },
        {
          "address": "0xc2132d05d31c914a87c6611c10748aeb04b58e8f",
          "topics": [
            "0xddf252ad1be2c89b69c2b068fc378daa952ba7f163c4a11628f55a4df523b3ef",
            "0x000000000000000000000000ba4e757afb68d26dd654204507acb7b451f1a136",
            "0x00000000000000000000000082f7a247ceeb62af5c5c8021c1f6dcf83b48a97f"
          ],
          "data": "0x00000000000000000000000000000000000000000000000000000000001e8480",
          "blockHash": "0x3d8e601e7d5ff6eeaf153425f7a9c0807c56fa4be574c865d1c8c436d96ad79b",
          "blockNumber": "0x3891d76",
          "transactionHash": "0x5c227a9cd966ef19010e564bc824d405a3037684e8e2fa58a4dd7ca0e53ae044",
          "transactionIndex": "0x20",
          "logIndex": "0x7e",
          "removed": false
        },
        {
          "address": "0xc2132d05d31c914a87c6611c10748aeb04b58e8f",
          "topics": [
            "0x8c5be1e5ebec7d5bd14f71427d1e84f3dd0314c0f7b2291e5b200ac8c7c3b925",
            "0x000000000000000000000000ba4e757afb68d26dd654204507acb7b451f1a136",
            "0x000000000000000000000000a5e0829caced8ffdd4de3c43696c57f7d7a678ff"
          ],
          "data": "0x0000000000000000000000000000000000000000000000000000000000000000",
          "blockHash": "0x3d8e601e7d5ff6eeaf153425f7a9c0807c56fa4be574c865d1c8c436d96ad79b",
          "blockNumber": "0x3891d76",
          "transactionHash": "0x5c227a9cd966ef19010e564bc824d405a3037684e8e2fa58a4dd7ca0e53ae044",
          "transactionIndex": "0x20",
          "logIndex": "0x7f",
          "removed": false
        },
        {
          "address": "0x82f7a247ceeb62af5c5c8021c1f6dcf83b48a97f",
          "topics": [
            "0xddf252ad1be2c89b69c2b068fc378daa952ba7f163c4a11628f55a4df523b3ef",
            "0x0000000000000000000000000000000000000000000000000000000000000000",
            "0x000000000000000000000000ba4e757afb68d26dd654204507acb7b451f1a136"
          ],
          "data": "0x000000000000000000000000000000000000000000000000000001cb2cc4c7b2",
          "blockHash": "0x3d8e601e7d5ff6eeaf153425f7a9c0807c56fa4be574c865d1c8c436d96ad79b",
          "blockNumber": "0x3891d76",
          "transactionHash": "0x5c227a9cd966ef19010e564bc824d405a3037684e8e2fa58a4dd7ca0e53ae044",
          "transactionIndex": "0x20",
          "logIndex": "0x80",
          "removed": false
        },
        {
          "address": "0x82f7a247ceeb62af5c5c8021c1f6dcf83b48a97f",
          "topics": [
            "0x1c411e9a96e071241c2f21f7726b17ae89e3cab4c78be50e062b03a9fffbbad1"
          ],
          "data": "0x0000000000000000000000000000000000000000000000003693b9e20403dfc700000000000000000000000000000000000000000000000000000000003dade5",
          "blockHash": "0x3d8e601e7d5ff6eeaf153425f7a9c0807c56fa4be574c865d1c8c436d96ad79b",
          "blockNumber": "0x3891d76",
          "transactionHash": "0x5c227a9cd966ef19010e564bc824d405a3037684e8e2fa58a4dd7ca0e53ae044",
          "transactionIndex": "0x20",
          "logIndex": "0x81",
          "removed": false
        },
        {
          "address": "0x82f7a247ceeb62af5c5c8021c1f6dcf83b48a97f",
          "topics": [
            "0x4c209b5fc8ad50758f13e2e1088ba56a560dff690a1c6fef26394f4c03821c4f",
            "0x000000000000000000000000a5e0829caced8ffdd4de3c43696c57f7d7a678ff"
          ],
          "data": "0x0000000000000000000000000000000000000000000000001b00e8cde0d3a83500000000000000000000000000000000000000000000000000000000001e8480",
          "blockHash": "0x3d8e601e7d5ff6eeaf153425f7a9c0807c56fa4be574c865d1c8c436d96ad79b",
          "blockNumber": "0x3891d76",
          "transactionHash": "0x5c227a9cd966ef19010e564bc824d405a3037684e8e2fa58a4dd7ca0e53ae044",
          "transactionIndex": "0x20",
          "logIndex": "0x82",
          "removed": false
        },
        {
          "address": "0x0000000000000000000000000000000000001010",
          "topics": [
            "0x4dfe1bbbcf077ddc3e01291eea2d5c70c2b422b415d95645b9adcfd678cb1d63",
            "0x0000000000000000000000000000000000000000000000000000000000001010",
            "0x0000000000000000000000001b395389386f3f2a27866dad8f7ddbb31c392e66",
            "0x0000000000000000000000002d21ea6aa718ae1fa72e85ebe4c3d7f1a6775758"
          ],
          "data": "0x000000000000000000000000000000000000000000000000001a83e7c87c86420000000000000000000000000000000000000000000000007a10e3d19bd36b2600000000000000000000000000000000000000000000000ebed46d74b8814f9000000000000000000000000000000000000000000000000079f65fe9d356e4e400000000000000000000000000000000000000000000000ebeeef15c80fdd5d2",
          "blockHash": "0x3d8e601e7d5ff6eeaf153425f7a9c0807c56fa4be574c865d1c8c436d96ad79b",
          "blockNumber": "0x3891d76",
          "transactionHash": "0x5c227a9cd966ef19010e564bc824d405a3037684e8e2fa58a4dd7ca0e53ae044",
          "transactionIndex": "0x20",
          "logIndex": "0x83",
          "removed": false
        }
      ],
      "logsBloom": "0x0000000000000000000000048000000000000000000000000000000000000100000000000000000000000002000c000100008200000000000000000000200010200000000000000000080008000400800004000000000000000100000000000000000000020082000000000000000801000000000008000080010010000000800000010000080000000000000000000000000000000000080000000000000000220000000000000000000000000000020000000000000000000000002000004100000002000000000001000000020000400000000000001000100000000024000010000000000000000001000000000000000000000000000000000000100000",
      "type": "0x2",
      "transactionHash": "0x5c227a9cd966ef19010e564bc824d405a3037684e8e2fa58a4dd7ca0e53ae044",
      "transactionIndex": "0x20",
      "blockHash": "0x3d8e601e7d5ff6eeaf153425f7a9c0807c56fa4be574c865d1c8c436d96ad79b",
      "blockNumber": "0x3891d76",
      "gasUsed": "0x33f5d",
      "effectiveGasPrice": "0x82a2f9748",
      "from": "0x1b395389386f3f2a27866dad8f7ddbb31c392e66",
      "to": "0xba4e757afb68d26dd654204507acb7b451f1a136",
      "contractAddress": null
    }
  ],
  "libraries": [],
  "pending": [],
  "returns": {
    "0": {
      "internal_type": "contract UniswapLiquidityPool",
      "value": "0xba4e757afB68d26Dd654204507Acb7b451f1a136"
    }
  },
  "timestamp": 1720891132,
  "chain": 137,
  "commit": "6523bd8"
}