{
  "transactions": [
    {
      "hash": "0xec08de92ba0f8c0d7bc8610cbf378805c6cd2a85eeb87fbd10ceee1f320ba531",
      "transactionType": "CALL",
      "contractName": null,
      "contractAddress": "0xba4e757afb68d26dd654204507acb7b451f1a136",
      "function": "removeLiquidity(address,address)",
      "arguments": [
        "0x54AafdbFa2f52a8E5871E14EE2b863ff9C695F19",
        "0xc2132D05D31c914a87C6611C10748AEb04B58e8F"
      ],
      "transaction": {
        "from": "0x1b395389386f3f2a27866dad8f7ddbb31c392e66",
        "to": "0xba4e757afb68d26dd654204507acb7b451f1a136",
        "gas": "0x37d4d",
        "value": "0x0",
        "input": "0x9cf38f7c00000000000000000000000054aafdbfa2f52a8e5871e14ee2b863ff9c695f19000000000000000000000000c2132d05d31c914a87c6611c10748aeb04b58e8f",
        "nonce": "0x176",
        "chainId": "0x89"
      },
      "additionalContracts": [],
      "isFixedGasLimit": false
    },
    {
      "hash": "0xae303cb9667f5c1a6a5a7a3f070020883ab9b9cf4e7c37844e31e1f8b8c12653",
      "transactionType": "CALL",
      "contractName": null,
      "contractAddress": "0xba4e757afb68d26dd654204507acb7b451f1a136",
      "function": "withdrawAllERC20(address)",
      "arguments": [
        "0xc2132D05D31c914a87C6611C10748AEb04B58e8F"
      ],
      "transaction": {
        "from": "0x1b395389386f3f2a27866dad8f7ddbb31c392e66",
        "to": "0xba4e757afb68d26dd654204507acb7b451f1a136",
        "gas": "0xf2e0",
        "value": "0x0",
        "input": "0x857abbd4000000000000000000000000c2132d05d31c914a87c6611c10748aeb04b58e8f",
        "nonce": "0x177",
        "chainId": "0x89"
      },
      "additionalContracts": [],
      "isFixedGasLimit": false
    }
  ],
  "receipts": [
    {
      "status": "0x1",
      "cumulativeGasUsed": "0xb7ebad",
      "logs": [
        {
          "address": "0x82f7a247ceeb62af5c5c8021c1f6dcf83b48a97f",
          "topics": [
            "0x8c5be1e5ebec7d5bd14f71427d1e84f3dd0314c0f7b2291e5b200ac8c7c3b925",
            "0x000000000000000000000000ba4e757afb68d26dd654204507acb7b451f1a136",
            "0x000000000000000000000000a5e0829caced8ffdd4de3c43696c57f7d7a678ff"
          ],
          "data": "0x000000000000000000000000000000000000000000000000000004bd4800ba36",
          "blockHash": "0xc57b0bbde4da5e224307d7d27605701a91a32214c1de513a7128435759d17093",
          "blockNumber": "0x38c1e51",
          "transactionHash": "0xec08de92ba0f8c0d7bc8610cbf378805c6cd2a85eeb87fbd10ceee1f320ba531",
          "transactionIndex": "0x50",
          "logIndex": "0x1a6",
          "removed": false
        },
        {
          "address": "0x82f7a247ceeb62af5c5c8021c1f6dcf83b48a97f",
          "topics": [
            "0xddf252ad1be2c89b69c2b068fc378daa952ba7f163c4a11628f55a4df523b3ef",
            "0x000000000000000000000000ba4e757afb68d26dd654204507acb7b451f1a136",
            "0x00000000000000000000000082f7a247ceeb62af5c5c8021c1f6dcf83b48a97f"
          ],
          "data": "0x000000000000000000000000000000000000000000000000000004bd4800ba36",
          "blockHash": "0xc57b0bbde4da5e224307d7d27605701a91a32214c1de513a7128435759d17093",
          "blockNumber": "0x38c1e51",
          "transactionHash": "0xec08de92ba0f8c0d7bc8610cbf378805c6cd2a85eeb87fbd10ceee1f320ba531",
          "transactionIndex": "0x50",
          "logIndex": "0x1a7",
          "removed": false
        },
        {
          "address": "0x82f7a247ceeb62af5c5c8021c1f6dcf83b48a97f",
          "topics": [
            "0xddf252ad1be2c89b69c2b068fc378daa952ba7f163c4a11628f55a4df523b3ef",
            "0x0000000000000000000000000000000000000000000000000000000000000000",
            "0x000000000000000000000000bc88c6edc57562e03a7d2e1c56ce707bbb462668"
          ],
          "data": "0x000000000000000000000000000000000000000000000000000000000b5c35b4",
          "blockHash": "0xc57b0bbde4da5e224307d7d27605701a91a32214c1de513a7128435759d17093",
          "blockNumber": "0x38c1e51",
          "transactionHash": "0xec08de92ba0f8c0d7bc8610cbf378805c6cd2a85eeb87fbd10ceee1f320ba531",
          "transactionIndex": "0x50",
          "logIndex": "0x1a8",
          "removed": false
        },
        {
          "address": "0x82f7a247ceeb62af5c5c8021c1f6dcf83b48a97f",
          "topics": [
            "0xddf252ad1be2c89b69c2b068fc378daa952ba7f163c4a11628f55a4df523b3ef",
            "0x00000000000000000000000082f7a247ceeb62af5c5c8021c1f6dcf83b48a97f",
            "0x0000000000000000000000000000000000000000000000000000000000000000"
          ],
          "data": "0x000000000000000000000000000000000000000000000000000004bd4800ba36",
          "blockHash": "0xc57b0bbde4da5e224307d7d27605701a91a32214c1de513a7128435759d17093",
          "blockNumber": "0x38c1e51",
          "transactionHash": "0xec08de92ba0f8c0d7bc8610cbf378805c6cd2a85eeb87fbd10ceee1f320ba531",
          "transactionIndex": "0x50",
          "logIndex": "0x1a9",
          "removed": false
        },
        {
          "address": "0x54aafdbfa2f52a8e5871e14ee2b863ff9c695f19",
          "topics": [
            "0xddf252ad1be2c89b69c2b068fc378daa952ba7f163c4a11628f55a4df523b3ef",
            "0x00000000000000000000000082f7a247ceeb62af5c5c8021c1f6dcf83b48a97f",
            "0x000000000000000000000000ba4e757afb68d26dd654204507acb7b451f1a136"
          ],
          "data": "0x0000000000000000000000000000000000000000000000005ee807bdc50c4669",
          "blockHash": "0xc57b0bbde4da5e224307d7d27605701a91a32214c1de513a7128435759d17093",
          "blockNumber": "0x38c1e51",
          "transactionHash": "0xec08de92ba0f8c0d7bc8610cbf378805c6cd2a85eeb87fbd10ceee1f320ba531",
          "transactionIndex": "0x50",
          "logIndex": "0x1aa",
          "removed": false
        },
        {
          "address": "0xc2132d05d31c914a87c6611c10748aeb04b58e8f",
          "topics": [
            "0xddf252ad1be2c89b69c2b068fc378daa952ba7f163c4a11628f55a4df523b3ef",
            "0x00000000000000000000000082f7a247ceeb62af5c5c8021c1f6dcf83b48a97f",
            "0x000000000000000000000000ba4e757afb68d26dd654204507acb7b451f1a136"
          ],
          "data": "0x00000000000000000000000000000000000000000000000000000000003caa06",
          "blockHash": "0xc57b0bbde4da5e224307d7d27605701a91a32214c1de513a7128435759d17093",
          "blockNumber": "0x38c1e51",
          "transactionHash": "0xec08de92ba0f8c0d7bc8610cbf378805c6cd2a85eeb87fbd10ceee1f320ba531",
          "transactionIndex": "0x50",
          "logIndex": "0x1ab",
          "removed": false
        },
        {
          "address": "0x82f7a247ceeb62af5c5c8021c1f6dcf83b48a97f",
          "topics": [
            "0x1c411e9a96e071241c2f21f7726b17ae89e3cab4c78be50e062b03a9fffbbad1"
          ],
          "data": "0x0000000000000000000000000000000000000000000000001239712a23ea4fcf00000000000000000000000000000000000000000000000000000000000ba627",
          "blockHash": "0xc57b0bbde4da5e224307d7d27605701a91a32214c1de513a7128435759d17093",
          "blockNumber": "0x38c1e51",
          "transactionHash": "0xec08de92ba0f8c0d7bc8610cbf378805c6cd2a85eeb87fbd10ceee1f320ba531",
          "transactionIndex": "0x50",
          "logIndex": "0x1ac",
          "removed": false
        },
        {
          "address": "0x82f7a247ceeb62af5c5c8021c1f6dcf83b48a97f",
          "topics": [
            "0xdccd412f0b1252819cb1fd330b93224ca42612892bb3f4f789976e6d81936496",
            "0x000000000000000000000000a5e0829caced8ffdd4de3c43696c57f7d7a678ff",
            "0x000000000000000000000000ba4e757afb68d26dd654204507acb7b451f1a136"
          ],
          "data": "0x0000000000000000000000000000000000000000000000005ee807bdc50c466900000000000000000000000000000000000000000000000000000000003caa06",
          "blockHash": "0xc57b0bbde4da5e224307d7d27605701a91a32214c1de513a7128435759d17093",
          "blockNumber": "0x38c1e51",
          "transactionHash": "0xec08de92ba0f8c0d7bc8610cbf378805c6cd2a85eeb87fbd10ceee1f320ba531",
          "transactionIndex": "0x50",
          "logIndex": "0x1ad",
          "removed": false
        },
        {
          "address": "0x0000000000000000000000000000000000001010",
          "topics": [
            "0x4dfe1bbbcf077ddc3e01291eea2d5c70c2b422b415d95645b9adcfd678cb1d63",
            "0x0000000000000000000000000000000000000000000000000000000000001010",
            "0x0000000000000000000000001b395389386f3f2a27866dad8f7ddbb31c392e66",
            "0x0000000000000000000000001b0840519a581f3779d0a10b77593d6d3894a76a"
          ],
          "data": "0x000000000000000000000000000000000000000000000000001761b5da00c2750000000000000000000000000000000000000000000000007933db2c78130501000000000000000000000000000000000000000000002ff65348eb66d09f36b5000000000000000000000000000000000000000000000000791c79769e12428c000000000000000000000000000000000000000000002ff653604d1caa9ff92a",
          "blockHash": "0xc57b0bbde4da5e224307d7d27605701a91a32214c1de513a7128435759d17093",
          "blockNumber": "0x38c1e51",
          "transactionHash": "0xec08de92ba0f8c0d7bc8610cbf378805c6cd2a85eeb87fbd10ceee1f320ba531",
          "transactionIndex": "0x50",
          "logIndex": "0x1ae",
          "removed": false
        }
      ],
      "logsBloom": "0x0000000000000000000000048002000000000000000000000000000000000000000000000000000000000002000c000100008000000000000000000000200000200000000000000000080008000400800004000000000000000100000000000000000006020082000000000004000801000000000000000080010010000000800000010000088000000000000000080000000000000000080000000000000000220200000000004000000000000000020000000000000000000000002000004100000002000000000001000000000000400000000000001000100000000024000010000000000000000000100000000000000000000000000000000000100000",
      "type": "0x2",
      "transactionHash": "0xec08de92ba0f8c0d7bc8610cbf378805c6cd2a85eeb87fbd10ceee1f320ba531",
      "transactionIndex": "0x50",
      "blockHash": "0xc57b0bbde4da5e224307d7d27605701a91a32214c1de513a7128435759d17093",
      "blockNumber": "0x38c1e51",
      "gasUsed": "0x286bd",
      "effectiveGasPrice": "0x944b142a5",
      "from": "0x1b395389386f3f2a27866dad8f7ddbb31c392e66",
      "to": "0xba4e757afb68d26dd654204507acb7b451f1a136",
      "contractAddress": null
    },
    {
      "status": "0x1",
      "cumulativeGasUsed": "0xb891bf",
      "logs": [
        {
          "address": "0xc2132d05d31c914a87c6611c10748aeb04b58e8f",
          "topics": [
            "0xddf252ad1be2c89b69c2b068fc378daa952ba7f163c4a11628f55a4df523b3ef",
            "0x000000000000000000000000ba4e757afb68d26dd654204507acb7b451f1a136",
            "0x0000000000000000000000001b395389386f3f2a27866dad8f7ddbb31c392e66"
          ],
          "data": "0x0000000000000000000000000000000000000000000000000000000000531807",
          "blockHash": "0xc57b0bbde4da5e224307d7d27605701a91a32214c1de513a7128435759d17093",
          "blockNumber": "0x38c1e51",
          "transactionHash": "0xae303cb9667f5c1a6a5a7a3f070020883ab9b9cf4e7c37844e31e1f8b8c12653",
          "transactionIndex": "0x51",
          "logIndex": "0x1af",
          "removed": false
        },
        {
          "address": "0x0000000000000000000000000000000000001010",
          "topics": [
            "0x4dfe1bbbcf077ddc3e01291eea2d5c70c2b422b415d95645b9adcfd678cb1d63",
            "0x0000000000000000000000000000000000000000000000000000000000001010",
            "0x0000000000000000000000001b395389386f3f2a27866dad8f7ddbb31c392e66",
            "0x0000000000000000000000001b0840519a581f3779d0a10b77593d6d3894a76a"
          ],
          "data": "0x00000000000000000000000000000000000000000000000000060104c5339bc2000000000000000000000000000000000000000000000000791c70fd73087330000000000000000000000000000000000000000000002ff653604d1caa9ff92a00000000000000000000000000000000000000000000000079166ff8add4d76e000000000000000000000000000000000000000000002ff653664e216fd394ec",
          "blockHash": "0xc57b0bbde4da5e224307d7d27605701a91a32214c1de513a7128435759d17093",
          "blockNumber": "0x38c1e51",
          "transactionHash": "0xae303cb9667f5c1a6a5a7a3f070020883ab9b9cf4e7c37844e31e1f8b8c12653",
          "transactionIndex": "0x51",
          "logIndex": "0x1b0",
          "removed": false
        }
      ],
      "logsBloom": "0x00000000000000000000000000020000000000000000000000000000000000000000000000000000000000000000000100008000000000000000000000000000000000000000000000080008000400800004000000000000000100000000000000000000000002000000000000000000000000000000000080010010000000000000000000088000000000000000000000000000000000000000000000000000200000000000000000000000000000020000000000000000000000000000004000000002000000000001000000000000400000000000000000100000000000000000000000000000000000100000000000000000000000000000000000100000",
      "type": "0x2",
      "transactionHash": "0xae303cb9667f5c1a6a5a7a3f070020883ab9b9cf4e7c37844e31e1f8b8c12653",
      "transactionIndex": "0x51",
      "blockHash": "0xc57b0bbde4da5e224307d7d27605701a91a32214c1de513a7128435759d17093",
      "blockNumber": "0x38c1e51",
      "gasUsed": "0xa612",
      "effectiveGasPrice": "0x944b142a5",
      "from": "0x1b395389386f3f2a27866dad8f7ddbb31c392e66",
      "to": "0xba4e757afb68d26dd654204507acb7b451f1a136",
      "contractAddress": null
    }
  ],
  "libraries": [],
  "pending": [],
  "returns": {
    "0": {
      "internal_type": "contract UniswapLiquidityPool",
      "value": "0xba4e757afB68d26Dd654204507Acb7b451f1a136"
    }
  },
  "timestamp": 1721315699,
  "chain": 137,
  "commit": "6523bd8"
}