{
  "transactions": [
    {
      "hash": "0x094008666d60a98372db711491efe16f1e2b88efc78dd5f3edb36e8584b3b53e",
      "transactionType": "CREATE",
      "contractName": "UniswapLiquidityPool",
      "contractAddress": "0x6aa01a2b0ba21a61ef85c9c7d65895816680544f",
      "function": null,
      "arguments": null,
      "transaction": {
        "from": "0x1b395389386f3f2a27866dad8f7ddbb31c392e66",
        "gas": "0xc2cf5",
        "value": "0x0",
        "input": "0x608060405234801561001057600080fd5b50338061003757604051631e4fbdf760e01b81526000600482015260240160405180910390fd5b61004081610046565b50610096565b600080546001600160a01b038381166001600160a01b0319831681178455604051919092169283917f8be0079c531659141344cd1fd0a4f28419497f9722a3daafe3b4186f6b6457e09190a35050565b6109ad806100a56000396000f3fe608060405234801561001057600080fd5b50600436106100885760003560e01c8063c9c653961161005b578063c9c65396146100e6578063cf6c62ea146100f9578063e6a439051461010c578063f2fde38b1461011f57600080fd5b8063715018a61461008d578063857abbd4146100975780638da5cb5b146100aa5780639cf38f7c146100d3575b600080fd5b610095610132565b005b6100956100a5366004610831565b610146565b6000546001600160a01b03165b6040516001600160a01b03909116815260200160405180910390f35b6100956100e136600461084e565b610233565b6100956100f436600461084e565b61046e565b610095610107366004610887565b6104f9565b6100b761011a36600461084e565b6106ce565b61009561012d366004610831565b61075c565b61013a61079f565b61014460006107cc565b565b61014e61079f565b6040516370a0823160e01b81523060048201526001600160a01b0382169063a9059cbb90339083906370a0823190602401602060405180830381865afa15801561019c573d6000803e3d6000fd5b505050506040513d601f19601f820116820180604052508101906101c091906108cd565b6040516001600160e01b031960e085901b1681526001600160a01b03909216600483015260248201526044016020604051808303816000875af115801561020b573d6000803e3d6000fd5b505050506040513d601f19601f8201168201806040525081019061022f91906108e6565b5050565b61023b61079f565b60405163e6a4390560e01b81526001600160a01b03808416600483015282166024820152600090735757371414417b8c6caad45baef941abc7d3ab329063e6a4390590604401602060405180830381865afa15801561029e573d6000803e3d6000fd5b505050506040513d601f19601f820116820180604052508101906102c29190610908565b6040516370a0823160e01b81523060048201529091506000906001600160a01b038316906370a0823190602401602060405180830381865afa15801561030c573d6000803e3d6000fd5b505050506040513d601f19601f8201168201806040525081019061033091906108cd565b60405163095ea7b360e01b815273a5e0829caced8ffdd4de3c43696c57f7d7a678ff6004820152602481018290529091506001600160a01b0383169063095ea7b3906044016020604051808303816000875af1158015610394573d6000803e3d6000fd5b505050506040513d601f19601f820116820180604052508101906103b891906108e6565b50604051635d5155ef60e11b81526001600160a01b038086166004830152841660248201526044810182905260016064820181905260848201523060a48201524260c4820152600090819073a5e0829caced8ffdd4de3c43696c57f7d7a678ff9063baa2abde9060e40160408051808303816000875af1158015610440573d6000803e3d6000fd5b505050506040513d601f19601f820116820180604052508101906104649190610925565b5050505050505050565b6040516364e329cb60e11b81526001600160a01b03808416600483015282166024820152735757371414417b8c6caad45baef941abc7d3ab329063c9c65396906044016020604051808303816000875af11580156104d0573d6000803e3d6000fd5b505050506040513d601f19601f820116820180604052508101906104f49190610908565b505050565b61050161079f565b60405163095ea7b360e01b815273a5e0829caced8ffdd4de3c43696c57f7d7a678ff6004820152602481018390526001600160a01b0385169063095ea7b3906044016020604051808303816000875af1158015610562573d6000803e3d6000fd5b505050506040513d601f19601f8201168201806040525081019061058691906108e6565b5060405163095ea7b360e01b815273a5e0829caced8ffdd4de3c43696c57f7d7a678ff6004820152602481018290526001600160a01b0384169063095ea7b3906044016020604051808303816000875af11580156105e8573d6000803e3d6000fd5b505050506040513d601f19601f8201168201806040525081019061060c91906108e6565b5060405162e8e33760e81b81526001600160a01b03808616600483015284166024820152604481018390526064810182905260016084820181905260a48201523060c48201524260e48201526000908190819073a5e0829caced8ffdd4de3c43696c57f7d7a678ff9063e8e3370090610104016060604051808303816000875af115801561069e573d6000803e3d6000fd5b505050506040513d601f19601f820116820180604052508101906106c29190610949565b50505050505050505050565b60405163e6a4390560e01b81526001600160a01b03808416600483015282166024820152600090735757371414417b8c6caad45baef941abc7d3ab329063e6a4390590604401602060405180830381865afa158015610731573d6000803e3d6000fd5b505050506040513d601f19601f820116820180604052508101906107559190610908565b9392505050565b61076461079f565b6001600160a01b03811661079357604051631e4fbdf760e01b8152600060048201526024015b60405180910390fd5b61079c816107cc565b50565b6000546001600160a01b031633146101445760405163118cdaa760e01b815233600482015260240161078a565b600080546001600160a01b038381166001600160a01b0319831681178455604051919092169283917f8be0079c531659141344cd1fd0a4f28419497f9722a3daafe3b4186f6b6457e09190a35050565b6001600160a01b038116811461079c57600080fd5b60006020828403121561084357600080fd5b81356107558161081c565b6000806040838503121561086157600080fd5b823561086c8161081c565b9150602083013561087c8161081c565b809150509250929050565b6000806000806080858703121561089d57600080fd5b84356108a88161081c565b935060208501356108b88161081c565b93969395505050506040820135916060013590565b6000602082840312156108df57600080fd5b5051919050565b6000602082840312156108f857600080fd5b8151801515811461075557600080fd5b60006020828403121561091a57600080fd5b81516107558161081c565b6000806040838503121561093857600080fd5b505080516020909101519092909150565b60008060006060848603121561095e57600080fd5b835192506020840151915060408401519050925092509256fea2646970667358221220f469b97c1349f53e7bccad9b2ccfcde641b6ce924b7e1585aa8885b1199206e064736f6c63430008140033",
        "nonce": "0x136",
        "chainId": "0x89"
      },
      "additionalContracts": [],
      "isFixedGasLimit": false
    },
    {
      "hash": "0xf224a31cd8e56ec4f8f1c8efc9707eafd2ab1fdc443dc5cfd36b642e67151ace",
      "transactionType": "CALL",
      "contractName": null,
      "contractAddress": "0x54aafdbfa2f52a8e5871e14ee2b863ff9c695f19",
      "function": "transfer(address,uint256)",
      "arguments": [
        "0x6Aa01A2B0BA21a61EF85C9c7D65895816680544F",
        "1000000000000000001"
      ],
      "transaction": {
        "from": "0x1b395389386f3f2a27866dad8f7ddbb31c392e66",
        "to": "0x54aafdbfa2f52a8e5871e14ee2b863ff9c695f19",
        "gas": "0x121ff",
        "value": "0x0",
        "input": "0xa9059cbb0000000000000000000000006aa01a2b0ba21a61ef85c9c7d65895816680544f0000000000000000000000000000000000000000000000000de0b6b3a7640001",
        "nonce": "0x137",
        "chainId": "0x89"
      },
      "additionalContracts": [],
      "isFixedGasLimit": false
    },
    {
      "hash": "0x5ec2a4eed092eea437f089534fc81fff1e8ddc19608cb30ff63cda7381625c70",
      "transactionType": "CALL",
      "contractName": null,
      "contractAddress": "0x54aafdbfa2f52a8e5871e14ee2b863ff9c695f19",
      "function": "mint(address,uint256)",
      "arguments": [
        "0x6Aa01A2B0BA21a61EF85C9c7D65895816680544F",
        "1000000000000000001"
      ],
      "transaction": {
        "from": "0x1b395389386f3f2a27866dad8f7ddbb31c392e66",
        "to": "0x54aafdbfa2f52a8e5871e14ee2b863ff9c695f19",
        "gas": "0xd0ec",
        "value": "0x0",
        "input": "0x40c10f190000000000000000000000006aa01a2b0ba21a61ef85c9c7d65895816680544f0000000000000000000000000000000000000000000000000de0b6b3a7640001",
        "nonce": "0x138",
        "chainId": "0x89"
      },
      "additionalContracts": [],
      "isFixedGasLimit": false
    }
  ],
  "receipts": [
    {
      "status": "0x1",
      "cumulativeGasUsed": "0x13d4072",
      "logs": [
        {
          "address": "0x6aa01a2b0ba21a61ef85c9c7d65895816680544f",
          "topics": [
            "0x8be0079c531659141344cd1fd0a4f28419497f9722a3daafe3b4186f6b6457e0",
            "0x0000000000000000000000000000000000000000000000000000000000000000",
            "0x0000000000000000000000001b395389386f3f2a27866dad8f7ddbb31c392e66"
          ],
          "data": "0x",
          "blockHash": "0x6490876d0b6c74ef9ade27892ce6c960a89c643d902bfec74be1e9ce8ef4f694",
          "blockNumber": "0x37c60f5",
          "transactionHash": "0x094008666d60a98372db711491efe16f1e2b88efc78dd5f3edb36e8584b3b53e",
          "transactionIndex": "0x3e",
          "logIndex": "0x110",
          "removed": false
        },
        {
          "address": "0x0000000000000000000000000000000000001010",
          "topics": [
            "0x4dfe1bbbcf077ddc3e01291eea2d5c70c2b422b415d95645b9adcfd678cb1d63",
            "0x0000000000000000000000000000000000000000000000000000000000001010",
            "0x0000000000000000000000001b395389386f3f2a27866dad8f7ddbb31c392e66",
            "0x000000000000000000000000eedba2484aaf940f37cd3cd21a5d7c4a7dafbfc0"
          ],
          "data": "0x00000000000000000000000000000000000000000000000000416ffdf42a14000000000000000000000000000000000000000000000000007e4afc1f064320f800000000000000000000000000000000000000000001380adf3189e56439d2c50000000000000000000000000000000000000000000000007e098c2112190cf800000000000000000000000000000000000000000001380adf72f9e35863e6c5",
          "blockHash": "0x6490876d0b6c74ef9ade27892ce6c960a89c643d902bfec74be1e9ce8ef4f694",
          "blockNumber": "0x37c60f5",
          "transactionHash": "0x094008666d60a98372db711491efe16f1e2b88efc78dd5f3edb36e8584b3b53e",
          "transactionIndex": "0x3e",
          "logIndex": "0x111",
          "removed": false
        }
      ],
      "logsBloom": "0x00000000000000000000000000000000000000000000000000800000000000000000000000000000000000000000000000008000000000000000000000000000000000000000000000080000000000800005000000000000000100000000000000000000020002000000000000000800000000000100000080000000000000400000004000000000000000000000000000000000000000000000000000010000200000000000000000000000000000000000000000000000000020000000004000000000000000000001000000000000000000000010000000100000000020000000000000000000000000000000000000000002000000000000000000100000",
      "type": "0x2",
      "transactionHash": "0x094008666d60a98372db711491efe16f1e2b88efc78dd5f3edb36e8584b3b53e",
      "transactionIndex": "0x3e",
      "blockHash": "0x6490876d0b6c74ef9ade27892ce6c960a89c643d902bfec74be1e9ce8ef4f694",
      "blockNumber": "0x37c60f5",
      "gasUsed": "0x95e4f",
      "effectiveGasPrice": "0x6fc23ac21",
      "from": "0x1b395389386f3f2a27866dad8f7ddbb31c392e66",
      "to": null,
      "contractAddress": "0x6aa01a2b0ba21a61ef85c9c7d65895816680544f"
    },
    {
      "status": "0x1",
      "cumulativeGasUsed": "0x13e1266",
      "logs": [
        {
          "address": "0x54aafdbfa2f52a8e5871e14ee2b863ff9c695f19",
          "topics": [
            "0xddf252ad1be2c89b69c2b068fc378daa952ba7f163c4a11628f55a4df523b3ef",
            "0x0000000000000000000000001b395389386f3f2a27866dad8f7ddbb31c392e66",
            "0x0000000000000000000000006aa01a2b0ba21a61ef85c9c7d65895816680544f"
          ],
          "data": "0x0000000000000000000000000000000000000000000000000de0b6b3a7640001",
          "blockHash": "0x6490876d0b6c74ef9ade27892ce6c960a89c643d902bfec74be1e9ce8ef4f694",
          "blockNumber": "0x37c60f5",
          "transactionHash": "0xf224a31cd8e56ec4f8f1c8efc9707eafd2ab1fdc443dc5cfd36b642e67151ace",
          "transactionIndex": "0x3f",
          "logIndex": "0x112",
          "removed": false
        },
        {
          "address": "0x0000000000000000000000000000000000001010",
          "topics": [
            "0x4dfe1bbbcf077ddc3e01291eea2d5c70c2b422b415d95645b9adcfd678cb1d63",
            "0x0000000000000000000000000000000000000000000000000000000000001010",
            "0x0000000000000000000000001b395389386f3f2a27866dad8f7ddbb31c392e66",
            "0x000000000000000000000000eedba2484aaf940f37cd3cd21a5d7c4a7dafbfc0"
          ],
          "data": "0x0000000000000000000000000000000000000000000000000005ba81716bf0000000000000000000000000000000000000000000000000007e098c2110e3e4c900000000000000000000000000000000000000000001380adf72f9e35863e6c50000000000000000000000000000000000000000000000007e03d19f9f77f4c900000000000000000000000000000000000000000001380adf78b464c9cfd6c5",
          "blockHash": "0x6490876d0b6c74ef9ade27892ce6c960a89c643d902bfec74be1e9ce8ef4f694",
          "blockNumber": "0x37c60f5",
          "transactionHash": "0xf224a31cd8e56ec4f8f1c8efc9707eafd2ab1fdc443dc5cfd36b642e67151ace",
          "transactionIndex": "0x3f",
          "logIndex": "0x113",
          "removed": false
        }
      ],
      "logsBloom": "0x00000000000000000000000000000000000000000000000000000000000000000000000000000000000000000004000000008000000000000000000000000000000000000000000000080008000000800004000000000000000100000000000000000000000002000000000000000000000040000100000080000210000000000000004000000000000000000000000000000080000000000000000000000000200000000000000000000000000000000000000000000000000020000000004100000002000000000001000000000000000000000000000000100000000004000000000000000000000000000000000000000000000000000000000000100000",
      "type": "0x2",
      "transactionHash": "0xf224a31cd8e56ec4f8f1c8efc9707eafd2ab1fdc443dc5cfd36b642e67151ace",
      "transactionIndex": "0x3f",
      "blockHash": "0x6490876d0b6c74ef9ade27892ce6c960a89c643d902bfec74be1e9ce8ef4f694",
      "blockNumber": "0x37c60f5",
      "gasUsed": "0xd1f4",
      "effectiveGasPrice": "0x6fc23ac21",
      "from": "0x1b395389386f3f2a27866dad8f7ddbb31c392e66",
      "to": "0x54aafdbfa2f52a8e5871e14ee2b863ff9c695f19",
      "contractAddress": null
    },
    {
      "status": "0x1",
      "cumulativeGasUsed": "0x13ea141",
      "logs": [
        {
          "address": "0x54aafdbfa2f52a8e5871e14ee2b863ff9c695f19",
          "topics": [
            "0xddf252ad1be2c89b69c2b068fc378daa952ba7f163c4a11628f55a4df523b3ef",
            "0x0000000000000000000000000000000000000000000000000000000000000000",
            "0x0000000000000000000000006aa01a2b0ba21a61ef85c9c7d65895816680544f"
          ],
          "data": "0x0000000000000000000000000000000000000000000000000de0b6b3a7640001",
          "blockHash": "0x6490876d0b6c74ef9ade27892ce6c960a89c643d902bfec74be1e9ce8ef4f694",
          "blockNumber": "0x37c60f5",
          "transactionHash": "0x5ec2a4eed092eea437f089534fc81fff1e8ddc19608cb30ff63cda7381625c70",
          "transactionIndex": "0x40",
          "logIndex": "0x114",
          "removed": false
        },
        {
          "address": "0x0000000000000000000000000000000000001010",
          "topics": [
            "0x4dfe1bbbcf077ddc3e01291eea2d5c70c2b422b415d95645b9adcfd678cb1d63",
            "0x0000000000000000000000000000000000000000000000000000000000001010",
            "0x0000000000000000000000001b395389386f3f2a27866dad8f7ddbb31c392e66",
            "0x000000000000000000000000eedba2484aaf940f37cd3cd21a5d7c4a7dafbfc0"
          ],
          "data": "0x0000000000000000000000000000000000000000000000000003e5d57bec24000000000000000000000000000000000000000000000000007e03d19f9f5ce45500000000000000000000000000000000000000000001380adf78b464c9cfd6c50000000000000000000000000000000000000000000000007dffebca2370c05500000000000000000000000000000000000000000001380adf7c9a3a45bbfac5",
          "blockHash": "0x6490876d0b6c74ef9ade27892ce6c960a89c643d902bfec74be1e9ce8ef4f694",
          "blockNumber": "0x37c60f5",
          "transactionHash": "0x5ec2a4eed092eea437f089534fc81fff1e8ddc19608cb30ff63cda7381625c70",
          "transactionIndex": "0x40",
          "logIndex": "0x115",
          "removed": false
        }
      ],
      "logsBloom": "0x00000000000000000000000000000000000000000000000000000000000000000000000000000000000000000004000000008000000000000000000000000000000000000000000000080008000000800004000000000000000100000000000000000000020002000000000000000800000040000100000080000210000000000000004000000000000000000000000000000080000000000000000000000000200000000000000000000000000000000000000000000000000020000000004100000002000000000001000000000000000000000000000000100000000024000000000000000000000000000000000000000000000000000000000000100000",
      "type": "0x2",
      "transactionHash": "0x5ec2a4eed092eea437f089534fc81fff1e8ddc19608cb30ff63cda7381625c70",
      "transactionIndex": "0x40",
      "blockHash": "0x6490876d0b6c74ef9ade27892ce6c960a89c643d902bfec74be1e9ce8ef4f694",
      "blockNumber": "0x37c60f5",
      "gasUsed": "0x8edb",
      "effectiveGasPrice": "0x6fc23ac21",
      "from": "0x1b395389386f3f2a27866dad8f7ddbb31c392e66",
      "to": "0x54aafdbfa2f52a8e5871e14ee2b863ff9c695f19",
      "contractAddress": null
    }
  ],
  "libraries": [],
  "pending": [],
  "returns": {
    "0": {
      "internal_type": "contract UniswapLiquidityPool",
      "value": "0x6Aa01A2B0BA21a61EF85C9c7D65895816680544F"
    }
  },
  "timestamp": 1719088234,
  "chain": 137,
  "commit": "7bcf4cf"
}