{
  "transactions": [
    {
      "hash": "0xd25975482792d98e3563b5fc512e7f1a641a6083c54bc972ca452257c1e1a5ef",
      "transactionType": "CREATE",
      "contractName": "UniswapLiquidityPool",
      "contractAddress": "0x883f7adb2f6a3287888ba43431a038bbb025c51b",
      "function": null,
      "arguments": null,
      "transaction": {
        "from": "0x1b395389386f3f2a27866dad8f7ddbb31c392e66",
        "gas": "0xa144a",
        "value": "0x0",
        "input": "0x608060405234801561001057600080fd5b5061083b806100206000396000f3fe608060405234801561001057600080fd5b506004361061004c5760003560e01c80639cf38f7c14610051578063c9c6539614610066578063cf6c62ea14610079578063e6a439051461008c575b600080fd5b61006461005f3660046106dc565b6100bb565b005b6100646100743660046106dc565b6102ee565b610064610087366004610715565b610379565b61009f61009a3660046106dc565b610636565b6040516001600160a01b03909116815260200160405180910390f35b60405163e6a4390560e01b81526001600160a01b03808416600483015282166024820152600090735757371414417b8c6caad45baef941abc7d3ab329063e6a4390590604401602060405180830381865afa15801561011e573d6000803e3d6000fd5b505050506040513d601f19601f82011682018060405250810190610142919061075b565b6040516370a0823160e01b81523060048201529091506000906001600160a01b038316906370a0823190602401602060405180830381865afa15801561018c573d6000803e3d6000fd5b505050506040513d601f19601f820116820180604052508101906101b09190610778565b60405163095ea7b360e01b815273a5e0829caced8ffdd4de3c43696c57f7d7a678ff6004820152602481018290529091506001600160a01b0383169063095ea7b3906044016020604051808303816000875af1158015610214573d6000803e3d6000fd5b505050506040513d601f19601f820116820180604052508101906102389190610791565b50604051635d5155ef60e11b81526001600160a01b038086166004830152841660248201526044810182905260016064820181905260848201523060a48201524260c4820152600090819073a5e0829caced8ffdd4de3c43696c57f7d7a678ff9063baa2abde9060e40160408051808303816000875af11580156102c0573d6000803e3d6000fd5b505050506040513d601f19601f820116820180604052508101906102e491906107b3565b5050505050505050565b6040516364e329cb60e11b81526001600160a01b03808416600483015282166024820152735757371414417b8c6caad45baef941abc7d3ab329063c9c65396906044016020604051808303816000875af1158015610350573d6000803e3d6000fd5b505050506040513d601f19601f82011682018060405250810190610374919061075b565b505050565b6040516323b872dd60e01b8152336004820152306024820152604481018390526001600160a01b038516906323b872dd906064016020604051808303816000875af11580156103cc573d6000803e3d6000fd5b505050506040513d601f19601f820116820180604052508101906103f09190610791565b506040516323b872dd60e01b8152336004820152306024820152604481018290526001600160a01b038416906323b872dd906064016020604051808303816000875af1158015610444573d6000803e3d6000fd5b505050506040513d601f19601f820116820180604052508101906104689190610791565b5060405163095ea7b360e01b815273a5e0829caced8ffdd4de3c43696c57f7d7a678ff6004820152602481018390526001600160a01b0385169063095ea7b3906044016020604051808303816000875af11580156104ca573d6000803e3d6000fd5b505050506040513d601f19601f820116820180604052508101906104ee9190610791565b5060405163095ea7b360e01b815273a5e0829caced8ffdd4de3c43696c57f7d7a678ff6004820152602481018290526001600160a01b0384169063095ea7b3906044016020604051808303816000875af1158015610550573d6000803e3d6000fd5b505050506040513d601f19601f820116820180604052508101906105749190610791565b5060405162e8e33760e81b81526001600160a01b03808616600483015284166024820152604481018390526064810182905260016084820181905260a48201523060c48201524260e48201526000908190819073a5e0829caced8ffdd4de3c43696c57f7d7a678ff9063e8e3370090610104016060604051808303816000875af1158015610606573d6000803e3d6000fd5b505050506040513d601f19601f8201168201806040525081019061062a91906107d7565b50505050505050505050565b60405163e6a4390560e01b81526001600160a01b03808416600483015282166024820152600090735757371414417b8c6caad45baef941abc7d3ab329063e6a4390590604401602060405180830381865afa158015610699573d6000803e3d6000fd5b505050506040513d601f19601f820116820180604052508101906106bd919061075b565b9392505050565b6001600160a01b03811681146106d957600080fd5b50565b600080604083850312156106ef57600080fd5b82356106fa816106c4565b9150602083013561070a816106c4565b809150509250929050565b6000806000806080858703121561072b57600080fd5b8435610736816106c4565b93506020850135610746816106c4565b93969395505050506040820135916060013590565b60006020828403121561076d57600080fd5b81516106bd816106c4565b60006020828403121561078a57600080fd5b5051919050565b6000602082840312156107a357600080fd5b815180151581146106bd57600080fd5b600080604083850312156107c657600080fd5b505080516020909101519092909150565b6000806000606084860312156107ec57600080fd5b835192506020840151915060408401519050925092509256fea264697066735822122034020e2b0f8b778fb3f535c15988bd0d2ba8b1d75b44e123863cc9a538533eb764736f6c63430008140033",
        "nonce": "0x128",
        "chainId": "0x89"
      },
      "additionalContracts": [],
      "isFixedGasLimit": false
    },
    {
      "hash": "0xec1b8071f6e6dd21eb503c889883f068c2777282761125d88eaf3bdc2a3a8218",
      "transactionType": "CALL",
      "contractName": null,
      "contractAddress": "0xc2132d05d31c914a87c6611c10748aeb04b58e8f",
      "function": "approve(address,uint256)",
      "arguments": [
        "0x883f7ADb2F6A3287888Ba43431A038BBb025c51b",
        "2000000000000000000"
      ],
      "transaction": {
        "from": "0x1b395389386f3f2a27866dad8f7ddbb31c392e66",
        "to": "0xc2132d05d31c914a87c6611c10748aeb04b58e8f",
        "gas": "0x11745",
        "value": "0x0",
        "input": "0x095ea7b3000000000000000000000000883f7adb2f6a3287888ba43431a038bbb025c51b0000000000000000000000000000000000000000000000001bc16d674ec80000",
        "nonce": "0x129",
        "chainId": "0x89"
      },
      "additionalContracts": [],
      "isFixedGasLimit": false
    },
    {
      "hash": "0x2ca8e48bd217125db588611d803b5e1e9569ade8165f85cf0268a84e5e4606ab",
      "transactionType": "CALL",
      "contractName": null,
      "contractAddress": "0x7bbc51361f90eea054443b95bf53d1716e667caa",
      "function": "approve(address,uint256)",
      "arguments": [
        "0x883f7ADb2F6A3287888Ba43431A038BBb025c51b",
        "2000000"
      ],
      "transaction": {
        "from": "0x1b395389386f3f2a27866dad8f7ddbb31c392e66",
        "to": "0x7bbc51361f90eea054443b95bf53d1716e667caa",
        "gas": "0xfa1f",
        "value": "0x0",
        "input": "0x095ea7b3000000000000000000000000883f7adb2f6a3287888ba43431a038bbb025c51b00000000000000000000000000000000000000000000000000000000001e8480",
        "nonce": "0x12a",
        "chainId": "0x89"
      },
      "additionalContracts": [],
      "isFixedGasLimit": false
    }
  ],
  "receipts": [
    {
      "status": "0x1",
      "cumulativeGasUsed": "0x7c5d18",
      "logs": [
        {
          "address": "0x0000000000000000000000000000000000001010",
          "topics": [
            "0x4dfe1bbbcf077ddc3e01291eea2d5c70c2b422b415d95645b9adcfd678cb1d63",
            "0x0000000000000000000000000000000000000000000000000000000000001010",
            "0x0000000000000000000000001b395389386f3f2a27866dad8f7ddbb31c392e66",
            "0x00000000000000000000000067b94473d81d0cd00849d563c94d0432ac988b49"
          ],
          "data": "0x00000000000000000000000000000000000000000000000000362b9a31a17c0000000000000000000000000000000000000000000000000080f6da93535c3f5c0000000000000000000000000000000000000000000012af32a2fed46f6fe8f500000000000000000000000000000000000000000000000080c0aef921bac35c0000000000000000000000000000000000000000000012af32d92a6ea11164f5",
          "blockHash": "0x003492c7c5d938cde7e310a4ca978d3c9484786952fabd5875f833841aa8902f",
          "blockNumber": "0x37c54f3",
          "transactionHash": "0xd25975482792d98e3563b5fc512e7f1a641a6083c54bc972ca452257c1e1a5ef",
          "transactionIndex": "0x3d",
          "logIndex": "0xe1",
          "removed": false
        }
      ],
      "logsBloom": "0x00000000000000000000000000000000000000000000000000000000000000000000000000000000000000000000000000008000000000000000000000000000000000000000000000080000000000800004000000000000000100000000000000000000000002000000000000000000000000000000000080000000000000000000000000000000000000000000000000000000000000000000000000000000200000000000000000000000000000000000000000000000000000000000004000800000000000000001000000008000000000000000000000100000000000000000020000000000000000000000000000000000000000000000000000100000",
      "type": "0x2",
      "transactionHash": "0xd25975482792d98e3563b5fc512e7f1a641a6083c54bc972ca452257c1e1a5ef",
      "transactionIndex": "0x3d",
      "blockHash": "0x003492c7c5d938cde7e310a4ca978d3c9484786952fabd5875f833841aa8902f",
      "blockNumber": "0x37c54f3",
      "gasUsed": "0x7c15d",
      "effectiveGasPrice": "0x6fc23ac1e",
      "from": "0x1b395389386f3f2a27866dad8f7ddbb31c392e66",
      "to": null,
      "contractAddress": "0x883f7adb2f6a3287888ba43431a038bbb025c51b"
    },
    {
      "status": "0x1",
      "cumulativeGasUsed": "0x8d3af0",
      "logs": [
        {
          "address": "0xc2132d05d31c914a87c6611c10748aeb04b58e8f",
          "topics": [
            "0x8c5be1e5ebec7d5bd14f71427d1e84f3dd0314c0f7b2291e5b200ac8c7c3b925",
            "0x0000000000000000000000001b395389386f3f2a27866dad8f7ddbb31c392e66",
            "0x000000000000000000000000883f7adb2f6a3287888ba43431a038bbb025c51b"
          ],
          "data": "0x0000000000000000000000000000000000000000000000001bc16d674ec80000",
          "blockHash": "0x003492c7c5d938cde7e310a4ca978d3c9484786952fabd5875f833841aa8902f",
          "blockNumber": "0x37c54f3",
          "transactionHash": "0xec1b8071f6e6dd21eb503c889883f068c2777282761125d88eaf3bdc2a3a8218",
          "transactionIndex": "0x46",
          "logIndex": "0x102",
          "removed": false
        },
        {
          "address": "0x0000000000000000000000000000000000001010",
          "topics": [
            "0x4dfe1bbbcf077ddc3e01291eea2d5c70c2b422b415d95645b9adcfd678cb1d63",
            "0x0000000000000000000000000000000000000000000000000000000000001010",
            "0x0000000000000000000000001b395389386f3f2a27866dad8f7ddbb31c392e66",
            "0x00000000000000000000000067b94473d81d0cd00849d563c94d0432ac988b49"
          ],
          "data": "0x000000000000000000000000000000000000000000000000000584436c68400000000000000000000000000000000000000000000000000080c0aef920d21a760000000000000000000000000000000000000000000012af334975f57e3e44f500000000000000000000000000000000000000000000000080bb2ab5b469da760000000000000000000000000000000000000000000012af334efa38eaa684f5",
          "blockHash": "0x003492c7c5d938cde7e310a4ca978d3c9484786952fabd5875f833841aa8902f",
          "blockNumber": "0x37c54f3",
          "transactionHash": "0xec1b8071f6e6dd21eb503c889883f068c2777282761125d88eaf3bdc2a3a8218",
          "transactionIndex": "0x46",
          "logIndex": "0x103",
          "removed": false
        }
      ],
      "logsBloom": "0x00000000000000000000000000000000000000000000000000000000000000000000000000000000000000000000000100008000000000000000080000200000000000000000000000080000000000800004000000000000000100000000000000000000000002000000000000000000000000000000000080000000000000000000000000080000000000000000000000000000000000000000000000000000220000000000000000000000000000000000000000001000000000000000004000800000000000000001000000008000404000000000000000100000000000000010020000000000000000000000000000000000000000000000000000100000",
      "type": "0x2",
      "transactionHash": "0xec1b8071f6e6dd21eb503c889883f068c2777282761125d88eaf3bdc2a3a8218",
      "transactionIndex": "0x46",
      "blockHash": "0x003492c7c5d938cde7e310a4ca978d3c9484786952fabd5875f833841aa8902f",
      "blockNumber": "0x37c54f3",
      "gasUsed": "0xca30",
      "effectiveGasPrice": "0x6fc23ac1e",
      "from": "0x1b395389386f3f2a27866dad8f7ddbb31c392e66",
      "to": "0xc2132d05d31c914a87c6611c10748aeb04b58e8f",
      "contractAddress": null
    },
    {
      "status": "0x1",
      "cumulativeGasUsed": "0x8df006",
      "logs": [
        {
          "address": "0x7bbc51361f90eea054443b95bf53d1716e667caa",
          "topics": [
            "0x8c5be1e5ebec7d5bd14f71427d1e84f3dd0314c0f7b2291e5b200ac8c7c3b925",
            "0x0000000000000000000000001b395389386f3f2a27866dad8f7ddbb31c392e66",
            "0x000000000000000000000000883f7adb2f6a3287888ba43431a038bbb025c51b"
          ],
          "data": "0x00000000000000000000000000000000000000000000000000000000001e8480",
          "blockHash": "0x003492c7c5d938cde7e310a4ca978d3c9484786952fabd5875f833841aa8902f",
          "blockNumber": "0x37c54f3",
          "transactionHash": "0x2ca8e48bd217125db588611d803b5e1e9569ade8165f85cf0268a84e5e4606ab",
          "transactionIndex": "0x47",
          "logIndex": "0x104",
          "removed": false
        },
        {
          "address": "0x0000000000000000000000000000000000001010",
          "topics": [
            "0x4dfe1bbbcf077ddc3e01291eea2d5c70c2b422b415d95645b9adcfd678cb1d63",
            "0x0000000000000000000000000000000000000000000000000000000000001010",
            "0x0000000000000000000000001b395389386f3f2a27866dad8f7ddbb31c392e66",
            "0x00000000000000000000000067b94473d81d0cd00849d563c94d0432ac988b49"
          ],
          "data": "0x0000000000000000000000000000000000000000000000000004f0dee3acc80000000000000000000000000000000000000000000000000080bb2ab5b45228d60000000000000000000000000000000000000000000012af334efa38eaa684f500000000000000000000000000000000000000000000000080b639d6d0a560d60000000000000000000000000000000000000000000012af3353eb17ce534cf5",
          "blockHash": "0x003492c7c5d938cde7e310a4ca978d3c9484786952fabd5875f833841aa8902f",
          "blockNumber": "0x37c54f3",
          "transactionHash": "0x2ca8e48bd217125db588611d803b5e1e9569ade8165f85cf0268a84e5e4606ab",
          "transactionIndex": "0x47",
          "logIndex": "0x105",
          "removed": false
        }
      ],
      "logsBloom": "0x00000000000000400000000000000000000000000000000000000000000000000000000000000000000000000000000000008000000000000000080000200000000000000000000000080000000000800004000000000000000100000000000000000000000002000000000000000000000000000000000080000000000000000000000000000000000000000000000000000000000000000000000000000000220000000000002000000000000000000000000000001000000000000080004000800000000000000001000000008000004000000000000000100000000000000010020000000000000000000000000000000000000000000000000000100000",
      "type": "0x2",
      "transactionHash": "0x2ca8e48bd217125db588611d803b5e1e9569ade8165f85cf0268a84e5e4606ab",
      "transactionIndex": "0x47",
      "blockHash": "0x003492c7c5d938cde7e310a4ca978d3c9484786952fabd5875f833841aa8902f",
      "blockNumber": "0x37c54f3",
      "gasUsed": "0xb516",
      "effectiveGasPrice": "0x6fc23ac1e",
      "from": "0x1b395389386f3f2a27866dad8f7ddbb31c392e66",
      "to": "0x7bbc51361f90eea054443b95bf53d1716e667caa",
      "contractAddress": null
    }
  ],
  "libraries": [],
  "pending": [],
  "returns": {
    "0": {
      "internal_type": "contract UniswapLiquidityPool",
      "value": "0x883f7ADb2F6A3287888Ba43431A038BBb025c51b"
    }
  },
  "timestamp": 1719081719,
  "chain": 137,
  "commit": "7bcf4cf"
}