{
  "transactions": [
    {
      "hash": "0x30bdcf5e1b284dd05bec7dde37b02b15030c9afa68f77702c81a8749f204f876",
      "transactionType": "CALL",
      "contractName": null,
      "contractAddress": "0xba4e757afb68d26dd654204507acb7b451f1a136",
      "function": "removeLiquidity(address,address)",
      "arguments": [
        "0x54AafdbFa2f52a8E5871E14EE2b863ff9C695F19",
        "0xc2132D05D31c914a87C6611C10748AEb04B58e8F"
      ],
      "transaction": {
        "from": "0x1b395389386f3f2a27866dad8f7ddbb31c392e66",
        "to": "0xba4e757afb68d26dd654204507acb7b451f1a136",
        "gas": "0x3a493",
        "value": "0x0",
        "input": "0x9cf38f7c00000000000000000000000054aafdbfa2f52a8e5871e14ee2b863ff9c695f19000000000000000000000000c2132d05d31c914a87c6611c10748aeb04b58e8f",
        "nonce": "0x16a",
        "chainId": "0x89"
      },
      "additionalContracts": [],
      "isFixedGasLimit": false
    },
    {
      "hash": "0xd8b5c76be844e805a96a455919b10d8f22af54b1c937ebc1a968e0d05f9d17bd",
      "transactionType": "CALL",
      "contractName": null,
      "contractAddress": "0xba4e757afb68d26dd654204507acb7b451f1a136",
      "function": "withdrawAllERC20(address)",
      "arguments": [
        "0xc2132D05D31c914a87C6611C10748AEb04B58e8F"
      ],
      "transaction": {
        "from": "0x1b395389386f3f2a27866dad8f7ddbb31c392e66",
        "to": "0xba4e757afb68d26dd654204507acb7b451f1a136",
        "gas": "0xf2e0",
        "value": "0x0",
        "input": "0x857abbd4000000000000000000000000c2132d05d31c914a87c6611c10748aeb04b58e8f",
        "nonce": "0x16b",
        "chainId": "0x89"
      },
      "additionalContracts": [],
      "isFixedGasLimit": false
    }
  ],
  "receipts": [
    {
      "status": "0x1",
      "cumulativeGasUsed": "0xe3618f",
      "logs": [
        {
          "address": "0x82f7a247ceeb62af5c5c8021c1f6dcf83b48a97f",
          "topics": [
            "0x8c5be1e5ebec7d5bd14f71427d1e84f3dd0314c0f7b2291e5b200ac8c7c3b925",
            "0x000000000000000000000000ba4e757afb68d26dd654204507acb7b451f1a136",
            "0x000000000000000000000000a5e0829caced8ffdd4de3c43696c57f7d7a678ff"
          ],
          "data": "0x0000000000000000000000000000000000000000000000000000056185f55759",
          "blockHash": "0xe89ed5a18efd88128e7fdcb652e17c4f13298e712cb35f208623d0e5d699f809",
          "blockNumber": "0x389200f",
          "transactionHash": "0x30bdcf5e1b284dd05bec7dde37b02b15030c9afa68f77702c81a8749f204f876",
          "transactionIndex": "0x24",
          "logIndex": "0xcba",
          "removed": false
        },
        {
          "address": "0x82f7a247ceeb62af5c5c8021c1f6dcf83b48a97f",
          "topics": [
            "0xddf252ad1be2c89b69c2b068fc378daa952ba7f163c4a11628f55a4df523b3ef",
            "0x000000000000000000000000ba4e757afb68d26dd654204507acb7b451f1a136",
            "0x00000000000000000000000082f7a247ceeb62af5c5c8021c1f6dcf83b48a97f"
          ],
          "data": "0x0000000000000000000000000000000000000000000000000000056185f55759",
          "blockHash": "0xe89ed5a18efd88128e7fdcb652e17c4f13298e712cb35f208623d0e5d699f809",
          "blockNumber": "0x389200f",
          "transactionHash": "0x30bdcf5e1b284dd05bec7dde37b02b15030c9afa68f77702c81a8749f204f876",
          "transactionIndex": "0x24",
          "logIndex": "0xcbb",
          "removed": false
        },
        {
          "address": "0x82f7a247ceeb62af5c5c8021c1f6dcf83b48a97f",
          "topics": [
            "0xddf252ad1be2c89b69c2b068fc378daa952ba7f163c4a11628f55a4df523b3ef",
            "0x00000000000000000000000082f7a247ceeb62af5c5c8021c1f6dcf83b48a97f",
            "0x0000000000000000000000000000000000000000000000000000000000000000"
          ],
          "data": "0x0000000000000000000000000000000000000000000000000000056185f55759",
          "blockHash": "0xe89ed5a18efd88128e7fdcb652e17c4f13298e712cb35f208623d0e5d699f809",
          "blockNumber": "0x389200f",
          "transactionHash": "0x30bdcf5e1b284dd05bec7dde37b02b15030c9afa68f77702c81a8749f204f876",
          "transactionIndex": "0x24",
          "logIndex": "0xcbc",
          "removed": false
        },
        {
          "address": "0x54aafdbfa2f52a8e5871e14ee2b863ff9c695f19",
          "topics": [
            "0xddf252ad1be2c89b69c2b068fc378daa952ba7f163c4a11628f55a4df523b3ef",
            "0x00000000000000000000000082f7a247ceeb62af5c5c8021c1f6dcf83b48a97f",
            "0x000000000000000000000000ba4e757afb68d26dd654204507acb7b451f1a136"
          ],
          "data": "0x0000000000000000000000000000000000000000000000005102b52dbfbc7bc3",
          "blockHash": "0xe89ed5a18efd88128e7fdcb652e17c4f13298e712cb35f208623d0e5d699f809",
          "blockNumber": "0x389200f",
          "transactionHash": "0x30bdcf5e1b284dd05bec7dde37b02b15030c9afa68f77702c81a8749f204f876",
          "transactionIndex": "0x24",
          "logIndex": "0xcbd",
          "removed": false
        },
        {
          "address": "0xc2132d05d31c914a87c6611c10748aeb04b58e8f",
          "topics": [
            "0xddf252ad1be2c89b69c2b068fc378daa952ba7f163c4a11628f55a4df523b3ef",
            "0x00000000000000000000000082f7a247ceeb62af5c5c8021c1f6dcf83b48a97f",
            "0x000000000000000000000000ba4e757afb68d26dd654204507acb7b451f1a136"
          ],
          "data": "0x00000000000000000000000000000000000000000000000000000000005b8d7f",
          "blockHash": "0xe89ed5a18efd88128e7fdcb652e17c4f13298e712cb35f208623d0e5d699f809",
          "blockNumber": "0x389200f",
          "transactionHash": "0x30bdcf5e1b284dd05bec7dde37b02b15030c9afa68f77702c81a8749f204f876",
          "transactionIndex": "0x24",
          "logIndex": "0xcbe",
          "removed": false
        },
        {
          "address": "0x82f7a247ceeb62af5c5c8021c1f6dcf83b48a97f",
          "topics": [
            "0x1c411e9a96e071241c2f21f7726b17ae89e3cab4c78be50e062b03a9fffbbad1"
          ],
          "data": "0x0000000000000000000000000000000000000000000000000db21a6c08d783f900000000000000000000000000000000000000000000000000000000000f7a5e",
          "blockHash": "0xe89ed5a18efd88128e7fdcb652e17c4f13298e712cb35f208623d0e5d699f809",
          "blockNumber": "0x389200f",
          "transactionHash": "0x30bdcf5e1b284dd05bec7dde37b02b15030c9afa68f77702c81a8749f204f876",
          "transactionIndex": "0x24",
          "logIndex": "0xcbf",
          "removed": false
        },
        {
          "address": "0x82f7a247ceeb62af5c5c8021c1f6dcf83b48a97f",
          "topics": [
            "0xdccd412f0b1252819cb1fd330b93224ca42612892bb3f4f789976e6d81936496",
            "0x000000000000000000000000a5e0829caced8ffdd4de3c43696c57f7d7a678ff",
            "0x000000000000000000000000ba4e757afb68d26dd654204507acb7b451f1a136"
          ],
          "data": "0x0000000000000000000000000000000000000000000000005102b52dbfbc7bc300000000000000000000000000000000000000000000000000000000005b8d7f",
          "blockHash": "0xe89ed5a18efd88128e7fdcb652e17c4f13298e712cb35f208623d0e5d699f809",
          "blockNumber": "0x389200f",
          "transactionHash": "0x30bdcf5e1b284dd05bec7dde37b02b15030c9afa68f77702c81a8749f204f876",
          "transactionIndex": "0x24",
          "logIndex": "0xcc0",
          "removed": false
        },
        {
          "address": "0x0000000000000000000000000000000000001010",
          "topics": [
            "0x4dfe1bbbcf077ddc3e01291eea2d5c70c2b422b415d95645b9adcfd678cb1d63",
            "0x0000000000000000000000000000000000000000000000000000000000001010",
            "0x0000000000000000000000001b395389386f3f2a27866dad8f7ddbb31c392e66",
            "0x000000000000000000000000c84c1e8dffe81c8f69f2b655557ef57d5b46beb5"
          ],
          "data": "0x0000000000000000000000000000000000000000000000000012844d13a6bf8800000000000000000000000000000000000000000000000079bd3d62903fd0cd0000000000000000000000000000000000000000000001e05be49990e9c5526400000000000000000000000000000000000000000000000079aab9157c9911450000000000000000000000000000000000000000000001e05bf71dddfd6c11ec",
          "blockHash": "0xe89ed5a18efd88128e7fdcb652e17c4f13298e712cb35f208623d0e5d699f809",
          "blockNumber": "0x389200f",
          "transactionHash": "0x30bdcf5e1b284dd05bec7dde37b02b15030c9afa68f77702c81a8749f204f876",
          "transactionIndex": "0x24",
          "logIndex": "0xcc1",
          "removed": false
        }
      ],
      "logsBloom": "0x0000000000000000000000048000000000000000000000000000000000000000000000000000000000000002000c000100008000000000000000000000200000200000000000000000080008000400800004800000000000000100000000000000000004020082000000000000000801000000000000000080010010000000800000010000080000000000000000080000000000000000080000000000000000220000000000004000000000000000020004000000000000000000002000004100000002000000000001000000000000400000000000001000100000000024000010800000000000000000000000000000000000000000000000000000100000",
      "type": "0x2",
      "transactionHash": "0x30bdcf5e1b284dd05bec7dde37b02b15030c9afa68f77702c81a8749f204f876",
      "transactionIndex": "0x24",
      "blockHash": "0xe89ed5a18efd88128e7fdcb652e17c4f13298e712cb35f208623d0e5d699f809",
      "blockNumber": "0x389200f",
      "gasUsed": "0x2a32c",
      "effectiveGasPrice": "0x7057a3e2b",
      "from": "0x1b395389386f3f2a27866dad8f7ddbb31c392e66",
      "to": "0xba4e757afb68d26dd654204507acb7b451f1a136",
      "contractAddress": null
    },
    {
      "status": "0x1",
      "cumulativeGasUsed": "0xe407a1",
      "logs": [
        {
          "address": "0xc2132d05d31c914a87c6611c10748aeb04b58e8f",
          "topics": [
            "0xddf252ad1be2c89b69c2b068fc378daa952ba7f163c4a11628f55a4df523b3ef",
            "0x000000000000000000000000ba4e757afb68d26dd654204507acb7b451f1a136",
            "0x0000000000000000000000001b395389386f3f2a27866dad8f7ddbb31c392e66"
          ],
          "data": "0x00000000000000000000000000000000000000000000000000000000005b8d7f",
          "blockHash": "0xe89ed5a18efd88128e7fdcb652e17c4f13298e712cb35f208623d0e5d699f809",
          "blockNumber": "0x389200f",
          "transactionHash": "0xd8b5c76be844e805a96a455919b10d8f22af54b1c937ebc1a968e0d05f9d17bd",
          "transactionIndex": "0x25",
          "logIndex": "0xcc2",
          "removed": false
        },
        {
          "address": "0x0000000000000000000000000000000000001010",
          "topics": [
            "0x4dfe1bbbcf077ddc3e01291eea2d5c70c2b422b415d95645b9adcfd678cb1d63",
            "0x0000000000000000000000000000000000000000000000000000000000001010",
            "0x0000000000000000000000001b395389386f3f2a27866dad8f7ddbb31c392e66",
            "0x000000000000000000000000c84c1e8dffe81c8f69f2b655557ef57d5b46beb5"
          ],
          "data": "0x00000000000000000000000000000000000000000000000000048df5b727d52c00000000000000000000000000000000000000000000000079aab8bc4d51c0690000000000000000000000000000000000000000000001e05bf71dddfd6c11ec00000000000000000000000000000000000000000000000079a62ac69629eb3d0000000000000000000000000000000000000000000001e05bfbabd3b493e718",
          "blockHash": "0xe89ed5a18efd88128e7fdcb652e17c4f13298e712cb35f208623d0e5d699f809",
          "blockNumber": "0x389200f",
          "transactionHash": "0xd8b5c76be844e805a96a455919b10d8f22af54b1c937ebc1a968e0d05f9d17bd",
          "transactionIndex": "0x25",
          "logIndex": "0xcc3",
          "removed": false
        }
      ],
      "logsBloom": "0x00000000000000000000000000000000000000000000000000000000000000000000000000000000000000000000000100008000000000000000000000000000000000000000000000080008000400800004800000000000000100000000000000000000000002000000000000000000000000000000000080010010000000000000000000080000000000000000000000000000000000000000000000000000200000000000000000000000000000020004000000000000000000000000004000000002000000000001000000000000400000000000000000100000000000000000800000000000000000000000000000000000000000000000000000100000",
      "type": "0x2",
      "transactionHash": "0xd8b5c76be844e805a96a455919b10d8f22af54b1c937ebc1a968e0d05f9d17bd",
      "transactionIndex": "0x25",
      "blockHash": "0xe89ed5a18efd88128e7fdcb652e17c4f13298e712cb35f208623d0e5d699f809",
      "blockNumber": "0x389200f",
      "gasUsed": "0xa612",
      "effectiveGasPrice": "0x7057a3e2b",
      "from": "0x1b395389386f3f2a27866dad8f7ddbb31c392e66",
      "to": "0xba4e757afb68d26dd654204507acb7b451f1a136",
      "contractAddress": null
    }
  ],
  "libraries": [],
  "pending": [],
  "returns": {
    "0": {
      "internal_type": "contract UniswapLiquidityPool",
      "value": "0xba4e757afB68d26Dd654204507Acb7b451f1a136"
    }
  },
  "timestamp": 1720892639,
  "chain": 137,
  "commit": "6523bd8"
}