{
  "transactions": [
    {
      "hash": "0x5a98409a0784aad0213991ae2927e6a49ce5ff8d8526e491619fd4454d1133a7",
      "transactionType": "CALL",
      "contractName": null,
      "contractAddress": "0x54aafdbfa2f52a8e5871e14ee2b863ff9c695f19",
      "function": "approve(address,uint256)",
      "arguments": [
        "0xba4e757afB68d26Dd654204507Acb7b451f1a136",
        "6000000000000000000"
      ],
      "transaction": {
        "from": "0x1b395389386f3f2a27866dad8f7ddbb31c392e66",
        "to": "0x54aafdbfa2f52a8e5871e14ee2b863ff9c695f19",
        "gas": "0x1090a",
        "value": "0x0",
        "input": "0x095ea7b3000000000000000000000000ba4e757afb68d26dd654204507acb7b451f1a13600000000000000000000000000000000000000000000000053444835ec580000",
        "nonce": "0x167",
        "chainId": "0x89"
      },
      "additionalContracts": [],
      "isFixedGasLimit": false
    },
    {
      "hash": "0x0ba026d2dbfa50e9dbb623d48c5b5f88e858cd0420f507007ed6ce8e9fc63c8c",
      "transactionType": "CALL",
      "contractName": null,
      "contractAddress": "0xc2132d05d31c914a87c6611c10748aeb04b58e8f",
      "function": "approve(address,uint256)",
      "arguments": [
        "0xba4e757afB68d26Dd654204507Acb7b451f1a136",
        "6000000"
      ],
      "transaction": {
        "from": "0x1b395389386f3f2a27866dad8f7ddbb31c392e66",
        "to": "0xc2132d05d31c914a87c6611c10748aeb04b58e8f",
        "gas": "0x11712",
        "value": "0x0",
        "input": "0x095ea7b3000000000000000000000000ba4e757afb68d26dd654204507acb7b451f1a13600000000000000000000000000000000000000000000000000000000005b8d80",
        "nonce": "0x168",
        "chainId": "0x89"
      },
      "additionalContracts": [],
      "isFixedGasLimit": false
    },
    {
      "hash": "0x235ac8bb69bb995c8a03640ae106ffab1c22d70efda8a5d37fd3baf34e054e08",
      "transactionType": "CALL",
      "contractName": null,
      "contractAddress": "0xba4e757afb68d26dd654204507acb7b451f1a136",
      "function": "addLiquidity(address,address,uint256,uint256)",
      "arguments": [
        "0x54AafdbFa2f52a8E5871E14EE2b863ff9C695F19",
        "0xc2132D05D31c914a87C6611C10748AEb04B58e8F",
        "6000000000000000000",
        "6000000"
      ],
      "transaction": {
        "from": "0x1b395389386f3f2a27866dad8f7ddbb31c392e66",
        "to": "0xba4e757afb68d26dd654204507acb7b451f1a136",
        "gas": "0x47542",
        "value": "0x0",
        "input": "0xcf6c62ea00000000000000000000000054aafdbfa2f52a8e5871e14ee2b863ff9c695f19000000000000000000000000c2132d05d31c914a87c6611c10748aeb04b58e8f00000000000000000000000000000000000000000000000053444835ec58000000000000000000000000000000000000000000000000000000000000005b8d80",
        "nonce": "0x169",
        "chainId": "0x89"
      },
      "additionalContracts": [],
      "isFixedGasLimit": false
    }
  ],
  "receipts": [
    {
      "status": "0x1",
      "cumulativeGasUsed": "0x1b9286a",
      "logs": [
        {
          "address": "0x54aafdbfa2f52a8e5871e14ee2b863ff9c695f19",
          "topics": [
            "0x8c5be1e5ebec7d5bd14f71427d1e84f3dd0314c0f7b2291e5b200ac8c7c3b925",
            "0x0000000000000000000000001b395389386f3f2a27866dad8f7ddbb31c392e66",
            "0x000000000000000000000000ba4e757afb68d26dd654204507acb7b451f1a136"
          ],
          "data": "0x00000000000000000000000000000000000000000000000053444835ec580000",
          "blockHash": "0x8c6a93114593fbdb305f3622e2149df2722b9b24f20b39a24d1c69ca2a4bac34",
          "blockNumber": "0x3891fa0",
          "transactionHash": "0x5a98409a0784aad0213991ae2927e6a49ce5ff8d8526e491619fd4454d1133a7",
          "transactionIndex": "0x3b",
          "logIndex": "0x1a63",
          "removed": false
        },
        {
          "address": "0x0000000000000000000000000000000000001010",
          "topics": [
            "0x4dfe1bbbcf077ddc3e01291eea2d5c70c2b422b415d95645b9adcfd678cb1d63",
            "0x0000000000000000000000000000000000000000000000000000000000001010",
            "0x0000000000000000000000001b395389386f3f2a27866dad8f7ddbb31c392e66",
            "0x000000000000000000000000eedba2484aaf940f37cd3cd21a5d7c4a7dafbfc0"
          ],
          "data": "0x0000000000000000000000000000000000000000000000000004fdc5c1a0e7f800000000000000000000000000000000000000000000000079dd49ce83478b7e00000000000000000000000000000000000000000001422128b275301e8242f300000000000000000000000000000000000000000000000079d84c08c1a6a38600000000000000000000000000000000000000000001422128b772f5e0232aeb",
          "blockHash": "0x8c6a93114593fbdb305f3622e2149df2722b9b24f20b39a24d1c69ca2a4bac34",
          "blockNumber": "0x3891fa0",
          "transactionHash": "0x5a98409a0784aad0213991ae2927e6a49ce5ff8d8526e491619fd4454d1133a7",
          "transactionIndex": "0x3b",
          "logIndex": "0x1a64",
          "removed": false
        }
      ],
      "logsBloom": "0x00000000000000000000000000000000000000000000000000000000000000000000000000000000000000000004000000008000000000000000000000200000000000000000000000080000000400800004000000000000000100000000000000000000000002000000000000000000000000000100000080010000000000000000004000000000000000000000000000000000000000000000000000000000220000000000000000000000000000020000000000000000000020000000004100000000000000000001000000000000000000000000000000100000000004000010000000000000000000000000000000000000000000000000000000100000",
      "type": "0x2",
      "transactionHash": "0x5a98409a0784aad0213991ae2927e6a49ce5ff8d8526e491619fd4454d1133a7",
      "transactionIndex": "0x3b",
      "blockHash": "0x8c6a93114593fbdb305f3622e2149df2722b9b24f20b39a24d1c69ca2a4bac34",
      "blockNumber": "0x3891fa0",
      "gasUsed": "0xb53a",
      "effectiveGasPrice": "0x70cff17af",
      "from": "0x1b395389386f3f2a27866dad8f7ddbb31c392e66",
      "to": "0x54aafdbfa2f52a8e5871e14ee2b863ff9c695f19",
      "contractAddress": null
    },
    {
      "status": "0x1",
      "cumulativeGasUsed": "0x1b9f276",
      "logs": [
        {
          "address": "0xc2132d05d31c914a87c6611c10748aeb04b58e8f",
          "topics": [
            "0x8c5be1e5ebec7d5bd14f71427d1e84f3dd0314c0f7b2291e5b200ac8c7c3b925",
            "0x0000000000000000000000001b395389386f3f2a27866dad8f7ddbb31c392e66",
            "0x000000000000000000000000ba4e757afb68d26dd654204507acb7b451f1a136"
          ],
          "data": "0x00000000000000000000000000000000000000000000000000000000005b8d80",
          "blockHash": "0x8c6a93114593fbdb305f3622e2149df2722b9b24f20b39a24d1c69ca2a4bac34",
          "blockNumber": "0x3891fa0",
          "transactionHash": "0x0ba026d2dbfa50e9dbb623d48c5b5f88e858cd0420f507007ed6ce8e9fc63c8c",
          "transactionIndex": "0x3c",
          "logIndex": "0x1a65",
          "removed": false
        },
        {
          "address": "0x0000000000000000000000000000000000001010",
          "topics": [
            "0x4dfe1bbbcf077ddc3e01291eea2d5c70c2b422b415d95645b9adcfd678cb1d63",
            "0x0000000000000000000000000000000000000000000000000000000000001010",
            "0x0000000000000000000000001b395389386f3f2a27866dad8f7ddbb31c392e66",
            "0x000000000000000000000000eedba2484aaf940f37cd3cd21a5d7c4a7dafbfc0"
          ],
          "data": "0x00000000000000000000000000000000000000000000000000059091f06db61000000000000000000000000000000000000000000000000079d84c0535bd72d800000000000000000000000000000000000000000001422128b772f5e0232aeb00000000000000000000000000000000000000000000000079d2bb73454fbcc800000000000000000000000000000000000000000001422128bd0387d090e0fb",
          "blockHash": "0x8c6a93114593fbdb305f3622e2149df2722b9b24f20b39a24d1c69ca2a4bac34",
          "blockNumber": "0x3891fa0",
          "transactionHash": "0x0ba026d2dbfa50e9dbb623d48c5b5f88e858cd0420f507007ed6ce8e9fc63c8c",
          "transactionIndex": "0x3c",
          "logIndex": "0x1a66",
          "removed": false
        }
      ],
      "logsBloom": "0x00000000000000000000000000000000000000000000000000000000000000000000000000000000000000000000000100008000000000000000000000200000000000000000000000080000000400800004000000000000000100000000000000000000000002000000000000000000000000000100000080010000000000000000004000080000000000000000000000000000000000000000000000000000220000000000000000000000000000020000000000000000000020000000004000000000000000000001000000000000400000000000000000100000000000000010000000000000000000000000000000000000000000000000000000100000",
      "type": "0x2",
      "transactionHash": "0x0ba026d2dbfa50e9dbb623d48c5b5f88e858cd0420f507007ed6ce8e9fc63c8c",
      "transactionIndex": "0x3c",
      "blockHash": "0x8c6a93114593fbdb305f3622e2149df2722b9b24f20b39a24d1c69ca2a4bac34",
      "blockNumber": "0x3891fa0",
      "gasUsed": "0xca0c",
      "effectiveGasPrice": "0x70cff17af",
      "from": "0x1b395389386f3f2a27866dad8f7ddbb31c392e66",
      "to": "0xc2132d05d31c914a87c6611c10748aeb04b58e8f",
      "contractAddress": null
    },
    {
      "status": "0x1",
      "cumulativeGasUsed": "0x1bcfecf",
      "logs": [
        {
          "address": "0x54aafdbfa2f52a8e5871e14ee2b863ff9c695f19",
          "topics": [
            "0xddf252ad1be2c89b69c2b068fc378daa952ba7f163c4a11628f55a4df523b3ef",
            "0x0000000000000000000000001b395389386f3f2a27866dad8f7ddbb31c392e66",
            "0x000000000000000000000000ba4e757afb68d26dd654204507acb7b451f1a136"
          ],
          "data": "0x00000000000000000000000000000000000000000000000053444835ec580000",
          "blockHash": "0x8c6a93114593fbdb305f3622e2149df2722b9b24f20b39a24d1c69ca2a4bac34",
          "blockNumber": "0x3891fa0",
          "transactionHash": "0x235ac8bb69bb995c8a03640ae106ffab1c22d70efda8a5d37fd3baf34e054e08",
          "transactionIndex": "0x3d",
          "logIndex": "0x1a67",
          "removed": false
        },
        {
          "address": "0xc2132d05d31c914a87c6611c10748aeb04b58e8f",
          "topics": [
            "0xddf252ad1be2c89b69c2b068fc378daa952ba7f163c4a11628f55a4df523b3ef",
            "0x0000000000000000000000001b395389386f3f2a27866dad8f7ddbb31c392e66",
            "0x000000000000000000000000ba4e757afb68d26dd654204507acb7b451f1a136"
          ],
          "data": "0x00000000000000000000000000000000000000000000000000000000005b8d80",
          "blockHash": "0x8c6a93114593fbdb305f3622e2149df2722b9b24f20b39a24d1c69ca2a4bac34",
          "blockNumber": "0x3891fa0",
          "transactionHash": "0x235ac8bb69bb995c8a03640ae106ffab1c22d70efda8a5d37fd3baf34e054e08",
          "transactionIndex": "0x3d",
          "logIndex": "0x1a68",
          "removed": false
        },
        {
          "address": "0xc2132d05d31c914a87c6611c10748aeb04b58e8f",
          "topics": [
            "0x8c5be1e5ebec7d5bd14f71427d1e84f3dd0314c0f7b2291e5b200ac8c7c3b925",
            "0x0000000000000000000000001b395389386f3f2a27866dad8f7ddbb31c392e66",
            "0x000000000000000000000000ba4e757afb68d26dd654204507acb7b451f1a136"
          ],
          "data": "0x0000000000000000000000000000000000000000000000000000000000000000",
          "blockHash": "0x8c6a93114593fbdb305f3622e2149df2722b9b24f20b39a24d1c69ca2a4bac34",
          "blockNumber": "0x3891fa0",
          "transactionHash": "0x235ac8bb69bb995c8a03640ae106ffab1c22d70efda8a5d37fd3baf34e054e08",
          "transactionIndex": "0x3d",
          "logIndex": "0x1a69",
          "removed": false
        },
        {
          "address": "0x54aafdbfa2f52a8e5871e14ee2b863ff9c695f19",
          "topics": [
            "0x8c5be1e5ebec7d5bd14f71427d1e84f3dd0314c0f7b2291e5b200ac8c7c3b925",
            "0x000000000000000000000000ba4e757afb68d26dd654204507acb7b451f1a136",
            "0x000000000000000000000000a5e0829caced8ffdd4de3c43696c57f7d7a678ff"
          ],
          "data": "0x00000000000000000000000000000000000000000000000053444835ec580000",
          "blockHash": "0x8c6a93114593fbdb305f3622e2149df2722b9b24f20b39a24d1c69ca2a4bac34",
          "blockNumber": "0x3891fa0",
          "transactionHash": "0x235ac8bb69bb995c8a03640ae106ffab1c22d70efda8a5d37fd3baf34e054e08",
          "transactionIndex": "0x3d",
          "logIndex": "0x1a6a",
          "removed": false
        },
        {
          "address": "0xc2132d05d31c914a87c6611c10748aeb04b58e8f",
          "topics": [
            "0x8c5be1e5ebec7d5bd14f71427d1e84f3dd0314c0f7b2291e5b200ac8c7c3b925",
            "0x000000000000000000000000ba4e757afb68d26dd654204507acb7b451f1a136",
            "0x000000000000000000000000a5e0829caced8ffdd4de3c43696c57f7d7a678ff"
          ],
          "data": "0x00000000000000000000000000000000000000000000000000000000005b8d80",
          "blockHash": "0x8c6a93114593fbdb305f3622e2149df2722b9b24f20b39a24d1c69ca2a4bac34",
          "blockNumber": "0x3891fa0",
          "transactionHash": "0x235ac8bb69bb995c8a03640ae106ffab1c22d70efda8a5d37fd3baf34e054e08",
          "transactionIndex": "0x3d",
          "logIndex": "0x1a6b",
          "removed": false
        },
        {
          "address": "0x54aafdbfa2f52a8e5871e14ee2b863ff9c695f19",
          "topics": [
            "0xddf252ad1be2c89b69c2b068fc378daa952ba7f163c4a11628f55a4df523b3ef",
            "0x000000000000000000000000ba4e757afb68d26dd654204507acb7b451f1a136",
            "0x00000000000000000000000082f7a247ceeb62af5c5c8021c1f6dcf83b48a97f"
          ],
          "data": "0x0000000000000000000000000000000000000000000000005102b52dbfbd9456",
          "blockHash": "0x8c6a93114593fbdb305f3622e2149df2722b9b24f20b39a24d1c69ca2a4bac34",
          "blockNumber": "0x3891fa0",
          "transactionHash": "0x235ac8bb69bb995c8a03640ae106ffab1c22d70efda8a5d37fd3baf34e054e08",
          "transactionIndex": "0x3d",
          "logIndex": "0x1a6c",
          "removed": false
        },
        {
          "address": "0xc2132d05d31c914a87c6611c10748aeb04b58e8f",
          "topics": [
            "0xddf252ad1be2c89b69c2b068fc378daa952ba7f163c4a11628f55a4df523b3ef",
            "0x000000000000000000000000ba4e757afb68d26dd654204507acb7b451f1a136",
            "0x00000000000000000000000082f7a247ceeb62af5c5c8021c1f6dcf83b48a97f"
          ],
          "data": "0x00000000000000000000000000000000000000000000000000000000005b8d80",
          "blockHash": "0x8c6a93114593fbdb305f3622e2149df2722b9b24f20b39a24d1c69ca2a4bac34",
          "blockNumber": "0x3891fa0",
          "transactionHash": "0x235ac8bb69bb995c8a03640ae106ffab1c22d70efda8a5d37fd3baf34e054e08",
          "transactionIndex": "0x3d",
          "logIndex": "0x1a6d",
          "removed": false
        },
        {
          "address": "0xc2132d05d31c914a87c6611c10748aeb04b58e8f",
          "topics": [
            "0x8c5be1e5ebec7d5bd14f71427d1e84f3dd0314c0f7b2291e5b200ac8c7c3b925",
            "0x000000000000000000000000ba4e757afb68d26dd654204507acb7b451f1a136",
            "0x000000000000000000000000a5e0829caced8ffdd4de3c43696c57f7d7a678ff"
          ],
          "data": "0x0000000000000000000000000000000000000000000000000000000000000000",
          "blockHash": "0x8c6a93114593fbdb305f3622e2149df2722b9b24f20b39a24d1c69ca2a4bac34",
          "blockNumber": "0x3891fa0",
          "transactionHash": "0x235ac8bb69bb995c8a03640ae106ffab1c22d70efda8a5d37fd3baf34e054e08",
          "transactionIndex": "0x3d",
          "logIndex": "0x1a6e",
          "removed": false
        },
        {
          "address": "0x82f7a247ceeb62af5c5c8021c1f6dcf83b48a97f",
          "topics": [
            "0xddf252ad1be2c89b69c2b068fc378daa952ba7f163c4a11628f55a4df523b3ef",
            "0x0000000000000000000000000000000000000000000000000000000000000000",
            "0x000000000000000000000000ba4e757afb68d26dd654204507acb7b451f1a136"
          ],
          "data": "0x0000000000000000000000000000000000000000000000000000056185f55759",
          "blockHash": "0x8c6a93114593fbdb305f3622e2149df2722b9b24f20b39a24d1c69ca2a4bac34",
          "blockNumber": "0x3891fa0",
          "transactionHash": "0x235ac8bb69bb995c8a03640ae106ffab1c22d70efda8a5d37fd3baf34e054e08",
          "transactionIndex": "0x3d",
          "logIndex": "0x1a6f",
          "removed": false
        },
        {
          "address": "0x82f7a247ceeb62af5c5c8021c1f6dcf83b48a97f",
          "topics": [
            "0x1c411e9a96e071241c2f21f7726b17ae89e3cab4c78be50e062b03a9fffbbad1"
          ],
          "data": "0x0000000000000000000000000000000000000000000000005eb4cf99c893ffbc00000000000000000000000000000000000000000000000000000000006b07dd",
          "blockHash": "0x8c6a93114593fbdb305f3622e2149df2722b9b24f20b39a24d1c69ca2a4bac34",
          "blockNumber": "0x3891fa0",
          "transactionHash": "0x235ac8bb69bb995c8a03640ae106ffab1c22d70efda8a5d37fd3baf34e054e08",
          "transactionIndex": "0x3d",
          "logIndex": "0x1a70",
          "removed": false
        },
        {
          "address": "0x82f7a247ceeb62af5c5c8021c1f6dcf83b48a97f",
          "topics": [
            "0x4c209b5fc8ad50758f13e2e1088ba56a560dff690a1c6fef26394f4c03821c4f",
            "0x000000000000000000000000a5e0829caced8ffdd4de3c43696c57f7d7a678ff"
          ],
          "data": "0x0000000000000000000000000000000000000000000000005102b52dbfbd945600000000000000000000000000000000000000000000000000000000005b8d80",
          "blockHash": "0x8c6a93114593fbdb305f3622e2149df2722b9b24f20b39a24d1c69ca2a4bac34",
          "blockNumber": "0x3891fa0",
          "transactionHash": "0x235ac8bb69bb995c8a03640ae106ffab1c22d70efda8a5d37fd3baf34e054e08",
          "transactionIndex": "0x3d",
          "logIndex": "0x1a71",
          "removed": false
        },
        {
          "address": "0x0000000000000000000000000000000000001010",
          "topics": [
            "0x4dfe1bbbcf077ddc3e01291eea2d5c70c2b422b415d95645b9adcfd678cb1d63",
            "0x0000000000000000000000000000000000000000000000000000000000001010",
            "0x0000000000000000000000001b395389386f3f2a27866dad8f7ddbb31c392e66",
            "0x000000000000000000000000eedba2484aaf940f37cd3cd21a5d7c4a7dafbfc0"
          ],
          "data": "0x00000000000000000000000000000000000000000000000000157dfd7b736c4c00000000000000000000000000000000000000000000000079d2bb6f511840a400000000000000000000000000000000000000000001422128bd0387d090e0fb00000000000000000000000000000000000000000000000079bd3d71d5a4d45800000000000000000000000000000000000000000001422128d281854c044d47",
          "blockHash": "0x8c6a93114593fbdb305f3622e2149df2722b9b24f20b39a24d1c69ca2a4bac34",
          "blockNumber": "0x3891fa0",
          "transactionHash": "0x235ac8bb69bb995c8a03640ae106ffab1c22d70efda8a5d37fd3baf34e054e08",
          "transactionIndex": "0x3d",
          "logIndex": "0x1a72",
          "removed": false
        }
      ],
      "logsBloom": "0x0000000000000000000000048000000000000000000000000000000000000100000000000000000000000002000c000100008000000000000000000000200000200000000000000000080008000400800004000000000000000100000000000000000000020082000000000000000801000000000108000080010010000000800000014000080000000000000000000000000000000000080000000000000000220000000000000000000000000000020000000000000000000020002000004100000002000000000001000000020000400000000000001000100000000024000010000000000000000000000000000000000000000000000000000000100000",
      "type": "0x2",
      "transactionHash": "0x235ac8bb69bb995c8a03640ae106ffab1c22d70efda8a5d37fd3baf34e054e08",
      "transactionIndex": "0x3d",
      "blockHash": "0x8c6a93114593fbdb305f3622e2149df2722b9b24f20b39a24d1c69ca2a4bac34",
      "blockNumber": "0x3891fa0",
      "gasUsed": "0x30c59",
      "effectiveGasPrice": "0x70cff17af",
      "from": "0x1b395389386f3f2a27866dad8f7ddbb31c392e66",
      "to": "0xba4e757afb68d26dd654204507acb7b451f1a136",
      "contractAddress": null
    }
  ],
  "libraries": [],
  "pending": [],
  "returns": {
    "0": {
      "internal_type": "contract UniswapLiquidityPool",
      "value": "0xba4e757afB68d26Dd654204507Acb7b451f1a136"
    }
  },
  "timestamp": 1720892405,
  "chain": 137,
  "commit": "6523bd8"
}