{
  "transactions": [
    {
      "hash": "0x0066a8881e4419a04bb117eb16a0fe8880e0880ef1fa41b7274c0b82b2072fc8",
      "transactionType": "CREATE",
      "contractName": "UniswapLiquidityPool",
      "contractAddress": "0xba4e757afb68d26dd654204507acb7b451f1a136",
      "function": null,
      "arguments": null,
      "transaction": {
        "from": "0x1b395389386f3f2a27866dad8f7ddbb31c392e66",
        "gas": "0x12a0bc",
        "value": "0x0",
        "input": "0x608060405234801561001057600080fd5b50338061003757604051631e4fbdf760e01b81526000600482015260240160405180910390fd5b61004081610046565b50610096565b600080546001600160a01b038381166001600160a01b0319831681178455604051919092169283917f8be0079c531659141344cd1fd0a4f28419497f9722a3daafe3b4186f6b6457e09190a35050565b610f90806100a56000396000f3fe608060405234801561001057600080fd5b50600436106100935760003560e01c80639cf38f7c116100665780639cf38f7c146100f2578063c9c653961461011a578063cf6c62ea1461012d578063e6a4390514610140578063f2fde38b1461015357600080fd5b80630c0a763014610098578063715018a6146100ad578063857abbd4146100b55780638da5cb5b146100c8575b600080fd5b6100ab6100a6366004610c48565b610166565b005b6100ab610400565b6100ab6100c3366004610c89565b610414565b6000546001600160a01b03165b6040516001600160a01b0390911681526020015b60405180910390f35b610105610100366004610ca6565b610501565b604080519283526020830191909152016100e9565b6100ab610128366004610ca6565b61078d565b61010561013b366004610cdf565b610820565b6100d561014e366004610ca6565b610aea565b6100ab610161366004610c89565b610b78565b61016e610bb6565b6040516323b872dd60e01b8152336004820152306024820152604481018290526001600160a01b038416906323b872dd906064016020604051808303816000875af11580156101c1573d6000803e3d6000fd5b505050506040513d601f19601f820116820180604052508101906101e59190610d25565b5060405163095ea7b360e01b815273a5e0829caced8ffdd4de3c43696c57f7d7a678ff6004820152602481018290526001600160a01b0384169063095ea7b3906044016020604051808303816000875af1158015610247573d6000803e3d6000fd5b505050506040513d601f19601f8201168201806040525081019061026b9190610d25565b5060408051600280825260608201835260009260208301908036833701905050905083816000815181106102a1576102a1610d5d565b60200260200101906001600160a01b031690816001600160a01b03168152505082816001815181106102d5576102d5610d5d565b6001600160a01b039092166020928302919091019091015260405163d06ca61f60e01b815260009073a5e0829caced8ffdd4de3c43696c57f7d7a678ff9063d06ca61f906103299086908690600401610db7565b600060405180830381865afa158015610346573d6000803e3d6000fd5b505050506040513d6000823e601f3d908101601f1916820160405261036e9190810190610dd8565b6040516338ed173960e01b815290915073a5e0829caced8ffdd4de3c43696c57f7d7a678ff906338ed1739906103b1908690600090879030904290600401610e96565b6000604051808303816000875af11580156103d0573d6000803e3d6000fd5b505050506040513d6000823e601f3d908101601f191682016040526103f89190810190610dd8565b505050505050565b610408610bb6565b6104126000610be3565b565b61041c610bb6565b6040516370a0823160e01b81523060048201526001600160a01b0382169063a9059cbb90339083906370a0823190602401602060405180830381865afa15801561046a573d6000803e3d6000fd5b505050506040513d601f19601f8201168201806040525081019061048e9190610ed2565b6040516001600160e01b031960e085901b1681526001600160a01b03909216600483015260248201526044016020604051808303816000875af11580156104d9573d6000803e3d6000fd5b505050506040513d601f19601f820116820180604052508101906104fd9190610d25565b5050565b60008061050c610bb6565b60405163e6a4390560e01b81526001600160a01b03808616600483015284166024820152600090735757371414417b8c6caad45baef941abc7d3ab329063e6a4390590604401602060405180830381865afa15801561056f573d6000803e3d6000fd5b505050506040513d601f19601f820116820180604052508101906105939190610eeb565b6040516370a0823160e01b81523060048201529091506000906001600160a01b038316906370a0823190602401602060405180830381865afa1580156105dd573d6000803e3d6000fd5b505050506040513d601f19601f820116820180604052508101906106019190610ed2565b60405163095ea7b360e01b815273a5e0829caced8ffdd4de3c43696c57f7d7a678ff6004820152602481018290529091506000906001600160a01b0384169063095ea7b3906044016020604051808303816000875af1158015610668573d6000803e3d6000fd5b505050506040513d601f19601f8201168201806040525081019061068c9190610d25565b9050806106d25760405162461bcd60e51b815260206004820152600f60248201526e105c1c1c9bdd985b0819985a5b1959608a1b60448201526064015b60405180910390fd5b604051635d5155ef60e11b81526001600160a01b038089166004830152871660248201526044810183905260016064820181905260848201523060a48201524260c4820152600090819073a5e0829caced8ffdd4de3c43696c57f7d7a678ff9063baa2abde9060e40160408051808303816000875af1158015610759573d6000803e3d6000fd5b505050506040513d601f19601f8201168201806040525081019061077d9190610f08565b909a909950975050505050505050565b610795610bb6565b6040516364e329cb60e11b81526001600160a01b03808416600483015282166024820152735757371414417b8c6caad45baef941abc7d3ab329063c9c65396906044016020604051808303816000875af11580156107f7573d6000803e3d6000fd5b505050506040513d601f19601f8201168201806040525081019061081b9190610eeb565b505050565b60008061082b610bb6565b6040516323b872dd60e01b8152336004820152306024820152604481018590526001600160a01b038716906323b872dd906064016020604051808303816000875af115801561087e573d6000803e3d6000fd5b505050506040513d601f19601f820116820180604052508101906108a29190610d25565b506040516323b872dd60e01b8152336004820152306024820152604481018490526001600160a01b038616906323b872dd906064016020604051808303816000875af11580156108f6573d6000803e3d6000fd5b505050506040513d601f19601f8201168201806040525081019061091a9190610d25565b5060405163095ea7b360e01b815273a5e0829caced8ffdd4de3c43696c57f7d7a678ff6004820152602481018590526001600160a01b0387169063095ea7b3906044016020604051808303816000875af115801561097c573d6000803e3d6000fd5b505050506040513d601f19601f820116820180604052508101906109a09190610d25565b5060405163095ea7b360e01b815273a5e0829caced8ffdd4de3c43696c57f7d7a678ff6004820152602481018490526001600160a01b0386169063095ea7b3906044016020604051808303816000875af1158015610a02573d6000803e3d6000fd5b505050506040513d601f19601f82011682018060405250810190610a269190610d25565b5060405162e8e33760e81b81526001600160a01b03808816600483015286166024820152604481018590526064810184905260016084820181905260a48201523060c48201524260e4820152600090819073a5e0829caced8ffdd4de3c43696c57f7d7a678ff9063e8e3370090610104016060604051808303816000875af1158015610ab6573d6000803e3d6000fd5b505050506040513d601f19601f82011682018060405250810190610ada9190610f2c565b5090999098509650505050505050565b60405163e6a4390560e01b81526001600160a01b03808416600483015282166024820152600090735757371414417b8c6caad45baef941abc7d3ab329063e6a4390590604401602060405180830381865afa158015610b4d573d6000803e3d6000fd5b505050506040513d601f19601f82011682018060405250810190610b719190610eeb565b9392505050565b610b80610bb6565b6001600160a01b038116610baa57604051631e4fbdf760e01b8152600060048201526024016106c9565b610bb381610be3565b50565b6000546001600160a01b031633146104125760405163118cdaa760e01b81523360048201526024016106c9565b600080546001600160a01b038381166001600160a01b0319831681178455604051919092169283917f8be0079c531659141344cd1fd0a4f28419497f9722a3daafe3b4186f6b6457e09190a35050565b6001600160a01b0381168114610bb357600080fd5b600080600060608486031215610c5d57600080fd5b8335610c6881610c33565b92506020840135610c7881610c33565b929592945050506040919091013590565b600060208284031215610c9b57600080fd5b8135610b7181610c33565b60008060408385031215610cb957600080fd5b8235610cc481610c33565b91506020830135610cd481610c33565b809150509250929050565b60008060008060808587031215610cf557600080fd5b8435610d0081610c33565b93506020850135610d1081610c33565b93969395505050506040820135916060013590565b600060208284031215610d3757600080fd5b81518015158114610b7157600080fd5b634e487b7160e01b600052604160045260246000fd5b634e487b7160e01b600052603260045260246000fd5b600081518084526020808501945080840160005b83811015610dac5781516001600160a01b031687529582019590820190600101610d87565b509495945050505050565b828152604060208201526000610dd06040830184610d73565b949350505050565b60006020808385031215610deb57600080fd5b825167ffffffffffffffff80821115610e0357600080fd5b818501915085601f830112610e1757600080fd5b815181811115610e2957610e29610d47565b8060051b604051601f19603f83011681018181108582111715610e4e57610e4e610d47565b604052918252848201925083810185019188831115610e6c57600080fd5b938501935b82851015610e8a57845184529385019392850192610e71565b98975050505050505050565b85815284602082015260a060408201526000610eb560a0830186610d73565b6001600160a01b0394909416606083015250608001529392505050565b600060208284031215610ee457600080fd5b5051919050565b600060208284031215610efd57600080fd5b8151610b7181610c33565b60008060408385031215610f1b57600080fd5b505080516020909101519092909150565b600080600060608486031215610f4157600080fd5b835192506020840151915060408401519050925092509256fea26469706673582212201c59204ae6ebc1f08b1ae62b305cda0b2fdba66ff75634d37d07dba00f67d87264736f6c63430008140033",
        "nonce": "0x15d",
        "chainId": "0x89"
      },
      "additionalContracts": [],
      "isFixedGasLimit": false
    },
    {
      "hash": "0x17a9418187f0b56907bb7ac20cdf4d1b3d0a19d57544dc4867b8ffca396adf66",
      "transactionType": "CALL",
      "contractName": null,
      "contractAddress": "0x54aafdbfa2f52a8e5871e14ee2b863ff9c695f19",
      "function": "approve(address,uint256)",
      "arguments": [
        "0xba4e757afB68d26Dd654204507Acb7b451f1a136",
        "1000000000000000000"
      ],
      "transaction": {
        "from": "0x1b395389386f3f2a27866dad8f7ddbb31c392e66",
        "to": "0x54aafdbfa2f52a8e5871e14ee2b863ff9c695f19",
        "gas": "0x1090a",
        "value": "0x0",
        "input": "0x095ea7b3000000000000000000000000ba4e757afb68d26dd654204507acb7b451f1a1360000000000000000000000000000000000000000000000000de0b6b3a7640000",
        "nonce": "0x15e",
        "chainId": "0x89"
      },
      "additionalContracts": [],
      "isFixedGasLimit": false
    },
    {
      "hash": "0x5b961e428ac988f5b28a65b01d19edcdd1a1e34dd07baafe5706b261e9b75327",
      "transactionType": "CALL",
      "contractName": null,
      "contractAddress": "0xc2132d05d31c914a87c6611c10748aeb04b58e8f",
      "function": "approve(address,uint256)",
      "arguments": [
        "0xba4e757afB68d26Dd654204507Acb7b451f1a136",
        "2000000"
      ],
      "transaction": {
        "from": "0x1b395389386f3f2a27866dad8f7ddbb31c392e66",
        "to": "0xc2132d05d31c914a87c6611c10748aeb04b58e8f",
        "gas": "0x11712",
        "value": "0x0",
        "input": "0x095ea7b3000000000000000000000000ba4e757afb68d26dd654204507acb7b451f1a13600000000000000000000000000000000000000000000000000000000001e8480",
        "nonce": "0x15f",
        "chainId": "0x89"
      },
      "additionalContracts": [],
      "isFixedGasLimit": false
    },
    {
      "hash": "0x8511c707e3ae70392d6d2c82311b0d3ee1c1d1e441d8fbe89e6fd17d614af988",
      "transactionType": "CALL",
      "contractName": "UniswapLiquidityPool",
      "contractAddress": "0xba4e757afb68d26dd654204507acb7b451f1a136",
      "function": "addLiquidity(address,address,uint256,uint256)",
      "arguments": [
        "0x54AafdbFa2f52a8E5871E14EE2b863ff9C695F19",
        "0xc2132D05D31c914a87C6611C10748AEb04B58e8F",
        "1000000000000000000",
        "2000000"
      ],
      "transaction": {
        "from": "0x1b395389386f3f2a27866dad8f7ddbb31c392e66",
        "to": "0xba4e757afb68d26dd654204507acb7b451f1a136",
        "gas": "0x529fa",
        "value": "0x0",
        "input": "0xcf6c62ea00000000000000000000000054aafdbfa2f52a8e5871e14ee2b863ff9c695f19000000000000000000000000c2132d05d31c914a87c6611c10748aeb04b58e8f0000000000000000000000000000000000000000000000000de0b6b3a764000000000000000000000000000000000000000000000000000000000000001e8480",
        "nonce": "0x160",
        "chainId": "0x89"
      },
      "additionalContracts": [],
      "isFixedGasLimit": false
    }
  ],
  "receipts": [
    {
      "status": "0x1",
      "cumulativeGasUsed": "0x8adae0",
      "logs": [
        {
          "address": "0xba4e757afb68d26dd654204507acb7b451f1a136",
          "topics": [
            "0x8be0079c531659141344cd1fd0a4f28419497f9722a3daafe3b4186f6b6457e0",
            "0x0000000000000000000000000000000000000000000000000000000000000000",
            "0x0000000000000000000000001b395389386f3f2a27866dad8f7ddbb31c392e66"
          ],
          "data": "0x",
          "blockHash": "0x33f3ac8e3ed8d81a34b52a84eb6e955b90337321c434e9910b2cd77f4ca37664",
          "blockNumber": "0x38914b0",
          "transactionHash": "0x0066a8881e4419a04bb117eb16a0fe8880e0880ef1fa41b7274c0b82b2072fc8",
          "transactionIndex": "0x37",
          "logIndex": "0x2b9",
          "removed": false
        },
        {
          "address": "0x0000000000000000000000000000000000001010",
          "topics": [
            "0x4dfe1bbbcf077ddc3e01291eea2d5c70c2b422b415d95645b9adcfd678cb1d63",
            "0x0000000000000000000000000000000000000000000000000000000000001010",
            "0x0000000000000000000000001b395389386f3f2a27866dad8f7ddbb31c392e66",
            "0x000000000000000000000000b9ede6f94d192073d8eaf85f8db677133d483249"
          ],
          "data": "0x00000000000000000000000000000000000000000000000000641d9431dd08000000000000000000000000000000000000000000000000007aa7524aa6819aa2000000000000000000000000000000000000000000000346a5f468b6a5ee1a9b0000000000000000000000000000000000000000000000007a4334b674a492a2000000000000000000000000000000000000000000000346a658864ad7cb229b",
          "blockHash": "0x33f3ac8e3ed8d81a34b52a84eb6e955b90337321c434e9910b2cd77f4ca37664",
          "blockNumber": "0x38914b0",
          "transactionHash": "0x0066a8881e4419a04bb117eb16a0fe8880e0880ef1fa41b7274c0b82b2072fc8",
          "transactionIndex": "0x37",
          "logIndex": "0x2ba",
          "removed": false
        }
      ],
      "logsBloom": "0x00000000000000000000000000000000000000000000000000800000000000000000000000000000000000000000000000008000000000000000000000000000000000000000000000080000000000800005000000000000000100000000000000000000020002000000000000000800000000000000000080000000000100400020000000000000000000000000000000000000000000000000000000000000200000000000000000000000000000000000002000000000000000000000004000000000000000000001000000000000000000000000000000100000000020000000000000000000100000000000000004000000000000200000000000100000",
      "type": "0x2",
      "transactionHash": "0x0066a8881e4419a04bb117eb16a0fe8880e0880ef1fa41b7274c0b82b2072fc8",
      "transactionIndex": "0x37",
      "blockHash": "0x33f3ac8e3ed8d81a34b52a84eb6e955b90337321c434e9910b2cd77f4ca37664",
      "blockNumber": "0x38914b0",
      "gasUsed": "0xe5546",
      "effectiveGasPrice": "0x6fc251c5a",
      "from": "0x1b395389386f3f2a27866dad8f7ddbb31c392e66",
      "to": null,
      "contractAddress": "0xba4e757afb68d26dd654204507acb7b451f1a136"
    },
    {
      "status": "0x1",
      "cumulativeGasUsed": "0x92d2a7",
      "logs": [
        {
          "address": "0x54aafdbfa2f52a8e5871e14ee2b863ff9c695f19",
          "topics": [
            "0x8c5be1e5ebec7d5bd14f71427d1e84f3dd0314c0f7b2291e5b200ac8c7c3b925",
            "0x0000000000000000000000001b395389386f3f2a27866dad8f7ddbb31c392e66",
            "0x000000000000000000000000ba4e757afb68d26dd654204507acb7b451f1a136"
          ],
          "data": "0x0000000000000000000000000000000000000000000000000de0b6b3a7640000",
          "blockHash": "0x33f3ac8e3ed8d81a34b52a84eb6e955b90337321c434e9910b2cd77f4ca37664",
          "blockNumber": "0x38914b0",
          "transactionHash": "0x17a9418187f0b56907bb7ac20cdf4d1b3d0a19d57544dc4867b8ffca396adf66",
          "transactionIndex": "0x3b",
          "logIndex": "0x2cd",
          "removed": false
        },
        {
          "address": "0x0000000000000000000000000000000000001010",
          "topics": [
            "0x4dfe1bbbcf077ddc3e01291eea2d5c70c2b422b415d95645b9adcfd678cb1d63",
            "0x0000000000000000000000000000000000000000000000000000000000001010",
            "0x0000000000000000000000001b395389386f3f2a27866dad8f7ddbb31c392e66",
            "0x000000000000000000000000b9ede6f94d192073d8eaf85f8db677133d483249"
          ],
          "data": "0x0000000000000000000000000000000000000000000000000004f1da58b0f8000000000000000000000000000000000000000000000000007a4334a1d505f806000000000000000000000000000000000000000000000346a68b3c1e9dc8de9b0000000000000000000000000000000000000000000000007a3e42c77c550006000000000000000000000000000000000000000000000346a6902df8f679d69b",
          "blockHash": "0x33f3ac8e3ed8d81a34b52a84eb6e955b90337321c434e9910b2cd77f4ca37664",
          "blockNumber": "0x38914b0",
          "transactionHash": "0x17a9418187f0b56907bb7ac20cdf4d1b3d0a19d57544dc4867b8ffca396adf66",
          "transactionIndex": "0x3b",
          "logIndex": "0x2ce",
          "removed": false
        }
      ],
      "logsBloom": "0x00000000000000000000000000000000000000000000000000000000000000000000000000000000000000000004000000008000000000000000000000200000000000000000000000080000000400800004000000000000000100000000000000000000000002000000000000000000000000000000000080010000000100000000000000000000000000000000000000000000000000000000000000000000220000000000000000000000000000020000000000000000000000000000004100000000000000000001000000000000000000000000000000100000000004000010000000000000100000000000000000000000000000200000000000100000",
      "type": "0x2",
      "transactionHash": "0x17a9418187f0b56907bb7ac20cdf4d1b3d0a19d57544dc4867b8ffca396adf66",
      "transactionIndex": "0x3b",
      "blockHash": "0x33f3ac8e3ed8d81a34b52a84eb6e955b90337321c434e9910b2cd77f4ca37664",
      "blockNumber": "0x38914b0",
      "gasUsed": "0xb53a",
      "effectiveGasPrice": "0x6fc251c5a",
      "from": "0x1b395389386f3f2a27866dad8f7ddbb31c392e66",
      "to": "0x54aafdbfa2f52a8e5871e14ee2b863ff9c695f19",
      "contractAddress": null
    },
    {
      "status": "0x1",
      "cumulativeGasUsed": "0x939cb3",
      "logs": [
        {
          "address": "0xc2132d05d31c914a87c6611c10748aeb04b58e8f",
          "topics": [
            "0x8c5be1e5ebec7d5bd14f71427d1e84f3dd0314c0f7b2291e5b200ac8c7c3b925",
            "0x0000000000000000000000001b395389386f3f2a27866dad8f7ddbb31c392e66",
            "0x000000000000000000000000ba4e757afb68d26dd654204507acb7b451f1a136"
          ],
          "data": "0x00000000000000000000000000000000000000000000000000000000001e8480",
          "blockHash": "0x33f3ac8e3ed8d81a34b52a84eb6e955b90337321c434e9910b2cd77f4ca37664",
          "blockNumber": "0x38914b0",
          "transactionHash": "0x5b961e428ac988f5b28a65b01d19edcdd1a1e34dd07baafe5706b261e9b75327",
          "transactionIndex": "0x3c",
          "logIndex": "0x2cf",
          "removed": false
        },
        {
          "address": "0x0000000000000000000000000000000000001010",
          "topics": [
            "0x4dfe1bbbcf077ddc3e01291eea2d5c70c2b422b415d95645b9adcfd678cb1d63",
            "0x0000000000000000000000000000000000000000000000000000000000001010",
            "0x0000000000000000000000001b395389386f3f2a27866dad8f7ddbb31c392e66",
            "0x000000000000000000000000b9ede6f94d192073d8eaf85f8db677133d483249"
          ],
          "data": "0x00000000000000000000000000000000000000000000000000058347f76410000000000000000000000000000000000000000000000000007a3e42c67791e9a2000000000000000000000000000000000000000000000346a6902df8f679d69b0000000000000000000000000000000000000000000000007a38bf7e802dd9a2000000000000000000000000000000000000000000000346a695b140eddde69b",
          "blockHash": "0x33f3ac8e3ed8d81a34b52a84eb6e955b90337321c434e9910b2cd77f4ca37664",
          "blockNumber": "0x38914b0",
          "transactionHash": "0x5b961e428ac988f5b28a65b01d19edcdd1a1e34dd07baafe5706b261e9b75327",
          "transactionIndex": "0x3c",
          "logIndex": "0x2d0",
          "removed": false
        }
      ],
      "logsBloom": "0x00000000000000000000000000000000000000000000000000000000000000000000000000000000000000000000000100008000000000000000000000200000000000000000000000080000000400800004000000000000000100000000000000000000000002000000000000000000000000000000000080010000000100000000000000080000000000000000000000000000000000000000000000000000220000000000000000000000000000020000000000000000000000000000004000000000000000000001000000000000400000000000000000100000000000000010000000000000100000000000000000000000000000200000000000100000",
      "type": "0x2",
      "transactionHash": "0x5b961e428ac988f5b28a65b01d19edcdd1a1e34dd07baafe5706b261e9b75327",
      "transactionIndex": "0x3c",
      "blockHash": "0x33f3ac8e3ed8d81a34b52a84eb6e955b90337321c434e9910b2cd77f4ca37664",
      "blockNumber": "0x38914b0",
      "gasUsed": "0xca0c",
      "effectiveGasPrice": "0x6fc251c5a",
      "from": "0x1b395389386f3f2a27866dad8f7ddbb31c392e66",
      "to": "0xc2132d05d31c914a87c6611c10748aeb04b58e8f",
      "contractAddress": null
    },
    {
      "status": "0x1",
      "cumulativeGasUsed": "0x97249e",
      "logs": [
        {
          "address": "0x54aafdbfa2f52a8e5871e14ee2b863ff9c695f19",
          "topics": [
            "0xddf252ad1be2c89b69c2b068fc378daa952ba7f163c4a11628f55a4df523b3ef",
            "0x0000000000000000000000001b395389386f3f2a27866dad8f7ddbb31c392e66",
            "0x000000000000000000000000ba4e757afb68d26dd654204507acb7b451f1a136"
          ],
          "data": "0x0000000000000000000000000000000000000000000000000de0b6b3a7640000",
          "blockHash": "0x33f3ac8e3ed8d81a34b52a84eb6e955b90337321c434e9910b2cd77f4ca37664",
          "blockNumber": "0x38914b0",
          "transactionHash": "0x8511c707e3ae70392d6d2c82311b0d3ee1c1d1e441d8fbe89e6fd17d614af988",
          "transactionIndex": "0x3d",
          "logIndex": "0x2d1",
          "removed": false
        },
        {
          "address": "0xc2132d05d31c914a87c6611c10748aeb04b58e8f",
          "topics": [
            "0xddf252ad1be2c89b69c2b068fc378daa952ba7f163c4a11628f55a4df523b3ef",
            "0x0000000000000000000000001b395389386f3f2a27866dad8f7ddbb31c392e66",
            "0x000000000000000000000000ba4e757afb68d26dd654204507acb7b451f1a136"
          ],
          "data": "0x00000000000000000000000000000000000000000000000000000000001e8480",
          "blockHash": "0x33f3ac8e3ed8d81a34b52a84eb6e955b90337321c434e9910b2cd77f4ca37664",
          "blockNumber": "0x38914b0",
          "transactionHash": "0x8511c707e3ae70392d6d2c82311b0d3ee1c1d1e441d8fbe89e6fd17d614af988",
          "transactionIndex": "0x3d",
          "logIndex": "0x2d2",
          "removed": false
        },
        {
          "address": "0xc2132d05d31c914a87c6611c10748aeb04b58e8f",
          "topics": [
            "0x8c5be1e5ebec7d5bd14f71427d1e84f3dd0314c0f7b2291e5b200ac8c7c3b925",
            "0x0000000000000000000000001b395389386f3f2a27866dad8f7ddbb31c392e66",
            "0x000000000000000000000000ba4e757afb68d26dd654204507acb7b451f1a136"
          ],
          "data": "0x0000000000000000000000000000000000000000000000000000000000000000",
          "blockHash": "0x33f3ac8e3ed8d81a34b52a84eb6e955b90337321c434e9910b2cd77f4ca37664",
          "blockNumber": "0x38914b0",
          "transactionHash": "0x8511c707e3ae70392d6d2c82311b0d3ee1c1d1e441d8fbe89e6fd17d614af988",
          "transactionIndex": "0x3d",
          "logIndex": "0x2d3",
          "removed": false
        },
        {
          "address": "0x54aafdbfa2f52a8e5871e14ee2b863ff9c695f19",
          "topics": [
            "0x8c5be1e5ebec7d5bd14f71427d1e84f3dd0314c0f7b2291e5b200ac8c7c3b925",
            "0x000000000000000000000000ba4e757afb68d26dd654204507acb7b451f1a136",
            "0x000000000000000000000000a5e0829caced8ffdd4de3c43696c57f7d7a678ff"
          ],
          "data": "0x0000000000000000000000000000000000000000000000000de0b6b3a7640000",
          "blockHash": "0x33f3ac8e3ed8d81a34b52a84eb6e955b90337321c434e9910b2cd77f4ca37664",
          "blockNumber": "0x38914b0",
          "transactionHash": "0x8511c707e3ae70392d6d2c82311b0d3ee1c1d1e441d8fbe89e6fd17d614af988",
          "transactionIndex": "0x3d",
          "logIndex": "0x2d4",
          "removed": false
        },
        {
          "address": "0xc2132d05d31c914a87c6611c10748aeb04b58e8f",
          "topics": [
            "0x8c5be1e5ebec7d5bd14f71427d1e84f3dd0314c0f7b2291e5b200ac8c7c3b925",
            "0x000000000000000000000000ba4e757afb68d26dd654204507acb7b451f1a136",
            "0x000000000000000000000000a5e0829caced8ffdd4de3c43696c57f7d7a678ff"
          ],
          "data": "0x00000000000000000000000000000000000000000000000000000000001e8480",
          "blockHash": "0x33f3ac8e3ed8d81a34b52a84eb6e955b90337321c434e9910b2cd77f4ca37664",
          "blockNumber": "0x38914b0",
          "transactionHash": "0x8511c707e3ae70392d6d2c82311b0d3ee1c1d1e441d8fbe89e6fd17d614af988",
          "transactionIndex": "0x3d",
          "logIndex": "0x2d5",
          "removed": false
        },
        {
          "address": "0x54aafdbfa2f52a8e5871e14ee2b863ff9c695f19",
          "topics": [
            "0xddf252ad1be2c89b69c2b068fc378daa952ba7f163c4a11628f55a4df523b3ef",
            "0x000000000000000000000000ba4e757afb68d26dd654204507acb7b451f1a136",
            "0x00000000000000000000000082f7a247ceeb62af5c5c8021c1f6dcf83b48a97f"
          ],
          "data": "0x0000000000000000000000000000000000000000000000000de0b6b3a7640000",
          "blockHash": "0x33f3ac8e3ed8d81a34b52a84eb6e955b90337321c434e9910b2cd77f4ca37664",
          "blockNumber": "0x38914b0",
          "transactionHash": "0x8511c707e3ae70392d6d2c82311b0d3ee1c1d1e441d8fbe89e6fd17d614af988",
          "transactionIndex": "0x3d",
          "logIndex": "0x2d6",
          "removed": false
        },
        {
          "address": "0xc2132d05d31c914a87c6611c10748aeb04b58e8f",
          "topics": [
            "0xddf252ad1be2c89b69c2b068fc378daa952ba7f163c4a11628f55a4df523b3ef",
            "0x000000000000000000000000ba4e757afb68d26dd654204507acb7b451f1a136",
            "0x00000000000000000000000082f7a247ceeb62af5c5c8021c1f6dcf83b48a97f"
          ],
          "data": "0x00000000000000000000000000000000000000000000000000000000000faf09",
          "blockHash": "0x33f3ac8e3ed8d81a34b52a84eb6e955b90337321c434e9910b2cd77f4ca37664",
          "blockNumber": "0x38914b0",
          "transactionHash": "0x8511c707e3ae70392d6d2c82311b0d3ee1c1d1e441d8fbe89e6fd17d614af988",
          "transactionIndex": "0x3d",
          "logIndex": "0x2d7",
          "removed": false
        },
        {
          "address": "0xc2132d05d31c914a87c6611c10748aeb04b58e8f",
          "topics": [
            "0x8c5be1e5ebec7d5bd14f71427d1e84f3dd0314c0f7b2291e5b200ac8c7c3b925",
            "0x000000000000000000000000ba4e757afb68d26dd654204507acb7b451f1a136",
            "0x000000000000000000000000a5e0829caced8ffdd4de3c43696c57f7d7a678ff"
          ],
          "data": "0x00000000000000000000000000000000000000000000000000000000000ed577",
          "blockHash": "0x33f3ac8e3ed8d81a34b52a84eb6e955b90337321c434e9910b2cd77f4ca37664",
          "blockNumber": "0x38914b0",
          "transactionHash": "0x8511c707e3ae70392d6d2c82311b0d3ee1c1d1e441d8fbe89e6fd17d614af988",
          "transactionIndex": "0x3d",
          "logIndex": "0x2d8",
          "removed": false
        },
        {
          "address": "0x82f7a247ceeb62af5c5c8021c1f6dcf83b48a97f",
          "topics": [
            "0xddf252ad1be2c89b69c2b068fc378daa952ba7f163c4a11628f55a4df523b3ef",
            "0x0000000000000000000000000000000000000000000000000000000000000000",
            "0x000000000000000000000000ba4e757afb68d26dd654204507acb7b451f1a136"
          ],
          "data": "0x000000000000000000000000000000000000000000000000000000ebfb3131c1",
          "blockHash": "0x33f3ac8e3ed8d81a34b52a84eb6e955b90337321c434e9910b2cd77f4ca37664",
          "blockNumber": "0x38914b0",
          "transactionHash": "0x8511c707e3ae70392d6d2c82311b0d3ee1c1d1e441d8fbe89e6fd17d614af988",
          "transactionIndex": "0x3d",
          "logIndex": "0x2d9",
          "removed": false
        },
        {
          "address": "0x82f7a247ceeb62af5c5c8021c1f6dcf83b48a97f",
          "topics": [
            "0x1c411e9a96e071241c2f21f7726b17ae89e3cab4c78be50e062b03a9fffbbad1"
          ],
          "data": "0x0000000000000000000000000000000000000000000000001b92d1142330379200000000000000000000000000000000000000000000000000000000001f2965",
          "blockHash": "0x33f3ac8e3ed8d81a34b52a84eb6e955b90337321c434e9910b2cd77f4ca37664",
          "blockNumber": "0x38914b0",
          "transactionHash": "0x8511c707e3ae70392d6d2c82311b0d3ee1c1d1e441d8fbe89e6fd17d614af988",
          "transactionIndex": "0x3d",
          "logIndex": "0x2da",
          "removed": false
        },
        {
          "address": "0x82f7a247ceeb62af5c5c8021c1f6dcf83b48a97f",
          "topics": [
            "0x4c209b5fc8ad50758f13e2e1088ba56a560dff690a1c6fef26394f4c03821c4f",
            "0x000000000000000000000000a5e0829caced8ffdd4de3c43696c57f7d7a678ff"
          ],
          "data": "0x0000000000000000000000000000000000000000000000000de0b6b3a764000000000000000000000000000000000000000000000000000000000000000faf09",
          "blockHash": "0x33f3ac8e3ed8d81a34b52a84eb6e955b90337321c434e9910b2cd77f4ca37664",
          "blockNumber": "0x38914b0",
          "transactionHash": "0x8511c707e3ae70392d6d2c82311b0d3ee1c1d1e441d8fbe89e6fd17d614af988",
          "transactionIndex": "0x3d",
          "logIndex": "0x2db",
          "removed": false
        },
        {
          "address": "0x0000000000000000000000000000000000001010",
          "topics": [
            "0x4dfe1bbbcf077ddc3e01291eea2d5c70c2b422b415d95645b9adcfd678cb1d63",
            "0x0000000000000000000000000000000000000000000000000000000000001010",
            "0x0000000000000000000000001b395389386f3f2a27866dad8f7ddbb31c392e66",
            "0x000000000000000000000000b9ede6f94d192073d8eaf85f8db677133d483249"
          ],
          "data": "0x0000000000000000000000000000000000000000000000000018a9cb4872e4000000000000000000000000000000000000000000000000007a38bf7d5d75916a000000000000000000000000000000000000000000000346a695b140eddde69b0000000000000000000000000000000000000000000000007a2015b21502ad6a000000000000000000000000000000000000000000000346a6ae5b0c3650ca9b",
          "blockHash": "0x33f3ac8e3ed8d81a34b52a84eb6e955b90337321c434e9910b2cd77f4ca37664",
          "blockNumber": "0x38914b0",
          "transactionHash": "0x8511c707e3ae70392d6d2c82311b0d3ee1c1d1e441d8fbe89e6fd17d614af988",
          "transactionIndex": "0x3d",
          "logIndex": "0x2dc",
          "removed": false
        }
      ],
      "logsBloom": "0x0000000000000000000000048000000000000000000000000000000000000100000000000000000000000002000c000100008000000000000000000000200000200000000000000000080008000400800004000000000000000100000000000000000000020082000000000000000801000000000008000080010010000100800000010000080000000000000000000000000000000000080000000000000000220000000000000000000000000000020000000000000000000000002000004100000002000000000001000000020000400000000000001000100000000024000010000000000000100000000000000000000000000000200000000000100000",
      "type": "0x2",
      "transactionHash": "0x8511c707e3ae70392d6d2c82311b0d3ee1c1d1e441d8fbe89e6fd17d614af988",
      "transactionIndex": "0x3d",
      "blockHash": "0x33f3ac8e3ed8d81a34b52a84eb6e955b90337321c434e9910b2cd77f4ca37664",
      "blockNumber": "0x38914b0",
      "gasUsed": "0x387eb",
      "effectiveGasPrice": "0x6fc251c5a",
      "from": "0x1b395389386f3f2a27866dad8f7ddbb31c392e66",
      "to": "0xba4e757afb68d26dd654204507acb7b451f1a136",
      "contractAddress": null
    }
  ],
  "libraries": [],
  "pending": [],
  "returns": {
    "0": {
      "internal_type": "contract UniswapLiquidityPool",
      "value": "0xba4e757afB68d26Dd654204507Acb7b451f1a136"
    }
  },
  "timestamp": 1720886134,
  "chain": 137,
  "commit": "6523bd8"
}