{
  "transactions": [
    {
      "hash": "0x2ff5483d031a3d483d01fb5318a7526c778b0ed99131991830f9c31fc3846a9c",
      "transactionType": "CALL",
      "contractName": null,
      "contractAddress": "0xdeaa322f2b12c8df4634bcde680fca4f3f3f80eb",
      "function": "removeLiquidity(address,address)",
      "arguments": [
        "0x54AafdbFa2f52a8E5871E14EE2b863ff9C695F19",
        "0xc2132D05D31c914a87C6611C10748AEb04B58e8F"
      ],
      "transaction": {
        "from": "0x1b395389386f3f2a27866dad8f7ddbb31c392e66",
        "to": "0xdeaa322f2b12c8df4634bcde680fca4f3f3f80eb",
        "gas": "0x413f0",
        "value": "0x0",
        "input": "0x9cf38f7c00000000000000000000000054aafdbfa2f52a8e5871e14ee2b863ff9c695f19000000000000000000000000c2132d05d31c914a87c6611c10748aeb04b58e8f",
        "nonce": "0x157",
        "chainId": "0x89"
      },
      "additionalContracts": [],
      "isFixedGasLimit": false
    }
  ],
  "receipts": [
    {
      "status": "0x1",
      "cumulativeGasUsed": "0x979d37",
      "logs": [
        {
          "address": "0x82f7a247ceeb62af5c5c8021c1f6dcf83b48a97f",
          "topics": [
            "0x8c5be1e5ebec7d5bd14f71427d1e84f3dd0314c0f7b2291e5b200ac8c7c3b925",
            "0x000000000000000000000000deaa322f2b12c8df4634bcde680fca4f3f3f80eb",
            "0x000000000000000000000000a5e0829caced8ffdd4de3c43696c57f7d7a678ff"
          ],
          "data": "0x000000000000000000000000000000000000000000000000000000e8d4a50c18",
          "blockHash": "0x00312247ff76526f566db3dcbdcc09f16f96b10cedaa5926550d50641738e5c3",
          "blockNumber": "0x37f14e0",
          "transactionHash": "0x2ff5483d031a3d483d01fb5318a7526c778b0ed99131991830f9c31fc3846a9c",
          "transactionIndex": "0x83",
          "logIndex": "0x19c",
          "removed": false
        },
        {
          "address": "0x82f7a247ceeb62af5c5c8021c1f6dcf83b48a97f",
          "topics": [
            "0xddf252ad1be2c89b69c2b068fc378daa952ba7f163c4a11628f55a4df523b3ef",
            "0x000000000000000000000000deaa322f2b12c8df4634bcde680fca4f3f3f80eb",
            "0x00000000000000000000000082f7a247ceeb62af5c5c8021c1f6dcf83b48a97f"
          ],
          "data": "0x000000000000000000000000000000000000000000000000000000e8d4a50c18",
          "blockHash": "0x00312247ff76526f566db3dcbdcc09f16f96b10cedaa5926550d50641738e5c3",
          "blockNumber": "0x37f14e0",
          "transactionHash": "0x2ff5483d031a3d483d01fb5318a7526c778b0ed99131991830f9c31fc3846a9c",
          "transactionIndex": "0x83",
          "logIndex": "0x19d",
          "removed": false
        },
        {
          "address": "0x82f7a247ceeb62af5c5c8021c1f6dcf83b48a97f",
          "topics": [
            "0xddf252ad1be2c89b69c2b068fc378daa952ba7f163c4a11628f55a4df523b3ef",
            "0x0000000000000000000000000000000000000000000000000000000000000000",
            "0x000000000000000000000000bc88c6edc57562e03a7d2e1c56ce707bbb462668"
          ],
          "data": "0x000000000000000000000000000000000000000000000000000000000df989b8",
          "blockHash": "0x00312247ff76526f566db3dcbdcc09f16f96b10cedaa5926550d50641738e5c3",
          "blockNumber": "0x37f14e0",
          "transactionHash": "0x2ff5483d031a3d483d01fb5318a7526c778b0ed99131991830f9c31fc3846a9c",
          "transactionIndex": "0x83",
          "logIndex": "0x19e",
          "removed": false
        },
        {
          "address": "0x82f7a247ceeb62af5c5c8021c1f6dcf83b48a97f",
          "topics": [
            "0xddf252ad1be2c89b69c2b068fc378daa952ba7f163c4a11628f55a4df523b3ef",
            "0x00000000000000000000000082f7a247ceeb62af5c5c8021c1f6dcf83b48a97f",
            "0x0000000000000000000000000000000000000000000000000000000000000000"
          ],
          "data": "0x000000000000000000000000000000000000000000000000000000e8d4a50c18",
          "blockHash": "0x00312247ff76526f566db3dcbdcc09f16f96b10cedaa5926550d50641738e5c3",
          "blockNumber": "0x37f14e0",
          "transactionHash": "0x2ff5483d031a3d483d01fb5318a7526c778b0ed99131991830f9c31fc3846a9c",
          "transactionIndex": "0x83",
          "logIndex": "0x19f",
          "removed": false
        },
        {
          "address": "0x54aafdbfa2f52a8e5871e14ee2b863ff9c695f19",
          "topics": [
            "0xddf252ad1be2c89b69c2b068fc378daa952ba7f163c4a11628f55a4df523b3ef",
            "0x00000000000000000000000082f7a247ceeb62af5c5c8021c1f6dcf83b48a97f",
            "0x000000000000000000000000deaa322f2b12c8df4634bcde680fca4f3f3f80eb"
          ],
          "data": "0x0000000000000000000000000000000000000000000000000db147fbf24fd5c4",
          "blockHash": "0x00312247ff76526f566db3dcbdcc09f16f96b10cedaa5926550d50641738e5c3",
          "blockNumber": "0x37f14e0",
          "transactionHash": "0x2ff5483d031a3d483d01fb5318a7526c778b0ed99131991830f9c31fc3846a9c",
          "transactionIndex": "0x83",
          "logIndex": "0x1a0",
          "removed": false
        },
        {
          "address": "0xc2132d05d31c914a87c6611c10748aeb04b58e8f",
          "topics": [
            "0xddf252ad1be2c89b69c2b068fc378daa952ba7f163c4a11628f55a4df523b3ef",
            "0x00000000000000000000000082f7a247ceeb62af5c5c8021c1f6dcf83b48a97f",
            "0x000000000000000000000000deaa322f2b12c8df4634bcde680fca4f3f3f80eb"
          ],
          "data": "0x00000000000000000000000000000000000000000000000000000000000f796e",
          "blockHash": "0x00312247ff76526f566db3dcbdcc09f16f96b10cedaa5926550d50641738e5c3",
          "blockNumber": "0x37f14e0",
          "transactionHash": "0x2ff5483d031a3d483d01fb5318a7526c778b0ed99131991830f9c31fc3846a9c",
          "transactionIndex": "0x83",
          "logIndex": "0x1a1",
          "removed": false
        },
        {
          "address": "0x82f7a247ceeb62af5c5c8021c1f6dcf83b48a97f",
          "topics": [
            "0x1c411e9a96e071241c2f21f7726b17ae89e3cab4c78be50e062b03a9fffbbad1"
          ],
          "data": "0x0000000000000000000000000000000000000000000000002914aa58d60a05f700000000000000000000000000000000000000000000000000000000002e6d38",
          "blockHash": "0x00312247ff76526f566db3dcbdcc09f16f96b10cedaa5926550d50641738e5c3",
          "blockNumber": "0x37f14e0",
          "transactionHash": "0x2ff5483d031a3d483d01fb5318a7526c778b0ed99131991830f9c31fc3846a9c",
          "transactionIndex": "0x83",
          "logIndex": "0x1a2",
          "removed": false
        },
        {
          "address": "0x82f7a247ceeb62af5c5c8021c1f6dcf83b48a97f",
          "topics": [
            "0xdccd412f0b1252819cb1fd330b93224ca42612892bb3f4f789976e6d81936496",
            "0x000000000000000000000000a5e0829caced8ffdd4de3c43696c57f7d7a678ff",
            "0x000000000000000000000000deaa322f2b12c8df4634bcde680fca4f3f3f80eb"
          ],
          "data": "0x0000000000000000000000000000000000000000000000000db147fbf24fd5c400000000000000000000000000000000000000000000000000000000000f796e",
          "blockHash": "0x00312247ff76526f566db3dcbdcc09f16f96b10cedaa5926550d50641738e5c3",
          "blockNumber": "0x37f14e0",
          "transactionHash": "0x2ff5483d031a3d483d01fb5318a7526c778b0ed99131991830f9c31fc3846a9c",
          "transactionIndex": "0x83",
          "logIndex": "0x1a3",
          "removed": false
        },
        {
          "address": "0x0000000000000000000000000000000000001010",
          "topics": [
            "0x4dfe1bbbcf077ddc3e01291eea2d5c70c2b422b415d95645b9adcfd678cb1d63",
            "0x0000000000000000000000000000000000000000000000000000000000001010",
            "0x0000000000000000000000001b395389386f3f2a27866dad8f7ddbb31c392e66",
            "0x000000000000000000000000dfe6ad10265afc05831b332fda6f5bc1ad9d79ce"
          ],
          "data": "0x00000000000000000000000000000000000000000000000000149f2e20b110000000000000000000000000000000000000000000000000007adc90dad466b3cc00000000000000000000000000000000000000000000001e2fce39fb61a42b910000000000000000000000000000000000000000000000007ac7f1acb3b5a3cc00000000000000000000000000000000000000000000001e2fe2d92982553b91",
          "blockHash": "0x00312247ff76526f566db3dcbdcc09f16f96b10cedaa5926550d50641738e5c3",
          "blockNumber": "0x37f14e0",
          "transactionHash": "0x2ff5483d031a3d483d01fb5318a7526c778b0ed99131991830f9c31fc3846a9c",
          "transactionIndex": "0x83",
          "logIndex": "0x1a4",
          "removed": false
        }
      ],
      "logsBloom": "0x0000000000000000000000048000000000000000000080000001000000000000000000000000000000000002000c000100008000000000000000000000200000200000000000000000080008000040800004000000000000000100000000000000000006020082000000000004000801000001000000000080000010000000800000010000080000000000000000080000000000000000080000000000000000220200000000004000000000000000000000000000000000000000002000004100000002000000000001000000000000400000000000001000100100000024000010000000000000000000000000000002000000000000000000000000100000",
      "type": "0x2",
      "transactionHash": "0x2ff5483d031a3d483d01fb5318a7526c778b0ed99131991830f9c31fc3846a9c",
      "transactionIndex": "0x83",
      "blockHash": "0x00312247ff76526f566db3dcbdcc09f16f96b10cedaa5926550d50641738e5c3",
      "blockNumber": "0x37f14e0",
      "gasUsed": "0x2f3cc",
      "effectiveGasPrice": "0x6fc23fa8a",
      "from": "0x1b395389386f3f2a27866dad8f7ddbb31c392e66",
      "to": "0xdeaa322f2b12c8df4634bcde680fca4f3f3f80eb",
      "contractAddress": null
    }
  ],
  "libraries": [],
  "pending": [],
  "returns": {
    "0": {
      "internal_type": "contract UniswapLiquidityPool",
      "value": "0xdeaA322F2b12c8dF4634BCdE680FCA4F3F3F80Eb"
    }
  },
  "timestamp": 1719471850,
  "chain": 137,
  "commit": "c407ab6"
}